{
  "contractName": "DataLayout",
  "abi": [
    {
      "inputs": [],
      "name": "initialized",
      "outputs": [
        {
          "internalType": "bool",
          "name": "",
          "type": "bool"
        }
      ],
      "stateMutability": "view",
      "type": "function"
    },
    {
      "inputs": [
        {
          "internalType": "uint32",
          "name": "",
          "type": "uint32"
        }
      ],
      "name": "monster",
      "outputs": [
        {
          "internalType": "string",
          "name": "name",
          "type": "string"
        },
        {
          "internalType": "string",
          "name": "monsterType",
          "type": "string"
        },
        {
          "internalType": "uint32",
          "name": "evolutionLevel",
          "type": "uint32"
        },
        {
          "internalType": "uint32",
          "name": "evolvesInto",
          "type": "uint32"
        },
        {
          "internalType": "string",
          "name": "rarity",
          "type": "string"
        },
        {
          "internalType": "string",
          "name": "imageLink",
          "type": "string"
        },
        {
          "internalType": "uint32",
          "name": "yieldBoost",
          "type": "uint32"
        }
      ],
      "stateMutability": "view",
      "type": "function"
    },
    {
      "inputs": [],
      "name": "owner",
      "outputs": [
        {
          "internalType": "address",
          "name": "",
          "type": "address"
        }
      ],
      "stateMutability": "view",
      "type": "function"
    },
    {
      "inputs": [],
      "name": "topIndex",
      "outputs": [
        {
          "internalType": "uint32",
          "name": "",
          "type": "uint32"
        }
      ],
      "stateMutability": "view",
      "type": "function"
    },
    {
      "inputs": [],
      "name": "versusNFT",
      "outputs": [
        {
          "internalType": "address",
          "name": "",
          "type": "address"
        }
      ],
      "stateMutability": "view",
      "type": "function"
    }
  ],
  "bytecode": "0x60806040526000805460ff1916905534801561001a57600080fd5b5061050a8061002a6000396000f3fe608060405234801561001057600080fd5b50600436106100575760003560e01c80630a6108761461005c578063158ef93e1461007a5780638da5cb5b1461008f578063b82cb5ee146100a4578063ba147332146100ca575b600080fd5b6100646100d2565b6040516100719190610488565b60405180910390f35b6100826100de565b6040516100719190610403565b6100976100e7565b60405161007191906103ef565b6100b76100b2366004610379565b6100fb565b604051610071979695949392919061040e565b61009761036a565b60035463ffffffff1681565b60005460ff1681565b60005461010090046001600160a01b031681565b60026020526000908152604090208054819061011690610499565b80601f016020809104026020016040519081016040528092919081815260200182805461014290610499565b801561018f5780601f106101645761010080835404028352916020019161018f565b820191906000526020600020905b81548152906001019060200180831161017257829003601f168201915b5050505050908060010180546101a490610499565b80601f01602080910402602001604051908101604052809291908181526020018280546101d090610499565b801561021d5780601f106101f25761010080835404028352916020019161021d565b820191906000526020600020905b81548152906001019060200180831161020057829003601f168201915b505050506004830154600584018054939463ffffffff808416956401000000009094041693509161024d90610499565b80601f016020809104026020016040519081016040528092919081815260200182805461027990610499565b80156102c65780601f1061029b576101008083540402835291602001916102c6565b820191906000526020600020905b8154815290600101906020018083116102a957829003601f168201915b5050505050908060060180546102db90610499565b80601f016020809104026020016040519081016040528092919081815260200182805461030790610499565b80156103545780601f1061032957610100808354040283529160200191610354565b820191906000526020600020905b81548152906001019060200180831161033757829003601f168201915b5050506007909301549192505063ffffffff1687565b6001546001600160a01b031681565b60006020828403121561038a578081fd5b813563ffffffff8116811461039d578182fd5b9392505050565b60008151808452815b818110156103c9576020818501810151868301820152016103ad565b818111156103da5782602083870101525b50601f01601f19169290920160200192915050565b6001600160a01b0391909116815260200190565b901515815260200190565b600060e0825261042160e083018a6103a4565b8281036020840152610433818a6103a4565b905063ffffffff80891660408501528088166060850152838203608085015261045c82886103a4565b915083820360a085015261047082876103a4565b925080851660c0850152505098975050505050505050565b63ffffffff91909116815260200190565b6002810460018216806104ad57607f821691505b602082108114156104ce57634e487b7160e01b600052602260045260246000fd5b5091905056fea26469706673582212207b88885aa56e2082a7cbd6ef4c38586667c89a4b73a3e368944ce37c764de46664736f6c63430008000033",
  "immutableReferences": {},
  "source": "pragma solidity ^0.8.0;\r\n\r\nimport \"@openzeppelin/contracts/utils/math/SafeMath.sol\";\r\n\r\ncontract Proxiable {\r\n    // Code position in storage is keccak256(\"PROXIABLE\") = \"0xc5f16f0fcc639fa48a6947836d9850f504798523bf8c9a3a87d5876cf622bcf7\"\r\n\r\n    function updateCodeAddress(address newAddress) internal {\r\n        require(\r\n            bytes32(0xc5f16f0fcc639fa48a6947836d9850f504798523bf8c9a3a87d5876cf622bcf7) == Proxiable(newAddress).proxiableUUID(),\r\n            \"Not compatible\"\r\n        );\r\n        assembly { // solium-disable-line\r\n            sstore(0xc5f16f0fcc639fa48a6947836d9850f504798523bf8c9a3a87d5876cf622bcf7, newAddress)\r\n        }\r\n    }\r\n    function proxiableUUID() public pure returns (bytes32) {\r\n        return 0xc5f16f0fcc639fa48a6947836d9850f504798523bf8c9a3a87d5876cf622bcf7;\r\n    }\r\n}\r\n\r\ncontract LibraryLockDataLayout {\r\n  bool public initialized = false;\r\n}\r\n\r\ncontract LibraryLock is LibraryLockDataLayout {\r\n    // Ensures no one can manipulate the Logic Contract once it is deployed.\r\n    // PARITY WALLET HACK PREVENTION\r\n\r\n    modifier delegatedOnly() {\r\n        require(initialized == true, \"The library is locked. No direct 'call' is allowed\");\r\n        _;\r\n    }\r\n    function initialize() internal {\r\n        initialized = true;\r\n    }\r\n}\r\n\r\ncontract DataLayout is LibraryLock {\r\n    address public owner;\r\n    address public versusNFT;\r\n    struct monsterStruct {\r\n        string name;\r\n        string monsterType;\r\n        uint[] levelUpRequirements;\r\n        uint32[] statRanges;\r\n        uint32 evolutionLevel;\r\n        uint32 evolvesInto;\r\n        string rarity;\r\n        string imageLink;\r\n        uint32 yieldBoost;\r\n    }\r\n    mapping(uint32 => monsterStruct) public monster;\r\n    uint32 public topIndex;\r\n} \r\n\r\ncontract MonsterList is DataLayout, Proxiable {\r\n    using SafeMath for uint256;\r\n    \r\n    modifier _onlyOwner() {\r\n        require(msg.sender == owner);\r\n        _;\r\n    }\r\n\r\n    constructor() public {\r\n        \r\n    }\r\n\r\n    function MonsterConstructor(address _versusNFT) public payable {\r\n        require(!initialized);\r\n        owner = msg.sender;\r\n        versusNFT = _versusNFT;\r\n        initialize();\r\n    }\r\n\r\n    function updateCode(address newCode) public _onlyOwner delegatedOnly  {\r\n        updateCodeAddress(newCode);\r\n    }\r\n\r\n    function setOwner(address _owner) public _onlyOwner delegatedOnly {\r\n        owner = _owner;\r\n    }\r\n\r\n    function createMonster(\r\n        string memory name,\r\n        string memory monsterType,\r\n        uint[] memory levelRequirements,\r\n        uint32[] memory statRanges,\r\n        uint32 evolutionLevel,\r\n        uint32 evolvesInto,\r\n        string memory rarity,\r\n        string memory imageLink,\r\n        uint32 yieldBoost\r\n    ) public _onlyOwner delegatedOnly {\r\n        monster[topIndex+1].name = name;\r\n        monster[topIndex+1].monsterType = monsterType;\r\n        monster[topIndex+1].levelUpRequirements = levelRequirements;\r\n        monster[topIndex+1].statRanges = statRanges;\r\n        monster[topIndex+1].evolutionLevel = evolutionLevel;\r\n        monster[topIndex+1].evolvesInto = evolvesInto;\r\n        monster[topIndex+1].rarity = rarity;\r\n        monster[topIndex+1].imageLink = imageLink;\r\n        monster[topIndex+1].yieldBoost = yieldBoost;\r\n        topIndex = topIndex+1;\r\n    }\r\n\r\n    function editName(\r\n        uint32 index,\r\n        string memory name\r\n    ) public _onlyOwner delegatedOnly {\r\n        monster[index].name = name;\r\n    }\r\n\r\n    function editType(\r\n        uint32 index,\r\n        string memory monsterType\r\n    ) public _onlyOwner delegatedOnly {\r\n        monster[index].monsterType = monsterType;\r\n    }\r\n\r\n    function editLevelRequirements(\r\n        uint32 index,\r\n        uint[] memory levelRequirements\r\n    ) public _onlyOwner delegatedOnly {\r\n        monster[index].levelUpRequirements = levelRequirements;\r\n    }\r\n\r\n    function editStatRanges(\r\n        uint32 index,\r\n        uint32[] memory statRanges\r\n    ) public _onlyOwner delegatedOnly {\r\n        monster[index].statRanges = statRanges;\r\n    }\r\n\r\n    function editEvolutionLevel(\r\n        uint32 index,\r\n        uint32 evolutionLevel\r\n    ) public _onlyOwner delegatedOnly {\r\n        monster[index].evolutionLevel = evolutionLevel;\r\n    }\r\n\r\n    function editEvolvesInto(\r\n        uint32 index,\r\n        uint32 evolvesInto\r\n    ) public _onlyOwner delegatedOnly {\r\n        monster[index].evolvesInto = evolvesInto;\r\n    }\r\n\r\n    function editRarity(\r\n        uint32 index,\r\n        string memory rarity\r\n    ) public _onlyOwner delegatedOnly {\r\n        monster[index].rarity = rarity;\r\n    }\r\n\r\n    function editImageLink(\r\n        uint32 index,\r\n        string memory imageLink\r\n    ) public _onlyOwner delegatedOnly {\r\n        monster[index].imageLink = imageLink;\r\n    }\r\n\r\n    function editYieldBoost(\r\n        uint32 index,\r\n        uint32 yieldBoost\r\n    ) public _onlyOwner delegatedOnly {\r\n        monster[index].yieldBoost = yieldBoost;\r\n    }\r\n\r\n    function getName(uint32 index) public returns(string memory) {\r\n        return monster[index].name;\r\n    }\r\n\r\n    function getMonsterType(uint32 index) public returns(string memory) {\r\n        return monster[index].monsterType;\r\n    }\r\n\r\n    function getLevelRequirements(uint32 index) public returns(uint[] memory) {\r\n        return monster[index].levelUpRequirements;\r\n    }\r\n    \r\n    function getStatRanges(uint32 index) public returns(uint32[] memory) {\r\n        return monster[index].statRanges;\r\n    }\r\n\r\n    function getEvolutionLevel(uint32 index) public returns(uint32) {\r\n        return monster[index].evolutionLevel;\r\n    }\r\n\r\n    function getEvolution(uint32 index) public returns(uint32) {\r\n        return monster[index].evolvesInto;\r\n    }\r\n\r\n    function getRarity(uint32 index) public returns(string memory) {\r\n        return monster[index].rarity;\r\n    }\r\n\r\n    function getImageLink(uint32 index) public returns(string memory) {\r\n        return monster[index].imageLink;\r\n    }\r\n\r\n    function getYieldBoost(uint32 index) public returns(uint32) {\r\n        return monster[index].yieldBoost;\r\n    }\r\n    \r\n}",
  "sourcePath": "C:/Users/razgriz/Documents/GitHub/Versus/contracts/contracts/MonsterList.sol",
  "compiler": {
    "name": "solc",
    "version": "0.8.0+commit.c7dfd78e.Emscripten.clang"
  },
  "schemaVersion": "3.3.3",
  "updatedAt": "2021-09-01T22:52:14.880Z",
  "devdoc": {
    "kind": "dev",
    "methods": {},
    "version": 1
  },
  "userdoc": {
    "kind": "user",
    "methods": {},
    "version": 1
  }
}