{
  "contractName": "LibraryLock",
  "abi": [
    {
      "inputs": [],
      "name": "initialized",
      "outputs": [
        {
          "internalType": "bool",
          "name": "",
          "type": "bool"
        }
      ],
      "stateMutability": "view",
      "type": "function"
    }
  ],
  "bytecode": "0x60806040526000805460ff19169055348015601957600080fd5b506091806100286000396000f3fe6080604052348015600f57600080fd5b506004361060285760003560e01c8063158ef93e14602d575b600080fd5b60336047565b604051603e91906050565b60405180910390f35b60005460ff1681565b90151581526020019056fea2646970667358221220ac922498b4946578c21fcbfaba1914b206aaac67f41cb247fdc220acb8f3ecd564736f6c63430008000033",
  "immutableReferences": {},
  "source": "pragma solidity ^0.8.0;\r\n\r\nimport \"@openzeppelin/contracts/utils/math/SafeMath.sol\";\r\n\r\ncontract Proxiable {\r\n    // Code position in storage is keccak256(\"PROXIABLE\") = \"0xc5f16f0fcc639fa48a6947836d9850f504798523bf8c9a3a87d5876cf622bcf7\"\r\n\r\n    function updateCodeAddress(address newAddress) internal {\r\n        require(\r\n            bytes32(0xc5f16f0fcc639fa48a6947836d9850f504798523bf8c9a3a87d5876cf622bcf7) == Proxiable(newAddress).proxiableUUID(),\r\n            \"Not compatible\"\r\n        );\r\n        assembly { // solium-disable-line\r\n            sstore(0xc5f16f0fcc639fa48a6947836d9850f504798523bf8c9a3a87d5876cf622bcf7, newAddress)\r\n        }\r\n    }\r\n    function proxiableUUID() public pure returns (bytes32) {\r\n        return 0xc5f16f0fcc639fa48a6947836d9850f504798523bf8c9a3a87d5876cf622bcf7;\r\n    }\r\n}\r\n\r\ncontract LibraryLockDataLayout {\r\n  bool public initialized = false;\r\n}\r\n\r\ncontract LibraryLock is LibraryLockDataLayout {\r\n    // Ensures no one can manipulate the Logic Contract once it is deployed.\r\n    // PARITY WALLET HACK PREVENTION\r\n\r\n    modifier delegatedOnly() {\r\n        require(initialized == true, \"The library is locked. No direct 'call' is allowed\");\r\n        _;\r\n    }\r\n    function initialize() internal {\r\n        initialized = true;\r\n    }\r\n}\r\n\r\ncontract DataLayout is LibraryLock {\r\n    address public owner;\r\n    address public versusNFT;\r\n    struct monsterStruct {\r\n        string name;\r\n        string monsterType;\r\n        uint[] levelUpRequirements;\r\n        uint32[] statRanges;\r\n        uint32 evolutionLevel;\r\n        uint32 evolvesInto;\r\n        string rarity;\r\n        string imageLink;\r\n        uint32 yieldBoost;\r\n    }\r\n    mapping(uint32 => monsterStruct) public monster;\r\n    uint32 public topIndex;\r\n} \r\n\r\ncontract MonsterList is DataLayout, Proxiable {\r\n    using SafeMath for uint256;\r\n    \r\n    modifier _onlyOwner() {\r\n        require(msg.sender == owner);\r\n        _;\r\n    }\r\n\r\n    constructor() public {\r\n        \r\n    }\r\n\r\n    function MonsterConstructor(address _versusNFT) public payable {\r\n        require(!initialized);\r\n        owner = msg.sender;\r\n        versusNFT = _versusNFT;\r\n        initialize();\r\n    }\r\n\r\n    function updateCode(address newCode) public _onlyOwner delegatedOnly  {\r\n        updateCodeAddress(newCode);\r\n    }\r\n\r\n    function setOwner(address _owner) public _onlyOwner delegatedOnly {\r\n        owner = _owner;\r\n    }\r\n\r\n    function createMonster(\r\n        string memory name,\r\n        string memory monsterType,\r\n        uint[] memory levelRequirements,\r\n        uint32[] memory statRanges,\r\n        uint32 evolutionLevel,\r\n        uint32 evolvesInto,\r\n        string memory rarity,\r\n        string memory imageLink,\r\n        uint32 yieldBoost\r\n    ) public _onlyOwner delegatedOnly {\r\n        monster[topIndex+1].name = name;\r\n        monster[topIndex+1].monsterType = monsterType;\r\n        monster[topIndex+1].levelUpRequirements = levelRequirements;\r\n        monster[topIndex+1].statRanges = statRanges;\r\n        monster[topIndex+1].evolutionLevel = evolutionLevel;\r\n        monster[topIndex+1].evolvesInto = evolvesInto;\r\n        monster[topIndex+1].rarity = rarity;\r\n        monster[topIndex+1].imageLink = imageLink;\r\n        monster[topIndex+1].yieldBoost = yieldBoost;\r\n        topIndex = topIndex+1;\r\n    }\r\n\r\n    function editName(\r\n        uint32 index,\r\n        string memory name\r\n    ) public _onlyOwner delegatedOnly {\r\n        monster[index].name = name;\r\n    }\r\n\r\n    function editType(\r\n        uint32 index,\r\n        string memory monsterType\r\n    ) public _onlyOwner delegatedOnly {\r\n        monster[index].monsterType = monsterType;\r\n    }\r\n\r\n    function editLevelRequirements(\r\n        uint32 index,\r\n        uint[] memory levelRequirements\r\n    ) public _onlyOwner delegatedOnly {\r\n        monster[index].levelUpRequirements = levelRequirements;\r\n    }\r\n\r\n    function editStatRanges(\r\n        uint32 index,\r\n        uint32[] memory statRanges\r\n    ) public _onlyOwner delegatedOnly {\r\n        monster[index].statRanges = statRanges;\r\n    }\r\n\r\n    function editEvolutionLevel(\r\n        uint32 index,\r\n        uint32 evolutionLevel\r\n    ) public _onlyOwner delegatedOnly {\r\n        monster[index].evolutionLevel = evolutionLevel;\r\n    }\r\n\r\n    function editEvolvesInto(\r\n        uint32 index,\r\n        uint32 evolvesInto\r\n    ) public _onlyOwner delegatedOnly {\r\n        monster[index].evolvesInto = evolvesInto;\r\n    }\r\n\r\n    function editRarity(\r\n        uint32 index,\r\n        string memory rarity\r\n    ) public _onlyOwner delegatedOnly {\r\n        monster[index].rarity = rarity;\r\n    }\r\n\r\n    function editImageLink(\r\n        uint32 index,\r\n        string memory imageLink\r\n    ) public _onlyOwner delegatedOnly {\r\n        monster[index].imageLink = imageLink;\r\n    }\r\n\r\n    function editYieldBoost(\r\n        uint32 index,\r\n        uint32 yieldBoost\r\n    ) public _onlyOwner delegatedOnly {\r\n        monster[index].yieldBoost = yieldBoost;\r\n    }\r\n\r\n    function getName(uint32 index) public returns(string memory) {\r\n        return monster[index].name;\r\n    }\r\n\r\n    function getMonsterType(uint32 index) public returns(string memory) {\r\n        return monster[index].monsterType;\r\n    }\r\n\r\n    function getLevelRequirements(uint32 index) public returns(uint[] memory) {\r\n        return monster[index].levelUpRequirements;\r\n    }\r\n    \r\n    function getStatRanges(uint32 index) public returns(uint32[] memory) {\r\n        return monster[index].statRanges;\r\n    }\r\n\r\n    function getEvolutionLevel(uint32 index) public returns(uint32) {\r\n        return monster[index].evolutionLevel;\r\n    }\r\n\r\n    function getEvolution(uint32 index) public returns(uint32) {\r\n        return monster[index].evolvesInto;\r\n    }\r\n\r\n    function getRarity(uint32 index) public returns(string memory) {\r\n        return monster[index].rarity;\r\n    }\r\n\r\n    function getImageLink(uint32 index) public returns(string memory) {\r\n        return monster[index].imageLink;\r\n    }\r\n\r\n    function getYieldBoost(uint32 index) public returns(uint32) {\r\n        return monster[index].yieldBoost;\r\n    }\r\n    \r\n}",
  "sourcePath": "C:/Users/razgriz/Documents/GitHub/Versus/contracts/contracts/MonsterList.sol",
  "compiler": {
    "name": "solc",
    "version": "0.8.0+commit.c7dfd78e.Emscripten.clang"
  },
  "schemaVersion": "3.3.3",
  "updatedAt": "2021-09-01T22:52:14.900Z",
  "devdoc": {
    "kind": "dev",
    "methods": {},
    "version": 1
  },
  "userdoc": {
    "kind": "user",
    "methods": {},
    "version": 1
  }
}