{
  "contractName": "MonsterList",
  "abi": [
    {
      "inputs": [],
      "stateMutability": "nonpayable",
      "type": "constructor"
    },
    {
      "inputs": [],
      "name": "initialized",
      "outputs": [
        {
          "internalType": "bool",
          "name": "",
          "type": "bool"
        }
      ],
      "stateMutability": "view",
      "type": "function"
    },
    {
      "inputs": [
        {
          "internalType": "uint32",
          "name": "",
          "type": "uint32"
        }
      ],
      "name": "monster",
      "outputs": [
        {
          "internalType": "string",
          "name": "name",
          "type": "string"
        },
        {
          "internalType": "string",
          "name": "monsterType",
          "type": "string"
        },
        {
          "internalType": "uint32",
          "name": "evolutionLevel",
          "type": "uint32"
        },
        {
          "internalType": "uint32",
          "name": "evolvesInto",
          "type": "uint32"
        },
        {
          "internalType": "string",
          "name": "rarity",
          "type": "string"
        },
        {
          "internalType": "string",
          "name": "imageLink",
          "type": "string"
        },
        {
          "internalType": "uint32",
          "name": "yieldBoost",
          "type": "uint32"
        }
      ],
      "stateMutability": "view",
      "type": "function"
    },
    {
      "inputs": [],
      "name": "owner",
      "outputs": [
        {
          "internalType": "address",
          "name": "",
          "type": "address"
        }
      ],
      "stateMutability": "view",
      "type": "function"
    },
    {
      "inputs": [],
      "name": "proxiableUUID",
      "outputs": [
        {
          "internalType": "bytes32",
          "name": "",
          "type": "bytes32"
        }
      ],
      "stateMutability": "pure",
      "type": "function"
    },
    {
      "inputs": [],
      "name": "topIndex",
      "outputs": [
        {
          "internalType": "uint32",
          "name": "",
          "type": "uint32"
        }
      ],
      "stateMutability": "view",
      "type": "function"
    },
    {
      "inputs": [],
      "name": "versusNFT",
      "outputs": [
        {
          "internalType": "address",
          "name": "",
          "type": "address"
        }
      ],
      "stateMutability": "view",
      "type": "function"
    },
    {
      "inputs": [
        {
          "internalType": "address",
          "name": "_versusNFT",
          "type": "address"
        }
      ],
      "name": "MonsterConstructor",
      "outputs": [],
      "stateMutability": "payable",
      "type": "function"
    },
    {
      "inputs": [
        {
          "internalType": "address",
          "name": "newCode",
          "type": "address"
        }
      ],
      "name": "updateCode",
      "outputs": [],
      "stateMutability": "nonpayable",
      "type": "function"
    },
    {
      "inputs": [
        {
          "internalType": "address",
          "name": "_owner",
          "type": "address"
        }
      ],
      "name": "setOwner",
      "outputs": [],
      "stateMutability": "nonpayable",
      "type": "function"
    },
    {
      "inputs": [
        {
          "internalType": "string",
          "name": "name",
          "type": "string"
        },
        {
          "internalType": "string",
          "name": "monsterType",
          "type": "string"
        },
        {
          "internalType": "uint256[]",
          "name": "levelRequirements",
          "type": "uint256[]"
        },
        {
          "internalType": "uint32[]",
          "name": "statRanges",
          "type": "uint32[]"
        },
        {
          "internalType": "uint32",
          "name": "evolutionLevel",
          "type": "uint32"
        },
        {
          "internalType": "uint32",
          "name": "evolvesInto",
          "type": "uint32"
        },
        {
          "internalType": "string",
          "name": "rarity",
          "type": "string"
        },
        {
          "internalType": "string",
          "name": "imageLink",
          "type": "string"
        },
        {
          "internalType": "uint32",
          "name": "yieldBoost",
          "type": "uint32"
        }
      ],
      "name": "createMonster",
      "outputs": [],
      "stateMutability": "nonpayable",
      "type": "function"
    },
    {
      "inputs": [
        {
          "internalType": "uint32",
          "name": "index",
          "type": "uint32"
        },
        {
          "internalType": "string",
          "name": "name",
          "type": "string"
        }
      ],
      "name": "editName",
      "outputs": [],
      "stateMutability": "nonpayable",
      "type": "function"
    },
    {
      "inputs": [
        {
          "internalType": "uint32",
          "name": "index",
          "type": "uint32"
        },
        {
          "internalType": "string",
          "name": "monsterType",
          "type": "string"
        }
      ],
      "name": "editType",
      "outputs": [],
      "stateMutability": "nonpayable",
      "type": "function"
    },
    {
      "inputs": [
        {
          "internalType": "uint32",
          "name": "index",
          "type": "uint32"
        },
        {
          "internalType": "uint256[]",
          "name": "levelRequirements",
          "type": "uint256[]"
        }
      ],
      "name": "editLevelRequirements",
      "outputs": [],
      "stateMutability": "nonpayable",
      "type": "function"
    },
    {
      "inputs": [
        {
          "internalType": "uint32",
          "name": "index",
          "type": "uint32"
        },
        {
          "internalType": "uint32[]",
          "name": "statRanges",
          "type": "uint32[]"
        }
      ],
      "name": "editStatRanges",
      "outputs": [],
      "stateMutability": "nonpayable",
      "type": "function"
    },
    {
      "inputs": [
        {
          "internalType": "uint32",
          "name": "index",
          "type": "uint32"
        },
        {
          "internalType": "uint32",
          "name": "evolutionLevel",
          "type": "uint32"
        }
      ],
      "name": "editEvolutionLevel",
      "outputs": [],
      "stateMutability": "nonpayable",
      "type": "function"
    },
    {
      "inputs": [
        {
          "internalType": "uint32",
          "name": "index",
          "type": "uint32"
        },
        {
          "internalType": "uint32",
          "name": "evolvesInto",
          "type": "uint32"
        }
      ],
      "name": "editEvolvesInto",
      "outputs": [],
      "stateMutability": "nonpayable",
      "type": "function"
    },
    {
      "inputs": [
        {
          "internalType": "uint32",
          "name": "index",
          "type": "uint32"
        },
        {
          "internalType": "string",
          "name": "rarity",
          "type": "string"
        }
      ],
      "name": "editRarity",
      "outputs": [],
      "stateMutability": "nonpayable",
      "type": "function"
    },
    {
      "inputs": [
        {
          "internalType": "uint32",
          "name": "index",
          "type": "uint32"
        },
        {
          "internalType": "string",
          "name": "imageLink",
          "type": "string"
        }
      ],
      "name": "editImageLink",
      "outputs": [],
      "stateMutability": "nonpayable",
      "type": "function"
    },
    {
      "inputs": [
        {
          "internalType": "uint32",
          "name": "index",
          "type": "uint32"
        },
        {
          "internalType": "uint32",
          "name": "yieldBoost",
          "type": "uint32"
        }
      ],
      "name": "editYieldBoost",
      "outputs": [],
      "stateMutability": "nonpayable",
      "type": "function"
    },
    {
      "inputs": [
        {
          "internalType": "uint32",
          "name": "index",
          "type": "uint32"
        }
      ],
      "name": "getName",
      "outputs": [
        {
          "internalType": "string",
          "name": "",
          "type": "string"
        }
      ],
      "stateMutability": "nonpayable",
      "type": "function"
    },
    {
      "inputs": [
        {
          "internalType": "uint32",
          "name": "index",
          "type": "uint32"
        }
      ],
      "name": "getMonsterType",
      "outputs": [
        {
          "internalType": "string",
          "name": "",
          "type": "string"
        }
      ],
      "stateMutability": "nonpayable",
      "type": "function"
    },
    {
      "inputs": [
        {
          "internalType": "uint32",
          "name": "index",
          "type": "uint32"
        }
      ],
      "name": "getLevelRequirements",
      "outputs": [
        {
          "internalType": "uint256[]",
          "name": "",
          "type": "uint256[]"
        }
      ],
      "stateMutability": "nonpayable",
      "type": "function"
    },
    {
      "inputs": [
        {
          "internalType": "uint32",
          "name": "index",
          "type": "uint32"
        }
      ],
      "name": "getStatRanges",
      "outputs": [
        {
          "internalType": "uint32[]",
          "name": "",
          "type": "uint32[]"
        }
      ],
      "stateMutability": "nonpayable",
      "type": "function"
    },
    {
      "inputs": [
        {
          "internalType": "uint32",
          "name": "index",
          "type": "uint32"
        }
      ],
      "name": "getEvolutionLevel",
      "outputs": [
        {
          "internalType": "uint32",
          "name": "",
          "type": "uint32"
        }
      ],
      "stateMutability": "nonpayable",
      "type": "function"
    },
    {
      "inputs": [
        {
          "internalType": "uint32",
          "name": "index",
          "type": "uint32"
        }
      ],
      "name": "getEvolution",
      "outputs": [
        {
          "internalType": "uint32",
          "name": "",
          "type": "uint32"
        }
      ],
      "stateMutability": "nonpayable",
      "type": "function"
    },
    {
      "inputs": [
        {
          "internalType": "uint32",
          "name": "index",
          "type": "uint32"
        }
      ],
      "name": "getRarity",
      "outputs": [
        {
          "internalType": "string",
          "name": "",
          "type": "string"
        }
      ],
      "stateMutability": "nonpayable",
      "type": "function"
    },
    {
      "inputs": [
        {
          "internalType": "uint32",
          "name": "index",
          "type": "uint32"
        }
      ],
      "name": "getImageLink",
      "outputs": [
        {
          "internalType": "string",
          "name": "",
          "type": "string"
        }
      ],
      "stateMutability": "nonpayable",
      "type": "function"
    },
    {
      "inputs": [
        {
          "internalType": "uint32",
          "name": "index",
          "type": "uint32"
        }
      ],
      "name": "getYieldBoost",
      "outputs": [
        {
          "internalType": "uint32",
          "name": "",
          "type": "uint32"
        }
      ],
      "stateMutability": "nonpayable",
      "type": "function"
    }
  ],
  "bytecode": "0x60806040526000805460ff1916905534801561001a57600080fd5b50611c1f8061002a6000396000f3fe6080604052600436106101b65760003560e01c80636b9fdb2f116100ec578063b9328f4c1161008a578063d35ed58211610064578063d35ed582146104f0578063e560048114610510578063f03c169614610530578063f7054e4a14610550576101b6565b8063b9328f4c1461049b578063ba147332146104bb578063c30cfa38146104d0576101b6565b80638dc81db1116100c65780638dc81db1146103fb578063a83cc7461461041b578063aad1c45b1461043b578063b82cb5ee14610468576101b6565b80636b9fdb2f1461039957806375bfc706146103b95780638da5cb5b146103d9576101b6565b80633693f08411610159578063560938af11610133578063560938af14610326578063571d0840146103465780636266de52146103665780636b6c0d8214610386576101b6565b80633693f084146102c457806346951954146102e457806352d1902d14610304576101b6565b80630a610876116101955780630a6108761461024057806313af403514610262578063158ef93e146102825780631f0e6177146102a4576101b6565b8062940b08146101bb578063060c63f9146101f1578063079b10c01461021e575b600080fd5b3480156101c757600080fd5b506101db6101d63660046117ed565b610570565b6040516101e891906119fe565b60405180910390f35b3480156101fd57600080fd5b5061021161020c3660046117ed565b61061d565b6040516101e891906119ac565b34801561022a57600080fd5b5061023e610239366004611895565b6106b3565b005b34801561024c57600080fd5b5061025561072a565b6040516101e89190611b05565b34801561026e57600080fd5b5061023e61027d366004611685565b610736565b34801561028e57600080fd5b506102976107a1565b6040516101e891906119ea565b3480156102b057600080fd5b506102556102bf3660046117ed565b6107aa565b3480156102d057600080fd5b5061023e6102df3660046118d7565b6107c8565b3480156102f057600080fd5b5061023e6102ff366004611685565b610836565b34801561031057600080fd5b50610319610885565b6040516101e891906119f5565b34801561033257600080fd5b506102556103413660046117ed565b6108a9565b34801561035257600080fd5b5061023e6103613660046116cb565b6108cf565b34801561037257600080fd5b5061023e6103813660046118d7565b610bf0565b61023e610394366004611685565b610c5e565b3480156103a557600080fd5b5061023e6103b4366004611807565b610ca8565b3480156103c557600080fd5b5061023e6103d4366004611853565b610d17565b3480156103e557600080fd5b506103ee610d86565b6040516101e89190611954565b34801561040757600080fd5b506102556104163660046117ed565b610d9a565b34801561042757600080fd5b5061023e610436366004611895565b610db8565b34801561044757600080fd5b5061045b6104563660046117ed565b610e27565b6040516101e89190611968565b34801561047457600080fd5b506104886104833660046117ed565b610e92565b6040516101e89796959493929190611a11565b3480156104a757600080fd5b5061023e6104b6366004611895565b611101565b3480156104c757600080fd5b506103ee611170565b3480156104dc57600080fd5b506101db6104eb3660046117ed565b61117f565b3480156104fc57600080fd5b5061023e61050b3660046118d7565b6111a6565b34801561051c57600080fd5b506101db61052b3660046117ed565b611224565b34801561053c57600080fd5b506101db61054b3660046117ed565b611248565b34801561055c57600080fd5b5061023e61056b366004611895565b61126f565b63ffffffff8116600090815260026020526040902060010180546060919061059790611b98565b80601f01602080910402602001604051908101604052809291908181526020018280546105c390611b98565b80156106105780601f106105e557610100808354040283529160200191610610565b820191906000526020600020905b8154815290600101906020018083116105f357829003601f168201915b505050505090505b919050565b63ffffffff811660009081526002602090815260409182902060030180548351818402810184019094528084526060939283018282801561061057602002820191906000526020600020906000905b82829054906101000a900463ffffffff1663ffffffff168152602001906004019060208260030104928301926001038202915080841161066c575094979650505050505050565b60005461010090046001600160a01b031633146106cf57600080fd5b60005460ff1615156001146106ff5760405162461bcd60e51b81526004016106f690611ab3565b60405180910390fd5b63ffffffff821660009081526002602090815260409091208251610725928401906113c0565b505050565b60035463ffffffff1681565b60005461010090046001600160a01b0316331461075257600080fd5b60005460ff1615156001146107795760405162461bcd60e51b81526004016106f690611ab3565b600080546001600160a01b0390921661010002610100600160a81b0319909216919091179055565b60005460ff1681565b63ffffffff9081166000908152600260205260409020600701541690565b60005461010090046001600160a01b031633146107e457600080fd5b60005460ff16151560011461080b5760405162461bcd60e51b81526004016106f690611ab3565b63ffffffff9182166000908152600260205260409020600401805463ffffffff191691909216179055565b60005461010090046001600160a01b0316331461085257600080fd5b60005460ff1615156001146108795760405162461bcd60e51b81526004016106f690611ab3565b610882816112de565b50565b7fc5f16f0fcc639fa48a6947836d9850f504798523bf8c9a3a87d5876cf622bcf790565b63ffffffff90811660009081526002602052604090206004015464010000000090041690565b60005461010090046001600160a01b031633146108eb57600080fd5b60005460ff1615156001146109125760405162461bcd60e51b81526004016106f690611ab3565b600354899060029060009061092e9063ffffffff166001611b64565b63ffffffff168152602080820192909252604001600020825161095793919291909101906113c0565b5060035488906002906000906109749063ffffffff166001611b64565b63ffffffff1663ffffffff16815260200190815260200160002060010190805190602001906109a49291906113c0565b5060035487906002906000906109c19063ffffffff166001611b64565b63ffffffff1663ffffffff16815260200190815260200160002060020190805190602001906109f1929190611444565b506003548690600290600090610a0e9063ffffffff166001611b64565b63ffffffff1663ffffffff1681526020019081526020016000206003019080519060200190610a3e92919061147e565b506003548590600290600090610a5b9063ffffffff166001611b64565b63ffffffff908116825260208201929092526040016000908120600401805463ffffffff19169383169390931790925560035486926002929091610aa191166001611b64565b63ffffffff90811682526020820192909252604001600090812060040180549383166401000000000267ffffffff00000000199094169390931790925560035485926002929091610af491166001611b64565b63ffffffff1663ffffffff1681526020019081526020016000206005019080519060200190610b249291906113c0565b506003548290600290600090610b419063ffffffff166001611b64565b63ffffffff1663ffffffff1681526020019081526020016000206006019080519060200190610b719291906113c0565b506003548190600290600090610b8e9063ffffffff166001611b64565b63ffffffff90811682526020820192909252604001600020600701805463ffffffff191692821692909217909155600354610bcb91166001611b64565b6003805463ffffffff191663ffffffff92909216919091179055505050505050505050565b60005461010090046001600160a01b03163314610c0c57600080fd5b60005460ff161515600114610c335760405162461bcd60e51b81526004016106f690611ab3565b63ffffffff9182166000908152600260205260409020600701805463ffffffff191691909216179055565b60005460ff1615610c6e57600080fd5b60008054610100600160a81b0319163361010002179055600180546001600160a01b0319166001600160a01b0383161790556108826113b1565b60005461010090046001600160a01b03163314610cc457600080fd5b60005460ff161515600114610ceb5760405162461bcd60e51b81526004016106f690611ab3565b63ffffffff82166000908152600260208181526040909220835161072593919092019190840190611444565b60005461010090046001600160a01b03163314610d3357600080fd5b60005460ff161515600114610d5a5760405162461bcd60e51b81526004016106f690611ab3565b63ffffffff8216600090815260026020908152604090912082516107259260039092019184019061147e565b60005461010090046001600160a01b031681565b63ffffffff9081166000908152600260205260409020600401541690565b60005461010090046001600160a01b03163314610dd457600080fd5b60005460ff161515600114610dfb5760405162461bcd60e51b81526004016106f690611ab3565b63ffffffff821660009081526002602090815260409091208251610725926006909201918401906113c0565b63ffffffff811660009081526002602081815260409283902090910180548351818402810184019094528084526060939283018282801561061057602002820191906000526020600020905b815481526020019060010190808311610e735750505050509050919050565b600260205260009081526040902080548190610ead90611b98565b80601f0160208091040260200160405190810160405280929190818152602001828054610ed990611b98565b8015610f265780601f10610efb57610100808354040283529160200191610f26565b820191906000526020600020905b815481529060010190602001808311610f0957829003601f168201915b505050505090806001018054610f3b90611b98565b80601f0160208091040260200160405190810160405280929190818152602001828054610f6790611b98565b8015610fb45780601f10610f8957610100808354040283529160200191610fb4565b820191906000526020600020905b815481529060010190602001808311610f9757829003601f168201915b505050506004830154600584018054939463ffffffff8084169564010000000090940416935091610fe490611b98565b80601f016020809104026020016040519081016040528092919081815260200182805461101090611b98565b801561105d5780601f106110325761010080835404028352916020019161105d565b820191906000526020600020905b81548152906001019060200180831161104057829003601f168201915b50505050509080600601805461107290611b98565b80601f016020809104026020016040519081016040528092919081815260200182805461109e90611b98565b80156110eb5780601f106110c0576101008083540402835291602001916110eb565b820191906000526020600020905b8154815290600101906020018083116110ce57829003601f168201915b5050506007909301549192505063ffffffff1687565b60005461010090046001600160a01b0316331461111d57600080fd5b60005460ff1615156001146111445760405162461bcd60e51b81526004016106f690611ab3565b63ffffffff821660009081526002602090815260409091208251610725926001909201918401906113c0565b6001546001600160a01b031681565b63ffffffff8116600090815260026020526040902060050180546060919061059790611b98565b60005461010090046001600160a01b031633146111c257600080fd5b60005460ff1615156001146111e95760405162461bcd60e51b81526004016106f690611ab3565b63ffffffff91821660009081526002602052604090206004018054929091166401000000000267ffffffff0000000019909216919091179055565b63ffffffff8116600090815260026020526040902080546060919061059790611b98565b63ffffffff8116600090815260026020526040902060060180546060919061059790611b98565b60005461010090046001600160a01b0316331461128b57600080fd5b60005460ff1615156001146112b25760405162461bcd60e51b81526004016106f690611ab3565b63ffffffff821660009081526002602090815260409091208251610725926005909201918401906113c0565b806001600160a01b03166352d1902d6040518163ffffffff1660e01b815260040160206040518083038186803b15801561131757600080fd5b505afa15801561132b573d6000803e3d6000fd5b505050506040513d601f19601f8201168201806040525081019061134f91906116b3565b7fc5f16f0fcc639fa48a6947836d9850f504798523bf8c9a3a87d5876cf622bcf71461138d5760405162461bcd60e51b81526004016106f690611a8b565b7fc5f16f0fcc639fa48a6947836d9850f504798523bf8c9a3a87d5876cf622bcf755565b6000805460ff19166001179055565b8280546113cc90611b98565b90600052602060002090601f0160209004810192826113ee5760008555611434565b82601f1061140757805160ff1916838001178555611434565b82800160010185558215611434579182015b82811115611434578251825591602001919060010190611419565b50611440929150611524565b5090565b8280548282559060005260206000209081019282156114345791602002820182811115611434578251825591602001919060010190611419565b828054828255906000526020600020906007016008900481019282156114345791602002820160005b838211156114eb57835183826101000a81548163ffffffff021916908363ffffffff16021790555092602001926004016020816003010492830192600103026114a7565b801561151b5782816101000a81549063ffffffff02191690556004016020816003010492830192600103026114eb565b50506114409291505b5b808211156114405760008155600101611525565b600082601f830112611549578081fd5b8135602061155e61155983611b40565b611b16565b828152818101908583018385028701840188101561157a578586fd5b855b858110156115985781358452928401929084019060010161157c565b5090979650505050505050565b600082601f8301126115b5578081fd5b813560206115c561155983611b40565b82815281810190858301838502870184018810156115e1578586fd5b855b85811015611598576115f482611671565b845292840192908401906001016115e3565b600082601f830112611616578081fd5b813567ffffffffffffffff81111561163057611630611bd3565b611643601f8201601f1916602001611b16565b818152846020838601011115611657578283fd5b816020850160208301379081016020019190915292915050565b803563ffffffff8116811461061857600080fd5b600060208284031215611696578081fd5b81356001600160a01b03811681146116ac578182fd5b9392505050565b6000602082840312156116c4578081fd5b5051919050565b60008060008060008060008060006101208a8c0312156116e9578485fd5b893567ffffffffffffffff80821115611700578687fd5b61170c8d838e01611606565b9a5060208c0135915080821115611721578687fd5b61172d8d838e01611606565b995060408c0135915080821115611742578687fd5b61174e8d838e01611539565b985060608c0135915080821115611763578687fd5b61176f8d838e016115a5565b975061177d60808d01611671565b965061178b60a08d01611671565b955060c08c01359150808211156117a0578485fd5b6117ac8d838e01611606565b945060e08c01359150808211156117c1578384fd5b506117ce8c828d01611606565b9250506117de6101008b01611671565b90509295985092959850929598565b6000602082840312156117fe578081fd5b6116ac82611671565b60008060408385031215611819578182fd5b61182283611671565b9150602083013567ffffffffffffffff81111561183d578182fd5b61184985828601611539565b9150509250929050565b60008060408385031215611865578182fd5b61186e83611671565b9150602083013567ffffffffffffffff811115611889578182fd5b611849858286016115a5565b600080604083850312156118a7578182fd5b6118b083611671565b9150602083013567ffffffffffffffff8111156118cb578182fd5b61184985828601611606565b600080604083850312156118e9578182fd5b6118f283611671565b915061190060208401611671565b90509250929050565b60008151808452815b8181101561192e57602081850181015186830182015201611912565b8181111561193f5782602083870101525b50601f01601f19169290920160200192915050565b6001600160a01b0391909116815260200190565b6020808252825182820181905260009190848201906040850190845b818110156119a057835183529284019291840191600101611984565b50909695505050505050565b6020808252825182820181905260009190848201906040850190845b818110156119a057835163ffffffff16835292840192918401916001016119c8565b901515815260200190565b90815260200190565b6000602082526116ac6020830184611909565b600060e08252611a2460e083018a611909565b8281036020840152611a36818a611909565b905063ffffffff808916604085015280881660608501528382036080850152611a5f8288611909565b915083820360a0850152611a738287611909565b925080851660c0850152505098975050505050505050565b6020808252600e908201526d4e6f7420636f6d70617469626c6560901b604082015260600190565b60208082526032908201527f546865206c696272617279206973206c6f636b65642e204e6f206469726563746040820152710809d8d85b1b09c81a5cc8185b1b1bddd95960721b606082015260800190565b63ffffffff91909116815260200190565b60405181810167ffffffffffffffff81118282101715611b3857611b38611bd3565b604052919050565b600067ffffffffffffffff821115611b5a57611b5a611bd3565b5060209081020190565b600063ffffffff808316818516808303821115611b8f57634e487b7160e01b84526011600452602484fd5b01949350505050565b600281046001821680611bac57607f821691505b60208210811415611bcd57634e487b7160e01b600052602260045260246000fd5b50919050565b634e487b7160e01b600052604160045260246000fdfea26469706673582212203f4e8e58c25aa9ce86030d9b7131a2b1ed58d4393e3bd9c089ef8e8bc74961c664736f6c63430008000033",
  "immutableReferences": {},
  "source": "pragma solidity ^0.8.0;\r\n\r\nimport \"@openzeppelin/contracts/utils/math/SafeMath.sol\";\r\n\r\ncontract Proxiable {\r\n    // Code position in storage is keccak256(\"PROXIABLE\") = \"0xc5f16f0fcc639fa48a6947836d9850f504798523bf8c9a3a87d5876cf622bcf7\"\r\n\r\n    function updateCodeAddress(address newAddress) internal {\r\n        require(\r\n            bytes32(0xc5f16f0fcc639fa48a6947836d9850f504798523bf8c9a3a87d5876cf622bcf7) == Proxiable(newAddress).proxiableUUID(),\r\n            \"Not compatible\"\r\n        );\r\n        assembly { // solium-disable-line\r\n            sstore(0xc5f16f0fcc639fa48a6947836d9850f504798523bf8c9a3a87d5876cf622bcf7, newAddress)\r\n        }\r\n    }\r\n    function proxiableUUID() public pure returns (bytes32) {\r\n        return 0xc5f16f0fcc639fa48a6947836d9850f504798523bf8c9a3a87d5876cf622bcf7;\r\n    }\r\n}\r\n\r\ncontract LibraryLockDataLayout {\r\n  bool public initialized = false;\r\n}\r\n\r\ncontract LibraryLock is LibraryLockDataLayout {\r\n    // Ensures no one can manipulate the Logic Contract once it is deployed.\r\n    // PARITY WALLET HACK PREVENTION\r\n\r\n    modifier delegatedOnly() {\r\n        require(initialized == true, \"The library is locked. No direct 'call' is allowed\");\r\n        _;\r\n    }\r\n    function initialize() internal {\r\n        initialized = true;\r\n    }\r\n}\r\n\r\ncontract DataLayout is LibraryLock {\r\n    address public owner;\r\n    address public versusNFT;\r\n    struct monsterStruct {\r\n        string name;\r\n        string monsterType;\r\n        uint[] levelUpRequirements;\r\n        uint32[] statRanges;\r\n        uint32 evolutionLevel;\r\n        uint32 evolvesInto;\r\n        string rarity;\r\n        string imageLink;\r\n        uint32 yieldBoost;\r\n    }\r\n    mapping(uint32 => monsterStruct) public monster;\r\n    uint32 public topIndex;\r\n} \r\n\r\ncontract MonsterList is DataLayout, Proxiable {\r\n    using SafeMath for uint256;\r\n    \r\n    modifier _onlyOwner() {\r\n        require(msg.sender == owner);\r\n        _;\r\n    }\r\n\r\n    constructor() public {\r\n        \r\n    }\r\n\r\n    function MonsterConstructor(address _versusNFT) public payable {\r\n        require(!initialized);\r\n        owner = msg.sender;\r\n        versusNFT = _versusNFT;\r\n        initialize();\r\n    }\r\n\r\n    function updateCode(address newCode) public _onlyOwner delegatedOnly  {\r\n        updateCodeAddress(newCode);\r\n    }\r\n\r\n    function setOwner(address _owner) public _onlyOwner delegatedOnly {\r\n        owner = _owner;\r\n    }\r\n\r\n    function createMonster(\r\n        string memory name,\r\n        string memory monsterType,\r\n        uint[] memory levelRequirements,\r\n        uint32[] memory statRanges,\r\n        uint32 evolutionLevel,\r\n        uint32 evolvesInto,\r\n        string memory rarity,\r\n        string memory imageLink,\r\n        uint32 yieldBoost\r\n    ) public _onlyOwner delegatedOnly {\r\n        monster[topIndex+1].name = name;\r\n        monster[topIndex+1].monsterType = monsterType;\r\n        monster[topIndex+1].levelUpRequirements = levelRequirements;\r\n        monster[topIndex+1].statRanges = statRanges;\r\n        monster[topIndex+1].evolutionLevel = evolutionLevel;\r\n        monster[topIndex+1].evolvesInto = evolvesInto;\r\n        monster[topIndex+1].rarity = rarity;\r\n        monster[topIndex+1].imageLink = imageLink;\r\n        monster[topIndex+1].yieldBoost = yieldBoost;\r\n        topIndex = topIndex+1;\r\n    }\r\n\r\n    function editName(\r\n        uint32 index,\r\n        string memory name\r\n    ) public _onlyOwner delegatedOnly {\r\n        monster[index].name = name;\r\n    }\r\n\r\n    function editType(\r\n        uint32 index,\r\n        string memory monsterType\r\n    ) public _onlyOwner delegatedOnly {\r\n        monster[index].monsterType = monsterType;\r\n    }\r\n\r\n    function editLevelRequirements(\r\n        uint32 index,\r\n        uint[] memory levelRequirements\r\n    ) public _onlyOwner delegatedOnly {\r\n        monster[index].levelUpRequirements = levelRequirements;\r\n    }\r\n\r\n    function editStatRanges(\r\n        uint32 index,\r\n        uint32[] memory statRanges\r\n    ) public _onlyOwner delegatedOnly {\r\n        monster[index].statRanges = statRanges;\r\n    }\r\n\r\n    function editEvolutionLevel(\r\n        uint32 index,\r\n        uint32 evolutionLevel\r\n    ) public _onlyOwner delegatedOnly {\r\n        monster[index].evolutionLevel = evolutionLevel;\r\n    }\r\n\r\n    function editEvolvesInto(\r\n        uint32 index,\r\n        uint32 evolvesInto\r\n    ) public _onlyOwner delegatedOnly {\r\n        monster[index].evolvesInto = evolvesInto;\r\n    }\r\n\r\n    function editRarity(\r\n        uint32 index,\r\n        string memory rarity\r\n    ) public _onlyOwner delegatedOnly {\r\n        monster[index].rarity = rarity;\r\n    }\r\n\r\n    function editImageLink(\r\n        uint32 index,\r\n        string memory imageLink\r\n    ) public _onlyOwner delegatedOnly {\r\n        monster[index].imageLink = imageLink;\r\n    }\r\n\r\n    function editYieldBoost(\r\n        uint32 index,\r\n        uint32 yieldBoost\r\n    ) public _onlyOwner delegatedOnly {\r\n        monster[index].yieldBoost = yieldBoost;\r\n    }\r\n\r\n    function getName(uint32 index) public returns(string memory) {\r\n        return monster[index].name;\r\n    }\r\n\r\n    function getMonsterType(uint32 index) public returns(string memory) {\r\n        return monster[index].monsterType;\r\n    }\r\n\r\n    function getLevelRequirements(uint32 index) public returns(uint[] memory) {\r\n        return monster[index].levelUpRequirements;\r\n    }\r\n    \r\n    function getStatRanges(uint32 index) public returns(uint32[] memory) {\r\n        return monster[index].statRanges;\r\n    }\r\n\r\n    function getEvolutionLevel(uint32 index) public returns(uint32) {\r\n        return monster[index].evolutionLevel;\r\n    }\r\n\r\n    function getEvolution(uint32 index) public returns(uint32) {\r\n        return monster[index].evolvesInto;\r\n    }\r\n\r\n    function getRarity(uint32 index) public returns(string memory) {\r\n        return monster[index].rarity;\r\n    }\r\n\r\n    function getImageLink(uint32 index) public returns(string memory) {\r\n        return monster[index].imageLink;\r\n    }\r\n\r\n    function getYieldBoost(uint32 index) public returns(uint32) {\r\n        return monster[index].yieldBoost;\r\n    }\r\n    \r\n}",
  "sourcePath": "C:/Users/razgriz/Documents/GitHub/Versus/contracts/contracts/MonsterList.sol",
  "compiler": {
    "name": "solc",
    "version": "0.8.0+commit.c7dfd78e.Emscripten.clang"
  },
  "schemaVersion": "3.3.3",
  "updatedAt": "2021-09-01T22:53:22.075Z",
  "networkType": "ethereum",
  "devdoc": {
    "kind": "dev",
    "methods": {},
    "version": 1
  },
  "userdoc": {
    "kind": "user",
    "methods": {},
    "version": 1
  }
}