{
  "contractName": "SpotBattle",
  "abi": [
    {
      "inputs": [],
      "stateMutability": "nonpayable",
      "type": "constructor"
    },
    {
      "inputs": [
        {
          "internalType": "address",
          "name": "",
          "type": "address"
        },
        {
          "internalType": "uint256",
          "name": "",
          "type": "uint256"
        },
        {
          "internalType": "address",
          "name": "",
          "type": "address"
        }
      ],
      "name": "entrantData",
      "outputs": [
        {
          "internalType": "bool",
          "name": "",
          "type": "bool"
        }
      ],
      "stateMutability": "view",
      "type": "function"
    },
    {
      "inputs": [],
      "name": "initialized",
      "outputs": [
        {
          "internalType": "bool",
          "name": "",
          "type": "bool"
        }
      ],
      "stateMutability": "view",
      "type": "function"
    },
    {
      "inputs": [
        {
          "internalType": "address",
          "name": "",
          "type": "address"
        }
      ],
      "name": "marketData",
      "outputs": [
        {
          "internalType": "uint256",
          "name": "round",
          "type": "uint256"
        },
        {
          "internalType": "uint256",
          "name": "targetPrice",
          "type": "uint256"
        },
        {
          "internalType": "uint256",
          "name": "longBNB",
          "type": "uint256"
        },
        {
          "internalType": "uint256",
          "name": "shortBNB",
          "type": "uint256"
        },
        {
          "internalType": "uint256",
          "name": "roundEnd",
          "type": "uint256"
        },
        {
          "internalType": "uint256",
          "name": "nextRoundLong",
          "type": "uint256"
        },
        {
          "internalType": "uint256",
          "name": "nextRoundShort",
          "type": "uint256"
        }
      ],
      "stateMutability": "view",
      "type": "function"
    },
    {
      "inputs": [
        {
          "internalType": "uint256",
          "name": "",
          "type": "uint256"
        }
      ],
      "name": "markets",
      "outputs": [
        {
          "internalType": "address",
          "name": "",
          "type": "address"
        }
      ],
      "stateMutability": "view",
      "type": "function"
    },
    {
      "inputs": [],
      "name": "owner",
      "outputs": [
        {
          "internalType": "address",
          "name": "",
          "type": "address"
        }
      ],
      "stateMutability": "view",
      "type": "function"
    },
    {
      "inputs": [],
      "name": "proxiableUUID",
      "outputs": [
        {
          "internalType": "bytes32",
          "name": "",
          "type": "bytes32"
        }
      ],
      "stateMutability": "pure",
      "type": "function"
    },
    {
      "inputs": [],
      "name": "router",
      "outputs": [
        {
          "internalType": "address",
          "name": "",
          "type": "address"
        }
      ],
      "stateMutability": "view",
      "type": "function"
    },
    {
      "inputs": [],
      "name": "usdcAddress",
      "outputs": [
        {
          "internalType": "address",
          "name": "",
          "type": "address"
        }
      ],
      "stateMutability": "view",
      "type": "function"
    },
    {
      "inputs": [
        {
          "internalType": "address",
          "name": "",
          "type": "address"
        }
      ],
      "name": "userHistory",
      "outputs": [
        {
          "internalType": "uint256",
          "name": "currentIndex",
          "type": "uint256"
        }
      ],
      "stateMutability": "view",
      "type": "function"
    },
    {
      "inputs": [],
      "name": "versusToken",
      "outputs": [
        {
          "internalType": "address",
          "name": "",
          "type": "address"
        }
      ],
      "stateMutability": "view",
      "type": "function"
    },
    {
      "stateMutability": "payable",
      "type": "receive"
    },
    {
      "inputs": [
        {
          "internalType": "address",
          "name": "newCode",
          "type": "address"
        }
      ],
      "name": "updateCode",
      "outputs": [],
      "stateMutability": "nonpayable",
      "type": "function"
    },
    {
      "inputs": [],
      "name": "battleConstructor",
      "outputs": [],
      "stateMutability": "nonpayable",
      "type": "function"
    },
    {
      "inputs": [
        {
          "internalType": "address",
          "name": "token",
          "type": "address"
        }
      ],
      "name": "getUSDCPrice",
      "outputs": [
        {
          "internalType": "uint256",
          "name": "",
          "type": "uint256"
        }
      ],
      "stateMutability": "nonpayable",
      "type": "function"
    },
    {
      "inputs": [
        {
          "internalType": "address",
          "name": "token",
          "type": "address"
        }
      ],
      "name": "addMarket",
      "outputs": [],
      "stateMutability": "nonpayable",
      "type": "function"
    },
    {
      "inputs": [
        {
          "internalType": "address",
          "name": "token",
          "type": "address"
        },
        {
          "internalType": "uint32",
          "name": "index",
          "type": "uint32"
        },
        {
          "internalType": "bool",
          "name": "isLonging",
          "type": "bool"
        },
        {
          "internalType": "bool",
          "name": "freePrediction",
          "type": "bool"
        }
      ],
      "name": "nextRoundPrediction",
      "outputs": [],
      "stateMutability": "payable",
      "type": "function"
    },
    {
      "inputs": [
        {
          "internalType": "address",
          "name": "token",
          "type": "address"
        },
        {
          "internalType": "uint32",
          "name": "index",
          "type": "uint32"
        }
      ],
      "name": "expireRound",
      "outputs": [],
      "stateMutability": "nonpayable",
      "type": "function"
    },
    {
      "inputs": [
        {
          "internalType": "address",
          "name": "user",
          "type": "address"
        }
      ],
      "name": "getUserMarketHistory",
      "outputs": [
        {
          "internalType": "address[]",
          "name": "",
          "type": "address[]"
        },
        {
          "internalType": "uint256[]",
          "name": "",
          "type": "uint256[]"
        },
        {
          "internalType": "uint256[]",
          "name": "",
          "type": "uint256[]"
        },
        {
          "internalType": "bool[]",
          "name": "",
          "type": "bool[]"
        },
        {
          "internalType": "bool[]",
          "name": "",
          "type": "bool[]"
        }
      ],
      "stateMutability": "view",
      "type": "function"
    },
    {
      "inputs": [
        {
          "internalType": "address",
          "name": "user",
          "type": "address"
        },
        {
          "internalType": "uint256",
          "name": "userIndex",
          "type": "uint256"
        }
      ],
      "name": "claim",
      "outputs": [],
      "stateMutability": "nonpayable",
      "type": "function"
    }
  ],
  "bytecode": "0x60806040526000805460ff1916905534801561001a57600080fd5b50611df58061002a6000396000f3fe60806040526004361061010d5760003560e01c8063469519541161009557806393e306331161006457806393e30633146102ad578063aad3ec96146102cd578063b0ffb396146102ed578063b1283e7714610320578063f887ea401461034057610114565b8063469519541461024e57806352d1902d1461026e57806366f0d43d146102835780638da5cb5b1461029857610114565b806325625827116100dc57806325625827146101b357806333d6b46e146101c85780633c9c76ca146101f95780634232047a14610219578063439f94591461022e57610114565b806302d45457146101195780630c12fc6214610144578063100cd71d14610171578063158ef93e1461019e57610114565b3661011457005b600080fd5b34801561012557600080fd5b5061012e610355565b60405161013b9190611a43565b60405180910390f35b34801561015057600080fd5b5061016461015f3660046117d2565b610364565b60405161013b9190611af8565b34801561017d57600080fd5b5061019161018c36600461178f565b61038a565b60405161013b9190611b03565b3480156101aa57600080fd5b5061016461039f565b6101c66101c136600461183f565b6103a8565b005b3480156101d457600080fd5b506101e86101e336600461178f565b610829565b60405161013b959493929190611a8b565b34801561020557600080fd5b5061019161021436600461178f565b610a55565b34801561022557600080fd5b506101c6610c2f565b34801561023a57600080fd5b506101c661024936600461180d565b610c77565b34801561025a57600080fd5b506101c661026936600461178f565b610e10565b34801561027a57600080fd5b50610191610e5a565b34801561028f57600080fd5b5061012e610e7e565b3480156102a457600080fd5b5061012e610e8d565b3480156102b957600080fd5b506101c66102c836600461178f565b610e9c565b3480156102d957600080fd5b506101c66102e83660046117a9565b610f77565b3480156102f957600080fd5b5061030d61030836600461178f565b6115c0565b60405161013b9796959493929190611bde565b34801561032c57600080fd5b5061012e61033b366004611964565b611602565b34801561034c57600080fd5b5061012e61162c565b6004546001600160a01b031681565b600760209081526000938452604080852082529284528284209052825290205460ff1681565b60086020526000908152604090206007015481565b60005460ff1681565b836001600160a01b031660018463ffffffff16815481106103d957634e487b7160e01b600052603260045260246000fd5b6000918252602090912001546001600160a01b0316146103f857600080fd5b6001600160a01b038416600090815260076020908152604080832060069092528220548290610428906001611c0e565b81526020808201929092526040908101600090812033825290925290205460ff169050801561045657600080fd5b600082156104fa57341561046957600080fd5b6003546040516307ec14f360e01b815247916001600160a01b0316906307ec14f390610499903390600401611a43565b602060405180830381600087803b1580156104b357600080fd5b505af11580156104c7573d6000803e3d6000fd5b505050506040513d601f19601f820116820180604052508101906104eb919061194c565b506104f6478261163b565b9150505b8261050f576000341161050c57600080fd5b50345b6000610527606461052184600361164e565b9061165a565b9050600360009054906101000a90046001600160a01b03166001600160a01b03166363541efb826040518263ffffffff1660e01b81526004016000604051808303818588803b15801561057957600080fd5b505af115801561058d573d6000803e3d6000fd5b505050505060086000336001600160a01b03166001600160a01b03168152602001908152602001600020600001879080600181540180825580915050600190039060005260206000200160009091909190916101000a8154816001600160a01b0302191690836001600160a01b0316021790555060086000336001600160a01b03166001600160a01b0316815260200190815260200160002060010160066000896001600160a01b03166001600160a01b0316815260200190815260200160002060000154600161065e9190611c0e565b81546001810183556000928352602080842090910191909155338252600890526040902060020161068f838361163b565b815460018181018455600093845260208085209092019290925533808452600882526040842060038101805480860182559086528386208482040180548c1515601f93841661010090810a91820260ff92830219909316929092179092556005840180548089018255908952868920878204018054918516830a8402199091169055600484018054808901825590895286892096810490960180548d15159790941690910a95860295909102199091169390931790925590925260079091015461075891611666565b3360009081526008602090815260408083206007908101949094556001600160a01b038b168352928152828220600690915291812054610799906001611c0e565b8152602080820192909252604001600090812033918290529091526003546001600160a01b031690638c00d786906107d1858561163b565b6040518363ffffffff1660e01b81526004016107ee929190611a72565b600060405180830381600087803b15801561080857600080fd5b505af115801561081c573d6000803e3d6000fd5b5050505050505050505050565b6001600160a01b03811660009081526008602090815260409182902080548351818402810184019094528084526060938493849384938493919260018401926002850192600386019260058701929187918301828280156108b357602002820191906000526020600020905b81546001600160a01b03168152600190910190602001808311610895575b505050505094508380548060200260200160405190810160405280929190818152602001828054801561090557602002820191906000526020600020905b8154815260200190600101908083116108f1575b505050505093508280548060200260200160405190810160405280929190818152602001828054801561095757602002820191906000526020600020905b815481526020019060010190808311610943575b50505050509250818054806020026020016040519081016040528092919081815260200182805480156109c957602002820191906000526020600020906000905b825461010083900a900460ff1615158152602060019283018181049485019490930390920291018084116109985790505b5050505050915080805480602002602001604051908101604052809291908181526020018280548015610a3b57602002820191906000526020600020906000905b825461010083900a900460ff161515815260206001928301818104948501949093039092029101808411610a0a5790505b505050505090509450945094509450945091939590929450565b604080516002808252606082018352600092839291906020830190803683370190505090508281600081518110610a9c57634e487b7160e01b600052603260045260246000fd5b6001600160a01b039283166020918202929092010152600454825191169082906001908110610adb57634e487b7160e01b600052603260045260246000fd5b6001600160a01b039283166020918202929092018101919091526005546040805163313ce56760e01b815290516000949283169363d06ca61f9389169263313ce5679260048083019392829003018186803b158015610b3957600080fd5b505afa158015610b4d573d6000803e3d6000fd5b505050506040513d601f19601f82011682018060405250810190610b71919061197c565b610b7c906001611c8c565b846040518363ffffffff1660e01b8152600401610b9a929190611bbd565b60006040518083038186803b158015610bb257600080fd5b505afa158015610bc6573d6000803e3d6000fd5b505050506040513d6000823e601f3d908101601f19168201604052610bee9190810190611892565b90508060018251610bff9190611d7c565b81518110610c1d57634e487b7160e01b600052603260045260246000fd5b6020026020010151925050505b919050565b60005460ff1615610c5b5760405162461bcd60e51b8152600401610c5290611b34565b60405180910390fd5b600280546001600160a01b03191633179055610c75611672565b565b816001600160a01b031660018263ffffffff1681548110610ca857634e487b7160e01b600052603260045260246000fd5b6000918252602090912001546001600160a01b031614610cc757600080fd5b6001600160a01b038216600090815260066020526040902060040154421015610cef57600080fd5b6001600160a01b03821660009081526006602090815260408083203384529083206002810154600a83018054600181810183559187528587200191909155600390910154600b90920180549182018155845291832090910155610d5183610a55565b6001600160a01b0384166000818152600660208181526040808420600c81018054600181810183559187529386209093018790553385529084208084015460028301559281018490556007928301549484526003810194909455908301919091559054919250610dc19190611c0e565b6001600160a01b038416600090815260066020526040902090815560040154610dec9061012c611666565b6001600160a01b039093166000908152600660205260409020600401929092555050565b6002546001600160a01b03163314610e2757600080fd5b60005460ff161515600114610e4e5760405162461bcd60e51b8152600401610c5290611b6b565b610e5781611681565b50565b7fc5f16f0fcc639fa48a6947836d9850f504798523bf8c9a3a87d5876cf622bcf790565b6003546001600160a01b031681565b6002546001600160a01b031681565b6002546001600160a01b03163314610eb357600080fd5b6001805480820182557fb10e2d527612073b26eecdfd717e6a320cf44b4afac2b0732d9fcbe2b7fa0cf60180546001600160a01b0319166001600160a01b038416908117909155600090815260066020526040902055610f1281610a55565b6001600160a01b038216600090815260066020526040902060010155610f3a4261012c611666565b6001600160a01b03909116600090815260066020908152604082206004810193909355600180840154600990940180549182018155835291200155565b6001600160a01b0382166000908152600860205260408120805483908110610faf57634e487b7160e01b600052603260045260246000fd5b60009182526020808320909101546001600160a01b03868116845260089092526040832060010180549290911693509084908110610ffd57634e487b7160e01b600052603260045260246000fd5b9060005260206000200154905060086000856001600160a01b03166001600160a01b03168152602001908152602001600020600501838154811061105157634e487b7160e01b600052603260045260246000fd5b90600052602060002090602091828204019190069054906101000a900460ff166115b9576001600160a01b0382166000908152600660205260408120600c0161109b600184611d7c565b815481106110b957634e487b7160e01b600052603260045260246000fd5b60009182526020808320909101546001600160a01b0386168352600690915260409091206009016110eb600185611d7c565b8154811061110957634e487b7160e01b600052603260045260246000fd5b906000526020600020015411905080151560086000876001600160a01b03166001600160a01b03168152602001908152602001600020600301858154811061116157634e487b7160e01b600052603260045260246000fd5b90600052602060002090602091828204019190069054906101000a900460ff161515146111f8576001600160a01b0385166000908152600860205260409020600501805460019190869081106111c757634e487b7160e01b600052603260045260246000fd5b90600052602060002090602091828204019190066101000a81548160ff0219169083151502179055505050506115bc565b6001600160a01b038516600090815260086020526040812060020180548690811061123357634e487b7160e01b600052603260045260246000fd5b90600052602060002001549050600082156112ae576001600160a01b03851660009081526006602052604090206112a790600a01611272600187611d7c565b8154811061129057634e487b7160e01b600052603260045260246000fd5b60009182526020909120015461052184606461164e565b90506112db565b6001600160a01b03851660009081526006602052604090206112d890600b01611272600187611d7c565b90505b60008315611354576001600160a01b038616600090815260066020526040902061134d90606490610521908590600a0161131660018b611d7c565b8154811061133457634e487b7160e01b600052603260045260246000fd5b906000526020600020015461164e90919063ffffffff16565b905061138a565b6001600160a01b038616600090815260066020526040902061138790606490610521908590600b0161131660018b611d7c565b90505b6001600160a01b03881660009081526008602052604090206004018054889081106113c557634e487b7160e01b600052603260045260246000fd5b90600052602060002090602091828204019190069054906101000a900460ff1615611480576003546001600160a01b031663013831ec61140b606461052185606361164e565b8a6040518363ffffffff1660e01b81526004016114289190611a43565b6000604051808303818588803b15801561144157600080fd5b505af1158015611455573d6000803e3d6000fd5b505050505061147d611476606461052160638561164e90919063ffffffff16565b829061163b565b90505b336001600160a01b03168160405161149790611a40565b60006040518083038185875af1925050503d80600081146114d4576040519150601f19603f3d011682016040523d82523d6000602084013e6114d9565b606091505b5050506001600160a01b03881660009081526008602052604090206005018054600191908990811061151b57634e487b7160e01b600052603260045260246000fd5b60009182526020918290209181049091018054921515601f9092166101000a91820260ff90920219909216179055600354604051631474115d60e21b81526001600160a01b03909116906351d045749061157c908b90600190600401611a57565b600060405180830381600087803b15801561159657600080fd5b505af11580156115aa573d6000803e3d6000fd5b505050505050505050506115bc565b50505b5050565b60066020528060005260406000206000915090508060000154908060010154908060020154908060030154908060040154908060060154908060070154905087565b6001818154811061161257600080fd5b6000918252602090912001546001600160a01b0316905081565b6005546001600160a01b031681565b60006116478284611d7c565b9392505050565b60006116478284611d5d565b60006116478284611c26565b60006116478284611c0e565b6000805460ff19166001179055565b806001600160a01b03166352d1902d6040518163ffffffff1660e01b815260040160206040518083038186803b1580156116ba57600080fd5b505afa1580156116ce573d6000803e3d6000fd5b505050506040513d601f19601f820116820180604052508101906116f2919061194c565b7fc5f16f0fcc639fa48a6947836d9850f504798523bf8c9a3a87d5876cf622bcf7146117305760405162461bcd60e51b8152600401610c5290611b0c565b7fc5f16f0fcc639fa48a6947836d9850f504798523bf8c9a3a87d5876cf622bcf755565b80356001600160a01b0381168114610c2a57600080fd5b80358015158114610c2a57600080fd5b803563ffffffff81168114610c2a57600080fd5b6000602082840312156117a0578081fd5b61164782611754565b600080604083850312156117bb578081fd5b6117c483611754565b946020939093013593505050565b6000806000606084860312156117e6578081fd5b6117ef84611754565b92506020840135915061180460408501611754565b90509250925092565b6000806040838503121561181f578182fd5b61182883611754565b91506118366020840161177b565b90509250929050565b60008060008060808587031215611854578081fd5b61185d85611754565b935061186b6020860161177b565b92506118796040860161176b565b91506118876060860161176b565b905092959194509250565b600060208083850312156118a4578182fd5b825167ffffffffffffffff808211156118bb578384fd5b818501915085601f8301126118ce578384fd5b8151818111156118e0576118e0611da9565b838102604051858282010181811085821117156118ff576118ff611da9565b604052828152858101935084860182860187018a101561191d578788fd5b8795505b8386101561193f578051855260019590950194938601938601611921565b5098975050505050505050565b60006020828403121561195d578081fd5b5051919050565b600060208284031215611975578081fd5b5035919050565b60006020828403121561198d578081fd5b815160ff81168114611647578182fd5b6000815180845260208085019450808401835b838110156119d55781516001600160a01b0316875295820195908201906001016119b0565b509495945050505050565b6000815180845260208085019450808401835b838110156119d55781511515875295820195908201906001016119f3565b6000815180845260208085019450808401835b838110156119d557815187529582019590820190600101611a24565b90565b6001600160a01b0391909116815260200190565b6001600160a01b039290921682521515602082015260400190565b6001600160a01b03929092168252602082015260400190565b600060a08252611a9e60a083018861199d565b8281036020840152611ab08188611a11565b90508281036040840152611ac48187611a11565b90508281036060840152611ad881866119e0565b90508281036080840152611aec81856119e0565b98975050505050505050565b901515815260200190565b90815260200190565b6020808252600e908201526d4e6f7420636f6d70617469626c6560901b604082015260600190565b6020808252601f908201527f436f6e747261637420697320616c726561647920696e697469616c697a656400604082015260600190565b60208082526032908201527f546865206c696272617279206973206c6f636b65642e204e6f206469726563746040820152710809d8d85b1b09c81a5cc8185b1b1bddd95960721b606082015260800190565b600083825260406020830152611bd6604083018461199d565b949350505050565b968752602087019590955260408601939093526060850191909152608084015260a083015260c082015260e00190565b60008219821115611c2157611c21611d93565b500190565b600082611c4157634e487b7160e01b81526012600452602481fd5b500490565b80825b6001808611611c585750611c83565b818704821115611c6a57611c6a611d93565b80861615611c7757918102915b9490941c938002611c49565b94509492505050565b600061164760001960ff851684600082611ca857506001611647565b81611cb557506000611647565b8160018114611ccb5760028114611cd557611d02565b6001915050611647565b60ff841115611ce657611ce6611d93565b6001841b915084821115611cfc57611cfc611d93565b50611647565b5060208310610133831016604e8410600b8410161715611d35575081810a83811115611d3057611d30611d93565b611647565b611d428484846001611c46565b808604821115611d5457611d54611d93565b02949350505050565b6000816000190483118215151615611d7757611d77611d93565b500290565b600082821015611d8e57611d8e611d93565b500390565b634e487b7160e01b600052601160045260246000fd5b634e487b7160e01b600052604160045260246000fdfea2646970667358221220c59241a1eebc807dcdf7485282865026b9be3d151321dd8745c2c37f738e99c764736f6c63430008000033",
  "immutableReferences": {},
  "source": "pragma solidity ^0.8.0;\r\n\r\nimport \"./BEP20.sol\";\r\n\r\n// pragma solidity >=0.6.2;\r\n\r\ninterface IUniswapV2Router01 {\r\n    function factory() external pure returns (address);\r\n    function WETH() external pure returns (address);\r\n\r\n   \r\n\r\n    function quote(uint amountA, uint reserveA, uint reserveB) external pure returns (uint amountB);\r\n    function getAmountOut(uint amountIn, uint reserveIn, uint reserveOut) external pure returns (uint amountOut);\r\n    function getAmountIn(uint amountOut, uint reserveIn, uint reserveOut) external pure returns (uint amountIn);\r\n    function getAmountsOut(uint amountIn, address[] calldata path) external view returns (uint[] memory amounts);\r\n    function getAmountsIn(uint amountOut, address[] calldata path) external view returns (uint[] memory amounts);\r\n}\r\n\r\n\r\n\r\n// pragma solidity >=0.6.2;\r\n\r\ninterface IUniswapV2Router02 is IUniswapV2Router01 {\r\n    \r\n}\r\n\r\ncontract Proxiable {\r\n    // Code position in storage is keccak256(\"PROXIABLE\") = \"0xc5f16f0fcc639fa48a6947836d9850f504798523bf8c9a3a87d5876cf622bcf7\"\r\n\r\n    function updateCodeAddress(address newAddress) internal {\r\n        require(\r\n            bytes32(0xc5f16f0fcc639fa48a6947836d9850f504798523bf8c9a3a87d5876cf622bcf7) == Proxiable(newAddress).proxiableUUID(),\r\n            \"Not compatible\"\r\n        );\r\n        assembly { // solium-disable-line\r\n            sstore(0xc5f16f0fcc639fa48a6947836d9850f504798523bf8c9a3a87d5876cf622bcf7, newAddress)\r\n        }\r\n    }\r\n    function proxiableUUID() public pure returns (bytes32) {\r\n        return 0xc5f16f0fcc639fa48a6947836d9850f504798523bf8c9a3a87d5876cf622bcf7;\r\n    }\r\n}\r\n\r\ncontract LibraryLockDataLayout {\r\n  bool public initialized = false;\r\n}\r\n\r\ncontract LibraryLock is LibraryLockDataLayout {\r\n    // Ensures no one can manipulate the Logic Contract once it is deployed.\r\n    // PARITY WALLET HACK PREVENTION\r\n\r\n    modifier delegatedOnly() {\r\n        require(initialized == true, \"The library is locked. No direct 'call' is allowed\");\r\n        _;\r\n    }\r\n    function initialize() internal {\r\n        initialized = true;\r\n    }\r\n}\r\n\r\ncontract DataLayout is LibraryLock {\r\n    address[] public markets;\r\n    address public owner;\r\n    address public versusToken;\r\n    address public usdcAddress;\r\n    address public router;\r\n\r\n    struct marketStruct {\r\n        uint256 round;\r\n        uint256 targetPrice;\r\n        uint256 longBNB;\r\n        uint256 shortBNB;\r\n        uint256 roundEnd;\r\n        address[] currentEntrants;\r\n        uint256 nextRoundLong;\r\n        uint256 nextRoundShort;\r\n        address[] nextEntrants;\r\n        uint256[] targetHistory;\r\n        uint256[] longHistory;\r\n        uint256[] shortHistory;\r\n        uint256[] closingHistory;\r\n    }\r\n    mapping(address => marketStruct) public marketData; \r\n    mapping(address => mapping(uint256 => mapping(address => bool))) public entrantData;\r\n\r\n    struct userStruct {\r\n        address[] tokenHistory;\r\n        uint256[] round;\r\n        uint256[] BNBAmount;\r\n        bool[] isLonging;\r\n        bool[] isFreePrediction;\r\n        bool[] winClaimed;\r\n        uint256[] predictionWinnings;\r\n        uint256 currentIndex;\r\n\r\n    }\r\n    mapping(address => userStruct) public userHistory;\r\n}\r\n\r\n\r\n\r\ncontract SpotBattle is DataLayout, Proxiable{\r\n\r\n \r\n    using SafeMath for uint256;\r\n\r\n    modifier _onlyOwner() {\r\n        require(msg.sender == owner);\r\n        _;\r\n    }\r\n\r\n    constructor() public {\r\n        \r\n    }\r\n\r\n    function updateCode(address newCode) public _onlyOwner delegatedOnly  {\r\n        updateCodeAddress(newCode);\r\n    }\r\n\r\n    receive() external payable {\r\n        \r\n    }\r\n\r\n    function battleConstructor() public {\r\n        require(!initialized, \"Contract is already initialized\");\r\n        owner = msg.sender;\r\n        initialize();\r\n    }\r\n\r\n    function getUSDCPrice(address token) public returns(uint256) {\r\n        address[] memory path = new address[](2);\r\n        path[0] = token;\r\n        path[1] = usdcAddress;\r\n        uint256[] memory amountsOut = IUniswapV2Router02(router).getAmountsOut(1 ** IBEP20(token).decimals(), path);\r\n        return amountsOut[amountsOut.length-1];\r\n    }\r\n    \r\n    function addMarket(address token) public {\r\n        require(msg.sender == owner);\r\n        markets.push(token);\r\n        marketData[token].round = 1;\r\n        marketData[token].targetPrice = getUSDCPrice(token); // get price from usdc quote\r\n        marketData[token].roundEnd = block.timestamp.add(5 minutes);//block.timestamp + 5 mins in blocks\r\n\r\n        marketData[token].targetHistory.push(marketData[token].targetPrice);\r\n\r\n    }\r\n\r\n    function nextRoundPrediction(address token, uint32 index, bool isLonging, bool freePrediction) public payable {\r\n        require(markets[index] == token);\r\n        //check if user has placed prediction in market\r\n        //dont't loop, save something in user mapping instead\r\n        bool hasPosition = entrantData[token][marketData[token].round+1][msg.sender];\r\n        require(!hasPosition);\r\n        uint256 BNBAmount;\r\n\r\n        if (freePrediction) {\r\n            require(msg.value == 0);\r\n            //check if user has staked long enough for a free prediction\r\n            uint256 contractBNB = address(this).balance;\r\n            VersusToken(versusToken).hasFreePrediction(msg.sender);\r\n            BNBAmount = address(this).balance.sub(contractBNB);\r\n        }\r\n\r\n        if (!freePrediction) {\r\n            require (msg.value > 0);\r\n            BNBAmount = msg.value;\r\n        }\r\n        \r\n        //send 3% of value to token contract as fees\r\n        uint256 fees = BNBAmount.mul(3).div(100);\r\n        VersusToken(versusToken).returnPredictionFees{value: fees}();\r\n\r\n        userHistory[msg.sender].tokenHistory.push(token);\r\n        userHistory[msg.sender].round.push(marketData[token].round + 1);\r\n        userHistory[msg.sender].BNBAmount.push(BNBAmount.sub(fees));\r\n        userHistory[msg.sender].isLonging.push(isLonging);\r\n        userHistory[msg.sender].winClaimed.push(false);\r\n        userHistory[msg.sender].isFreePrediction.push(freePrediction);\r\n        userHistory[msg.sender].currentIndex = userHistory[msg.sender].currentIndex.add(1);\r\n\r\n        entrantData[token][marketData[token].round+1][msg.sender];\r\n        // claim(msg.sender);\r\n        VersusToken(versusToken).updateStats(msg.sender, BNBAmount.sub(fees));\r\n    }\r\n\r\n    function expireRound(address token, uint32 index) public {\r\n        require(markets[index] == token);\r\n        require(block.timestamp >= marketData[token].roundEnd);\r\n        marketData[token].longHistory.push(marketData[msg.sender].longBNB);\r\n        marketData[token].shortHistory.push(marketData[msg.sender].shortBNB);\r\n        uint256 closingPrice = getUSDCPrice(token); //get current closing price\r\n        marketData[token].closingHistory.push(closingPrice);\r\n\r\n        marketData[token].longBNB = marketData[msg.sender].nextRoundLong;\r\n        marketData[token].nextRoundLong = 0;\r\n        marketData[token].shortBNB = marketData[msg.sender].nextRoundShort;\r\n        marketData[token].nextRoundShort = 0;\r\n        // marketData[token].currentEntrants = marketData[token].nextEntrants;\r\n        // marketData[token].nextEntrants = [];\r\n\r\n        marketData[token].round = marketData[token].round + 1;\r\n        marketData[token].roundEnd = marketData[token].roundEnd.add(5 minutes);//block.number + 5 mins in blocks\r\n        //reward function caller with amount of versus\r\n\r\n    }\r\n\r\n    function getUserMarketHistory(address user) public view returns(address[] memory,uint256[] memory,uint256[] memory,bool[] memory,bool[] memory) {\r\n        return(\r\n            userHistory[user].tokenHistory,\r\n            userHistory[user].round,\r\n            userHistory[user].BNBAmount,\r\n            userHistory[user].isLonging,\r\n            userHistory[user].winClaimed\r\n        );\r\n    }\r\n\r\n    function claim(address user, uint256 userIndex) public {\r\n        address token = userHistory[user].tokenHistory[userIndex];\r\n        uint256 round = userHistory[user].round[userIndex];\r\n\r\n        // make sure user has not claimed index yet\r\n        if (!userHistory[user].winClaimed[userIndex]) {\r\n            bool longWon = marketData[token].targetHistory[round-1] > marketData[token].closingHistory[round-1];\r\n\r\n            //if user guessed wrong\r\n            if (userHistory[user].isLonging[userIndex] != longWon) {\r\n                userHistory[user].winClaimed[userIndex] = true;\r\n                // VersusToken(versusToken).updateUserWins(user, false);\r\n                return;\r\n            }\r\n            \r\n            uint256 BNBUsed = userHistory[user].BNBAmount[userIndex];\r\n            uint256 percentageOwned;\r\n            if (longWon) {\r\n                percentageOwned = BNBUsed.mul(100).div(marketData[token].longHistory[round-1]);\r\n            } else {\r\n                percentageOwned = BNBUsed.mul(100).div(marketData[token].shortHistory[round-1]);\r\n            }\r\n\r\n            uint256 winnings;\r\n            if (longWon) {\r\n                winnings = marketData[token].longHistory[round-1].mul(percentageOwned).div(100);\r\n            } else {\r\n                winnings = marketData[token].shortHistory[round-1].mul(percentageOwned).div(100);\r\n            }\r\n\r\n            //send winnings to user after free prediction check and fees\r\n            if (userHistory[user].isFreePrediction[userIndex]) {\r\n                //send 99% to token contract\r\n                VersusToken(versusToken).returnFreeBNB{value: winnings.mul(99).div(100)}(user);\r\n                //reduce winnings by 99%\r\n                winnings = winnings.sub(winnings.mul(99).div(100));\r\n            }\r\n            msg.sender.call{value: winnings}(\"\");\r\n\r\n            //send user Versus as reward, if not free prediction, how much though?\r\n\r\n            userHistory[user].winClaimed[userIndex] = true;\r\n            VersusToken(versusToken).updateUserWins(user, true);\r\n            return;\r\n        } \r\n\r\n    }\r\n    \r\n}\r\n\r\ninterface VersusToken {\r\n    function hasFreePrediction(address user) external returns(uint256);\r\n    function returnPredictionFees() payable external;\r\n    function returnFreeBNB(address user) payable external;\r\n    function updateStats(address user, uint256 volume) external;\r\n    function updateUserWins(address _user, bool _isWin) external;\r\n}",
  "sourcePath": "C:/Users/razgriz/Documents/GitHub/Versus/contracts/contracts/SpotBattle.sol",
  "compiler": {
    "name": "solc",
    "version": "0.8.0+commit.c7dfd78e.Emscripten.clang"
  },
  "schemaVersion": "3.3.3",
  "updatedAt": "2021-08-09T15:10:48.489Z",
  "devdoc": {
    "kind": "dev",
    "methods": {},
    "version": 1
  },
  "userdoc": {
    "kind": "user",
    "methods": {},
    "version": 1
  }
}