{
  "contractName": "SpotBattle",
  "abi": [
    {
      "inputs": [],
      "stateMutability": "nonpayable",
      "type": "constructor"
    },
    {
      "inputs": [
        {
          "internalType": "address",
          "name": "",
          "type": "address"
        },
        {
          "internalType": "uint256",
          "name": "",
          "type": "uint256"
        },
        {
          "internalType": "address",
          "name": "",
          "type": "address"
        }
      ],
      "name": "entrantData",
      "outputs": [
        {
          "internalType": "bool",
          "name": "",
          "type": "bool"
        }
      ],
      "stateMutability": "view",
      "type": "function"
    },
    {
      "inputs": [
        {
          "internalType": "address",
          "name": "",
          "type": "address"
        },
        {
          "internalType": "uint256",
          "name": "",
          "type": "uint256"
        },
        {
          "internalType": "address",
          "name": "",
          "type": "address"
        }
      ],
      "name": "entrantPosition",
      "outputs": [
        {
          "internalType": "bool",
          "name": "",
          "type": "bool"
        }
      ],
      "stateMutability": "view",
      "type": "function"
    },
    {
      "inputs": [],
      "name": "initialized",
      "outputs": [
        {
          "internalType": "bool",
          "name": "",
          "type": "bool"
        }
      ],
      "stateMutability": "view",
      "type": "function"
    },
    {
      "inputs": [
        {
          "internalType": "address",
          "name": "",
          "type": "address"
        }
      ],
      "name": "marketData",
      "outputs": [
        {
          "internalType": "uint256",
          "name": "round",
          "type": "uint256"
        },
        {
          "internalType": "uint256",
          "name": "targetPrice",
          "type": "uint256"
        },
        {
          "internalType": "uint256",
          "name": "longBNB",
          "type": "uint256"
        },
        {
          "internalType": "uint256",
          "name": "shortBNB",
          "type": "uint256"
        },
        {
          "internalType": "uint256",
          "name": "roundEnd",
          "type": "uint256"
        },
        {
          "internalType": "uint256",
          "name": "nextRoundLong",
          "type": "uint256"
        },
        {
          "internalType": "uint256",
          "name": "nextRoundShort",
          "type": "uint256"
        }
      ],
      "stateMutability": "view",
      "type": "function"
    },
    {
      "inputs": [
        {
          "internalType": "uint256",
          "name": "",
          "type": "uint256"
        }
      ],
      "name": "markets",
      "outputs": [
        {
          "internalType": "address",
          "name": "",
          "type": "address"
        }
      ],
      "stateMutability": "view",
      "type": "function"
    },
    {
      "inputs": [],
      "name": "owner",
      "outputs": [
        {
          "internalType": "address",
          "name": "",
          "type": "address"
        }
      ],
      "stateMutability": "view",
      "type": "function"
    },
    {
      "inputs": [],
      "name": "proxiableUUID",
      "outputs": [
        {
          "internalType": "bytes32",
          "name": "",
          "type": "bytes32"
        }
      ],
      "stateMutability": "pure",
      "type": "function"
    },
    {
      "inputs": [
        {
          "internalType": "address",
          "name": "",
          "type": "address"
        },
        {
          "internalType": "uint256",
          "name": "",
          "type": "uint256"
        },
        {
          "internalType": "address",
          "name": "",
          "type": "address"
        },
        {
          "internalType": "uint256",
          "name": "",
          "type": "uint256"
        }
      ],
      "name": "userBNBHistory",
      "outputs": [
        {
          "internalType": "uint256",
          "name": "",
          "type": "uint256"
        }
      ],
      "stateMutability": "view",
      "type": "function"
    },
    {
      "inputs": [
        {
          "internalType": "address",
          "name": "",
          "type": "address"
        },
        {
          "internalType": "uint256",
          "name": "",
          "type": "uint256"
        },
        {
          "internalType": "address",
          "name": "",
          "type": "address"
        },
        {
          "internalType": "uint256",
          "name": "",
          "type": "uint256"
        }
      ],
      "name": "userClaimHistory",
      "outputs": [
        {
          "internalType": "bool",
          "name": "",
          "type": "bool"
        }
      ],
      "stateMutability": "view",
      "type": "function"
    },
    {
      "inputs": [
        {
          "internalType": "address",
          "name": "",
          "type": "address"
        }
      ],
      "name": "userCurrentIndex",
      "outputs": [
        {
          "internalType": "uint256",
          "name": "",
          "type": "uint256"
        }
      ],
      "stateMutability": "view",
      "type": "function"
    },
    {
      "inputs": [
        {
          "internalType": "address",
          "name": "",
          "type": "address"
        },
        {
          "internalType": "uint256",
          "name": "",
          "type": "uint256"
        },
        {
          "internalType": "address",
          "name": "",
          "type": "address"
        },
        {
          "internalType": "uint256",
          "name": "",
          "type": "uint256"
        }
      ],
      "name": "userFreePredictionHistory",
      "outputs": [
        {
          "internalType": "bool",
          "name": "",
          "type": "bool"
        }
      ],
      "stateMutability": "view",
      "type": "function"
    },
    {
      "inputs": [
        {
          "internalType": "address",
          "name": "",
          "type": "address"
        },
        {
          "internalType": "uint256",
          "name": "",
          "type": "uint256"
        },
        {
          "internalType": "address",
          "name": "",
          "type": "address"
        },
        {
          "internalType": "uint256",
          "name": "",
          "type": "uint256"
        }
      ],
      "name": "userPositionHistory",
      "outputs": [
        {
          "internalType": "bool",
          "name": "",
          "type": "bool"
        }
      ],
      "stateMutability": "view",
      "type": "function"
    },
    {
      "inputs": [
        {
          "internalType": "address",
          "name": "",
          "type": "address"
        },
        {
          "internalType": "uint256",
          "name": "",
          "type": "uint256"
        }
      ],
      "name": "userTokenHistory",
      "outputs": [
        {
          "internalType": "address",
          "name": "",
          "type": "address"
        }
      ],
      "stateMutability": "view",
      "type": "function"
    },
    {
      "inputs": [
        {
          "internalType": "address",
          "name": "",
          "type": "address"
        },
        {
          "internalType": "uint256",
          "name": "",
          "type": "uint256"
        },
        {
          "internalType": "address",
          "name": "",
          "type": "address"
        }
      ],
      "name": "userTokenRoundHistory",
      "outputs": [
        {
          "internalType": "uint256",
          "name": "",
          "type": "uint256"
        }
      ],
      "stateMutability": "view",
      "type": "function"
    },
    {
      "inputs": [
        {
          "internalType": "address",
          "name": "",
          "type": "address"
        },
        {
          "internalType": "uint256",
          "name": "",
          "type": "uint256"
        },
        {
          "internalType": "address",
          "name": "",
          "type": "address"
        },
        {
          "internalType": "uint256",
          "name": "",
          "type": "uint256"
        }
      ],
      "name": "userWinHistory",
      "outputs": [
        {
          "internalType": "uint256",
          "name": "",
          "type": "uint256"
        }
      ],
      "stateMutability": "view",
      "type": "function"
    },
    {
      "inputs": [],
      "name": "versusToken",
      "outputs": [
        {
          "internalType": "address",
          "name": "",
          "type": "address"
        }
      ],
      "stateMutability": "view",
      "type": "function"
    },
    {
      "stateMutability": "payable",
      "type": "receive"
    },
    {
      "inputs": [
        {
          "internalType": "address",
          "name": "newCode",
          "type": "address"
        }
      ],
      "name": "updateCode",
      "outputs": [],
      "stateMutability": "nonpayable",
      "type": "function"
    },
    {
      "inputs": [
        {
          "internalType": "address",
          "name": "_versusToken",
          "type": "address"
        }
      ],
      "name": "battleConstructor",
      "outputs": [],
      "stateMutability": "nonpayable",
      "type": "function"
    },
    {
      "inputs": [
        {
          "internalType": "address",
          "name": "token",
          "type": "address"
        }
      ],
      "name": "addMarket",
      "outputs": [],
      "stateMutability": "nonpayable",
      "type": "function"
    },
    {
      "inputs": [
        {
          "internalType": "address",
          "name": "token",
          "type": "address"
        }
      ],
      "name": "getLatestPrice",
      "outputs": [
        {
          "internalType": "int256",
          "name": "",
          "type": "int256"
        }
      ],
      "stateMutability": "view",
      "type": "function"
    },
    {
      "inputs": [
        {
          "internalType": "address",
          "name": "token",
          "type": "address"
        }
      ],
      "name": "setVersusToken",
      "outputs": [],
      "stateMutability": "nonpayable",
      "type": "function"
    },
    {
      "inputs": [
        {
          "internalType": "address",
          "name": "token",
          "type": "address"
        },
        {
          "internalType": "uint32",
          "name": "index",
          "type": "uint32"
        },
        {
          "internalType": "bool",
          "name": "isLonging",
          "type": "bool"
        },
        {
          "internalType": "bool",
          "name": "freePrediction",
          "type": "bool"
        }
      ],
      "name": "nextRoundPrediction",
      "outputs": [],
      "stateMutability": "payable",
      "type": "function"
    },
    {
      "inputs": [
        {
          "internalType": "address",
          "name": "token",
          "type": "address"
        },
        {
          "internalType": "uint32",
          "name": "index",
          "type": "uint32"
        }
      ],
      "name": "expireRound",
      "outputs": [],
      "stateMutability": "nonpayable",
      "type": "function"
    },
    {
      "inputs": [
        {
          "internalType": "address",
          "name": "token",
          "type": "address"
        },
        {
          "internalType": "address",
          "name": "user",
          "type": "address"
        }
      ],
      "name": "getSpotInfo",
      "outputs": [
        {
          "internalType": "uint256[]",
          "name": "",
          "type": "uint256[]"
        },
        {
          "internalType": "uint256[]",
          "name": "",
          "type": "uint256[]"
        },
        {
          "internalType": "uint256[]",
          "name": "",
          "type": "uint256[]"
        },
        {
          "internalType": "bool[]",
          "name": "",
          "type": "bool[]"
        },
        {
          "internalType": "bool[]",
          "name": "",
          "type": "bool[]"
        }
      ],
      "stateMutability": "view",
      "type": "function"
    },
    {
      "inputs": [
        {
          "internalType": "address",
          "name": "user",
          "type": "address"
        },
        {
          "internalType": "uint256",
          "name": "sIndex",
          "type": "uint256"
        },
        {
          "internalType": "uint256",
          "name": "topLimit",
          "type": "uint256"
        }
      ],
      "name": "getUserMarketHistory",
      "outputs": [
        {
          "internalType": "address[]",
          "name": "",
          "type": "address[]"
        },
        {
          "internalType": "uint256[]",
          "name": "",
          "type": "uint256[]"
        },
        {
          "internalType": "uint256[]",
          "name": "",
          "type": "uint256[]"
        },
        {
          "internalType": "bool[]",
          "name": "",
          "type": "bool[]"
        },
        {
          "internalType": "bool[]",
          "name": "",
          "type": "bool[]"
        }
      ],
      "stateMutability": "view",
      "type": "function"
    },
    {
      "inputs": [
        {
          "internalType": "address",
          "name": "user",
          "type": "address"
        },
        {
          "internalType": "uint256",
          "name": "index",
          "type": "uint256"
        },
        {
          "internalType": "uint256",
          "name": "round",
          "type": "uint256"
        }
      ],
      "name": "setClaimHistory",
      "outputs": [],
      "stateMutability": "nonpayable",
      "type": "function"
    },
    {
      "inputs": [
        {
          "internalType": "address",
          "name": "user",
          "type": "address"
        },
        {
          "internalType": "uint256",
          "name": "userIndex",
          "type": "uint256"
        }
      ],
      "name": "claim",
      "outputs": [],
      "stateMutability": "nonpayable",
      "type": "function"
    }
  ],
  "bytecode": "0x60806040526000805460ff1916905534801561001a57600080fd5b50612cd28061002a6000396000f3fe6080604052600436106101a05760003560e01c806377f85fd6116100ec578063b0ffb3961161008a578063b6ac5c4011610064578063b6ac5c40146104ba578063c6a80b59146104da578063e8238ae6146104fa578063eb0a0b2b1461051a576101a7565b8063b0ffb39614610447578063b1283e771461047a578063b67ae4431461049a576101a7565b8063934a851e116100c6578063934a851e146103b657806393e30633146103d65780639a168262146103f6578063aad3ec9614610427576101a7565b806377f85fd6146103615780638ba0ed90146103815780638da5cb5b146103a1576101a7565b806332c113a411610159578063469519541161013357806346951954146102ea57806352d1902d1461030a5780635510e7661461031f57806366f0d43d1461033f576101a7565b806332c113a41461028a5780633bdf1024146102aa578063439f9459146102ca576101a7565b80630c12fc62146101ac578063158ef93e146101e257806316345f18146101f757806320146d6f1461022457806325625827146102555780633193f3511461026a576101a7565b366101a757005b600080fd5b3480156101b857600080fd5b506101cc6101c736600461279c565b61053a565b6040516101d99190612aba565b60405180910390f35b3480156101ee57600080fd5b506101cc610560565b34801561020357600080fd5b50610217610212366004612727565b610569565b6040516101d99190612ac5565b34801561023057600080fd5b5061024461023f366004612741565b6105fb565b6040516101d9959493929190612a81565b610268610263366004612875565b610a92565b005b34801561027657600080fd5b50610268610285366004612727565b611019565b34801561029657600080fd5b506101cc6102a53660046127d7565b611079565b3480156102b657600080fd5b506101cc6102c53660046127d7565b6110a8565b3480156102d657600080fd5b506102686102e536600461284c565b6110d7565b3480156102f657600080fd5b50610268610305366004612727565b611272565b34801561031657600080fd5b506102176112b9565b34801561032b57600080fd5b5061026861033a36600461281a565b6112dd565b34801561034b57600080fd5b50610354611368565b6040516101d991906129b5565b34801561036d57600080fd5b506101cc61037c36600461279c565b611377565b34801561038d57600080fd5b5061021761039c366004612727565b61139d565b3480156103ad57600080fd5b506103546113af565b3480156103c257600080fd5b506102686103d1366004612727565b6113be565b3480156103e257600080fd5b506102686103f1366004612727565b6113f7565b34801561040257600080fd5b5061041661041136600461281a565b6114d5565b6040516101d99594939291906129e2565b34801561043357600080fd5b50610268610442366004612773565b611af9565b34801561045357600080fd5b50610467610462366004612727565b61218d565b6040516101d99796959493929190612bcd565b34801561048657600080fd5b506103546104953660046128e0565b6121ca565b3480156104a657600080fd5b506101cc6104b53660046127d7565b6121f4565b3480156104c657600080fd5b506103546104d5366004612773565b612223565b3480156104e657600080fd5b506102176104f53660046127d7565b612249565b34801561050657600080fd5b506102176105153660046127d7565b612275565b34801561052657600080fd5b5061021761053536600461279c565b6122a1565b600560209081526000938452604080852082529284528284209052825290205460ff1681565b60005460ff1681565b6000808290506000806000806000856001600160a01b031663feaf968c6040518163ffffffff1660e01b815260040160a06040518083038186803b1580156105b057600080fd5b505afa1580156105c4573d6000803e3d6000fd5b505050506040513d601f19601f820116820180604052508101906105e891906128f8565b509199505050505050505050505b919050565b6060808080806000600560405190808252806020026020018201604052801561062e578160200160208202803683370190505b506001600160a01b03891660009081526004602052604081206002015482519293509183919061066e57634e487b7160e01b600052603260045260246000fd5b60200260200101818152505060046000896001600160a01b03166001600160a01b0316815260200190815260200160002060030154816001815181106106c457634e487b7160e01b600052603260045260246000fd5b60200260200101818152505060046000896001600160a01b03166001600160a01b03168152602001908152602001600020600401548160028151811061071a57634e487b7160e01b600052603260045260246000fd5b60200260200101818152505060046000896001600160a01b03166001600160a01b03168152602001908152602001600020600001548160038151811061077057634e487b7160e01b600052603260045260246000fd5b60200260200101818152505060046000896001600160a01b03166001600160a01b0316815260200190815260200160002060010154816004815181106107c657634e487b7160e01b600052603260045260246000fd5b6020908102919091010152604080516002808252606082019092526000918160200160208202803683375050506001600160a01b038a1660009081526004602052604081206006015482519293509183919061083257634e487b7160e01b600052603260045260246000fd5b602002602001018181525050600460008a6001600160a01b03166001600160a01b03168152602001908152602001600020600701548160018151811061088857634e487b7160e01b600052603260045260246000fd5b6020908102919091010152604080516003808252608082019092526000918160200160208202803683375050506001600160a01b038b16600090815260046020526040902054909150600211610a65576001600160a01b038a1660009081526004602052604090208054600a9091019061090490600290612c54565b8154811061092257634e487b7160e01b600052603260045260246000fd5b90600052602060002001548160008151811061094e57634e487b7160e01b600052603260045260246000fd5b6020908102919091018101919091526001600160a01b038b1660009081526004909152604090208054600b9091019061098990600290612c54565b815481106109a757634e487b7160e01b600052603260045260246000fd5b9060005260206000200154816001815181106109d357634e487b7160e01b600052603260045260246000fd5b6020908102919091018101919091526001600160a01b038b1660009081526004909152604090208054600c90910190610a0e90600290612c54565b81548110610a2c57634e487b7160e01b600052603260045260246000fd5b906000526020600020015481600281518110610a5857634e487b7160e01b600052603260045260246000fd5b6020026020010181815250505b828282610a728d8d6122c4565b610a7c8e8e612472565b939e929d50909b50995090975095505050505050565b836001600160a01b031660018463ffffffff1681548110610ac357634e487b7160e01b600052603260045260246000fd5b6000918252602090912001546001600160a01b031614610ae257600080fd5b6001600160a01b038416600090815260056020908152604080832060049092528220548290610b12906001612bfd565b81526020808201929092526040908101600090812033825290925290205460ff1690508015610b4057600080fd5b60008215610be4573415610b5357600080fd5b6003546040516307ec14f360e01b815247916001600160a01b0316906307ec14f390610b839033906004016129b5565b602060405180830381600087803b158015610b9d57600080fd5b505af1158015610bb1573d6000803e3d6000fd5b505050506040513d601f19601f82011682018060405250810190610bd591906128c8565b50610be047826125b9565b9150505b82610bf95760003411610bf657600080fd5b50345b6000610c116064610c0b8460036125cc565b906125d8565b9050600360009054906101000a90046001600160a01b03166001600160a01b03166363541efb826040518263ffffffff1660e01b81526004016000604051808303818588803b158015610c6357600080fd5b505af1158015610c77573d6000803e3d6000fd5b5050336000908152600e6020526040902054610c999350915060019050612bfd565b336000908152600e602090815260408083208490556007825280832093835292815282822080546001600160a01b0319166001600160a01b038c169081179091558252600490522054610ced906001612bfd565b336000908152600860209081526040808320600e835281842054845282528083206001600160a01b038c168452909152902055610d2a82826125b9565b336000908152600960209081526040808320600e835281842054845282528083206001600160a01b038c16845282528083206004909252822054909190610d72906001612bfd565b81526020808201929092526040908101600090812093909355338352600a8252808320600e835281842054845282528083206001600160a01b038b16845282528083206004909252822054879290610dcb906001612bfd565b815260208082019290925260409081016000908120805460ff191694151594909417909355338352600b8252808320600e835281842054845282528083206001600160a01b038b16845282528083206004909252822054869290610e30906001612bfd565b81526020810191909152604001600020805460ff19169115159190911790558415610ea557610e84610e6283836125b9565b6001600160a01b038916600090815260046020526040902060060154906125e4565b6001600160a01b038816600090815260046020526040902060060155610ef1565b610ed4610eb283836125b9565b6001600160a01b038916600090815260046020526040902060070154906125e4565b6001600160a01b0388166000908152600460205260409020600701555b6001600160a01b0387166000908152600560209081526040808320600490925282205460019290610f229084612bfd565b8152602080820192909252604090810160009081203382528352818120805460ff1916941515949094179093556001600160a01b038a168352600682528083206004909252822054879290610f78906001612bfd565b81526020808201929092526040908101600090812033808352935220805460ff1916921515929092179091556003546001600160a01b031690638c00d78690610fc185856125b9565b6040518363ffffffff1660e01b8152600401610fde9291906129c9565b600060405180830381600087803b158015610ff857600080fd5b505af115801561100c573d6000803e3d6000fd5b5050505050505050505050565b60005460ff16156110455760405162461bcd60e51b815260040161103c90612af6565b60405180910390fd5b60028054336001600160a01b031991821617909155600380549091166001600160a01b0383161790556110766125f0565b50565b600b60209081526000948552604080862082529385528385208152918452828420909152825290205460ff1681565b600a60209081526000948552604080862082529385528385208152918452828420909152825290205460ff1681565b816001600160a01b031660018263ffffffff168154811061110857634e487b7160e01b600052603260045260246000fd5b6000918252602090912001546001600160a01b03161461112757600080fd5b6001600160a01b0382166000908152600460208190526040909120015442101561115057600080fd5b6001600160a01b038216600090815260046020908152604082206002810154600a820180546001818101835591865284862001919091556003820154600b909201805491820181558452918320909101556111aa83610569565b6001600160a01b038416600081815260046020908152604082206001808201805460098401805480850182559087528587200155600c83018054808401825590865293852090930186905593835290849055600681018054600283015560078201805460038401559083905591909155549192506112289190612bfd565b6001600160a01b03841660009081526004602052604090205561124d4261012c6125e4565b6001600160a01b03909316600090815260046020819052604090912001929092555050565b6002546001600160a01b0316331461128957600080fd5b60005460ff1615156001146112b05760405162461bcd60e51b815260040161103c90612b7b565b611076816125ff565b7fc5f16f0fcc639fa48a6947836d9850f504798523bf8c9a3a87d5876cf622bcf790565b6001600160a01b0383166000908152600c60209081526040808320858452909152812060018054839190829061132357634e487b7160e01b600052603260045260246000fd5b6000918252602080832091909101546001600160a01b03168352828101939093526040918201812094815293909152909120805460ff19169115159190911790555050565b6003546001600160a01b031681565b600660209081526000938452604080852082529284528284209052825290205460ff1681565b600e6020526000908152604090205481565b6002546001600160a01b031681565b6002546001600160a01b031633146113d557600080fd5b600380546001600160a01b0319166001600160a01b0392909216919091179055565b6002546001600160a01b0316331461140e57600080fd5b6001805480820182557fb10e2d527612073b26eecdfd717e6a320cf44b4afac2b0732d9fcbe2b7fa0cf60180546001600160a01b0319166001600160a01b03841690811790915560009081526004602052604090205561146d81610569565b6001600160a01b0382166000908152600460205260409020600101556114954261012c6125e4565b6001600160a01b03909116600090815260046020818152604083209182019390935560018082015460099092018054918201815583529290912090910155565b606080606080606060008667ffffffffffffffff81111561150657634e487b7160e01b600052604160045260246000fd5b60405190808252806020026020018201604052801561152f578160200160208202803683370190505b50905060008767ffffffffffffffff81111561155b57634e487b7160e01b600052604160045260246000fd5b604051908082528060200260200182016040528015611584578160200160208202803683370190505b50905060008867ffffffffffffffff8111156115b057634e487b7160e01b600052604160045260246000fd5b6040519080825280602002602001820160405280156115d9578160200160208202803683370190505b50905060008967ffffffffffffffff81111561160557634e487b7160e01b600052604160045260246000fd5b60405190808252806020026020018201604052801561162e578160200160208202803683370190505b50905060008a67ffffffffffffffff81111561165a57634e487b7160e01b600052604160045260246000fd5b604051908082528060200260200182016040528015611683578160200160208202803683370190505b50905060005b8b811015611ae457600760008f6001600160a01b03166001600160a01b031681526020019081526020016000206000828f6116c49190612c54565b815260200190815260200160002060009054906101000a90046001600160a01b031686828151811061170657634e487b7160e01b600052603260045260246000fd5b60200260200101906001600160a01b031690816001600160a01b031681525050600860008f6001600160a01b03166001600160a01b031681526020019081526020016000206000828f6117599190612c54565b8152602001908152602001600020600087838151811061178957634e487b7160e01b600052603260045260246000fd5b60200260200101516001600160a01b03166001600160a01b03168152602001908152602001600020548582815181106117d257634e487b7160e01b600052603260045260246000fd5b602002602001018181525050600960008f6001600160a01b03166001600160a01b031681526020019081526020016000206000828f6118119190612c54565b8152602001908152602001600020600087838151811061184157634e487b7160e01b600052603260045260246000fd5b60200260200101516001600160a01b03166001600160a01b03168152602001908152602001600020600086838151811061188b57634e487b7160e01b600052603260045260246000fd5b60200260200101518152602001908152602001600020548482815181106118c257634e487b7160e01b600052603260045260246000fd5b602002602001018181525050600a60008f6001600160a01b03166001600160a01b031681526020019081526020016000206000828f6119019190612c54565b8152602001908152602001600020600087838151811061193157634e487b7160e01b600052603260045260246000fd5b60200260200101516001600160a01b03166001600160a01b03168152602001908152602001600020600086838151811061197b57634e487b7160e01b600052603260045260246000fd5b6020026020010151815260200190815260200160002060009054906101000a900460ff168382815181106119bf57634e487b7160e01b600052603260045260246000fd5b602002602001019015159081151581525050600c60008f6001600160a01b03166001600160a01b031681526020019081526020016000206000828f611a049190612c54565b81526020019081526020016000206000878381518110611a3457634e487b7160e01b600052603260045260246000fd5b60200260200101516001600160a01b03166001600160a01b031681526020019081526020016000206000868381518110611a7e57634e487b7160e01b600052603260045260246000fd5b6020026020010151815260200190815260200160002060009054906101000a900460ff16828281518110611ac257634e487b7160e01b600052603260045260246000fd5b9115156020928302919091019091015280611adc81612c6b565b915050611689565b50939c929b5090995097509095509350505050565b6001600160a01b038083166000818152600760209081526040808320868452825280832054848452600883528184208785528352818420951680845294825280832054938352600c82528083208684528252808320858452825280832084845290915290205460ff1615611b7f5760405162461bcd60e51b815260040161103c90612b2d565b6001600160a01b0382166000908152600460205260408120600c01611ba5600184612c54565b81548110611bc357634e487b7160e01b600052603260045260246000fd5b60009182526020808320909101546001600160a01b038616835260049091526040909120600901611bf5600185612c54565b81548110611c1357634e487b7160e01b600052603260045260246000fd5b60009182526020808320909101546001600160a01b03808a168452600a835260408085208a8652845280852091891685529083528084208785529092529120549111915060ff1615158114611cab57506001600160a01b038085166000908152600c6020908152604080832087845282528083209590931682529384528181209281529190925220805460ff19166001179055612189565b6001600160a01b03808616600090815260096020908152604080832088845282528083209387168352928152828220858352905290812054908215611e55576001600160a01b0385166000908152600460205260408120600b01611d10600187612c54565b81548110611d2e57634e487b7160e01b600052603260045260246000fd5b9060005260206000200154118015611d9257506001600160a01b0385166000908152600460205260408120600a01611d67600187612c54565b81548110611d8557634e487b7160e01b600052603260045260246000fd5b9060005260206000200154115b15611e50576001600160a01b0385166000908152600460205260409020611e4d90600a01611dc1600187612c54565b81548110611ddf57634e487b7160e01b600052603260045260246000fd5b60009182526020808320909101546001600160a01b038916835260049091526040909120610c0b90600b01611e15600189612c54565b81548110611e3357634e487b7160e01b600052603260045260246000fd5b9060005260206000200154856125cc90919063ffffffff16565b90505b611f83565b6001600160a01b0385166000908152600460205260408120600a01611e7b600187612c54565b81548110611e9957634e487b7160e01b600052603260045260246000fd5b9060005260206000200154118015611efd57506001600160a01b0385166000908152600460205260408120600b01611ed2600187612c54565b81548110611ef057634e487b7160e01b600052603260045260246000fd5b9060005260206000200154115b15611f83576001600160a01b0385166000908152600460205260409020611f8090600b01611f2c600187612c54565b81548110611f4a57634e487b7160e01b600052603260045260246000fd5b60009182526020808320909101546001600160a01b038916835260049091526040909120610c0b90600a01611e15600189612c54565b90505b611f8d81836125e4565b6001600160a01b038089166000908152600b602090815260408083208b84528252808320938a1683529281528282208883529052205490915060ff1615612064576003546001600160a01b031663013831ec611fef6064610c0b8560636125cc565b896040518363ffffffff1660e01b815260040161200c91906129b5565b6000604051808303818588803b15801561202557600080fd5b505af1158015612039573d6000803e3d6000fd5b505050505061206161205a6064610c0b6063856125cc90919063ffffffff16565b82906125b9565b90505b600081116120845760405162461bcd60e51b815260040161103c90612b56565b600080886001600160a01b03168360405161209e906129b2565b60006040518083038185875af1925050503d80600081146120db576040519150601f19603f3d011682016040523d82523d6000602084013e6120e0565b606091505b506001600160a01b03808c166000908152600c602090815260408083208e845282528083208d8516845282528083208c845290915290819020805460ff191660011790556003549051631d11662360e31b8152939550919350169063e88b31189061214f908c906004016129b5565b600060405180830381600087803b15801561216957600080fd5b505af115801561217d573d6000803e3d6000fd5b50505050505050505050505b5050565b6004602081905260009182526040909120805460018201546002830154600384015494840154600685015460079095015493959294919390919087565b600181815481106121da57600080fd5b6000918252602090912001546001600160a01b0316905081565b600c60209081526000948552604080862082529385528385208152918452828420909152825290205460ff1681565b60076020908152600092835260408084209091529082529020546001600160a01b031681565b600960209081526000948552604080862082529385528385208152918452828420909152825290205481565b600d60209081526000948552604080862082529385528385208152918452828420909152825290205481565b600860209081526000938452604080852082529284528284209052825290205481565b60408051600380825260808201909252606091600091906020820184803683375050506001600160a01b038516600090815260056020908152604080832060049092528220549293509161231a90600190612c54565b8152602080820192909252604090810160009081206001600160a01b0387168252909252812054825160ff90911691839161236557634e487b7160e01b600052603260045260246000fd5b9115156020928302919091018201526001600160a01b038086166000908152600583526040808220600485528183205483528452808220928716825291909252902054815160ff90911690829060019081106123d157634e487b7160e01b600052603260045260246000fd5b9115156020928302919091018201526001600160a01b0385166000908152600582526040808220600490935281205461240b906001612bfd565b8152602080820192909252604090810160009081206001600160a01b0387168252909252902054815160ff909116908290600290811061245b57634e487b7160e01b600052603260045260246000fd5b911515602092830291909101909101529392505050565b60408051600380825260808201909252606091600091906020820184803683375050506001600160a01b03851660009081526006602090815260408083206004909252822054929350916124c890600190612c54565b8152602080820192909252604090810160009081206001600160a01b0387168252909252812054825160ff90911691839161251357634e487b7160e01b600052603260045260246000fd5b9115156020928302919091018201526001600160a01b038086166000908152600683526040808220600485528183205483528452808220928716825291909252902054815160ff909116908290600190811061257f57634e487b7160e01b600052603260045260246000fd5b9115156020928302919091018201526001600160a01b0385166000908152600682526040808220600490935281205461240b906001612bfd565b60006125c58284612c54565b9392505050565b60006125c58284612c35565b60006125c58284612c15565b60006125c58284612bfd565b6000805460ff19166001179055565b806001600160a01b03166352d1902d6040518163ffffffff1660e01b815260040160206040518083038186803b15801561263857600080fd5b505afa15801561264c573d6000803e3d6000fd5b505050506040513d601f19601f8201168201806040525081019061267091906128c8565b7fc5f16f0fcc639fa48a6947836d9850f504798523bf8c9a3a87d5876cf622bcf7146126ae5760405162461bcd60e51b815260040161103c90612ace565b7fc5f16f0fcc639fa48a6947836d9850f504798523bf8c9a3a87d5876cf622bcf755565b80356001600160a01b03811681146105f657600080fd5b803580151581146105f657600080fd5b803563ffffffff811681146105f657600080fd5b805169ffffffffffffffffffff811681146105f657600080fd5b600060208284031215612738578081fd5b6125c5826126d2565b60008060408385031215612753578081fd5b61275c836126d2565b915061276a602084016126d2565b90509250929050565b60008060408385031215612785578182fd5b61278e836126d2565b946020939093013593505050565b6000806000606084860312156127b0578081fd5b6127b9846126d2565b9250602084013591506127ce604085016126d2565b90509250925092565b600080600080608085870312156127ec578081fd5b6127f5856126d2565b93506020850135925061280a604086016126d2565b9396929550929360600135925050565b60008060006060848603121561282e578283fd5b612837846126d2565b95602085013595506040909401359392505050565b6000806040838503121561285e578182fd5b612867836126d2565b915061276a602084016126f9565b6000806000806080858703121561288a578384fd5b612893856126d2565b93506128a1602086016126f9565b92506128af604086016126e9565b91506128bd606086016126e9565b905092959194509250565b6000602082840312156128d9578081fd5b5051919050565b6000602082840312156128f1578081fd5b5035919050565b600080600080600060a0868803121561290f578081fd5b6129188661270d565b945060208601519350604086015192506060860151915061293b6080870161270d565b90509295509295909350565b6000815180845260208085019450808401835b8381101561297857815115158752958201959082019060010161295a565b509495945050505050565b6000815180845260208085019450808401835b8381101561297857815187529582019590820190600101612996565b90565b6001600160a01b0391909116815260200190565b6001600160a01b03929092168252602082015260400190565b60a0808252865190820181905260009060209060c0840190828a01845b82811015612a245781516001600160a01b0316845292840192908401906001016129ff565b50505083810382850152612a388189612983565b9150508281036040840152612a4d8187612983565b90508281036060840152612a618186612947565b90508281036080840152612a758185612947565b98975050505050505050565b600060a08252612a9460a0830188612983565b8281036020840152612aa68188612983565b90508281036040840152612a4d8187612983565b901515815260200190565b90815260200190565b6020808252600e908201526d4e6f7420636f6d70617469626c6560901b604082015260600190565b6020808252601f908201527f436f6e747261637420697320616c726561647920696e697469616c697a656400604082015260600190565b6020808252600f908201526e105b1c9958591e4818db185a5b5959608a1b604082015260600190565b6020808252600b908201526a3020424e422076616c756560a81b604082015260600190565b60208082526032908201527f546865206c696272617279206973206c6f636b65642e204e6f206469726563746040820152710809d8d85b1b09c81a5cc8185b1b1bddd95960721b606082015260800190565b968752602087019590955260408601939093526060850191909152608084015260a083015260c082015260e00190565b60008219821115612c1057612c10612c86565b500190565b600082612c3057634e487b7160e01b81526012600452602481fd5b500490565b6000816000190483118215151615612c4f57612c4f612c86565b500290565b600082821015612c6657612c66612c86565b500390565b6000600019821415612c7f57612c7f612c86565b5060010190565b634e487b7160e01b600052601160045260246000fdfea26469706673582212208f253ea7bec67fc75b26b8135f48e1217d19504bc394533134722983ee7f6aa564736f6c63430008000033",
  "immutableReferences": {},
  "source": "// File: @openzeppelin/contracts/utils/math/SafeMath.sol\r\n\r\n\r\n\r\npragma solidity ^0.8.0;\r\n\r\n// CAUTION\r\n// This version of SafeMath should only be used with Solidity 0.8 or later,\r\n// because it relies on the compiler's built in overflow checks.\r\n\r\n/**\r\n * @dev Wrappers over Solidity's arithmetic operations.\r\n *\r\n * NOTE: `SafeMath` is no longer needed starting with Solidity 0.8. The compiler\r\n * now has built in overflow checking.\r\n */\r\nlibrary SafeMath {\r\n    /**\r\n     * @dev Returns the addition of two unsigned integers, with an overflow flag.\r\n     *\r\n     * _Available since v3.4._\r\n     */\r\n    function tryAdd(uint256 a, uint256 b) internal pure returns (bool, uint256) {\r\n        unchecked {\r\n            uint256 c = a + b;\r\n            if (c < a) return (false, 0);\r\n            return (true, c);\r\n        }\r\n    }\r\n\r\n    /**\r\n     * @dev Returns the substraction of two unsigned integers, with an overflow flag.\r\n     *\r\n     * _Available since v3.4._\r\n     */\r\n    function trySub(uint256 a, uint256 b) internal pure returns (bool, uint256) {\r\n        unchecked {\r\n            if (b > a) return (false, 0);\r\n            return (true, a - b);\r\n        }\r\n    }\r\n\r\n    /**\r\n     * @dev Returns the multiplication of two unsigned integers, with an overflow flag.\r\n     *\r\n     * _Available since v3.4._\r\n     */\r\n    function tryMul(uint256 a, uint256 b) internal pure returns (bool, uint256) {\r\n        unchecked {\r\n            // Gas optimization: this is cheaper than requiring 'a' not being zero, but the\r\n            // benefit is lost if 'b' is also tested.\r\n            // See: https://github.com/OpenZeppelin/openzeppelin-contracts/pull/522\r\n            if (a == 0) return (true, 0);\r\n            uint256 c = a * b;\r\n            if (c / a != b) return (false, 0);\r\n            return (true, c);\r\n        }\r\n    }\r\n\r\n    /**\r\n     * @dev Returns the division of two unsigned integers, with a division by zero flag.\r\n     *\r\n     * _Available since v3.4._\r\n     */\r\n    function tryDiv(uint256 a, uint256 b) internal pure returns (bool, uint256) {\r\n        unchecked {\r\n            if (b == 0) return (false, 0);\r\n            return (true, a / b);\r\n        }\r\n    }\r\n\r\n    /**\r\n     * @dev Returns the remainder of dividing two unsigned integers, with a division by zero flag.\r\n     *\r\n     * _Available since v3.4._\r\n     */\r\n    function tryMod(uint256 a, uint256 b) internal pure returns (bool, uint256) {\r\n        unchecked {\r\n            if (b == 0) return (false, 0);\r\n            return (true, a % b);\r\n        }\r\n    }\r\n\r\n    /**\r\n     * @dev Returns the addition of two unsigned integers, reverting on\r\n     * overflow.\r\n     *\r\n     * Counterpart to Solidity's `+` operator.\r\n     *\r\n     * Requirements:\r\n     *\r\n     * - Addition cannot overflow.\r\n     */\r\n    function add(uint256 a, uint256 b) internal pure returns (uint256) {\r\n        return a + b;\r\n    }\r\n\r\n    /**\r\n     * @dev Returns the subtraction of two unsigned integers, reverting on\r\n     * overflow (when the result is negative).\r\n     *\r\n     * Counterpart to Solidity's `-` operator.\r\n     *\r\n     * Requirements:\r\n     *\r\n     * - Subtraction cannot overflow.\r\n     */\r\n    function sub(uint256 a, uint256 b) internal pure returns (uint256) {\r\n        return a - b;\r\n    }\r\n\r\n    /**\r\n     * @dev Returns the multiplication of two unsigned integers, reverting on\r\n     * overflow.\r\n     *\r\n     * Counterpart to Solidity's `*` operator.\r\n     *\r\n     * Requirements:\r\n     *\r\n     * - Multiplication cannot overflow.\r\n     */\r\n    function mul(uint256 a, uint256 b) internal pure returns (uint256) {\r\n        return a * b;\r\n    }\r\n\r\n    /**\r\n     * @dev Returns the integer division of two unsigned integers, reverting on\r\n     * division by zero. The result is rounded towards zero.\r\n     *\r\n     * Counterpart to Solidity's `/` operator.\r\n     *\r\n     * Requirements:\r\n     *\r\n     * - The divisor cannot be zero.\r\n     */\r\n    function div(uint256 a, uint256 b) internal pure returns (uint256) {\r\n        return a / b;\r\n    }\r\n\r\n    /**\r\n     * @dev Returns the remainder of dividing two unsigned integers. (unsigned integer modulo),\r\n     * reverting when dividing by zero.\r\n     *\r\n     * Counterpart to Solidity's `%` operator. This function uses a `revert`\r\n     * opcode (which leaves remaining gas untouched) while Solidity uses an\r\n     * invalid opcode to revert (consuming all remaining gas).\r\n     *\r\n     * Requirements:\r\n     *\r\n     * - The divisor cannot be zero.\r\n     */\r\n    function mod(uint256 a, uint256 b) internal pure returns (uint256) {\r\n        return a % b;\r\n    }\r\n\r\n    /**\r\n     * @dev Returns the subtraction of two unsigned integers, reverting with custom message on\r\n     * overflow (when the result is negative).\r\n     *\r\n     * CAUTION: This function is deprecated because it requires allocating memory for the error\r\n     * message unnecessarily. For custom revert reasons use {trySub}.\r\n     *\r\n     * Counterpart to Solidity's `-` operator.\r\n     *\r\n     * Requirements:\r\n     *\r\n     * - Subtraction cannot overflow.\r\n     */\r\n    function sub(\r\n        uint256 a,\r\n        uint256 b,\r\n        string memory errorMessage\r\n    ) internal pure returns (uint256) {\r\n        unchecked {\r\n            require(b <= a, errorMessage);\r\n            return a - b;\r\n        }\r\n    }\r\n\r\n    /**\r\n     * @dev Returns the integer division of two unsigned integers, reverting with custom message on\r\n     * division by zero. The result is rounded towards zero.\r\n     *\r\n     * Counterpart to Solidity's `/` operator. Note: this function uses a\r\n     * `revert` opcode (which leaves remaining gas untouched) while Solidity\r\n     * uses an invalid opcode to revert (consuming all remaining gas).\r\n     *\r\n     * Requirements:\r\n     *\r\n     * - The divisor cannot be zero.\r\n     */\r\n    function div(\r\n        uint256 a,\r\n        uint256 b,\r\n        string memory errorMessage\r\n    ) internal pure returns (uint256) {\r\n        unchecked {\r\n            require(b > 0, errorMessage);\r\n            return a / b;\r\n        }\r\n    }\r\n\r\n    /**\r\n     * @dev Returns the remainder of dividing two unsigned integers. (unsigned integer modulo),\r\n     * reverting with custom message when dividing by zero.\r\n     *\r\n     * CAUTION: This function is deprecated because it requires allocating memory for the error\r\n     * message unnecessarily. For custom revert reasons use {tryMod}.\r\n     *\r\n     * Counterpart to Solidity's `%` operator. This function uses a `revert`\r\n     * opcode (which leaves remaining gas untouched) while Solidity uses an\r\n     * invalid opcode to revert (consuming all remaining gas).\r\n     *\r\n     * Requirements:\r\n     *\r\n     * - The divisor cannot be zero.\r\n     */\r\n    function mod(\r\n        uint256 a,\r\n        uint256 b,\r\n        string memory errorMessage\r\n    ) internal pure returns (uint256) {\r\n        unchecked {\r\n            require(b > 0, errorMessage);\r\n            return a % b;\r\n        }\r\n    }\r\n}\r\n\r\n// File: BEP20.sol\r\n\r\n\r\n\r\npragma solidity 0.8.0;\r\n\r\ninterface IBEP20 {\r\n  /**\r\n   * @dev Returns the amount of tokens in existence.\r\n   */\r\n  function totalSupply() external view returns (uint256);\r\n\r\n  /**\r\n   * @dev Returns the token decimals.\r\n   */\r\n  function decimals() external view returns (uint8);\r\n\r\n  /**\r\n   * @dev Returns the token symbol.\r\n   */\r\n  function symbol() external view returns (string memory);\r\n\r\n  /**\r\n  * @dev Returns the token name.\r\n  */\r\n  function name() external view returns (string memory);\r\n\r\n  /**\r\n   * @dev Returns the bep token owner.\r\n   */\r\n  function getOwner() external view returns (address);\r\n\r\n  /**\r\n   * @dev Returns the amount of tokens owned by `account`.\r\n   */\r\n  function balanceOf(address account) external view returns (uint256);\r\n\r\n  /**\r\n   * @dev Moves `amount` tokens from the caller's account to `recipient`.\r\n   *\r\n   * Returns a boolean value indicating whether the operation succeeded.\r\n   *\r\n   * Emits a {Transfer} event.\r\n   */\r\n  function transfer(address recipient, uint256 amount) external returns (bool);\r\n\r\n  /**\r\n   * @dev Returns the remaining number of tokens that `spender` will be\r\n   * allowed to spend on behalf of `owner` through {transferFrom}. This is\r\n   * zero by default.\r\n   *\r\n   * This value changes when {approve} or {transferFrom} are called.\r\n   */\r\n  function allowance(address _owner, address spender) external view returns (uint256);\r\n\r\n  /**\r\n   * @dev Sets `amount` as the allowance of `spender` over the caller's tokens.\r\n   *\r\n   * Returns a boolean value indicating whether the operation succeeded.\r\n   *\r\n   * IMPORTANT: Beware that changing an allowance with this method brings the risk\r\n   * that someone may use both the old and the new allowance by unfortunate\r\n   * transaction ordering. One possible solution to mitigate this race\r\n   * condition is to first reduce the spender's allowance to 0 and set the\r\n   * desired value afterwards:\r\n   * https://github.com/ethereum/EIPs/issues/20#issuecomment-263524729\r\n   *\r\n   * Emits an {Approval} event.\r\n   */\r\n  function approve(address spender, uint256 amount) external returns (bool);\r\n\r\n  /**\r\n   * @dev Moves `amount` tokens from `sender` to `recipient` using the\r\n   * allowance mechanism. `amount` is then deducted from the caller's\r\n   * allowance.\r\n   *\r\n   * Returns a boolean value indicating whether the operation succeeded.\r\n   *\r\n   * Emits a {Transfer} event.\r\n   */\r\n  function transferFrom(address sender, address recipient, uint256 amount) external returns (bool);\r\n\r\n  /**\r\n   * @dev Emitted when `value` tokens are moved from one account (`from`) to\r\n   * another (`to`).\r\n   *\r\n   * Note that `value` may be zero.\r\n   */\r\n  event Transfer(address indexed from, address indexed to, uint256 value);\r\n\r\n  /**\r\n   * @dev Emitted when the allowance of a `spender` for an `owner` is set by\r\n   * a call to {approve}. `value` is the new allowance.\r\n   */\r\n  event Approval(address indexed owner, address indexed spender, uint256 value);\r\n}\r\n\r\n/**\r\n * @dev Provides information about the current execution context, including the\r\n * sender of the transaction and its data. While these are generally available\r\n * via msg.sender and msg.data, they should not be accessed in such a direct\r\n * manner, since when dealing with meta-transactions the account sending and\r\n * paying for execution may not be the actual sender (as far as an application\r\n * is concerned).\r\n *\r\n * This contract is only required for intermediate, library-like contracts.\r\n */\r\ncontract Context {\r\n    function _msgSender() internal view virtual returns (address) {\r\n        return msg.sender;\r\n    }\r\n\r\n    // function _msgData() internal view virtual returns (bytes calldata) {\r\n    //     return msg.data;\r\n    // }\r\n}\r\n\r\n\r\npragma solidity ^0.8.0;\r\n\r\n/**\r\n * @dev Contract module which provides a basic access control mechanism, where\r\n * there is an account (an owner) that can be granted exclusive access to\r\n * specific functions.\r\n *\r\n * By default, the owner account will be the one that deploys the contract. This\r\n * can later be changed with {transferOwnership}.\r\n *\r\n * This module is used through inheritance. It will make available the modifier\r\n * `onlyOwner`, which can be applied to your functions to restrict their use to\r\n * the owner.\r\n */\r\ncontract Ownable is Context {\r\n    address private _owner;\r\n\r\n    event OwnershipTransferred(address indexed previousOwner, address indexed newOwner);\r\n\r\n    /**\r\n     * @dev Initializes the contract setting the deployer as the initial owner.\r\n     */\r\n    constructor() {\r\n        _setOwner(_msgSender());\r\n    }\r\n\r\n    /**\r\n     * @dev Returns the address of the current owner.\r\n     */\r\n    function owner() public view virtual returns (address) {\r\n        return _owner;\r\n    }\r\n\r\n    /**\r\n     * @dev Throws if called by any account other than the owner.\r\n     */\r\n    modifier onlyOwner() {\r\n        require(owner() == _msgSender(), \"Ownable: caller is not the owner\");\r\n        _;\r\n    }\r\n\r\n    /**\r\n     * @dev Leaves the contract without owner. It will not be possible to call\r\n     * `onlyOwner` functions anymore. Can only be called by the current owner.\r\n     *\r\n     * NOTE: Renouncing ownership will leave the contract without an owner,\r\n     * thereby removing any functionality that is only available to the owner.\r\n     */\r\n    function renounceOwnership() public virtual onlyOwner {\r\n        _setOwner(address(0));\r\n    }\r\n\r\n    /**\r\n     * @dev Transfers ownership of the contract to a new account (`newOwner`).\r\n     * Can only be called by the current owner.\r\n     */\r\n    function transferOwnership(address newOwner) public virtual onlyOwner {\r\n        require(newOwner != address(0), \"Ownable: new owner is the zero address\");\r\n        _setOwner(newOwner);\r\n    }\r\n\r\n    function _setOwner(address newOwner) private {\r\n        address oldOwner = _owner;\r\n        _owner = newOwner;\r\n        emit OwnershipTransferred(oldOwner, newOwner);\r\n    }\r\n}\r\n\r\ncontract BEP20 is Ownable, IBEP20 {\r\n    using SafeMath for uint256;\r\n\r\n    mapping (address => uint256) private _balances;\r\n\r\n    mapping (address => mapping (address => uint256)) private _allowances;\r\n\r\n    uint256 private _totalSupply;\r\n\r\n    string private _name;\r\n    string private _symbol;\r\n    uint8 private _decimals;\r\n\r\n    /**\r\n     * @dev Sets the values for {name} and {symbol}, initializes {decimals} with\r\n     * a default value of 18.\r\n     *\r\n     * To select a different value for {decimals}, use {_setupDecimals}.\r\n     *\r\n     * All three of these values are immutable: they can only be set once during\r\n     * construction.\r\n     */\r\n    // constructor (string memory name, string memory symbol) public {\r\n    //     _name = name;\r\n    //     _symbol = symbol;\r\n    //     _decimals = 18;\r\n    // }\r\n    \r\n    function constructor1 (string memory name, string memory symbol) internal {\r\n        _name = name;\r\n        _symbol = symbol;\r\n        _decimals = 18;\r\n    }\r\n\r\n     /**\r\n     * @dev Returns the name of the token.\r\n     */\r\n    function name() public view virtual override returns (string memory) {\r\n        return _name;\r\n    }\r\n\r\n    /**\r\n     * @dev Returns the symbol of the token, usually a shorter version of the\r\n     * name.\r\n     */\r\n    function symbol() public view virtual override returns (string memory) {\r\n        return _symbol;\r\n    }\r\n\r\n    function getOwner() public view virtual override returns (address) {\r\n        return owner();\r\n    }\r\n\r\n    /**\r\n     * @dev Returns the number of decimals used to get its user representation.\r\n     * For example, if `decimals` equals `2`, a balance of `505` tokens should\r\n     * be displayed to a user as `5,05` (`505 / 10 ** 2`).\r\n     *\r\n     * Tokens usually opt for a value of 18, imitating the relationship between\r\n     * Ether and Wei. This is the value {ERC20} uses, unless {_setupDecimals} is\r\n     * called.\r\n     *\r\n     * NOTE: This information is only used for _display_ purposes: it in\r\n     * no way affects any of the arithmetic of the contract, including\r\n     * {IERC20-balanceOf} and {IERC20-transfer}.\r\n     */\r\n    function decimals() public view virtual override returns (uint8) {\r\n        return _decimals;\r\n    }\r\n\r\n    /**\r\n     * @dev See {IERC20-totalSupply}.\r\n     */\r\n    function totalSupply() public view virtual override returns (uint256) {\r\n        return _totalSupply;\r\n    }\r\n\r\n    /**\r\n     * @dev See {IERC20-balanceOf}.\r\n     */\r\n    function balanceOf(address account) public virtual view override returns (uint256) {\r\n        return _balances[account];\r\n    }\r\n\r\n    /**\r\n     * @dev See {IERC20-transfer}.\r\n     *\r\n     * Requirements:\r\n     *\r\n     * - `recipient` cannot be the zero address.\r\n     * - the caller must have a balance of at least `amount`.\r\n     */\r\n    function transfer(address recipient, uint256 amount) public virtual override returns (bool) {\r\n        _transfer(_msgSender(), recipient, amount);\r\n        return true;\r\n    }\r\n\r\n    /**\r\n     * @dev See {IERC20-allowance}.\r\n     */\r\n    function allowance(address _owner, address spender) public view virtual override returns (uint256) {\r\n        return _allowances[_owner][spender];\r\n    }\r\n    \r\n\r\n    /**\r\n     * @dev See {IERC20-approve}.\r\n     *\r\n     * Requirements:\r\n     *\r\n     * - `spender` cannot be the zero address.\r\n     */\r\n    function approve(address spender, uint256 amount) public virtual override returns (bool) {\r\n        _approve(_msgSender(), spender, amount);\r\n        return true;\r\n    }\r\n\r\n    /**\r\n     * @dev See {IERC20-transferFrom}.\r\n     *\r\n     * Emits an {Approval} event indicating the updated allowance. This is not\r\n     * required by the EIP. See the note at the beginning of {ERC20}.\r\n     *\r\n     * Requirements:\r\n     *\r\n     * - `sender` and `recipient` cannot be the zero address.\r\n     * - `sender` must have a balance of at least `amount`.\r\n     * - the caller must have allowance for ``sender``'s tokens of at least\r\n     * `amount`.\r\n     */\r\n    function transferFrom(address sender, address recipient, uint256 amount) public virtual override returns (bool) {\r\n        _transfer(sender, recipient, amount);\r\n        _approve(sender, _msgSender(), _allowances[sender][_msgSender()].sub(amount, \"ERC20: transfer amount exceeds allowance\"));\r\n        return true;\r\n    }\r\n\r\n    /**\r\n     * @dev Atomically increases the allowance granted to `spender` by the caller.\r\n     *\r\n     * This is an alternative to {approve} that can be used as a mitigation for\r\n     * problems described in {IERC20-approve}.\r\n     *\r\n     * Emits an {Approval} event indicating the updated allowance.\r\n     *\r\n     * Requirements:\r\n     *\r\n     * - `spender` cannot be the zero address.\r\n     */\r\n    function increaseAllowance(address spender, uint256 addedValue) public virtual returns (bool) {\r\n        _approve(_msgSender(), spender, _allowances[_msgSender()][spender].add(addedValue));\r\n        return true;\r\n    }\r\n\r\n    /**\r\n     * @dev Atomically decreases the allowance granted to `spender` by the caller.\r\n     *\r\n     * This is an alternative to {approve} that can be used as a mitigation for\r\n     * problems described in {IERC20-approve}.\r\n     *\r\n     * Emits an {Approval} event indicating the updated allowance.\r\n     *\r\n     * Requirements:\r\n     *\r\n     * - `spender` cannot be the zero address.\r\n     * - `spender` must have allowance for the caller of at least\r\n     * `subtractedValue`.\r\n     */\r\n    function decreaseAllowance(address spender, uint256 subtractedValue) public virtual returns (bool) {\r\n        _approve(_msgSender(), spender, _allowances[_msgSender()][spender].sub(subtractedValue, \"ERC20: decreased allowance below zero\"));\r\n        return true;\r\n    }\r\n\r\n    /**\r\n     * @dev Moves tokens `amount` from `sender` to `recipient`.\r\n     *\r\n     * This is internal function is equivalent to {transfer}, and can be used to\r\n     * e.g. implement automatic token fees, slashing mechanisms, etc.\r\n     *\r\n     * Emits a {Transfer} event.\r\n     *\r\n     * Requirements:\r\n     *\r\n     * - `sender` cannot be the zero address.\r\n     * - `recipient` cannot be the zero address.\r\n     * - `sender` must have a balance of at least `amount`.\r\n     */\r\n    function _transfer(address sender, address recipient, uint256 amount) internal virtual {\r\n        require(sender != address(0), \"ERC20: transfer from the zero address\");\r\n        require(recipient != address(0), \"ERC20: transfer to the zero address\");\r\n\r\n        _beforeTokenTransfer(sender, recipient, amount);\r\n\r\n        _balances[sender] = _balances[sender].sub(amount, \"ERC20: transfer amount exceeds balance\");\r\n        _balances[recipient] = _balances[recipient].add(amount);\r\n        emit Transfer(sender, recipient, amount);\r\n    }\r\n\r\n    /** @dev Creates `amount` tokens and assigns them to `account`, increasing\r\n     * the total supply.\r\n     *\r\n     * Emits a {Transfer} event with `from` set to the zero address.\r\n     *\r\n     * Requirements:\r\n     *\r\n     * - `to` cannot be the zero address.\r\n     */\r\n    function _mint(address account, uint256 amount) internal virtual {\r\n        require(account != address(0), \"ERC20: mint to the zero address\");\r\n\r\n        _beforeTokenTransfer(address(0), account, amount);\r\n\r\n        _totalSupply = _totalSupply.add(amount);\r\n        _balances[account] = _balances[account].add(amount);\r\n        emit Transfer(address(0), account, amount);\r\n    }\r\n\r\n    /**\r\n     * @dev Destroys `amount` tokens from `account`, reducing the\r\n     * total supply.\r\n     *\r\n     * Emits a {Transfer} event with `to` set to the zero address.\r\n     *\r\n     * Requirements:\r\n     *\r\n     * - `account` cannot be the zero address.\r\n     * - `account` must have at least `amount` tokens.\r\n     */\r\n    function _burn(address account, uint256 amount) internal virtual {\r\n        require(account != address(0), \"ERC20: burn from the zero address\");\r\n\r\n        _beforeTokenTransfer(account, address(0), amount);\r\n\r\n        _balances[account] = _balances[account].sub(amount, \"ERC20: burn amount exceeds balance\");\r\n        _totalSupply = _totalSupply.sub(amount);\r\n        emit Transfer(account, address(0), amount);\r\n    }\r\n\r\n    /**\r\n     * @dev Sets `amount` as the allowance of `spender` over the `owner` s tokens.\r\n     *\r\n     * This internal function is equivalent to `approve`, and can be used to\r\n     * e.g. set automatic allowances for certain subsystems, etc.\r\n     *\r\n     * Emits an {Approval} event.\r\n     *\r\n     * Requirements:\r\n     *\r\n     * - `owner` cannot be the zero address.\r\n     * - `spender` cannot be the zero address.\r\n     */\r\n    function _approve(address owner, address spender, uint256 amount) internal virtual {\r\n        require(owner != address(0), \"ERC20: approve from the zero address\");\r\n        require(spender != address(0), \"ERC20: approve to the zero address\");\r\n\r\n        _allowances[owner][spender] = amount;\r\n        emit Approval(owner, spender, amount);\r\n    }\r\n\r\n    /**\r\n     * @dev Sets {decimals} to a value other than the default one of 18.\r\n     *\r\n     * WARNING: This function should only be called from the constructor. Most\r\n     * applications that interact with token contracts will not expect\r\n     * {decimals} to ever change, and may work incorrectly if it does.\r\n     */\r\n    function _setupDecimals(uint8 decimals_) internal {\r\n        _decimals = decimals_;\r\n    }\r\n\r\n    /**\r\n     * @dev Hook that is called before any transfer of tokens. This includes\r\n     * minting and burning.\r\n     *\r\n     * Calling conditions:\r\n     *\r\n     * - when `from` and `to` are both non-zero, `amount` of ``from``'s tokens\r\n     * will be to transferred to `to`.\r\n     * - when `from` is zero, `amount` tokens will be minted for `to`.\r\n     * - when `to` is zero, `amount` of ``from``'s tokens will be burned.\r\n     * - `from` and `to` are never both zero.\r\n     *\r\n     * To learn more about hooks, head to xref:ROOT:extending-contracts.adoc#using-hooks[Using Hooks].\r\n     */\r\n    function _beforeTokenTransfer(address from, address to, uint256 amount) internal virtual { }\r\n\r\n}\r\n\r\n// File: Spot.sol\r\n\r\npragma solidity ^0.8.0;\r\n\r\n\r\ninterface AggregatorV3Interface {\r\n\r\n  function decimals()\r\n    external\r\n    view\r\n    returns (\r\n      uint8\r\n    );\r\n\r\n  function description()\r\n    external\r\n    view\r\n    returns (\r\n      string memory\r\n    );\r\n\r\n  function version()\r\n    external\r\n    view\r\n    returns (\r\n      uint256\r\n    );\r\n\r\n  // getRoundData and latestRoundData should both raise \"No data present\"\r\n  // if they do not have data to report, instead of returning unset values\r\n  // which could be misinterpreted as actual reported values.\r\n  function getRoundData(\r\n    uint80 _roundId\r\n  )\r\n    external\r\n    view\r\n    returns (\r\n      uint80 roundId,\r\n      int256 answer,\r\n      uint256 startedAt,\r\n      uint256 updatedAt,\r\n      uint80 answeredInRound\r\n    );\r\n\r\n  function latestRoundData()\r\n    external\r\n    view\r\n    returns (\r\n      uint80 roundId,\r\n      int256 answer,\r\n      uint256 startedAt,\r\n      uint256 updatedAt,\r\n      uint80 answeredInRound\r\n    );\r\n\r\n}\r\n\r\n// pragma solidity >=0.6.2;\r\n\r\ninterface IUniswapV2Router01 {\r\n    function factory() external pure returns (address);\r\n    function WETH() external pure returns (address);\r\n\r\n   \r\n\r\n    function quote(uint amountA, uint reserveA, uint reserveB) external pure returns (uint amountB);\r\n    function getAmountOut(uint amountIn, uint reserveIn, uint reserveOut) external pure returns (uint amountOut);\r\n    function getAmountIn(uint amountOut, uint reserveIn, uint reserveOut) external pure returns (uint amountIn);\r\n    function getAmountsOut(uint amountIn, address[] calldata path) external view returns (uint[] memory amounts);\r\n    function getAmountsIn(uint amountOut, address[] calldata path) external view returns (uint[] memory amounts);\r\n}\r\n\r\n\r\n\r\n// pragma solidity >=0.6.2;\r\n\r\ninterface IUniswapV2Router02 is IUniswapV2Router01 {\r\n    \r\n}\r\n\r\ncontract Proxiable {\r\n    // Code position in storage is keccak256(\"PROXIABLE\") = \"0xc5f16f0fcc639fa48a6947836d9850f504798523bf8c9a3a87d5876cf622bcf7\"\r\n\r\n    function updateCodeAddress(address newAddress) internal {\r\n        require(\r\n            bytes32(0xc5f16f0fcc639fa48a6947836d9850f504798523bf8c9a3a87d5876cf622bcf7) == Proxiable(newAddress).proxiableUUID(),\r\n            \"Not compatible\"\r\n        );\r\n        assembly { // solium-disable-line\r\n            sstore(0xc5f16f0fcc639fa48a6947836d9850f504798523bf8c9a3a87d5876cf622bcf7, newAddress)\r\n        }\r\n    }\r\n    function proxiableUUID() public pure returns (bytes32) {\r\n        return 0xc5f16f0fcc639fa48a6947836d9850f504798523bf8c9a3a87d5876cf622bcf7;\r\n    }\r\n}\r\n\r\ncontract LibraryLockDataLayout {\r\n  bool public initialized = false;\r\n}\r\n\r\ncontract LibraryLock is LibraryLockDataLayout {\r\n    // Ensures no one can manipulate the Logic Contract once it is deployed.\r\n    // PARITY WALLET HACK PREVENTION\r\n\r\n    modifier delegatedOnly() {\r\n        require(initialized == true, \"The library is locked. No direct 'call' is allowed\");\r\n        _;\r\n    }\r\n    function initialize() internal {\r\n        initialized = true;\r\n    }\r\n}\r\n\r\ncontract DataLayout is LibraryLock {\r\n    address[] public markets;\r\n    address public owner;\r\n    address public versusToken;\r\n\r\n    struct marketStruct {\r\n        uint256 round;\r\n        uint targetPrice;\r\n        uint256 longBNB;\r\n        uint256 shortBNB;\r\n        uint256 roundEnd;\r\n        address[] currentEntrants;\r\n        uint256 nextRoundLong;\r\n        uint256 nextRoundShort;\r\n        address[] nextEntrants;\r\n        uint[] targetHistory;\r\n        uint256[] longHistory;\r\n        uint256[] shortHistory;\r\n        uint[] closingHistory;\r\n    }\r\n    mapping(address => marketStruct) public marketData; \r\n    mapping(address => mapping(uint256 => mapping(address => bool))) public entrantData;\r\n    mapping(address => mapping(uint256 => mapping(address => bool))) public entrantPosition;\r\n\r\n   \r\n    //user => index => token address\r\n    mapping(address => mapping(uint256 => address)) public userTokenHistory;\r\n    //user => index => token address => round\r\n    mapping(address => mapping(uint256 => mapping(address => uint256))) public userTokenRoundHistory;\r\n    //user => index => token address => round => BNB\r\n    mapping(address => mapping(uint256 => mapping(address => mapping(uint256 => uint256)))) public userBNBHistory;\r\n    //user => index => token address => round => bool\r\n    mapping(address => mapping(uint256 => mapping(address => mapping(uint256 => bool)))) public userPositionHistory;\r\n    //user => index => token address => round => bool\r\n    mapping(address => mapping(uint256 => mapping(address => mapping(uint256 => bool)))) public userFreePredictionHistory;\r\n    //user => index => token address => round => bool\r\n    mapping(address => mapping(uint256 => mapping(address => mapping(uint256 => bool)))) public userClaimHistory;\r\n    //user => index => token address => round => winnings\r\n    mapping(address => mapping(uint256 => mapping(address => mapping(uint256 => uint256)))) public userWinHistory;\r\n    //user => index\r\n    mapping(address => uint256) public userCurrentIndex;\r\n}\r\n\r\n\r\n\r\ncontract SpotBattle is DataLayout, Proxiable{\r\n\r\n \r\n    using SafeMath for uint256;\r\n\r\n    modifier _onlyOwner() {\r\n        require(msg.sender == owner);\r\n        _;\r\n    }\r\n\r\n    constructor() public {\r\n        \r\n    }\r\n\r\n    function updateCode(address newCode) public _onlyOwner delegatedOnly  {\r\n        updateCodeAddress(newCode);\r\n    }\r\n\r\n    receive() external payable {\r\n        \r\n    }\r\n\r\n    function battleConstructor(address _versusToken) public {\r\n        require(!initialized, \"Contract is already initialized\");\r\n        owner = msg.sender;\r\n        versusToken = _versusToken;\r\n        initialize();\r\n    }\r\n\r\n    \r\n    function addMarket(address token) public _onlyOwner {\r\n        markets.push(token);\r\n        marketData[token].round = 1;\r\n        marketData[token].targetPrice = uint(getLatestPrice(token)); // get price from chainlink price feed\r\n        marketData[token].roundEnd = block.timestamp.add(5 minutes);//block.timestamp + 5 mins in blocks\r\n\r\n        marketData[token].targetHistory.push(marketData[token].targetPrice);\r\n\r\n    }\r\n\r\n    function getLatestPrice(address token) public view returns (int) {\r\n        AggregatorV3Interface priceFeed = AggregatorV3Interface(token);\r\n        (\r\n            uint80 roundID, \r\n            int price,\r\n            uint startedAt,\r\n            uint timeStamp,\r\n            uint80 answeredInRound\r\n        ) = priceFeed.latestRoundData();\r\n        return price;\r\n    }\r\n    \r\n    function setVersusToken(address token) public _onlyOwner {\r\n        versusToken = token;\r\n    }\r\n\r\n    function nextRoundPrediction(address token, uint32 index, bool isLonging, bool freePrediction) public payable {\r\n        require(markets[index] == token);\r\n        //check if user has placed prediction in market\r\n        bool hasPosition = entrantData[token][marketData[token].round+1][msg.sender];\r\n        require(!hasPosition);\r\n\r\n        uint256 BNBAmount;\r\n        if (freePrediction) {\r\n            require(msg.value == 0);\r\n            //check if user has staked long enough for a free prediction\r\n            uint256 contractBNB = address(this).balance;\r\n            VersusToken(versusToken).hasFreePrediction(msg.sender);\r\n            BNBAmount = address(this).balance.sub(contractBNB);\r\n        }\r\n\r\n        if (!freePrediction) {\r\n            require (msg.value > 0);\r\n            BNBAmount = msg.value;\r\n        }\r\n        \r\n        //send 3% of value to token contract as fees\r\n        uint256 fees = BNBAmount.mul(3).div(100);\r\n        VersusToken(versusToken).returnPredictionFees{value: fees}();\r\n        \r\n        // set user position data\r\n        userCurrentIndex[msg.sender] = userCurrentIndex[msg.sender] + 1;\r\n        userTokenHistory[msg.sender][userCurrentIndex[msg.sender]] = token;\r\n        userTokenRoundHistory[msg.sender][userCurrentIndex[msg.sender]][token] = marketData[token].round + 1;\r\n        userBNBHistory[msg.sender][userCurrentIndex[msg.sender]][token][marketData[token].round + 1] = BNBAmount.sub(fees);\r\n        userPositionHistory[msg.sender][userCurrentIndex[msg.sender]][token][marketData[token].round + 1] = isLonging;\r\n        userFreePredictionHistory[msg.sender][userCurrentIndex[msg.sender]][token][marketData[token].round + 1] = freePrediction;\r\n  \r\n        if(isLonging) {\r\n            marketData[token].nextRoundLong = marketData[token].nextRoundLong.add(BNBAmount.sub(fees));\r\n        } else {\r\n            marketData[token].nextRoundShort = marketData[token].nextRoundShort.add(BNBAmount.sub(fees));\r\n        }\r\n\r\n        entrantData[token][marketData[token].round+1][msg.sender] = true;\r\n        entrantPosition[token][marketData[token].round+1][msg.sender] = isLonging;\r\n        // claim(msg.sender);\r\n        VersusToken(versusToken).updateStats(msg.sender, BNBAmount.sub(fees));\r\n    }\r\n\r\n    function expireRound(address token, uint32 index) public {\r\n        require(markets[index] == token);\r\n        require(block.timestamp >= marketData[token].roundEnd);\r\n        marketData[token].longHistory.push(marketData[token].longBNB);\r\n        marketData[token].shortHistory.push(marketData[token].shortBNB);\r\n        uint closingPrice = uint(getLatestPrice(token)); //get current closing price\r\n        marketData[token].targetHistory.push(marketData[token].targetPrice);\r\n        marketData[token].closingHistory.push(closingPrice);\r\n        marketData[token].targetPrice = closingPrice;\r\n\r\n        marketData[token].longBNB = marketData[token].nextRoundLong;\r\n        marketData[token].shortBNB = marketData[token].nextRoundShort;\r\n        marketData[token].nextRoundLong = 0;\r\n        marketData[token].nextRoundShort = 0;\r\n\r\n        marketData[token].round = marketData[token].round + 1;\r\n        marketData[token].roundEnd = block.timestamp.add(5 minutes);\r\n        //reward function caller with amount of versus(maybe)\r\n\r\n    }\r\n\r\n    function getSpotInfo(address token, address user) public view returns(uint256[] memory, uint256[] memory, uint256[] memory, bool[] memory, bool[] memory) {\r\n        uint256[] memory currentInfo = new uint256[](5);\r\n        currentInfo[0] = marketData[token].longBNB;\r\n        currentInfo[1] = marketData[token].shortBNB;\r\n        currentInfo[2] = marketData[token].roundEnd;\r\n        currentInfo[3]= marketData[token].round;\r\n        currentInfo[4]= marketData[token].targetPrice;\r\n        \r\n\r\n        uint256[] memory nextInfo = new uint256[](2);\r\n        nextInfo[0] = marketData[token].nextRoundLong;\r\n        nextInfo[1] = marketData[token].nextRoundShort;\r\n\r\n        uint256[] memory pastInfo = new uint256[](3);\r\n        if (marketData[token].round >= 2) {\r\n            pastInfo[0] = marketData[token].longHistory[marketData[token].round-2];\r\n            pastInfo[1] = marketData[token].shortHistory[marketData[token].round-2];\r\n            pastInfo[2] = marketData[token].closingHistory[marketData[token].round-2];\r\n        }\r\n        \r\n\r\n        \r\n        return(\r\n            currentInfo,\r\n            nextInfo,\r\n            pastInfo,\r\n            getUserSpotEntry(token, user),\r\n            getUserSpotPosition(token, user)\r\n        );\r\n    }\r\n    \r\n    function getUserSpotEntry(address token, address user) view internal returns(bool[] memory) {\r\n        bool[] memory userInfo = new bool[](3);\r\n        userInfo[0] = entrantData[token][marketData[token].round-1][user];\r\n        userInfo[1] = entrantData[token][marketData[token].round][user];\r\n        userInfo[2] = entrantData[token][marketData[token].round+1][user];\r\n        \r\n        return(userInfo);\r\n    }\r\n    \r\n    function getUserSpotPosition(address token, address user) view internal returns(bool[] memory) {\r\n\r\n        bool[] memory userPosition = new bool[](3);\r\n        userPosition[0] = entrantPosition[token][marketData[token].round-1][user];\r\n        userPosition[1] = entrantPosition[token][marketData[token].round][user];\r\n        userPosition[2] = entrantPosition[token][marketData[token].round+1][user];\r\n        \r\n        return(userPosition);\r\n    }\r\n\r\n    function getUserMarketHistory(address user, uint256 sIndex, uint256 topLimit) public view returns(\r\n        address[] memory,\r\n        uint256[] memory,\r\n        uint256[] memory,\r\n        bool[] memory,\r\n        bool[] memory) {\r\n            \r\n        address[] memory tokenHistory = new address[](topLimit);\r\n        uint256[] memory roundHistory = new uint256[](topLimit);\r\n        uint256[] memory BNBHistory = new uint256[](topLimit);\r\n        bool[] memory positionHistory = new bool[](topLimit);\r\n        bool[] memory winClaimed = new bool[](topLimit);\r\n        \r\n        for(uint i; i < topLimit; i++) {\r\n            tokenHistory[i] = userTokenHistory[user][sIndex - i];\r\n            roundHistory[i] = userTokenRoundHistory[user][sIndex - i][tokenHistory[i]];\r\n            BNBHistory[i] = userBNBHistory[user][sIndex - i][tokenHistory[i]][roundHistory[i]];\r\n            positionHistory[i] = userPositionHistory[user][sIndex - i][tokenHistory[i]][roundHistory[i]];\r\n            //user => index => token address => round => bool\r\n            winClaimed[i] = userClaimHistory[user][sIndex - i][tokenHistory[i]][roundHistory[i]];\r\n        }\r\n        return(\r\n            tokenHistory,\r\n            roundHistory,\r\n            BNBHistory,\r\n            positionHistory,\r\n            winClaimed\r\n        );\r\n    }\r\n    \r\n    //REMOVE(FOR TESTING ONLY)\r\n    function setClaimHistory(address user, uint256 index, uint256 round) public {\r\n        userClaimHistory[user][index][markets[0]][round] = false;\r\n    }\r\n\r\n    function claim(address user, uint256 userIndex) public {\r\n        address token = userTokenHistory[user][userIndex];\r\n        uint256 round = userTokenRoundHistory[user][userIndex][token];\r\n\r\n        // make sure user has not claimed index yet\r\n        require(!userClaimHistory[user][userIndex][token][round], \"Already claimed\");\r\n        bool longWon = marketData[token].targetHistory[round-1] < marketData[token].closingHistory[round-1];\r\n\r\n        //if user guessed wrong\r\n        if (userPositionHistory[user][userIndex][token][round] != longWon) {\r\n            userClaimHistory[user][userIndex][token][round] = true;\r\n            return;\r\n        }\r\n        \r\n        uint256 BNBUsed = userBNBHistory[user][userIndex][token][round];\r\n\r\n        //add entered amount to winnings\r\n        uint256 winnings;\r\n        if (longWon) {\r\n            if(marketData[token].shortHistory[round-1] > 0 && marketData[token].longHistory[round-1] > 0) {\r\n                winnings = BNBUsed.mul(marketData[token].shortHistory[round-1]).div(marketData[token].longHistory[round-1]);\r\n            }\r\n        } else {\r\n            if(marketData[token].longHistory[round-1] > 0 && marketData[token].shortHistory[round-1] > 0) {\r\n                winnings = BNBUsed.mul(marketData[token].longHistory[round-1]).div(marketData[token].shortHistory[round-1]);   \r\n            }\r\n        }\r\n        winnings = winnings.add(BNBUsed);\r\n        // //send winnings to user after free prediction check and fees\r\n        if (userFreePredictionHistory[user][userIndex][token][round]) {\r\n            //send 99% to token contract\r\n            VersusToken(versusToken).returnFreeBNB{value: winnings.mul(99).div(100)}(user);\r\n            //reduce winnings by 99%\r\n            winnings = winnings.sub(winnings.mul(99).div(100));\r\n        }\r\n        require(winnings > 0, \"0 BNB value\");\r\n        (bool sent, bytes memory data) = payable(user).call{value: winnings}(\"\");\r\n \r\n        //send user Versus as reward, if not free prediction, how much though?\r\n\r\n        userClaimHistory[user][userIndex][token][round] = true;\r\n        VersusToken(versusToken).updateUserWins(user);\r\n\r\n    }\r\n    \r\n}\r\n\r\ninterface VersusToken {\r\n    function hasFreePrediction(address user) external returns(uint256);\r\n    function returnPredictionFees() payable external;\r\n    function returnFreeBNB(address user) payable external;\r\n    function updateStats(address user, uint256 volume) external;\r\n    function updateUserWins(address _user) external;\r\n}",
  "sourcePath": "C:/Users/razgriz/Documents/GitHub/Versus/contracts/contracts/SpotBattle.sol",
  "compiler": {
    "name": "solc",
    "version": "0.8.0+commit.c7dfd78e.Emscripten.clang"
  },
  "schemaVersion": "3.3.3",
  "updatedAt": "2021-10-24T22:41:30.102Z",
  "devdoc": {
    "kind": "dev",
    "methods": {},
    "version": 1
  },
  "userdoc": {
    "kind": "user",
    "methods": {},
    "version": 1
  }
}