{
  "contractName": "TokenBattle",
  "abi": [
    {
      "inputs": [],
      "stateMutability": "nonpayable",
      "type": "constructor"
    },
    {
      "inputs": [
        {
          "internalType": "address",
          "name": "",
          "type": "address"
        }
      ],
      "name": "battleData",
      "outputs": [
        {
          "internalType": "uint256",
          "name": "round",
          "type": "uint256"
        },
        {
          "internalType": "uint256",
          "name": "roundStart",
          "type": "uint256"
        }
      ],
      "stateMutability": "view",
      "type": "function"
    },
    {
      "inputs": [
        {
          "internalType": "uint256",
          "name": "",
          "type": "uint256"
        }
      ],
      "name": "battleHistory",
      "outputs": [
        {
          "internalType": "address",
          "name": "winningToken",
          "type": "address"
        }
      ],
      "stateMutability": "view",
      "type": "function"
    },
    {
      "inputs": [
        {
          "internalType": "uint256",
          "name": "",
          "type": "uint256"
        }
      ],
      "name": "futureTokenList",
      "outputs": [
        {
          "internalType": "address",
          "name": "",
          "type": "address"
        }
      ],
      "stateMutability": "view",
      "type": "function"
    },
    {
      "inputs": [
        {
          "internalType": "uint256",
          "name": "",
          "type": "uint256"
        }
      ],
      "name": "futureTokenPairs",
      "outputs": [
        {
          "internalType": "address",
          "name": "",
          "type": "address"
        }
      ],
      "stateMutability": "view",
      "type": "function"
    },
    {
      "inputs": [],
      "name": "initialized",
      "outputs": [
        {
          "internalType": "bool",
          "name": "",
          "type": "bool"
        }
      ],
      "stateMutability": "view",
      "type": "function"
    },
    {
      "inputs": [
        {
          "internalType": "address",
          "name": "",
          "type": "address"
        }
      ],
      "name": "isAdmin",
      "outputs": [
        {
          "internalType": "bool",
          "name": "",
          "type": "bool"
        }
      ],
      "stateMutability": "view",
      "type": "function"
    },
    {
      "inputs": [
        {
          "internalType": "uint256",
          "name": "",
          "type": "uint256"
        }
      ],
      "name": "markets",
      "outputs": [
        {
          "internalType": "address",
          "name": "",
          "type": "address"
        }
      ],
      "stateMutability": "view",
      "type": "function"
    },
    {
      "inputs": [],
      "name": "owner",
      "outputs": [
        {
          "internalType": "address",
          "name": "",
          "type": "address"
        }
      ],
      "stateMutability": "view",
      "type": "function"
    },
    {
      "inputs": [],
      "name": "pancakeSwapV2",
      "outputs": [
        {
          "internalType": "address",
          "name": "",
          "type": "address"
        }
      ],
      "stateMutability": "view",
      "type": "function"
    },
    {
      "inputs": [],
      "name": "proxiableUUID",
      "outputs": [
        {
          "internalType": "bytes32",
          "name": "",
          "type": "bytes32"
        }
      ],
      "stateMutability": "pure",
      "type": "function"
    },
    {
      "inputs": [
        {
          "internalType": "address",
          "name": "",
          "type": "address"
        }
      ],
      "name": "userHistory",
      "outputs": [
        {
          "internalType": "uint32",
          "name": "totalPredictions",
          "type": "uint32"
        }
      ],
      "stateMutability": "view",
      "type": "function"
    },
    {
      "inputs": [],
      "name": "versusToken",
      "outputs": [
        {
          "internalType": "address",
          "name": "",
          "type": "address"
        }
      ],
      "stateMutability": "view",
      "type": "function"
    },
    {
      "inputs": [],
      "name": "wBNB",
      "outputs": [
        {
          "internalType": "address",
          "name": "",
          "type": "address"
        }
      ],
      "stateMutability": "view",
      "type": "function"
    },
    {
      "stateMutability": "payable",
      "type": "receive"
    },
    {
      "inputs": [],
      "name": "battleConstructor",
      "outputs": [],
      "stateMutability": "nonpayable",
      "type": "function"
    },
    {
      "inputs": [
        {
          "internalType": "address",
          "name": "newCode",
          "type": "address"
        }
      ],
      "name": "updateCode",
      "outputs": [],
      "stateMutability": "nonpayable",
      "type": "function"
    },
    {
      "inputs": [
        {
          "internalType": "address[]",
          "name": "tokens",
          "type": "address[]"
        },
        {
          "internalType": "address[]",
          "name": "pairs",
          "type": "address[]"
        }
      ],
      "name": "initialiseBattle",
      "outputs": [],
      "stateMutability": "nonpayable",
      "type": "function"
    },
    {
      "inputs": [
        {
          "internalType": "uint32",
          "name": "index",
          "type": "uint32"
        },
        {
          "internalType": "address",
          "name": "newToken",
          "type": "address"
        },
        {
          "internalType": "address",
          "name": "newPair",
          "type": "address"
        }
      ],
      "name": "changeNextToken",
      "outputs": [],
      "stateMutability": "nonpayable",
      "type": "function"
    },
    {
      "inputs": [],
      "name": "expireRound",
      "outputs": [],
      "stateMutability": "nonpayable",
      "type": "function"
    },
    {
      "inputs": [
        {
          "internalType": "address",
          "name": "_token",
          "type": "address"
        },
        {
          "internalType": "uint256",
          "name": "tokenIndex",
          "type": "uint256"
        },
        {
          "internalType": "bool",
          "name": "isFreePrediction",
          "type": "bool"
        }
      ],
      "name": "enterBattle",
      "outputs": [],
      "stateMutability": "payable",
      "type": "function"
    },
    {
      "inputs": [
        {
          "internalType": "uint32",
          "name": "index",
          "type": "uint32"
        }
      ],
      "name": "claimWins",
      "outputs": [],
      "stateMutability": "nonpayable",
      "type": "function"
    }
  ],
  "bytecode": "0x60806040526000805460ff1916905534801561001a57600080fd5b50611e0b8061002a6000396000f3fe6080604052600436106101235760003560e01c806356a77e62116100a05780638da5cb5b116100645780638da5cb5b1461030d578063a2b01af514610322578063b1283e7714610342578063c64fac7914610362578063d02eb3f4146103825761012a565b806356a77e621461028e578063655a2a1d146102ae57806366f0d43d146102c35780637316fd31146102d8578063851422f0146102f85761012a565b806334571415116100e757806334571415146101dc5780634232047a1461020a578063469519541461021f5780634ccc616d1461023f57806352d1902d1461026c5761012a565b806305fc270b1461012f578063100cd71d14610144578063158ef93e1461017a578063211941b71461019c57806324d7806c146101bc5761012a565b3661012a57005b600080fd5b61014261013d366004611a9d565b610397565b005b34801561015057600080fd5b5061016461015f366004611a83565b610721565b6040516101719190611ceb565b60405180910390f35b34801561018657600080fd5b5061018f61073c565b6040516101719190611be1565b3480156101a857600080fd5b506101426101b7366004611b71565b610745565b3480156101c857600080fd5b5061018f6101d7366004611a83565b6109aa565b3480156101e857600080fd5b506101fc6101f7366004611a83565b6109bf565b604051610171929190611cdd565b34801561021657600080fd5b506101426109d8565b34801561022b57600080fd5b5061014261023a366004611a83565b610a17565b34801561024b57600080fd5b5061025f61025a366004611b59565b610a61565b6040516101719190611bcd565b34801561027857600080fd5b50610281610a7f565b6040516101719190611bec565b34801561029a57600080fd5b506101426102a9366004611ae0565b610aa3565b3480156102ba57600080fd5b5061025f610dc4565b3480156102cf57600080fd5b5061025f610dd3565b3480156102e457600080fd5b506101426102f3366004611b8b565b610de2565b34801561030457600080fd5b50610142610eaf565b34801561031957600080fd5b5061025f611779565b34801561032e57600080fd5b5061025f61033d366004611b59565b611788565b34801561034e57600080fd5b5061025f61035d366004611b59565b6117b2565b34801561036e57600080fd5b5061025f61037d366004611b59565b6117c2565b34801561038e57600080fd5b5061025f6117d2565b826001600160a01b0316600183815481106103c257634e487b7160e01b600052603260045260246000fd5b6000918252602090912001546001600160a01b0316146103e157600080fd5b3360009081526009602090815260408083206001018054825181850281018501909352808352919290919083018282801561043b57602002820191906000526020600020905b815481526020019060010190808311610427575b50503060009081526005602052604090205493945061046193925060019150611cfc9050565b81600183516104709190611d53565b8151811061048e57634e487b7160e01b600052603260045260246000fd5b6020026020010151106104a057600080fd5b6000821561053c5734156104b357600080fd5b6003546040516307ec14f360e01b81526001600160a01b03909116906307ec14f3906104e3903390600401611bcd565b602060405180830381600087803b1580156104fd57600080fd5b505af1158015610511573d6000803e3d6000fd5b505050506040513d601f19601f820116820180604052508101906105359190611b41565b905061054c565b6000341161054957600080fd5b50345b806000610565606461055f8460036117e1565b906117f4565b9050600360009054906101000a90046001600160a01b03166001600160a01b03166363541efb826040518263ffffffff1660e01b81526004016000604051808303818588803b1580156105b757600080fd5b505af11580156105cb573d6000803e3d6000fd5b5050306000908152600560205260409020600401805461062394503493509091508990811061060a57634e487b7160e01b600052603260045260246000fd5b906000526020600020015461180090919063ffffffff16565b30600090815260056020526040902060040180548890811061065557634e487b7160e01b600052603260045260246000fd5b60009182526020808320919091019290925533815260098252604080822080546001808201835582855285852090910180546001600160a01b0319166001600160a01b038e161790553084526005909452912054908201916106b79190611cfc565b815460018082018455600093845260208085209092019290925533835260098152604083206005810180548085018255908552828520838204018054601f9092166101000a60ff021990911690556002018054928301815583529091203491015550505050505050565b60096020526000908152604090206006015463ffffffff1681565b60005460ff1681565b336000908152600960205260409020600501805463ffffffff831690811061077d57634e487b7160e01b600052603260045260246000fd5b90600052602060002090602091828204019190069054906101000a900460ff16156107c35760405162461bcd60e51b81526004016107ba90611c54565b60405180910390fd5b336000908152600960205260408120600101805463ffffffff84169081106107fb57634e487b7160e01b600052603260045260246000fd5b60009182526020808320909101543383526009909152604090912080549192509063ffffffff841690811061084057634e487b7160e01b600052603260045260246000fd5b600091825260208083209091015483835260069091526040909120600101546001600160a01b03908116911614156109a6576000818152600660208190526040822001805463ffffffff85169081106108a957634e487b7160e01b600052603260045260246000fd5b600091825260208083209091015433835260099091526040909120600201805463ffffffff86169081106108ed57634e487b7160e01b600052603260045260246000fd5b906000526020600020015460646109049190611d34565b61090e9190611d14565b604051909150339082156108fc029083906000818181858888f1935050505015801561093e573d6000803e3d6000fd5b5033600090815260096020526040902060050180546001919063ffffffff861690811061097b57634e487b7160e01b600052603260045260246000fd5b90600052602060002090602091828204019190066101000a81548160ff021916908315150217905550505b5050565b600a6020526000908152604090205460ff1681565b6005602081905260009182526040909120805491015482565b60005460ff16156109fb5760405162461bcd60e51b81526004016107ba90611c1d565b600280546001600160a01b03191633179055610a1561180c565b565b6002546001600160a01b03163314610a2e57600080fd5b60005460ff161515600114610a555760405162461bcd60e51b81526004016107ba90611c8b565b610a5e8161181b565b50565b6006602052600090815260409020600101546001600160a01b031681565b7fc5f16f0fcc639fa48a6947836d9850f504798523bf8c9a3a87d5876cf622bcf790565b336000908152600a602052604090205460ff16610abf57600080fd5b600a82511115610ace57600080fd5b8151610ae19060079060208501906118fa565b508051610af59060089060208401906118fa565b5030600090815260056020908152604090912060018082558451610b209392909101918501906118fa565b503060009081526005602090815260409091208251610b47926002909201918401906118fa565b503060009081526005602081905260408220439101555b82518163ffffffff161015610dbf57818163ffffffff1681518110610b9357634e487b7160e01b600052603260045260246000fd5b60200260200101516001600160a01b03166370a08231848363ffffffff1681518110610bcf57634e487b7160e01b600052603260045260246000fd5b60200260200101516040518263ffffffff1660e01b8152600401610bf39190611bcd565b60206040518083038186803b158015610c0b57600080fd5b505afa158015610c1f573d6000803e3d6000fd5b505050506040513d601f19601f82011682018060405250810190610c439190611b41565b306000908152600560205260409020600301805463ffffffff8416908110610c7b57634e487b7160e01b600052603260045260246000fd5b600091825260208083209091019290925530808252600583526040822060048101805460018101825590845293832090930182905590528351600690910190849063ffffffff8416908110610ce057634e487b7160e01b600052603260045260246000fd5b602090810291909101810151825460018101845560009384528284200180546001600160a01b0319166001600160a01b0390921691909117905530825260059052604090208251600790910190839063ffffffff8416908110610d5357634e487b7160e01b600052603260045260246000fd5b602090810291909101810151825460018082018555600094855283852090910180546001600160a01b0319166001600160a01b03909316929092179091553083526005825260408320600801805491820181558352908220015580610db781611d85565b915050610b5e565b505050565b600b546001600160a01b031681565b6003546001600160a01b031681565b336000908152600a602052604090205460ff16610dfe57600080fd5b8160078463ffffffff1681548110610e2657634e487b7160e01b600052603260045260246000fd5b9060005260206000200160006101000a8154816001600160a01b0302191690836001600160a01b031602179055508060088463ffffffff1681548110610e7c57634e487b7160e01b600052603260045260246000fd5b9060005260206000200160006101000a8154816001600160a01b0302191690836001600160a01b03160217905550505050565b30600090815260056020819052604090912001544390610ed1906103e8611800565b10610edb57600080fd5b30600090815260056020526040812054819081908190815b60015481101561166f57306000908152600560205260408120600301805483908110610f2f57634e487b7160e01b600052603260045260246000fd5b600091825260208083209091015430835260059091526040822060020180549193509084908110610f7057634e487b7160e01b600052603260045260246000fd5b600091825260209091200154600180546001600160a01b03909216916370a08231919086908110610fb157634e487b7160e01b600052603260045260246000fd5b6000918252602090912001546040516001600160e01b031960e084901b168152610fe7916001600160a01b031690600401611bcd565b60206040518083038186803b158015610fff57600080fd5b505afa158015611013573d6000803e3d6000fd5b505050506040513d601f19601f820116820180604052508101906110379190611b41565b60008581526006602052604090206001805492935090918590811061106c57634e487b7160e01b600052603260045260246000fd5b60009182526020808320909101548354600181810186559484528284200180546001600160a01b0319166001600160a01b03909216919091179055868252600680825260408084206002810180548088018255908652848620018890556003810180548088018255908652848620018790553080865260058086529286208084015460048085018054808c018255908a52888a2001919091558484018054998a0181558852868820439901989098559552925291909201805492909101918590811061114857634e487b7160e01b600052603260045260246000fd5b600091825260208083209091015483546001810185559383529120909101558181101561121357846111bd5761117e82826118ee565b9450600183815481106111a157634e487b7160e01b600052603260045260246000fd5b6000918252602090912001546001600160a01b03169550611213565b846111c883836118ee565b1015611213576111d882826118ee565b9450600183815481106111fb57634e487b7160e01b600052603260045260246000fd5b6000918252602090912001546001600160a01b031695505b818111156112bf57866112695761122a81836118ee565b96506001838154811061124d57634e487b7160e01b600052603260045260246000fd5b6000918252602090912001546001600160a01b031697506112bf565b61127381836118ee565b8710156112bf5761128481836118ee565b9650600183815481106112a757634e487b7160e01b600052603260045260246000fd5b6000918252602090912001546001600160a01b031697505b3060009081526005602052604090206002018054849081106112f157634e487b7160e01b600052603260045260246000fd5b600091825260209091200154600180546001600160a01b03909216916370a0823191908690811061133257634e487b7160e01b600052603260045260246000fd5b6000918252602090912001546040516001600160e01b031960e084901b168152611368916001600160a01b031690600401611bcd565b60206040518083038186803b15801561138057600080fd5b505afa158015611394573d6000803e3d6000fd5b505050506040513d601f19601f820116820180604052508101906113b89190611b41565b60008581526006602052604090206003018054859081106113e957634e487b7160e01b600052603260045260246000fd5b600091825260208083209091019290925530815260059091526040902060020180548490811061142957634e487b7160e01b600052603260045260246000fd5b60009182526020808320909101543083526005909152604090912060020180546001600160a01b03909216916370a0823191908690811061147a57634e487b7160e01b600052603260045260246000fd5b6000918252602090912001546040516001600160e01b031960e084901b1681526114b0916001600160a01b031690600401611bcd565b60206040518083038186803b1580156114c857600080fd5b505afa1580156114dc573d6000803e3d6000fd5b505050506040513d601f19601f820116820180604052508101906115009190611b41565b30600090815260056020526040902060030180548590811061153257634e487b7160e01b600052603260045260246000fd5b60009182526020808320909101929092553080825260058352604082206004810180546001810182559084529383209093018290559052600780546006909201918590811061159157634e487b7160e01b600052603260045260246000fd5b6000918252602080832090910154835460018101855593835281832090930180546001600160a01b0319166001600160a01b0390941693909317909255308152600590915260409020600880546007909201918590811061160257634e487b7160e01b600052603260045260246000fd5b60009182526020808320909101548354600181810186559484528284200180546001600160a01b0319166001600160a01b0390921691909117905530825260058152604082206008018054938401815582528120909101555081905061166781611d6a565b915050610ef3565b506001600160a01b038516156116ae57600081815260066020526040902060010180546001600160a01b0319166001600160a01b0387161790556116e8565b6001600160a01b038316156116e857600081815260066020526040902060010180546001600160a01b0319166001600160a01b0385161790555b30600090815260056020526040902060068101805461170b92600101919061195f565b5030600090815260056020526040902060078101805461172f92600201919061195f565b503060009081526005602052604090205461174b906001611800565b30600090815260056020526040902090815560088101805461177192600401919061195f565b505050505050565b6002546001600160a01b031681565b6008818154811061179857600080fd5b6000918252602090912001546001600160a01b0316905081565b6001818154811061179857600080fd5b6007818154811061179857600080fd5b6004546001600160a01b031681565b60006117ed8284611d34565b9392505050565b60006117ed8284611d14565b60006117ed8284611cfc565b6000805460ff19166001179055565b806001600160a01b03166352d1902d6040518163ffffffff1660e01b815260040160206040518083038186803b15801561185457600080fd5b505afa158015611868573d6000803e3d6000fd5b505050506040513d601f19601f8201168201806040525081019061188c9190611b41565b7fc5f16f0fcc639fa48a6947836d9850f504798523bf8c9a3a87d5876cf622bcf7146118ca5760405162461bcd60e51b81526004016107ba90611bf5565b7fc5f16f0fcc639fa48a6947836d9850f504798523bf8c9a3a87d5876cf622bcf755565b60006117ed8284611d53565b82805482825590600052602060002090810192821561194f579160200282015b8281111561194f57825182546001600160a01b0319166001600160a01b0390911617825560209092019160019091019061191a565b5061195b92915061199f565b5090565b82805482825590600052602060002090810192821561194f5760005260206000209182015b8281111561194f578254825591600101919060010190611984565b5b8082111561195b57600081556001016119a0565b80356001600160a01b03811681146119cb57600080fd5b919050565b600082601f8301126119e0578081fd5b8135602067ffffffffffffffff808311156119fd576119fd611dbf565b81830260405183828201018181108482111715611a1c57611a1c611dbf565b60405284815283810192508684018288018501891015611a3a578687fd5b8692505b85831015611a6357611a4f816119b4565b845292840192600192909201918401611a3e565b50979650505050505050565b803563ffffffff811681146119cb57600080fd5b600060208284031215611a94578081fd5b6117ed826119b4565b600080600060608486031215611ab1578182fd5b611aba846119b4565b92506020840135915060408401358015158114611ad5578182fd5b809150509250925092565b60008060408385031215611af2578182fd5b823567ffffffffffffffff80821115611b09578384fd5b611b15868387016119d0565b93506020850135915080821115611b2a578283fd5b50611b37858286016119d0565b9150509250929050565b600060208284031215611b52578081fd5b5051919050565b600060208284031215611b6a578081fd5b5035919050565b600060208284031215611b82578081fd5b6117ed82611a6f565b600080600060608486031215611b9f578283fd5b611ba884611a6f565b9250611bb6602085016119b4565b9150611bc4604085016119b4565b90509250925092565b6001600160a01b0391909116815260200190565b901515815260200190565b90815260200190565b6020808252600e908201526d4e6f7420636f6d70617469626c6560901b604082015260600190565b6020808252601f908201527f436f6e747261637420697320616c726561647920696e697469616c697a656400604082015260600190565b60208082526018908201527f456e74727920686173206265656e2066696e616c697a65640000000000000000604082015260600190565b60208082526032908201527f546865206c696272617279206973206c6f636b65642e204e6f206469726563746040820152710809d8d85b1b09c81a5cc8185b1b1bddd95960721b606082015260800190565b918252602082015260400190565b63ffffffff91909116815260200190565b60008219821115611d0f57611d0f611da9565b500190565b600082611d2f57634e487b7160e01b81526012600452602481fd5b500490565b6000816000190483118215151615611d4e57611d4e611da9565b500290565b600082821015611d6557611d65611da9565b500390565b6000600019821415611d7e57611d7e611da9565b5060010190565b600063ffffffff80831681811415611d9f57611d9f611da9565b6001019392505050565b634e487b7160e01b600052601160045260246000fd5b634e487b7160e01b600052604160045260246000fdfea26469706673582212206fa8036b165a92627f6303467656b8074f109d60c982b3415c53dfc86fb3d42f64736f6c63430008000033",
  "immutableReferences": {},
  "source": "pragma solidity ^0.8.0;\r\n\r\nimport \"./BEP20.sol\";\r\nimport \"./CakeInterface.sol\";\r\n\r\ncontract Proxiable {\r\n    // Code position in storage is keccak256(\"PROXIABLE\") = \"0xc5f16f0fcc639fa48a6947836d9850f504798523bf8c9a3a87d5876cf622bcf7\"\r\n\r\n    function updateCodeAddress(address newAddress) internal {\r\n        require(\r\n            bytes32(0xc5f16f0fcc639fa48a6947836d9850f504798523bf8c9a3a87d5876cf622bcf7) == Proxiable(newAddress).proxiableUUID(),\r\n            \"Not compatible\"\r\n        );\r\n        assembly { // solium-disable-line\r\n            sstore(0xc5f16f0fcc639fa48a6947836d9850f504798523bf8c9a3a87d5876cf622bcf7, newAddress)\r\n        }\r\n    }\r\n    function proxiableUUID() public pure returns (bytes32) {\r\n        return 0xc5f16f0fcc639fa48a6947836d9850f504798523bf8c9a3a87d5876cf622bcf7;\r\n    }\r\n}\r\n\r\ncontract LibraryLockDataLayout {\r\n  bool public initialized = false;\r\n}\r\n\r\ncontract LibraryLock is LibraryLockDataLayout {\r\n    // Ensures no one can manipulate the Logic Contract once it is deployed.\r\n    // PARITY WALLET HACK PREVENTION\r\n\r\n    modifier delegatedOnly() {\r\n        require(initialized == true, \"The library is locked. No direct 'call' is allowed\");\r\n        _;\r\n    }\r\n    function initialize() internal {\r\n        initialized = true;\r\n    }\r\n}\r\n\r\ncontract DataLayout is LibraryLock {\r\n    address[] public markets;\r\n    address public owner;\r\n    address public versusToken;\r\n    address public wBNB;\r\n\r\n    struct marketStruct {\r\n        uint256 round;\r\n        address[] tokens;\r\n        address[] pairs;\r\n        uint256[] startBalance;\r\n        uint256[] BNBWaged;\r\n        uint256 roundStart;\r\n        \r\n        address[] nextTokens;\r\n        address[] nextPairs;\r\n        uint256[] nextBNBWaged;\r\n    }\r\n    mapping(address => marketStruct) public battleData; \r\n\r\n    struct marketHistory {\r\n        address[] tokens;\r\n        address winningToken;\r\n        uint256[] startBalance;\r\n        uint256[] endBalance;\r\n        uint256[] roundStart;\r\n        uint256[] roundEnd;\r\n        uint256[] BNBWaged;\r\n    }\r\n    mapping(uint256 => marketHistory) public battleHistory;\r\n\r\n    address[] public futureTokenList;\r\n    address[] public futureTokenPairs;\r\n\r\n    struct userStruct {\r\n        address[] tokenHistory;\r\n        uint256[] round;\r\n        uint256[] BNBAmount;\r\n        uint256[] predictionWinnings;\r\n        bool[] isFreePrediction;\r\n        bool[] isChecked;\r\n        uint32 totalPredictions;\r\n    }\r\n    mapping(address => userStruct) public userHistory;\r\n\r\n    mapping(address => bool) public isAdmin;\r\n\r\n    address public pancakeSwapV2;\r\n}\r\n\r\ncontract TokenBattle is DataLayout, Proxiable{\r\n    \r\n    using SafeMath for uint256;\r\n\r\n    modifier _onlyOwner() {\r\n        require(msg.sender == owner);\r\n        _;\r\n    }\r\n\r\n    constructor() public {\r\n        \r\n    }\r\n\r\n    receive() external payable {\r\n        \r\n    }\r\n\r\n    function battleConstructor() public {\r\n        require(!initialized, \"Contract is already initialized\");\r\n        owner = msg.sender;\r\n        initialize();\r\n    }\r\n\r\n    function updateCode(address newCode) public _onlyOwner delegatedOnly  {\r\n        updateCodeAddress(newCode);\r\n    }\r\n\r\n\r\n    //add initial tokens(max 10)\r\n    function initialiseBattle(address[] memory tokens, address[] memory pairs) public {\r\n        require(isAdmin[msg.sender]); //centralize admins at versus token\r\n        require(tokens.length <= 10);\r\n        futureTokenList = tokens;\r\n        futureTokenPairs = pairs;\r\n        battleData[address(this)].round = 1;\r\n        battleData[address(this)].tokens = tokens;\r\n        battleData[address(this)].pairs = pairs;\r\n        battleData[address(this)].roundStart = block.number;\r\n        for (uint32 i; i < tokens.length; i++) {\r\n            battleData[address(this)].startBalance[i] = IBEP20(pairs[i]).balanceOf(tokens[i]);//set start Balance\r\n            battleData[address(this)].BNBWaged.push(0);\r\n\r\n            battleData[address(this)].nextTokens.push(tokens[i]);\r\n            battleData[address(this)].nextPairs.push(pairs[i]);\r\n            battleData[address(this)].nextBNBWaged.push(0);\r\n\r\n        }\r\n    }\r\n\r\n\r\n    //change one token, based on index\r\n    function changeNextToken(uint32 index, address newToken, address newPair) public {\r\n        require(isAdmin[msg.sender]);\r\n        //futuretoken\r\n        futureTokenList[index] = newToken;\r\n        futureTokenPairs[index] = newPair;\r\n\r\n    }\r\n\r\n    //expire round\r\n    function expireRound() public {\r\n        require(battleData[address(this)].roundStart.add(1000) < block.number); //determine blocks\r\n        address winningToken;\r\n        uint256 highestBNBChange;\r\n        address leastLossToken;\r\n        uint256 leastLoss;\r\n        uint256 currentRound = battleData[address(this)].round;\r\n        for (uint i; i < markets.length; i++) {\r\n            uint256 startBalance = battleData[address(this)].startBalance[i]; \r\n            uint256 tokenBalance = IBEP20(battleData[address(this)].pairs[i]).balanceOf(markets[i]);\r\n\r\n            //set battleHistory data for the round\r\n            battleHistory[currentRound].tokens.push(markets[i]);\r\n            battleHistory[currentRound].startBalance.push(startBalance);\r\n            battleHistory[currentRound].endBalance.push(tokenBalance);\r\n            battleHistory[currentRound].roundStart.push(battleData[address(this)].roundStart);\r\n            battleHistory[currentRound].roundEnd.push(block.number);\r\n            battleHistory[currentRound].BNBWaged.push(battleData[address(this)].BNBWaged[i]);\r\n\r\n            \r\n            if (tokenBalance < startBalance) {\r\n                if (leastLoss == 0) {\r\n                    leastLoss = startBalance.sub(tokenBalance);\r\n                    leastLossToken = markets[i];\r\n                } else if (startBalance.sub(tokenBalance) < leastLoss) {\r\n                    leastLoss = startBalance.sub(tokenBalance);\r\n                    leastLossToken = markets[i];\r\n                }\r\n            }\r\n\r\n            if (tokenBalance > startBalance) {\r\n                if (highestBNBChange == 0) {\r\n                    highestBNBChange = tokenBalance.sub(startBalance);\r\n                    winningToken = markets[i];\r\n                } else if (highestBNBChange < tokenBalance.sub(startBalance)) {\r\n                    highestBNBChange = tokenBalance.sub(startBalance);\r\n                    winningToken = markets[i];\r\n                }\r\n            }\r\n\r\n            //set endBalance in history\r\n            battleHistory[currentRound].endBalance[i] = IBEP20(battleData[address(this)].pairs[i]).balanceOf(markets[i]);\r\n\r\n            battleData[address(this)].startBalance[i] = IBEP20(battleData[address(this)].pairs[i]).balanceOf(battleData[address(this)].pairs[i]);//set start Balance\r\n            battleData[address(this)].BNBWaged.push(0);\r\n\r\n            //update tokens to futuretokens\r\n            battleData[address(this)].nextTokens.push(futureTokenList[i]);\r\n            battleData[address(this)].nextPairs.push(futureTokenPairs[i]);\r\n            battleData[address(this)].nextBNBWaged.push(0);\r\n        }\r\n\r\n        //check if winningToken exists\r\n        //or for leastLossToken\r\n        //save info in marketHistory\r\n        //update tokens for next round\r\n        if (winningToken != address(0)) {\r\n            battleHistory[currentRound].winningToken = winningToken;\r\n        } else if (leastLossToken != address(0)) {\r\n            battleHistory[currentRound].winningToken = leastLossToken;\r\n        } \r\n        \r\n        //load in next round\r\n        battleData[address(this)].tokens = battleData[address(this)].nextTokens;\r\n        battleData[address(this)].pairs = battleData[address(this)].nextPairs;\r\n        battleData[address(this)].round = battleData[address(this)].round.add(1);\r\n        battleData[address(this)].BNBWaged = battleData[address(this)].nextBNBWaged;\r\n \r\n    }\r\n\r\n    //enter a round(free prediction usable)\r\n    function enterBattle(address _token, uint tokenIndex, bool isFreePrediction) payable public {\r\n        require(markets[tokenIndex] == _token);\r\n\r\n        //check if user has placed prediction in next round\r\n        uint256[] memory userRound = userHistory[msg.sender].round;\r\n        require(userRound[userRound.length-1] < battleData[address(this)].round+1);\r\n        uint256 currentValue;\r\n        if (isFreePrediction) {\r\n            require(msg.value == 0);\r\n            //check if user has staked long enough for a free prediction\r\n            currentValue = VersusToken(versusToken).hasFreePrediction(msg.sender);\r\n        } else {\r\n            require (msg.value > 0);\r\n            currentValue = msg.value;\r\n        }\r\n\r\n        uint256 BNBAmount = currentValue;\r\n        //send 3% of value to token contract as fees\r\n        uint256 fees = BNBAmount.mul(3).div(100);\r\n        VersusToken(versusToken).returnPredictionFees{value: fees}();\r\n\r\n        battleData[address(this)].BNBWaged[tokenIndex] = battleData[address(this)].BNBWaged[tokenIndex].add(msg.value);\r\n        userHistory[msg.sender].tokenHistory.push(_token);\r\n        userHistory[msg.sender].round.push(battleData[address(this)].round+1);\r\n        userHistory[msg.sender].isChecked.push(false);\r\n        userHistory[msg.sender].BNBAmount.push(msg.value);\r\n\r\n    }\r\n\r\n    //claim wins\r\n    function claimWins(uint32 index) public {\r\n        require(!userHistory[msg.sender].isChecked[index], \"Entry has been finalized\");\r\n        //use BNB waged to determine user payout, if winner, else 0\r\n        //if winner, check if prediction was free\r\n        //if winner, update user wins\r\n        uint256 round = userHistory[msg.sender].round[index];\r\n        if(battleHistory[round].winningToken == userHistory[msg.sender].tokenHistory[index]) {\r\n            uint256 userPayout = (userHistory[msg.sender].BNBAmount[index] * 100) / battleHistory[round].BNBWaged[index];\r\n            payable(msg.sender).transfer(userPayout);\r\n            userHistory[msg.sender].isChecked[index] = true;\r\n        }\r\n       \r\n        //update the lastCheckedIndex\r\n    }\r\n\r\n}\r\n\r\ninterface VersusToken {\r\n    function hasFreePrediction(address user) external returns(uint256);\r\n    function returnPredictionFees() payable external;\r\n    function returnFreeBNB() payable external;\r\n    function updateStats(address user, uint256 volume) external;\r\n    function updateUserWins(address _user, bool _isWin) external;\r\n}\r\n",
  "sourcePath": "C:/Users/razgriz/Documents/GitHub/Versus/contracts/contracts/TokenBattle.sol",
  "compiler": {
    "name": "solc",
    "version": "0.8.0+commit.c7dfd78e.Emscripten.clang"
  },
  "schemaVersion": "3.3.3",
  "updatedAt": "2021-08-09T15:10:48.522Z",
  "devdoc": {
    "kind": "dev",
    "methods": {},
    "version": 1
  },
  "userdoc": {
    "kind": "user",
    "methods": {},
    "version": 1
  }
}