{
  "contractName": "TokenBattle",
  "abi": [
    {
      "inputs": [],
      "stateMutability": "nonpayable",
      "type": "constructor"
    },
    {
      "inputs": [
        {
          "internalType": "address",
          "name": "",
          "type": "address"
        }
      ],
      "name": "battleData",
      "outputs": [
        {
          "internalType": "uint256",
          "name": "round",
          "type": "uint256"
        },
        {
          "internalType": "uint256",
          "name": "roundStart",
          "type": "uint256"
        }
      ],
      "stateMutability": "view",
      "type": "function"
    },
    {
      "inputs": [
        {
          "internalType": "uint256",
          "name": "",
          "type": "uint256"
        }
      ],
      "name": "battleHistory",
      "outputs": [
        {
          "internalType": "address",
          "name": "winningToken",
          "type": "address"
        }
      ],
      "stateMutability": "view",
      "type": "function"
    },
    {
      "inputs": [
        {
          "internalType": "uint256",
          "name": "",
          "type": "uint256"
        }
      ],
      "name": "futureTokenList",
      "outputs": [
        {
          "internalType": "address",
          "name": "",
          "type": "address"
        }
      ],
      "stateMutability": "view",
      "type": "function"
    },
    {
      "inputs": [
        {
          "internalType": "uint256",
          "name": "",
          "type": "uint256"
        }
      ],
      "name": "futureTokenPairs",
      "outputs": [
        {
          "internalType": "address",
          "name": "",
          "type": "address"
        }
      ],
      "stateMutability": "view",
      "type": "function"
    },
    {
      "inputs": [],
      "name": "initialized",
      "outputs": [
        {
          "internalType": "bool",
          "name": "",
          "type": "bool"
        }
      ],
      "stateMutability": "view",
      "type": "function"
    },
    {
      "inputs": [
        {
          "internalType": "address",
          "name": "",
          "type": "address"
        }
      ],
      "name": "isAdmin",
      "outputs": [
        {
          "internalType": "bool",
          "name": "",
          "type": "bool"
        }
      ],
      "stateMutability": "view",
      "type": "function"
    },
    {
      "inputs": [
        {
          "internalType": "uint256",
          "name": "",
          "type": "uint256"
        }
      ],
      "name": "markets",
      "outputs": [
        {
          "internalType": "address",
          "name": "",
          "type": "address"
        }
      ],
      "stateMutability": "view",
      "type": "function"
    },
    {
      "inputs": [],
      "name": "owner",
      "outputs": [
        {
          "internalType": "address",
          "name": "",
          "type": "address"
        }
      ],
      "stateMutability": "view",
      "type": "function"
    },
    {
      "inputs": [],
      "name": "pancakeSwapV2",
      "outputs": [
        {
          "internalType": "address",
          "name": "",
          "type": "address"
        }
      ],
      "stateMutability": "view",
      "type": "function"
    },
    {
      "inputs": [],
      "name": "proxiableUUID",
      "outputs": [
        {
          "internalType": "bytes32",
          "name": "",
          "type": "bytes32"
        }
      ],
      "stateMutability": "pure",
      "type": "function"
    },
    {
      "inputs": [
        {
          "internalType": "address",
          "name": "",
          "type": "address"
        }
      ],
      "name": "userHistory",
      "outputs": [
        {
          "internalType": "uint32",
          "name": "totalPredictions",
          "type": "uint32"
        }
      ],
      "stateMutability": "view",
      "type": "function"
    },
    {
      "inputs": [],
      "name": "versusToken",
      "outputs": [
        {
          "internalType": "address",
          "name": "",
          "type": "address"
        }
      ],
      "stateMutability": "view",
      "type": "function"
    },
    {
      "inputs": [],
      "name": "wBNB",
      "outputs": [
        {
          "internalType": "address",
          "name": "",
          "type": "address"
        }
      ],
      "stateMutability": "view",
      "type": "function"
    },
    {
      "stateMutability": "payable",
      "type": "receive"
    },
    {
      "inputs": [
        {
          "internalType": "address",
          "name": "_versusToken",
          "type": "address"
        }
      ],
      "name": "battleConstructor",
      "outputs": [],
      "stateMutability": "nonpayable",
      "type": "function"
    },
    {
      "inputs": [
        {
          "internalType": "address",
          "name": "newCode",
          "type": "address"
        }
      ],
      "name": "updateCode",
      "outputs": [],
      "stateMutability": "nonpayable",
      "type": "function"
    },
    {
      "inputs": [
        {
          "internalType": "address[]",
          "name": "tokens",
          "type": "address[]"
        },
        {
          "internalType": "address[]",
          "name": "pairs",
          "type": "address[]"
        }
      ],
      "name": "initialiseBattle",
      "outputs": [],
      "stateMutability": "nonpayable",
      "type": "function"
    },
    {
      "inputs": [
        {
          "internalType": "uint32",
          "name": "index",
          "type": "uint32"
        },
        {
          "internalType": "address",
          "name": "newToken",
          "type": "address"
        },
        {
          "internalType": "address",
          "name": "newPair",
          "type": "address"
        }
      ],
      "name": "changeNextToken",
      "outputs": [],
      "stateMutability": "nonpayable",
      "type": "function"
    },
    {
      "inputs": [],
      "name": "expireRound",
      "outputs": [],
      "stateMutability": "nonpayable",
      "type": "function"
    },
    {
      "inputs": [
        {
          "internalType": "address",
          "name": "_token",
          "type": "address"
        },
        {
          "internalType": "uint256",
          "name": "tokenIndex",
          "type": "uint256"
        },
        {
          "internalType": "bool",
          "name": "isFreePrediction",
          "type": "bool"
        }
      ],
      "name": "enterBattle",
      "outputs": [],
      "stateMutability": "payable",
      "type": "function"
    },
    {
      "inputs": [
        {
          "internalType": "uint32",
          "name": "index",
          "type": "uint32"
        }
      ],
      "name": "claimWins",
      "outputs": [],
      "stateMutability": "nonpayable",
      "type": "function"
    }
  ],
  "bytecode": "0x60806040526000805460ff1916905534801561001a57600080fd5b50611e2b8061002a6000396000f3fe6080604052600436106101235760003560e01c806356a77e62116100a05780638da5cb5b116100645780638da5cb5b14610318578063a2b01af51461032d578063b1283e771461034d578063c64fac791461036d578063d02eb3f41461038d5761012a565b806356a77e6214610299578063655a2a1d146102b957806366f0d43d146102ce5780637316fd31146102e3578063851422f0146103035761012a565b80633193f351116100e75780633193f351146101dc57806334571415146101fc578063469519541461022a5780634ccc616d1461024a57806352d1902d146102775761012a565b806305fc270b1461012f578063100cd71d14610144578063158ef93e1461017a578063211941b71461019c57806324d7806c146101bc5761012a565b3661012a57005b600080fd5b61014261013d366004611abd565b6103a2565b005b34801561015057600080fd5b5061016461015f366004611aa3565b61072c565b6040516101719190611d0b565b60405180910390f35b34801561018657600080fd5b5061018f610747565b6040516101719190611c01565b3480156101a857600080fd5b506101426101b7366004611b91565b610750565b3480156101c857600080fd5b5061018f6101d7366004611aa3565b6109b5565b3480156101e857600080fd5b506101426101f7366004611aa3565b6109ca565b34801561020857600080fd5b5061021c610217366004611aa3565b610a21565b604051610171929190611cfd565b34801561023657600080fd5b50610142610245366004611aa3565b610a3a565b34801561025657600080fd5b5061026a610265366004611b79565b610a81565b6040516101719190611bed565b34801561028357600080fd5b5061028c610a9f565b6040516101719190611c0c565b3480156102a557600080fd5b506101426102b4366004611b00565b610ac3565b3480156102c557600080fd5b5061026a610de4565b3480156102da57600080fd5b5061026a610df3565b3480156102ef57600080fd5b506101426102fe366004611bab565b610e02565b34801561030f57600080fd5b50610142610ecf565b34801561032457600080fd5b5061026a611799565b34801561033957600080fd5b5061026a610348366004611b79565b6117a8565b34801561035957600080fd5b5061026a610368366004611b79565b6117d2565b34801561037957600080fd5b5061026a610388366004611b79565b6117e2565b34801561039957600080fd5b5061026a6117f2565b826001600160a01b0316600183815481106103cd57634e487b7160e01b600052603260045260246000fd5b6000918252602090912001546001600160a01b0316146103ec57600080fd5b3360009081526009602090815260408083206001018054825181850281018501909352808352919290919083018282801561044657602002820191906000526020600020905b815481526020019060010190808311610432575b50503060009081526005602052604090205493945061046c93925060019150611d1c9050565b816001835161047b9190611d73565b8151811061049957634e487b7160e01b600052603260045260246000fd5b6020026020010151106104ab57600080fd5b600082156105475734156104be57600080fd5b6003546040516307ec14f360e01b81526001600160a01b03909116906307ec14f3906104ee903390600401611bed565b602060405180830381600087803b15801561050857600080fd5b505af115801561051c573d6000803e3d6000fd5b505050506040513d601f19601f820116820180604052508101906105409190611b61565b9050610557565b6000341161055457600080fd5b50345b806000610570606461056a846003611801565b90611814565b9050600360009054906101000a90046001600160a01b03166001600160a01b03166363541efb826040518263ffffffff1660e01b81526004016000604051808303818588803b1580156105c257600080fd5b505af11580156105d6573d6000803e3d6000fd5b5050306000908152600560205260409020600401805461062e94503493509091508990811061061557634e487b7160e01b600052603260045260246000fd5b906000526020600020015461182090919063ffffffff16565b30600090815260056020526040902060040180548890811061066057634e487b7160e01b600052603260045260246000fd5b60009182526020808320919091019290925533815260098252604080822080546001808201835582855285852090910180546001600160a01b0319166001600160a01b038e161790553084526005909452912054908201916106c29190611d1c565b815460018082018455600093845260208085209092019290925533835260098152604083206005810180548085018255908552828520838204018054601f9092166101000a60ff021990911690556002018054928301815583529091203491015550505050505050565b60096020526000908152604090206006015463ffffffff1681565b60005460ff1681565b336000908152600960205260409020600501805463ffffffff831690811061078857634e487b7160e01b600052603260045260246000fd5b90600052602060002090602091828204019190069054906101000a900460ff16156107ce5760405162461bcd60e51b81526004016107c590611c74565b60405180910390fd5b336000908152600960205260408120600101805463ffffffff841690811061080657634e487b7160e01b600052603260045260246000fd5b60009182526020808320909101543383526009909152604090912080549192509063ffffffff841690811061084b57634e487b7160e01b600052603260045260246000fd5b600091825260208083209091015483835260069091526040909120600101546001600160a01b03908116911614156109b1576000818152600660208190526040822001805463ffffffff85169081106108b457634e487b7160e01b600052603260045260246000fd5b600091825260208083209091015433835260099091526040909120600201805463ffffffff86169081106108f857634e487b7160e01b600052603260045260246000fd5b9060005260206000200154606461090f9190611d54565b6109199190611d34565b604051909150339082156108fc029083906000818181858888f19350505050158015610949573d6000803e3d6000fd5b5033600090815260096020526040902060050180546001919063ffffffff861690811061098657634e487b7160e01b600052603260045260246000fd5b90600052602060002090602091828204019190066101000a81548160ff021916908315150217905550505b5050565b600a6020526000908152604090205460ff1681565b60005460ff16156109ed5760405162461bcd60e51b81526004016107c590611c3d565b60028054336001600160a01b031991821617909155600380549091166001600160a01b038316179055610a1e61182c565b50565b6005602081905260009182526040909120805491015482565b6002546001600160a01b03163314610a5157600080fd5b60005460ff161515600114610a785760405162461bcd60e51b81526004016107c590611cab565b610a1e8161183b565b6006602052600090815260409020600101546001600160a01b031681565b7fc5f16f0fcc639fa48a6947836d9850f504798523bf8c9a3a87d5876cf622bcf790565b336000908152600a602052604090205460ff16610adf57600080fd5b600a82511115610aee57600080fd5b8151610b0190600790602085019061191a565b508051610b1590600890602084019061191a565b5030600090815260056020908152604090912060018082558451610b4093929091019185019061191a565b503060009081526005602090815260409091208251610b679260029092019184019061191a565b503060009081526005602081905260408220439101555b82518163ffffffff161015610ddf57818163ffffffff1681518110610bb357634e487b7160e01b600052603260045260246000fd5b60200260200101516001600160a01b03166370a08231848363ffffffff1681518110610bef57634e487b7160e01b600052603260045260246000fd5b60200260200101516040518263ffffffff1660e01b8152600401610c139190611bed565b60206040518083038186803b158015610c2b57600080fd5b505afa158015610c3f573d6000803e3d6000fd5b505050506040513d601f19601f82011682018060405250810190610c639190611b61565b306000908152600560205260409020600301805463ffffffff8416908110610c9b57634e487b7160e01b600052603260045260246000fd5b600091825260208083209091019290925530808252600583526040822060048101805460018101825590845293832090930182905590528351600690910190849063ffffffff8416908110610d0057634e487b7160e01b600052603260045260246000fd5b602090810291909101810151825460018101845560009384528284200180546001600160a01b0319166001600160a01b0390921691909117905530825260059052604090208251600790910190839063ffffffff8416908110610d7357634e487b7160e01b600052603260045260246000fd5b602090810291909101810151825460018082018555600094855283852090910180546001600160a01b0319166001600160a01b03909316929092179091553083526005825260408320600801805491820181558352908220015580610dd781611da5565b915050610b7e565b505050565b600b546001600160a01b031681565b6003546001600160a01b031681565b336000908152600a602052604090205460ff16610e1e57600080fd5b8160078463ffffffff1681548110610e4657634e487b7160e01b600052603260045260246000fd5b9060005260206000200160006101000a8154816001600160a01b0302191690836001600160a01b031602179055508060088463ffffffff1681548110610e9c57634e487b7160e01b600052603260045260246000fd5b9060005260206000200160006101000a8154816001600160a01b0302191690836001600160a01b03160217905550505050565b30600090815260056020819052604090912001544390610ef1906103e8611820565b10610efb57600080fd5b30600090815260056020526040812054819081908190815b60015481101561168f57306000908152600560205260408120600301805483908110610f4f57634e487b7160e01b600052603260045260246000fd5b600091825260208083209091015430835260059091526040822060020180549193509084908110610f9057634e487b7160e01b600052603260045260246000fd5b600091825260209091200154600180546001600160a01b03909216916370a08231919086908110610fd157634e487b7160e01b600052603260045260246000fd5b6000918252602090912001546040516001600160e01b031960e084901b168152611007916001600160a01b031690600401611bed565b60206040518083038186803b15801561101f57600080fd5b505afa158015611033573d6000803e3d6000fd5b505050506040513d601f19601f820116820180604052508101906110579190611b61565b60008581526006602052604090206001805492935090918590811061108c57634e487b7160e01b600052603260045260246000fd5b60009182526020808320909101548354600181810186559484528284200180546001600160a01b0319166001600160a01b03909216919091179055868252600680825260408084206002810180548088018255908652848620018890556003810180548088018255908652848620018790553080865260058086529286208084015460048085018054808c018255908a52888a2001919091558484018054998a0181558852868820439901989098559552925291909201805492909101918590811061116857634e487b7160e01b600052603260045260246000fd5b600091825260208083209091015483546001810185559383529120909101558181101561123357846111dd5761119e828261190e565b9450600183815481106111c157634e487b7160e01b600052603260045260246000fd5b6000918252602090912001546001600160a01b03169550611233565b846111e8838361190e565b1015611233576111f8828261190e565b94506001838154811061121b57634e487b7160e01b600052603260045260246000fd5b6000918252602090912001546001600160a01b031695505b818111156112df57866112895761124a818361190e565b96506001838154811061126d57634e487b7160e01b600052603260045260246000fd5b6000918252602090912001546001600160a01b031697506112df565b611293818361190e565b8710156112df576112a4818361190e565b9650600183815481106112c757634e487b7160e01b600052603260045260246000fd5b6000918252602090912001546001600160a01b031697505b30600090815260056020526040902060020180548490811061131157634e487b7160e01b600052603260045260246000fd5b600091825260209091200154600180546001600160a01b03909216916370a0823191908690811061135257634e487b7160e01b600052603260045260246000fd5b6000918252602090912001546040516001600160e01b031960e084901b168152611388916001600160a01b031690600401611bed565b60206040518083038186803b1580156113a057600080fd5b505afa1580156113b4573d6000803e3d6000fd5b505050506040513d601f19601f820116820180604052508101906113d89190611b61565b600085815260066020526040902060030180548590811061140957634e487b7160e01b600052603260045260246000fd5b600091825260208083209091019290925530815260059091526040902060020180548490811061144957634e487b7160e01b600052603260045260246000fd5b60009182526020808320909101543083526005909152604090912060020180546001600160a01b03909216916370a0823191908690811061149a57634e487b7160e01b600052603260045260246000fd5b6000918252602090912001546040516001600160e01b031960e084901b1681526114d0916001600160a01b031690600401611bed565b60206040518083038186803b1580156114e857600080fd5b505afa1580156114fc573d6000803e3d6000fd5b505050506040513d601f19601f820116820180604052508101906115209190611b61565b30600090815260056020526040902060030180548590811061155257634e487b7160e01b600052603260045260246000fd5b6000918252602080832090910192909255308082526005835260408220600481018054600181018255908452938320909301829055905260078054600690920191859081106115b157634e487b7160e01b600052603260045260246000fd5b6000918252602080832090910154835460018101855593835281832090930180546001600160a01b0319166001600160a01b0390941693909317909255308152600590915260409020600880546007909201918590811061162257634e487b7160e01b600052603260045260246000fd5b60009182526020808320909101548354600181810186559484528284200180546001600160a01b0319166001600160a01b0390921691909117905530825260058152604082206008018054938401815582528120909101555081905061168781611d8a565b915050610f13565b506001600160a01b038516156116ce57600081815260066020526040902060010180546001600160a01b0319166001600160a01b038716179055611708565b6001600160a01b0383161561170857600081815260066020526040902060010180546001600160a01b0319166001600160a01b0385161790555b30600090815260056020526040902060068101805461172b92600101919061197f565b5030600090815260056020526040902060078101805461174f92600201919061197f565b503060009081526005602052604090205461176b906001611820565b30600090815260056020526040902090815560088101805461179192600401919061197f565b505050505050565b6002546001600160a01b031681565b600881815481106117b857600080fd5b6000918252602090912001546001600160a01b0316905081565b600181815481106117b857600080fd5b600781815481106117b857600080fd5b6004546001600160a01b031681565b600061180d8284611d54565b9392505050565b600061180d8284611d34565b600061180d8284611d1c565b6000805460ff19166001179055565b806001600160a01b03166352d1902d6040518163ffffffff1660e01b815260040160206040518083038186803b15801561187457600080fd5b505afa158015611888573d6000803e3d6000fd5b505050506040513d601f19601f820116820180604052508101906118ac9190611b61565b7fc5f16f0fcc639fa48a6947836d9850f504798523bf8c9a3a87d5876cf622bcf7146118ea5760405162461bcd60e51b81526004016107c590611c15565b7fc5f16f0fcc639fa48a6947836d9850f504798523bf8c9a3a87d5876cf622bcf755565b600061180d8284611d73565b82805482825590600052602060002090810192821561196f579160200282015b8281111561196f57825182546001600160a01b0319166001600160a01b0390911617825560209092019160019091019061193a565b5061197b9291506119bf565b5090565b82805482825590600052602060002090810192821561196f5760005260206000209182015b8281111561196f5782548255916001019190600101906119a4565b5b8082111561197b57600081556001016119c0565b80356001600160a01b03811681146119eb57600080fd5b919050565b600082601f830112611a00578081fd5b8135602067ffffffffffffffff80831115611a1d57611a1d611ddf565b81830260405183828201018181108482111715611a3c57611a3c611ddf565b60405284815283810192508684018288018501891015611a5a578687fd5b8692505b85831015611a8357611a6f816119d4565b845292840192600192909201918401611a5e565b50979650505050505050565b803563ffffffff811681146119eb57600080fd5b600060208284031215611ab4578081fd5b61180d826119d4565b600080600060608486031215611ad1578182fd5b611ada846119d4565b92506020840135915060408401358015158114611af5578182fd5b809150509250925092565b60008060408385031215611b12578182fd5b823567ffffffffffffffff80821115611b29578384fd5b611b35868387016119f0565b93506020850135915080821115611b4a578283fd5b50611b57858286016119f0565b9150509250929050565b600060208284031215611b72578081fd5b5051919050565b600060208284031215611b8a578081fd5b5035919050565b600060208284031215611ba2578081fd5b61180d82611a8f565b600080600060608486031215611bbf578283fd5b611bc884611a8f565b9250611bd6602085016119d4565b9150611be4604085016119d4565b90509250925092565b6001600160a01b0391909116815260200190565b901515815260200190565b90815260200190565b6020808252600e908201526d4e6f7420636f6d70617469626c6560901b604082015260600190565b6020808252601f908201527f436f6e747261637420697320616c726561647920696e697469616c697a656400604082015260600190565b60208082526018908201527f456e74727920686173206265656e2066696e616c697a65640000000000000000604082015260600190565b60208082526032908201527f546865206c696272617279206973206c6f636b65642e204e6f206469726563746040820152710809d8d85b1b09c81a5cc8185b1b1bddd95960721b606082015260800190565b918252602082015260400190565b63ffffffff91909116815260200190565b60008219821115611d2f57611d2f611dc9565b500190565b600082611d4f57634e487b7160e01b81526012600452602481fd5b500490565b6000816000190483118215151615611d6e57611d6e611dc9565b500290565b600082821015611d8557611d85611dc9565b500390565b6000600019821415611d9e57611d9e611dc9565b5060010190565b600063ffffffff80831681811415611dbf57611dbf611dc9565b6001019392505050565b634e487b7160e01b600052601160045260246000fd5b634e487b7160e01b600052604160045260246000fdfea2646970667358221220117156f7ff621d57ac0841f943a192378b6405ee2ff8df163d142a0cdc1a4e5d64736f6c63430008000033",
  "immutableReferences": {},
  "source": "pragma solidity ^0.8.0;\r\n\r\nimport \"./BEP20.sol\";\r\nimport \"./CakeInterface.sol\";\r\n\r\ncontract Proxiable {\r\n    // Code position in storage is keccak256(\"PROXIABLE\") = \"0xc5f16f0fcc639fa48a6947836d9850f504798523bf8c9a3a87d5876cf622bcf7\"\r\n\r\n    function updateCodeAddress(address newAddress) internal {\r\n        require(\r\n            bytes32(0xc5f16f0fcc639fa48a6947836d9850f504798523bf8c9a3a87d5876cf622bcf7) == Proxiable(newAddress).proxiableUUID(),\r\n            \"Not compatible\"\r\n        );\r\n        assembly { // solium-disable-line\r\n            sstore(0xc5f16f0fcc639fa48a6947836d9850f504798523bf8c9a3a87d5876cf622bcf7, newAddress)\r\n        }\r\n    }\r\n    function proxiableUUID() public pure returns (bytes32) {\r\n        return 0xc5f16f0fcc639fa48a6947836d9850f504798523bf8c9a3a87d5876cf622bcf7;\r\n    }\r\n}\r\n\r\ncontract LibraryLockDataLayout {\r\n  bool public initialized = false;\r\n}\r\n\r\ncontract LibraryLock is LibraryLockDataLayout {\r\n    // Ensures no one can manipulate the Logic Contract once it is deployed.\r\n    // PARITY WALLET HACK PREVENTION\r\n\r\n    modifier delegatedOnly() {\r\n        require(initialized == true, \"The library is locked. No direct 'call' is allowed\");\r\n        _;\r\n    }\r\n    function initialize() internal {\r\n        initialized = true;\r\n    }\r\n}\r\n\r\ncontract DataLayout is LibraryLock {\r\n    address[] public markets;\r\n    address public owner;\r\n    address public versusToken;\r\n    address public wBNB;\r\n\r\n    struct marketStruct {\r\n        uint256 round;\r\n        address[] tokens;\r\n        address[] pairs;\r\n        uint256[] startBalance;\r\n        uint256[] BNBWaged;\r\n        uint256 roundStart;\r\n        \r\n        address[] nextTokens;\r\n        address[] nextPairs;\r\n        uint256[] nextBNBWaged;\r\n    }\r\n    mapping(address => marketStruct) public battleData; \r\n\r\n    struct marketHistory {\r\n        address[] tokens;\r\n        address winningToken;\r\n        uint256[] startBalance;\r\n        uint256[] endBalance;\r\n        uint256[] roundStart;\r\n        uint256[] roundEnd;\r\n        uint256[] BNBWaged;\r\n    }\r\n    mapping(uint256 => marketHistory) public battleHistory;\r\n\r\n    address[] public futureTokenList;\r\n    address[] public futureTokenPairs;\r\n\r\n    struct userStruct {\r\n        address[] tokenHistory;\r\n        uint256[] round;\r\n        uint256[] BNBAmount;\r\n        uint256[] predictionWinnings;\r\n        bool[] isFreePrediction;\r\n        bool[] isChecked;\r\n        uint32 totalPredictions;\r\n    }\r\n    mapping(address => userStruct) public userHistory;\r\n\r\n    mapping(address => bool) public isAdmin;\r\n\r\n    address public pancakeSwapV2;\r\n}\r\n\r\ncontract TokenBattle is DataLayout, Proxiable{\r\n    \r\n    using SafeMath for uint256;\r\n\r\n    modifier _onlyOwner() {\r\n        require(msg.sender == owner);\r\n        _;\r\n    }\r\n\r\n    constructor() public {\r\n        \r\n    }\r\n\r\n    receive() external payable {\r\n        \r\n    }\r\n\r\n    function battleConstructor(address _versusToken) public {\r\n        require(!initialized, \"Contract is already initialized\");\r\n        owner = msg.sender;\r\n        versusToken = _versusToken;\r\n        initialize();\r\n    }\r\n\r\n    function updateCode(address newCode) public _onlyOwner delegatedOnly  {\r\n        updateCodeAddress(newCode);\r\n    }\r\n\r\n\r\n    //add initial tokens(max 10)\r\n    function initialiseBattle(address[] memory tokens, address[] memory pairs) public {\r\n        require(isAdmin[msg.sender]); //centralize admins at versus token\r\n        require(tokens.length <= 10);\r\n        futureTokenList = tokens;\r\n        futureTokenPairs = pairs;\r\n        battleData[address(this)].round = 1;\r\n        battleData[address(this)].tokens = tokens;\r\n        battleData[address(this)].pairs = pairs;\r\n        battleData[address(this)].roundStart = block.number;\r\n        for (uint32 i; i < tokens.length; i++) {\r\n            battleData[address(this)].startBalance[i] = IBEP20(pairs[i]).balanceOf(tokens[i]);//set start Balance\r\n            battleData[address(this)].BNBWaged.push(0);\r\n\r\n            battleData[address(this)].nextTokens.push(tokens[i]);\r\n            battleData[address(this)].nextPairs.push(pairs[i]);\r\n            battleData[address(this)].nextBNBWaged.push(0);\r\n\r\n        }\r\n    }\r\n\r\n\r\n    //change one token, based on index\r\n    function changeNextToken(uint32 index, address newToken, address newPair) public {\r\n        require(isAdmin[msg.sender]);\r\n        //futuretoken\r\n        futureTokenList[index] = newToken;\r\n        futureTokenPairs[index] = newPair;\r\n\r\n    }\r\n\r\n    //expire round\r\n    function expireRound() public {\r\n        require(battleData[address(this)].roundStart.add(1000) < block.number); //determine blocks\r\n        address winningToken;\r\n        uint256 highestBNBChange;\r\n        address leastLossToken;\r\n        uint256 leastLoss;\r\n        uint256 currentRound = battleData[address(this)].round;\r\n        for (uint i; i < markets.length; i++) {\r\n            uint256 startBalance = battleData[address(this)].startBalance[i]; \r\n            uint256 tokenBalance = IBEP20(battleData[address(this)].pairs[i]).balanceOf(markets[i]);\r\n\r\n            //set battleHistory data for the round\r\n            battleHistory[currentRound].tokens.push(markets[i]);\r\n            battleHistory[currentRound].startBalance.push(startBalance);\r\n            battleHistory[currentRound].endBalance.push(tokenBalance);\r\n            battleHistory[currentRound].roundStart.push(battleData[address(this)].roundStart);\r\n            battleHistory[currentRound].roundEnd.push(block.number);\r\n            battleHistory[currentRound].BNBWaged.push(battleData[address(this)].BNBWaged[i]);\r\n\r\n            \r\n            if (tokenBalance < startBalance) {\r\n                if (leastLoss == 0) {\r\n                    leastLoss = startBalance.sub(tokenBalance);\r\n                    leastLossToken = markets[i];\r\n                } else if (startBalance.sub(tokenBalance) < leastLoss) {\r\n                    leastLoss = startBalance.sub(tokenBalance);\r\n                    leastLossToken = markets[i];\r\n                }\r\n            }\r\n\r\n            if (tokenBalance > startBalance) {\r\n                if (highestBNBChange == 0) {\r\n                    highestBNBChange = tokenBalance.sub(startBalance);\r\n                    winningToken = markets[i];\r\n                } else if (highestBNBChange < tokenBalance.sub(startBalance)) {\r\n                    highestBNBChange = tokenBalance.sub(startBalance);\r\n                    winningToken = markets[i];\r\n                }\r\n            }\r\n\r\n            //set endBalance in history\r\n            battleHistory[currentRound].endBalance[i] = IBEP20(battleData[address(this)].pairs[i]).balanceOf(markets[i]);\r\n\r\n            battleData[address(this)].startBalance[i] = IBEP20(battleData[address(this)].pairs[i]).balanceOf(battleData[address(this)].pairs[i]);//set start Balance\r\n            battleData[address(this)].BNBWaged.push(0);\r\n\r\n            //update tokens to futuretokens\r\n            battleData[address(this)].nextTokens.push(futureTokenList[i]);\r\n            battleData[address(this)].nextPairs.push(futureTokenPairs[i]);\r\n            battleData[address(this)].nextBNBWaged.push(0);\r\n        }\r\n\r\n        //check if winningToken exists\r\n        //or for leastLossToken\r\n        //save info in marketHistory\r\n        //update tokens for next round\r\n        if (winningToken != address(0)) {\r\n            battleHistory[currentRound].winningToken = winningToken;\r\n        } else if (leastLossToken != address(0)) {\r\n            battleHistory[currentRound].winningToken = leastLossToken;\r\n        } \r\n        \r\n        //load in next round\r\n        battleData[address(this)].tokens = battleData[address(this)].nextTokens;\r\n        battleData[address(this)].pairs = battleData[address(this)].nextPairs;\r\n        battleData[address(this)].round = battleData[address(this)].round.add(1);\r\n        battleData[address(this)].BNBWaged = battleData[address(this)].nextBNBWaged;\r\n \r\n    }\r\n\r\n    //enter a round(free prediction usable)\r\n    function enterBattle(address _token, uint tokenIndex, bool isFreePrediction) payable public {\r\n        require(markets[tokenIndex] == _token);\r\n\r\n        //check if user has placed prediction in next round\r\n        uint256[] memory userRound = userHistory[msg.sender].round;\r\n        require(userRound[userRound.length-1] < battleData[address(this)].round+1);\r\n        uint256 currentValue;\r\n        if (isFreePrediction) {\r\n            require(msg.value == 0);\r\n            //check if user has staked long enough for a free prediction\r\n            currentValue = VersusToken(versusToken).hasFreePrediction(msg.sender);\r\n        } else {\r\n            require (msg.value > 0);\r\n            currentValue = msg.value;\r\n        }\r\n\r\n        uint256 BNBAmount = currentValue;\r\n        //send 3% of value to token contract as fees\r\n        uint256 fees = BNBAmount.mul(3).div(100);\r\n        VersusToken(versusToken).returnPredictionFees{value: fees}();\r\n\r\n        battleData[address(this)].BNBWaged[tokenIndex] = battleData[address(this)].BNBWaged[tokenIndex].add(msg.value);\r\n        userHistory[msg.sender].tokenHistory.push(_token);\r\n        userHistory[msg.sender].round.push(battleData[address(this)].round+1);\r\n        userHistory[msg.sender].isChecked.push(false);\r\n        userHistory[msg.sender].BNBAmount.push(msg.value);\r\n\r\n    }\r\n\r\n    //claim wins\r\n    function claimWins(uint32 index) public {\r\n        require(!userHistory[msg.sender].isChecked[index], \"Entry has been finalized\");\r\n        //use BNB waged to determine user payout, if winner, else 0\r\n        //if winner, check if prediction was free\r\n        //if winner, update user wins\r\n        uint256 round = userHistory[msg.sender].round[index];\r\n        if(battleHistory[round].winningToken == userHistory[msg.sender].tokenHistory[index]) {\r\n            uint256 userPayout = (userHistory[msg.sender].BNBAmount[index] * 100) / battleHistory[round].BNBWaged[index];\r\n            payable(msg.sender).transfer(userPayout);\r\n            userHistory[msg.sender].isChecked[index] = true;\r\n        }\r\n       \r\n        //update the lastCheckedIndex\r\n    }\r\n\r\n}\r\n\r\ninterface VersusToken {\r\n    function hasFreePrediction(address user) external returns(uint256);\r\n    function returnPredictionFees() payable external;\r\n    function returnFreeBNB() payable external;\r\n    function updateStats(address user, uint256 volume) external;\r\n    function updateUserWins(address _user, bool _isWin) external;\r\n}\r\n",
  "sourcePath": "C:/Users/razgriz/Documents/GitHub/Versus/contracts/contracts/TokenBattle.sol",
  "compiler": {
    "name": "solc",
    "version": "0.8.0+commit.c7dfd78e.Emscripten.clang"
  },
  "schemaVersion": "3.3.3",
  "updatedAt": "2021-08-23T17:49:27.930Z",
  "devdoc": {
    "kind": "dev",
    "methods": {},
    "version": 1
  },
  "userdoc": {
    "kind": "user",
    "methods": {},
    "version": 1
  }
}