{
  "contractName": "Versus",
  "abi": [
    {
      "inputs": [],
      "stateMutability": "nonpayable",
      "type": "constructor"
    },
    {
      "anonymous": false,
      "inputs": [
        {
          "indexed": true,
          "internalType": "address",
          "name": "owner",
          "type": "address"
        },
        {
          "indexed": true,
          "internalType": "address",
          "name": "spender",
          "type": "address"
        },
        {
          "indexed": false,
          "internalType": "uint256",
          "name": "value",
          "type": "uint256"
        }
      ],
      "name": "Approval",
      "type": "event"
    },
    {
      "anonymous": false,
      "inputs": [
        {
          "indexed": true,
          "internalType": "address",
          "name": "previousOwner",
          "type": "address"
        },
        {
          "indexed": true,
          "internalType": "address",
          "name": "newOwner",
          "type": "address"
        }
      ],
      "name": "OwnershipTransferred",
      "type": "event"
    },
    {
      "anonymous": false,
      "inputs": [
        {
          "indexed": false,
          "internalType": "bytes",
          "name": "err",
          "type": "bytes"
        }
      ],
      "name": "SwapFailed",
      "type": "event"
    },
    {
      "anonymous": false,
      "inputs": [
        {
          "indexed": true,
          "internalType": "address",
          "name": "from",
          "type": "address"
        },
        {
          "indexed": true,
          "internalType": "address",
          "name": "to",
          "type": "address"
        },
        {
          "indexed": false,
          "internalType": "uint256",
          "name": "value",
          "type": "uint256"
        }
      ],
      "name": "Transfer",
      "type": "event"
    },
    {
      "inputs": [],
      "name": "NFTContract",
      "outputs": [
        {
          "internalType": "address",
          "name": "",
          "type": "address"
        }
      ],
      "stateMutability": "view",
      "type": "function"
    },
    {
      "inputs": [],
      "name": "_owner",
      "outputs": [
        {
          "internalType": "address",
          "name": "",
          "type": "address"
        }
      ],
      "stateMutability": "view",
      "type": "function"
    },
    {
      "inputs": [
        {
          "internalType": "address",
          "name": "_owner",
          "type": "address"
        },
        {
          "internalType": "address",
          "name": "spender",
          "type": "address"
        }
      ],
      "name": "allowance",
      "outputs": [
        {
          "internalType": "uint256",
          "name": "",
          "type": "uint256"
        }
      ],
      "stateMutability": "view",
      "type": "function"
    },
    {
      "inputs": [
        {
          "internalType": "address",
          "name": "spender",
          "type": "address"
        },
        {
          "internalType": "uint256",
          "name": "amount",
          "type": "uint256"
        }
      ],
      "name": "approve",
      "outputs": [
        {
          "internalType": "bool",
          "name": "",
          "type": "bool"
        }
      ],
      "stateMutability": "nonpayable",
      "type": "function"
    },
    {
      "inputs": [
        {
          "internalType": "address",
          "name": "account",
          "type": "address"
        }
      ],
      "name": "balanceOf",
      "outputs": [
        {
          "internalType": "uint256",
          "name": "",
          "type": "uint256"
        }
      ],
      "stateMutability": "view",
      "type": "function"
    },
    {
      "inputs": [],
      "name": "decimals",
      "outputs": [
        {
          "internalType": "uint8",
          "name": "",
          "type": "uint8"
        }
      ],
      "stateMutability": "view",
      "type": "function"
    },
    {
      "inputs": [
        {
          "internalType": "address",
          "name": "spender",
          "type": "address"
        },
        {
          "internalType": "uint256",
          "name": "subtractedValue",
          "type": "uint256"
        }
      ],
      "name": "decreaseAllowance",
      "outputs": [
        {
          "internalType": "bool",
          "name": "",
          "type": "bool"
        }
      ],
      "stateMutability": "nonpayable",
      "type": "function"
    },
    {
      "inputs": [],
      "name": "freeBNBReturned",
      "outputs": [
        {
          "internalType": "uint256",
          "name": "",
          "type": "uint256"
        }
      ],
      "stateMutability": "view",
      "type": "function"
    },
    {
      "inputs": [],
      "name": "getOwner",
      "outputs": [
        {
          "internalType": "address",
          "name": "",
          "type": "address"
        }
      ],
      "stateMutability": "view",
      "type": "function"
    },
    {
      "inputs": [
        {
          "internalType": "address",
          "name": "spender",
          "type": "address"
        },
        {
          "internalType": "uint256",
          "name": "addedValue",
          "type": "uint256"
        }
      ],
      "name": "increaseAllowance",
      "outputs": [
        {
          "internalType": "bool",
          "name": "",
          "type": "bool"
        }
      ],
      "stateMutability": "nonpayable",
      "type": "function"
    },
    {
      "inputs": [],
      "name": "initialized",
      "outputs": [
        {
          "internalType": "bool",
          "name": "",
          "type": "bool"
        }
      ],
      "stateMutability": "view",
      "type": "function"
    },
    {
      "inputs": [
        {
          "internalType": "uint256",
          "name": "",
          "type": "uint256"
        }
      ],
      "name": "levelStreakRequirements",
      "outputs": [
        {
          "internalType": "uint32",
          "name": "",
          "type": "uint32"
        }
      ],
      "stateMutability": "view",
      "type": "function"
    },
    {
      "inputs": [],
      "name": "name",
      "outputs": [
        {
          "internalType": "string",
          "name": "",
          "type": "string"
        }
      ],
      "stateMutability": "view",
      "type": "function"
    },
    {
      "inputs": [],
      "name": "owner",
      "outputs": [
        {
          "internalType": "address",
          "name": "",
          "type": "address"
        }
      ],
      "stateMutability": "view",
      "type": "function"
    },
    {
      "inputs": [],
      "name": "predictionFees",
      "outputs": [
        {
          "internalType": "uint256",
          "name": "",
          "type": "uint256"
        }
      ],
      "stateMutability": "view",
      "type": "function"
    },
    {
      "inputs": [],
      "name": "proxiableUUID",
      "outputs": [
        {
          "internalType": "bytes32",
          "name": "",
          "type": "bytes32"
        }
      ],
      "stateMutability": "pure",
      "type": "function"
    },
    {
      "inputs": [],
      "name": "renounceOwnership",
      "outputs": [],
      "stateMutability": "nonpayable",
      "type": "function"
    },
    {
      "inputs": [],
      "name": "statsTracker",
      "outputs": [
        {
          "internalType": "address",
          "name": "",
          "type": "address"
        }
      ],
      "stateMutability": "view",
      "type": "function"
    },
    {
      "inputs": [],
      "name": "symbol",
      "outputs": [
        {
          "internalType": "string",
          "name": "",
          "type": "string"
        }
      ],
      "stateMutability": "view",
      "type": "function"
    },
    {
      "inputs": [],
      "name": "tokenStorage",
      "outputs": [
        {
          "internalType": "address",
          "name": "",
          "type": "address"
        }
      ],
      "stateMutability": "view",
      "type": "function"
    },
    {
      "inputs": [],
      "name": "totalBNB",
      "outputs": [
        {
          "internalType": "uint256",
          "name": "",
          "type": "uint256"
        }
      ],
      "stateMutability": "view",
      "type": "function"
    },
    {
      "inputs": [],
      "name": "totalSupply",
      "outputs": [
        {
          "internalType": "uint256",
          "name": "",
          "type": "uint256"
        }
      ],
      "stateMutability": "view",
      "type": "function"
    },
    {
      "inputs": [
        {
          "internalType": "address",
          "name": "sender",
          "type": "address"
        },
        {
          "internalType": "address",
          "name": "recipient",
          "type": "address"
        },
        {
          "internalType": "uint256",
          "name": "amount",
          "type": "uint256"
        }
      ],
      "name": "transferFrom",
      "outputs": [
        {
          "internalType": "bool",
          "name": "",
          "type": "bool"
        }
      ],
      "stateMutability": "nonpayable",
      "type": "function"
    },
    {
      "inputs": [
        {
          "internalType": "address",
          "name": "newOwner",
          "type": "address"
        }
      ],
      "name": "transferOwnership",
      "outputs": [],
      "stateMutability": "nonpayable",
      "type": "function"
    },
    {
      "inputs": [],
      "name": "uniswapV2Router",
      "outputs": [
        {
          "internalType": "contract IUniswapV2Router02",
          "name": "",
          "type": "address"
        }
      ],
      "stateMutability": "view",
      "type": "function"
    },
    {
      "inputs": [
        {
          "internalType": "address",
          "name": "",
          "type": "address"
        }
      ],
      "name": "userData",
      "outputs": [
        {
          "internalType": "uint256",
          "name": "timeChecked",
          "type": "uint256"
        },
        {
          "internalType": "uint128",
          "name": "wins",
          "type": "uint128"
        },
        {
          "internalType": "bool",
          "name": "usingFreePrediction",
          "type": "bool"
        },
        {
          "internalType": "uint256",
          "name": "totalVolume",
          "type": "uint256"
        },
        {
          "internalType": "uint32",
          "name": "currentLevel",
          "type": "uint32"
        },
        {
          "internalType": "uint256",
          "name": "NFTID",
          "type": "uint256"
        },
        {
          "internalType": "bool",
          "name": "hasClaimedStarter",
          "type": "bool"
        }
      ],
      "stateMutability": "view",
      "type": "function"
    },
    {
      "inputs": [],
      "name": "wBNB",
      "outputs": [
        {
          "internalType": "address",
          "name": "",
          "type": "address"
        }
      ],
      "stateMutability": "view",
      "type": "function"
    },
    {
      "stateMutability": "payable",
      "type": "receive"
    },
    {
      "inputs": [
        {
          "internalType": "uint256",
          "name": "_supply",
          "type": "uint256"
        }
      ],
      "name": "versusConstructor",
      "outputs": [],
      "stateMutability": "nonpayable",
      "type": "function"
    },
    {
      "inputs": [
        {
          "internalType": "address",
          "name": "_contract",
          "type": "address"
        }
      ],
      "name": "setNFTContract",
      "outputs": [],
      "stateMutability": "nonpayable",
      "type": "function"
    },
    {
      "inputs": [
        {
          "internalType": "address",
          "name": "_contract",
          "type": "address"
        }
      ],
      "name": "setStatsTracker",
      "outputs": [],
      "stateMutability": "nonpayable",
      "type": "function"
    },
    {
      "inputs": [
        {
          "internalType": "uint256",
          "name": "fee",
          "type": "uint256"
        }
      ],
      "name": "setFeePerc",
      "outputs": [],
      "stateMutability": "nonpayable",
      "type": "function"
    },
    {
      "inputs": [
        {
          "internalType": "address",
          "name": "newCode",
          "type": "address"
        }
      ],
      "name": "updateCode",
      "outputs": [],
      "stateMutability": "nonpayable",
      "type": "function"
    },
    {
      "inputs": [
        {
          "internalType": "uint256",
          "name": "amount",
          "type": "uint256"
        },
        {
          "internalType": "address",
          "name": "recipient",
          "type": "address"
        }
      ],
      "name": "mintTestTokens",
      "outputs": [],
      "stateMutability": "nonpayable",
      "type": "function"
    },
    {
      "inputs": [
        {
          "internalType": "address",
          "name": "recipient",
          "type": "address"
        },
        {
          "internalType": "uint256",
          "name": "amount",
          "type": "uint256"
        }
      ],
      "name": "transfer",
      "outputs": [
        {
          "internalType": "bool",
          "name": "",
          "type": "bool"
        }
      ],
      "stateMutability": "nonpayable",
      "type": "function"
    },
    {
      "inputs": [
        {
          "internalType": "address",
          "name": "user",
          "type": "address"
        }
      ],
      "name": "hasFreePrediction",
      "outputs": [
        {
          "internalType": "uint256",
          "name": "",
          "type": "uint256"
        }
      ],
      "stateMutability": "nonpayable",
      "type": "function"
    },
    {
      "inputs": [
        {
          "internalType": "address",
          "name": "user",
          "type": "address"
        }
      ],
      "name": "returnFreeBNB",
      "outputs": [],
      "stateMutability": "payable",
      "type": "function"
    },
    {
      "inputs": [],
      "name": "returnPredictionFees",
      "outputs": [],
      "stateMutability": "payable",
      "type": "function"
    },
    {
      "inputs": [],
      "name": "useFees",
      "outputs": [],
      "stateMutability": "nonpayable",
      "type": "function"
    },
    {
      "inputs": [
        {
          "internalType": "address",
          "name": "user",
          "type": "address"
        },
        {
          "internalType": "uint256",
          "name": "volume",
          "type": "uint256"
        }
      ],
      "name": "updateStats",
      "outputs": [],
      "stateMutability": "nonpayable",
      "type": "function"
    },
    {
      "inputs": [
        {
          "internalType": "address",
          "name": "_user",
          "type": "address"
        }
      ],
      "name": "updateUserWins",
      "outputs": [],
      "stateMutability": "nonpayable",
      "type": "function"
    },
    {
      "inputs": [
        {
          "internalType": "uint32",
          "name": "starter",
          "type": "uint32"
        }
      ],
      "name": "claimFirstMonster",
      "outputs": [],
      "stateMutability": "nonpayable",
      "type": "function"
    },
    {
      "inputs": [
        {
          "internalType": "uint256",
          "name": "id",
          "type": "uint256"
        }
      ],
      "name": "equipNFT",
      "outputs": [],
      "stateMutability": "nonpayable",
      "type": "function"
    },
    {
      "inputs": [],
      "name": "unequip",
      "outputs": [],
      "stateMutability": "nonpayable",
      "type": "function"
    },
    {
      "inputs": [
        {
          "internalType": "address",
          "name": "_staker",
          "type": "address"
        },
        {
          "internalType": "uint256",
          "name": "_amount",
          "type": "uint256"
        }
      ],
      "name": "stakingReward",
      "outputs": [],
      "stateMutability": "nonpayable",
      "type": "function"
    },
    {
      "inputs": [
        {
          "internalType": "address",
          "name": "_contract",
          "type": "address"
        },
        {
          "internalType": "bool",
          "name": "_direction",
          "type": "bool"
        }
      ],
      "name": "whiteListContract",
      "outputs": [],
      "stateMutability": "nonpayable",
      "type": "function"
    }
  ],
  "bytecode": "0x60806040526006805461ff0019169055600a600b5534801561002057600080fd5b5061003161002c610036565b61003a565b61008a565b3390565b600080546001600160a01b038381166001600160a01b0319831681178455604051919092169283917f8be0079c531659141344cd1fd0a4f28419497f9722a3daafe3b4186f6b6457e09190a35050565b61262f806200009a6000396000f3fe6080604052600436106102765760003560e01c80638da5cb5b1161014f578063bbaa0bd2116100c1578063df481e741161007a578063df481e74146106e3578063e213712214610703578063e88b311814610723578063f2fde38b14610743578063f628bf6714610763578063fe5415a2146107785761027d565b8063bbaa0bd214610626578063bf3a104e14610646578063c89109131461065b578063ca3a3f8a1461068e578063d02eb3f4146106ae578063dd62ed3e146106c35761027d565b8063a9059cbb11610113578063a9059cbb14610592578063b199efb5146105b2578063b2bdfa7b146105c7578063b47dde1e146105dc578063b8549a9a146105fc578063b9c2edf7146106115761027d565b80638da5cb5b1461050857806395d89b411461051d578063a275193314610532578063a457c2d714610552578063a7ccabdf146105725761027d565b806335949a55116101e857806363541efb116101ac57806363541efb146104765780636ebb0be91461047e57806370a082311461049e578063715018a6146104be578063893d20e8146104d35780638c00d786146104e85761027d565b806335949a55146103ec57806339509351146104015780633e6fdd0414610421578063469519541461044157806352d1902d146104615761027d565b8063158ef93e1161023a578063158ef93e146103495780631694505e1461035e57806318160ddd1461038057806323b872dd14610395578063313ce567146103b557806331c2273b146103d75761027d565b8063013831ec1461028257806306fdde031461029757806307ec14f3146102c2578063095ea7b3146102ef5780630f7db7121461031c5761027d565b3661027d57005b600080fd5b610295610290366004611ca0565b61078d565b005b3480156102a357600080fd5b506102ac6107fe565b6040516102b99190611eb4565b60405180910390f35b3480156102ce57600080fd5b506102e26102dd366004611ca0565b610890565b6040516102b99190611eab565b3480156102fb57600080fd5b5061030f61030a366004611d61565b610983565b6040516102b99190611ea0565b34801561032857600080fd5b5061033c610337366004611da2565b6109a0565b6040516102b991906122f6565b34801561035557600080fd5b5061030f6109da565b34801561036a57600080fd5b506103736109e8565b6040516102b99190611e4b565b34801561038c57600080fd5b506102e26109f7565b3480156103a157600080fd5b5061030f6103b0366004611cec565b6109fd565b3480156103c157600080fd5b506103ca610a84565b6040516102b99190612307565b3480156103e357600080fd5b50610373610a8d565b3480156103f857600080fd5b506102e2610a9c565b34801561040d57600080fd5b5061030f61041c366004611d61565b610aa2565b34801561042d57600080fd5b5061029561043c366004611d27565b610af0565b34801561044d57600080fd5b5061029561045c366004611ca0565b610b32565b34801561046d57600080fd5b506102e2610b82565b610295610ba6565b34801561048a57600080fd5b50610295610499366004611d61565b610bb8565b3480156104aa57600080fd5b506102e26104b9366004611ca0565b610bf5565b3480156104ca57600080fd5b50610295610c10565b3480156104df57600080fd5b50610373610c5b565b3480156104f457600080fd5b50610295610503366004611d61565b610c6a565b34801561051457600080fd5b50610373610d2b565b34801561052957600080fd5b506102ac610d3a565b34801561053e57600080fd5b5061029561054d366004611da2565b610d49565b34801561055e57600080fd5b5061030f61056d366004611d61565b610e72565b34801561057e57600080fd5b5061029561058d366004611ca0565b610eda565b34801561059e57600080fd5b5061030f6105ad366004611d61565b610f40565b3480156105be57600080fd5b50610373610fd3565b3480156105d357600080fd5b50610373610fe2565b3480156105e857600080fd5b506102956105f7366004611da2565b610ff1565b34801561060857600080fd5b506102e261103a565b34801561061d57600080fd5b50610295611040565b34801561063257600080fd5b50610295610641366004611ca0565b611055565b34801561065257600080fd5b506102e26110bb565b34801561066757600080fd5b5061067b610676366004611ca0565b6110c1565b6040516102b997969594939291906122b5565b34801561069a57600080fd5b506102956106a9366004611da2565b611112565b3480156106ba57600080fd5b5061037361118e565b3480156106cf57600080fd5b506102e26106de366004611cba565b6111a3565b3480156106ef57600080fd5b506102956106fe366004611ddc565b6111ce565b34801561070f57600080fd5b5061029561071e366004611dba565b611273565b34801561072f57600080fd5b5061029561073e366004611ca0565b611294565b34801561074f57600080fd5b5061029561075e366004611ca0565b6114a7565b34801561076f57600080fd5b50610373611515565b34801561078457600080fd5b50610295610c59565b3360009081526011602052604090205460ff166107c55760405162461bcd60e51b81526004016107bc90612051565b60405180910390fd5b6001600160a01b0381166000908152600c60205260409020600101805460ff60801b19169055600f546107f89034611524565b600f5550565b60606004805461080d906123ae565b80601f0160208091040260200160405190810160405280929190818152602001828054610839906123ae565b80156108865780601f1061085b57610100808354040283529160200191610886565b820191906000526020600020905b81548152906001019060200180831161086957829003601f168201915b5050505050905090565b3360009081526011602052604081205460ff166108bf5760405162461bcd60e51b81526004016107bc90612051565b336000908152600c60205260409020544211156108ee5760405162461bcd60e51b81526004016107bc906120ec565b336000908152600c6020526040902060010154600160801b900460ff16156109285760405162461bcd60e51b81526004016107bc9061201a565b600061093383610bf5565b9050600061093f6109f7565b600e5461094c9084612378565b6109569190612358565b336000908152600c60205260409020600101805460ff60801b1916600160801b179055925050505b919050565b6000610997610990611537565b848461153b565b50600192915050565b600d81815481106109b057600080fd5b9060005260206000209060089182820401919006600402915054906101000a900463ffffffff1681565b600654610100900460ff1681565b6008546001600160a01b031681565b60035490565b6000610a0a8484846115ef565b610a7a84610a16611537565b610a75856040518060600160405280602881526020016125ad602891396001600160a01b038a16600090815260026020526040812090610a54611537565b6001600160a01b031681526020810191909152604001600020549190611704565b61153b565b5060019392505050565b60065460ff1690565b6007546001600160a01b031681565b600f5481565b6000610997610aaf611537565b84610a758560026000610ac0611537565b6001600160a01b03908116825260208083019390935260409182016000908120918c168152925290205490611524565b6012546001600160a01b03163314610b0757600080fd5b6001600160a01b03919091166000908152601160205260409020805460ff1916911515919091179055565b6012546001600160a01b03163314610b4957600080fd5b60065460ff610100909104161515600114610b765760405162461bcd60e51b81526004016107bc906121dc565b610b7f81611730565b50565b7fc5f16f0fcc639fa48a6947836d9850f504798523bf8c9a3a87d5876cf622bcf790565b601054610bb39034611524565b601055565b3360009081526011602052604090205460ff16610be75760405162461bcd60e51b81526004016107bc90612051565b610bf18282611803565b5050565b6001600160a01b031660009081526001602052604090205490565b610c18611537565b6001600160a01b0316610c29610d2b565b6001600160a01b031614610c4f5760405162461bcd60e51b81526004016107bc906120b7565b610c5960006118c3565b565b6000610c65610d2b565b905090565b3360009081526011602052604090205460ff16610c8657600080fd5b6001600160a01b0382166000908152600c6020526040902060020154610cad906001611524565b6001600160a01b038084166000908152600c60205260409081902060020192909255600a549151637123d17160e11b815291169063e247a2e290610cf5908490600401611eab565b600060405180830381600087803b158015610d0f57600080fd5b505af1158015610d23573d6000803e3d6000fd5b505050505050565b6000546001600160a01b031690565b60606005805461080d906123ae565b600654610100900460ff1615610d5e57600080fd5b601280546001600160a01b03199081163317918290556006805475bb4cdb9cbd36b01bd1cbaebf2de08d9173bc095c000062010000600160b01b0319909116179055600880549091167310ed43c718714eb63d5aa57b78b54704e256024e179055610dd2906001600160a01b031682611803565b604051610dde90611be3565b604051809103906000f080158015610dfa573d6000803e3d6000fd5b50600960006101000a8154816001600160a01b0302191690836001600160a01b03160217905550610e6a604051806040016040528060098152602001680accae4e6eae65cc6f60bb1b8152506040518060400160405280600681526020016556657273757360d01b815250611913565b610b7f61194c565b6000610997610e7f611537565b84610a75856040518060600160405280602581526020016125d56025913960026000610ea9611537565b6001600160a01b03908116825260208083019390935260409182016000908120918d16815292529020549190611704565b6012546001600160a01b03163314610ef157600080fd5b60065460ff610100909104161515600114610f1e5760405162461bcd60e51b81526004016107bc906121dc565b600780546001600160a01b0319166001600160a01b0392909216919091179055565b600080610f636064610f5d600b548661195d90919063ffffffff16565b90611969565b9050610f6e81611975565b610f8184610f7c8584611b28565b611b34565b610f9d5760405162461bcd60e51b81526004016107bc90611fba565b336000908152600c6020526040902054610fb990610708611524565b336000908152600c60205260409020555060019392505050565b6009546001600160a01b031681565b6012546001600160a01b031681565b6012546001600160a01b0316331461100857600080fd5b60065460ff6101009091041615156001146110355760405162461bcd60e51b81526004016107bc906121dc565b600b55565b60105481565b336000908152600c6020526040812060040155565b6012546001600160a01b0316331461106c57600080fd5b60065460ff6101009091041615156001146110995760405162461bcd60e51b81526004016107bc906121dc565b600a80546001600160a01b0319166001600160a01b0392909216919091179055565b600e5481565b600c6020526000908152604090208054600182015460028301546003840154600485015460059095015493946001600160801b0384169460ff600160801b90950485169463ffffffff909316921687565b600754604051635c38730160e11b81526001600160a01b039091169063b870e60290611144908490339060040161222e565b600060405180830381600087803b15801561115e57600080fd5b505af1158015611172573d6000803e3d6000fd5b5050336000908152600c60205260409020600401929092555050565b6006546201000090046001600160a01b031681565b6001600160a01b03918216600090815260026020908152604080832093909416825291909152205490565b336000908152600c602052604090206005015460ff16156112015760405162461bcd60e51b81526004016107bc90612080565b8063ffffffff166001148061121c57508063ffffffff166002145b8061122d57508063ffffffff166003145b6112495760405162461bcd60e51b81526004016107bc90611fe3565b6112533382611b48565b50336000908152600c60205260409020600501805460ff19166001179055565b6012546001600160a01b0316331461128a57600080fd5b610bf18183611803565b3360009081526011602052604090205460ff166112b057600080fd5b6001600160a01b0381166000908152600c60205260409020600401541561134a576007546001600160a01b038281166000908152600c6020526040908190206004908101549151630265260960e61b81529290931692639949824092611317929101611eab565b600060405180830381600087803b15801561133157600080fd5b505af1158015611345573d6000803e3d6000fd5b505050505b6001600160a01b0381166000908152600c6020526040902060019081015461137d916001600160801b0390911690612315565b6001600160a01b038281166000908152600c60205260409081902060010180546fffffffffffffffffffffffffffffffff19166001600160801b039485161790819055600a549151632288d5e960e01b81529190921692632288d5e9926113ed9286929190911690600401611e5f565b600060405180830381600087803b15801561140757600080fd5b505af115801561141b573d6000803e3d6000fd5b5050600a546001600160a01b038481166000908152600c60205260409081902060010154905163030e0a3f60e31b815291909216935063187051f892506114729185916001600160801b0390911690600401611e5f565b600060405180830381600087803b15801561148c57600080fd5b505af11580156114a0573d6000803e3d6000fd5b5050505050565b6114af611537565b6001600160a01b03166114c0610d2b565b6001600160a01b0316146114e65760405162461bcd60e51b81526004016107bc906120b7565b6001600160a01b03811661150c5760405162461bcd60e51b81526004016107bc90611f32565b610b7f816118c3565b600a546001600160a01b031681565b60006115308284612340565b9392505050565b3390565b6001600160a01b0383166115615760405162461bcd60e51b81526004016107bc90612161565b6001600160a01b0382166115875760405162461bcd60e51b81526004016107bc90611f78565b6001600160a01b0380841660008181526002602090815260408083209487168084529490915290819020849055517f8c5be1e5ebec7d5bd14f71427d1e84f3dd0314c0f7b2291e5b200ac8c7c3b925906115e2908590611eab565b60405180910390a3505050565b6001600160a01b0383166116155760405162461bcd60e51b81526004016107bc9061211c565b6001600160a01b03821661163b5760405162461bcd60e51b81526004016107bc90611ec7565b611646838383611b23565b61168381604051806060016040528060268152602001612587602691396001600160a01b0386166000908152600160205260409020549190611704565b6001600160a01b0380851660009081526001602052604080822093909355908416815220546116b29082611524565b6001600160a01b0380841660008181526001602052604090819020939093559151908516907fddf252ad1be2c89b69c2b068fc378daa952ba7f163c4a11628f55a4df523b3ef906115e2908590611eab565b600081848411156117285760405162461bcd60e51b81526004016107bc9190611eb4565b505050900390565b806001600160a01b03166352d1902d6040518163ffffffff1660e01b815260040160206040518083038186803b15801561176957600080fd5b505afa15801561177d573d6000803e3d6000fd5b505050506040513d601f19601f820116820180604052508101906117a19190611d8a565b7fc5f16f0fcc639fa48a6947836d9850f504798523bf8c9a3a87d5876cf622bcf7146117df5760405162461bcd60e51b81526004016107bc90611f0a565b7fc5f16f0fcc639fa48a6947836d9850f504798523bf8c9a3a87d5876cf622bcf755565b6001600160a01b0382166118295760405162461bcd60e51b81526004016107bc906121a5565b61183560008383611b23565b6003546118429082611524565b6003556001600160a01b0382166000908152600160205260409020546118689082611524565b6001600160a01b0383166000818152600160205260408082209390935591519091907fddf252ad1be2c89b69c2b068fc378daa952ba7f163c4a11628f55a4df523b3ef906118b7908590611eab565b60405180910390a35050565b600080546001600160a01b038381166001600160a01b0319831681178455604051919092169283917f8be0079c531659141344cd1fd0a4f28419497f9722a3daafe3b4186f6b6457e09190a35050565b8151611926906004906020850190611bf0565b50805161193a906005906020840190611bf0565b50506006805460ff1916601217905550565b6006805461ff001916610100179055565b60006115308284612378565b60006115308284612358565b6040805160028082526060820183524792600092919060208301908036833701905050905030816000815181106119bc57634e487b7160e01b600052603260045260246000fd5b6001600160a01b0392831660209182029290920101526006548251620100009091049091169082906001908110611a0357634e487b7160e01b600052603260045260246000fd5b6001600160a01b039283166020918202929092010152600854611a29913091168561153b565b600854600954604051635c11d79560e01b81526001600160a01b0392831692635c11d79592611a6692889260009288929116904290600401612245565b600060405180830381600087803b158015611a8057600080fd5b505af1925050508015611a91575060015b611b02573d808015611abf576040519150601f19603f3d011682016040523d82523d6000602084013e611ac4565b606091505b507fff9fa5955cfdbb5c1210d209004ee695ed5cb3017698f846d57fde5cbc0b00b181604051611af49190611eb4565b60405180910390a150611b23565b6000611b0e4784611b28565b600e54909150611b1e9082611524565b600e55505b505050565b60006115308284612397565b6000610997611b41611537565b84846115ef565b600754604051634f9b008d60e01b81526001600160a01b0390911690634f9b008d90611b7a9085908590600401611e81565b602060405180830381600087803b158015611b9457600080fd5b505af1158015611ba8573d6000803e3d6000fd5b505050506040513d601f19601f82011682018060405250810190611bcc9190611d8a565b336000908152600c60205260409020600401555050565b6101878061240083390190565b828054611bfc906123ae565b90600052602060002090601f016020900481019282611c1e5760008555611c64565b82601f10611c3757805160ff1916838001178555611c64565b82800160010185558215611c64579182015b82811115611c64578251825591602001919060010190611c49565b50611c70929150611c74565b5090565b5b80821115611c705760008155600101611c75565b80356001600160a01b038116811461097e57600080fd5b600060208284031215611cb1578081fd5b61153082611c89565b60008060408385031215611ccc578081fd5b611cd583611c89565b9150611ce360208401611c89565b90509250929050565b600080600060608486031215611d00578081fd5b611d0984611c89565b9250611d1760208501611c89565b9150604084013590509250925092565b60008060408385031215611d39578182fd5b611d4283611c89565b915060208301358015158114611d56578182fd5b809150509250929050565b60008060408385031215611d73578182fd5b611d7c83611c89565b946020939093013593505050565b600060208284031215611d9b578081fd5b5051919050565b600060208284031215611db3578081fd5b5035919050565b60008060408385031215611dcc578182fd5b82359150611ce360208401611c89565b600060208284031215611ded578081fd5b813563ffffffff81168114611530578182fd5b60008151808452815b81811015611e2557602081850181015186830182015201611e09565b81811115611e365782602083870101525b50601f01601f19169290920160200192915050565b6001600160a01b0391909116815260200190565b6001600160a01b039290921682526001600160801b0316602082015260400190565b6001600160a01b0392909216825263ffffffff16602082015260400190565b901515815260200190565b90815260200190565b6000602082526115306020830184611e00565b60208082526023908201527f45524332303a207472616e7366657220746f20746865207a65726f206164647260408201526265737360e81b606082015260800190565b6020808252600e908201526d4e6f7420636f6d70617469626c6560901b604082015260600190565b60208082526026908201527f4f776e61626c653a206e6577206f776e657220697320746865207a65726f206160408201526564647265737360d01b606082015260800190565b60208082526022908201527f45524332303a20617070726f766520746f20746865207a65726f206164647265604082015261737360f01b606082015260800190565b6020808252600f908201526e151c985b9cd9995c8819985a5b1959608a1b604082015260600190565b60208082526019908201527f4d7573742063686f6f73652076616c6964207374617274657200000000000000604082015260600190565b6020808252601d908201527f416c7265616479207573696e6720667265652070726564696374696f6e000000604082015260600190565b602080825260159082015274155b985d5d1a1bdc9a5e99590818dbdb9d1c9858dd605a1b604082015260600190565b60208082526017908201527f5374617274657220616c726561647920636c61696d6564000000000000000000604082015260600190565b6020808252818101527f4f776e61626c653a2063616c6c6572206973206e6f7420746865206f776e6572604082015260600190565b602080825260169082015275139bc8199c9959481c1c99591a58dd1a5bdb881e595d60521b604082015260600190565b60208082526025908201527f45524332303a207472616e736665722066726f6d20746865207a65726f206164604082015264647265737360d81b606082015260800190565b60208082526024908201527f45524332303a20617070726f76652066726f6d20746865207a65726f206164646040820152637265737360e01b606082015260800190565b6020808252601f908201527f45524332303a206d696e7420746f20746865207a65726f206164647265737300604082015260600190565b60208082526032908201527f546865206c696272617279206973206c6f636b65642e204e6f206469726563746040820152710809d8d85b1b09c81a5cc8185b1b1bddd95960721b606082015260800190565b9182526001600160a01b0316602082015260400190565b600060a082018783526020878185015260a0604085015281875180845260c0860191508289019350845b818110156122945784516001600160a01b03168352938301939183019160010161226f565b50506001600160a01b03969096166060850152505050608001529392505050565b9687526001600160801b039590951660208701529215156040860152606085019190915263ffffffff16608084015260a0830152151560c082015260e00190565b63ffffffff91909116815260200190565b60ff91909116815260200190565b60006001600160801b03808316818516808303821115612337576123376123e9565b01949350505050565b60008219821115612353576123536123e9565b500190565b60008261237357634e487b7160e01b81526012600452602481fd5b500490565b6000816000190483118215151615612392576123926123e9565b500290565b6000828210156123a9576123a96123e9565b500390565b6002810460018216806123c257607f821691505b602082108114156123e357634e487b7160e01b600052602260045260246000fd5b50919050565b634e487b7160e01b600052601160045260246000fdfe608060405234801561001057600080fd5b50600080546001600160a01b03191633179055610155806100326000396000f3fe608060405234801561001057600080fd5b50600436106100415760003560e01c80637514a418146100465780638da5cb5b14610064578063df3f6c251461006c575b600080fd5b61004e610081565b60405161005b919061010b565b60405180910390f35b61004e610090565b61007f61007a3660046100f3565b61009f565b005b6000546001600160a01b031681565b6001546001600160a01b031681565b6000546001600160a01b031633146100b657600080fd5b600080546040516001600160a01b039091169183156108fc02918491818181858888f193505050501580156100ef573d6000803e3d6000fd5b5050565b600060208284031215610104578081fd5b5035919050565b6001600160a01b039190911681526020019056fea2646970667358221220d395f58d659303ab9e5e50e8c0887f3972f461a5642d2aadba55b62b44278edb64736f6c6343000800003345524332303a207472616e7366657220616d6f756e7420657863656564732062616c616e636545524332303a207472616e7366657220616d6f756e74206578636565647320616c6c6f77616e636545524332303a2064656372656173656420616c6c6f77616e63652062656c6f77207a65726fa2646970667358221220c240088c3111079393b7357c0a75697ce90337972178fcd910ccbafd8959172764736f6c63430008000033",
  "immutableReferences": {},
  "source": "pragma solidity ^0.8.0;\r\n\r\n// CAUTION\r\n// This version of SafeMath should only be used with Solidity 0.8 or later,\r\n// because it relies on the compiler's built in overflow checks.\r\n\r\n/**\r\n * @dev Wrappers over Solidity's arithmetic operations.\r\n *\r\n * NOTE: `SafeMath` is no longer needed starting with Solidity 0.8. The compiler\r\n * now has built in overflow checking.\r\n */\r\nlibrary SafeMath {\r\n    /**\r\n     * @dev Returns the addition of two unsigned integers, with an overflow flag.\r\n     *\r\n     * _Available since v3.4._\r\n     */\r\n    function tryAdd(uint256 a, uint256 b) internal pure returns (bool, uint256) {\r\n        unchecked {\r\n            uint256 c = a + b;\r\n            if (c < a) return (false, 0);\r\n            return (true, c);\r\n        }\r\n    }\r\n\r\n    /**\r\n     * @dev Returns the substraction of two unsigned integers, with an overflow flag.\r\n     *\r\n     * _Available since v3.4._\r\n     */\r\n    function trySub(uint256 a, uint256 b) internal pure returns (bool, uint256) {\r\n        unchecked {\r\n            if (b > a) return (false, 0);\r\n            return (true, a - b);\r\n        }\r\n    }\r\n\r\n    /**\r\n     * @dev Returns the multiplication of two unsigned integers, with an overflow flag.\r\n     *\r\n     * _Available since v3.4._\r\n     */\r\n    function tryMul(uint256 a, uint256 b) internal pure returns (bool, uint256) {\r\n        unchecked {\r\n            // Gas optimization: this is cheaper than requiring 'a' not being zero, but the\r\n            // benefit is lost if 'b' is also tested.\r\n            // See: https://github.com/OpenZeppelin/openzeppelin-contracts/pull/522\r\n            if (a == 0) return (true, 0);\r\n            uint256 c = a * b;\r\n            if (c / a != b) return (false, 0);\r\n            return (true, c);\r\n        }\r\n    }\r\n\r\n    /**\r\n     * @dev Returns the division of two unsigned integers, with a division by zero flag.\r\n     *\r\n     * _Available since v3.4._\r\n     */\r\n    function tryDiv(uint256 a, uint256 b) internal pure returns (bool, uint256) {\r\n        unchecked {\r\n            if (b == 0) return (false, 0);\r\n            return (true, a / b);\r\n        }\r\n    }\r\n\r\n    /**\r\n     * @dev Returns the remainder of dividing two unsigned integers, with a division by zero flag.\r\n     *\r\n     * _Available since v3.4._\r\n     */\r\n    function tryMod(uint256 a, uint256 b) internal pure returns (bool, uint256) {\r\n        unchecked {\r\n            if (b == 0) return (false, 0);\r\n            return (true, a % b);\r\n        }\r\n    }\r\n\r\n    /**\r\n     * @dev Returns the addition of two unsigned integers, reverting on\r\n     * overflow.\r\n     *\r\n     * Counterpart to Solidity's `+` operator.\r\n     *\r\n     * Requirements:\r\n     *\r\n     * - Addition cannot overflow.\r\n     */\r\n    function add(uint256 a, uint256 b) internal pure returns (uint256) {\r\n        return a + b;\r\n    }\r\n\r\n    /**\r\n     * @dev Returns the subtraction of two unsigned integers, reverting on\r\n     * overflow (when the result is negative).\r\n     *\r\n     * Counterpart to Solidity's `-` operator.\r\n     *\r\n     * Requirements:\r\n     *\r\n     * - Subtraction cannot overflow.\r\n     */\r\n    function sub(uint256 a, uint256 b) internal pure returns (uint256) {\r\n        return a - b;\r\n    }\r\n\r\n    /**\r\n     * @dev Returns the multiplication of two unsigned integers, reverting on\r\n     * overflow.\r\n     *\r\n     * Counterpart to Solidity's `*` operator.\r\n     *\r\n     * Requirements:\r\n     *\r\n     * - Multiplication cannot overflow.\r\n     */\r\n    function mul(uint256 a, uint256 b) internal pure returns (uint256) {\r\n        return a * b;\r\n    }\r\n\r\n    /**\r\n     * @dev Returns the integer division of two unsigned integers, reverting on\r\n     * division by zero. The result is rounded towards zero.\r\n     *\r\n     * Counterpart to Solidity's `/` operator.\r\n     *\r\n     * Requirements:\r\n     *\r\n     * - The divisor cannot be zero.\r\n     */\r\n    function div(uint256 a, uint256 b) internal pure returns (uint256) {\r\n        return a / b;\r\n    }\r\n\r\n    /**\r\n     * @dev Returns the remainder of dividing two unsigned integers. (unsigned integer modulo),\r\n     * reverting when dividing by zero.\r\n     *\r\n     * Counterpart to Solidity's `%` operator. This function uses a `revert`\r\n     * opcode (which leaves remaining gas untouched) while Solidity uses an\r\n     * invalid opcode to revert (consuming all remaining gas).\r\n     *\r\n     * Requirements:\r\n     *\r\n     * - The divisor cannot be zero.\r\n     */\r\n    function mod(uint256 a, uint256 b) internal pure returns (uint256) {\r\n        return a % b;\r\n    }\r\n\r\n    /**\r\n     * @dev Returns the subtraction of two unsigned integers, reverting with custom message on\r\n     * overflow (when the result is negative).\r\n     *\r\n     * CAUTION: This function is deprecated because it requires allocating memory for the error\r\n     * message unnecessarily. For custom revert reasons use {trySub}.\r\n     *\r\n     * Counterpart to Solidity's `-` operator.\r\n     *\r\n     * Requirements:\r\n     *\r\n     * - Subtraction cannot overflow.\r\n     */\r\n    function sub(\r\n        uint256 a,\r\n        uint256 b,\r\n        string memory errorMessage\r\n    ) internal pure returns (uint256) {\r\n        unchecked {\r\n            require(b <= a, errorMessage);\r\n            return a - b;\r\n        }\r\n    }\r\n\r\n    /**\r\n     * @dev Returns the integer division of two unsigned integers, reverting with custom message on\r\n     * division by zero. The result is rounded towards zero.\r\n     *\r\n     * Counterpart to Solidity's `/` operator. Note: this function uses a\r\n     * `revert` opcode (which leaves remaining gas untouched) while Solidity\r\n     * uses an invalid opcode to revert (consuming all remaining gas).\r\n     *\r\n     * Requirements:\r\n     *\r\n     * - The divisor cannot be zero.\r\n     */\r\n    function div(\r\n        uint256 a,\r\n        uint256 b,\r\n        string memory errorMessage\r\n    ) internal pure returns (uint256) {\r\n        unchecked {\r\n            require(b > 0, errorMessage);\r\n            return a / b;\r\n        }\r\n    }\r\n\r\n    /**\r\n     * @dev Returns the remainder of dividing two unsigned integers. (unsigned integer modulo),\r\n     * reverting with custom message when dividing by zero.\r\n     *\r\n     * CAUTION: This function is deprecated because it requires allocating memory for the error\r\n     * message unnecessarily. For custom revert reasons use {tryMod}.\r\n     *\r\n     * Counterpart to Solidity's `%` operator. This function uses a `revert`\r\n     * opcode (which leaves remaining gas untouched) while Solidity uses an\r\n     * invalid opcode to revert (consuming all remaining gas).\r\n     *\r\n     * Requirements:\r\n     *\r\n     * - The divisor cannot be zero.\r\n     */\r\n    function mod(\r\n        uint256 a,\r\n        uint256 b,\r\n        string memory errorMessage\r\n    ) internal pure returns (uint256) {\r\n        unchecked {\r\n            require(b > 0, errorMessage);\r\n            return a % b;\r\n        }\r\n    }\r\n}\r\n\r\ninterface IBEP20 {\r\n  /**\r\n   * @dev Returns the amount of tokens in existence.\r\n   */\r\n  function totalSupply() external view returns (uint256);\r\n\r\n  /**\r\n   * @dev Returns the token decimals.\r\n   */\r\n  function decimals() external view returns (uint8);\r\n\r\n  /**\r\n   * @dev Returns the token symbol.\r\n   */\r\n  function symbol() external view returns (string memory);\r\n\r\n  /**\r\n  * @dev Returns the token name.\r\n  */\r\n  function name() external view returns (string memory);\r\n\r\n  /**\r\n   * @dev Returns the bep token owner.\r\n   */\r\n  function getOwner() external view returns (address);\r\n\r\n  /**\r\n   * @dev Returns the amount of tokens owned by `account`.\r\n   */\r\n  function balanceOf(address account) external view returns (uint256);\r\n\r\n  /**\r\n   * @dev Moves `amount` tokens from the caller's account to `recipient`.\r\n   *\r\n   * Returns a boolean value indicating whether the operation succeeded.\r\n   *\r\n   * Emits a {Transfer} event.\r\n   */\r\n  function transfer(address recipient, uint256 amount) external returns (bool);\r\n\r\n  /**\r\n   * @dev Returns the remaining number of tokens that `spender` will be\r\n   * allowed to spend on behalf of `owner` through {transferFrom}. This is\r\n   * zero by default.\r\n   *\r\n   * This value changes when {approve} or {transferFrom} are called.\r\n   */\r\n  function allowance(address _owner, address spender) external view returns (uint256);\r\n\r\n  /**\r\n   * @dev Sets `amount` as the allowance of `spender` over the caller's tokens.\r\n   *\r\n   * Returns a boolean value indicating whether the operation succeeded.\r\n   *\r\n   * IMPORTANT: Beware that changing an allowance with this method brings the risk\r\n   * that someone may use both the old and the new allowance by unfortunate\r\n   * transaction ordering. One possible solution to mitigate this race\r\n   * condition is to first reduce the spender's allowance to 0 and set the\r\n   * desired value afterwards:\r\n   * https://github.com/ethereum/EIPs/issues/20#issuecomment-263524729\r\n   *\r\n   * Emits an {Approval} event.\r\n   */\r\n  function approve(address spender, uint256 amount) external returns (bool);\r\n\r\n  /**\r\n   * @dev Moves `amount` tokens from `sender` to `recipient` using the\r\n   * allowance mechanism. `amount` is then deducted from the caller's\r\n   * allowance.\r\n   *\r\n   * Returns a boolean value indicating whether the operation succeeded.\r\n   *\r\n   * Emits a {Transfer} event.\r\n   */\r\n  function transferFrom(address sender, address recipient, uint256 amount) external returns (bool);\r\n\r\n  /**\r\n   * @dev Emitted when `value` tokens are moved from one account (`from`) to\r\n   * another (`to`).\r\n   *\r\n   * Note that `value` may be zero.\r\n   */\r\n  event Transfer(address indexed from, address indexed to, uint256 value);\r\n\r\n  /**\r\n   * @dev Emitted when the allowance of a `spender` for an `owner` is set by\r\n   * a call to {approve}. `value` is the new allowance.\r\n   */\r\n  event Approval(address indexed owner, address indexed spender, uint256 value);\r\n}\r\n\r\n/**\r\n * @dev Provides information about the current execution context, including the\r\n * sender of the transaction and its data. While these are generally available\r\n * via msg.sender and msg.data, they should not be accessed in such a direct\r\n * manner, since when dealing with meta-transactions the account sending and\r\n * paying for execution may not be the actual sender (as far as an application\r\n * is concerned).\r\n *\r\n * This contract is only required for intermediate, library-like contracts.\r\n */\r\ncontract Context {\r\n    function _msgSender() internal view virtual returns (address) {\r\n        return msg.sender;\r\n    }\r\n\r\n    // function _msgData() internal view virtual returns (bytes calldata) {\r\n    //     return msg.data;\r\n    // }\r\n}\r\n\r\n\r\n\r\n// SPDX-License-Identifier: MIT\r\n\r\npragma solidity ^0.8.0;\r\n\r\n/**\r\n * @dev Contract module which provides a basic access control mechanism, where\r\n * there is an account (an owner) that can be granted exclusive access to\r\n * specific functions.\r\n *\r\n * By default, the owner account will be the one that deploys the contract. This\r\n * can later be changed with {transferOwnership}.\r\n *\r\n * This module is used through inheritance. It will make available the modifier\r\n * `onlyOwner`, which can be applied to your functions to restrict their use to\r\n * the owner.\r\n */\r\ncontract Ownable is Context {\r\n    address private _owner;\r\n\r\n    event OwnershipTransferred(address indexed previousOwner, address indexed newOwner);\r\n\r\n    /**\r\n     * @dev Initializes the contract setting the deployer as the initial owner.\r\n     */\r\n    constructor() {\r\n        _setOwner(_msgSender());\r\n    }\r\n\r\n    /**\r\n     * @dev Returns the address of the current owner.\r\n     */\r\n    function owner() public view virtual returns (address) {\r\n        return _owner;\r\n    }\r\n\r\n    /**\r\n     * @dev Throws if called by any account other than the owner.\r\n     */\r\n    modifier onlyOwner() {\r\n        require(owner() == _msgSender(), \"Ownable: caller is not the owner\");\r\n        _;\r\n    }\r\n\r\n    /**\r\n     * @dev Leaves the contract without owner. It will not be possible to call\r\n     * `onlyOwner` functions anymore. Can only be called by the current owner.\r\n     *\r\n     * NOTE: Renouncing ownership will leave the contract without an owner,\r\n     * thereby removing any functionality that is only available to the owner.\r\n     */\r\n    function renounceOwnership() public virtual onlyOwner {\r\n        _setOwner(address(0));\r\n    }\r\n\r\n    /**\r\n     * @dev Transfers ownership of the contract to a new account (`newOwner`).\r\n     * Can only be called by the current owner.\r\n     */\r\n    function transferOwnership(address newOwner) public virtual onlyOwner {\r\n        require(newOwner != address(0), \"Ownable: new owner is the zero address\");\r\n        _setOwner(newOwner);\r\n    }\r\n\r\n    function _setOwner(address newOwner) private {\r\n        address oldOwner = _owner;\r\n        _owner = newOwner;\r\n        emit OwnershipTransferred(oldOwner, newOwner);\r\n    }\r\n}\r\n\r\ncontract BEP20 is Ownable, IBEP20 {\r\n    using SafeMath for uint256;\r\n\r\n    mapping (address => uint256) private _balances;\r\n\r\n    mapping (address => mapping (address => uint256)) private _allowances;\r\n\r\n    uint256 private _totalSupply;\r\n\r\n    string private _name;\r\n    string private _symbol;\r\n    uint8 private _decimals;\r\n\r\n    /**\r\n     * @dev Sets the values for {name} and {symbol}, initializes {decimals} with\r\n     * a default value of 18.\r\n     *\r\n     * To select a different value for {decimals}, use {_setupDecimals}.\r\n     *\r\n     * All three of these values are immutable: they can only be set once during\r\n     * construction.\r\n     */\r\n    // constructor (string memory name, string memory symbol) {\r\n    //     _name = name;\r\n    //     _symbol = symbol;\r\n    //     _decimals = 18;\r\n    // }\r\n    \r\n    function constructor1 (string memory setName, string memory setSymbol) internal {\r\n        _name = setName;\r\n        _symbol = setSymbol;\r\n        _decimals = 18;\r\n    }\r\n\r\n     /**\r\n     * @dev Returns the name of the token.\r\n     */\r\n    function name() public view virtual override returns (string memory) {\r\n        return _name;\r\n    }\r\n\r\n    /**\r\n     * @dev Returns the symbol of the token, usually a shorter version of the\r\n     * name.\r\n     */\r\n    function symbol() public view virtual override returns (string memory) {\r\n        return _symbol;\r\n    }\r\n\r\n    function getOwner() public view virtual override returns (address) {\r\n        return owner();\r\n    }\r\n\r\n    /**\r\n     * @dev Returns the number of decimals used to get its user representation.\r\n     * For example, if `decimals` equals `2`, a balance of `505` tokens should\r\n     * be displayed to a user as `5,05` (`505 / 10 ** 2`).\r\n     *\r\n     * Tokens usually opt for a value of 18, imitating the relationship between\r\n     * Ether and Wei. This is the value {ERC20} uses, unless {_setupDecimals} is\r\n     * called.\r\n     *\r\n     * NOTE: This information is only used for _display_ purposes: it in\r\n     * no way affects any of the arithmetic of the contract, including\r\n     * {IERC20-balanceOf} and {IERC20-transfer}.\r\n     */\r\n    function decimals() public view virtual override returns (uint8) {\r\n        return _decimals;\r\n    }\r\n\r\n    /**\r\n     * @dev See {IERC20-totalSupply}.\r\n     */\r\n    function totalSupply() public view virtual override returns (uint256) {\r\n        return _totalSupply;\r\n    }\r\n\r\n    /**\r\n     * @dev See {IERC20-balanceOf}.\r\n     */\r\n    function balanceOf(address account) public virtual view override returns (uint256) {\r\n        return _balances[account];\r\n    }\r\n\r\n    /**\r\n     * @dev See {IERC20-transfer}.\r\n     *\r\n     * Requirements:\r\n     *\r\n     * - `recipient` cannot be the zero address.\r\n     * - the caller must have a balance of at least `amount`.\r\n     */\r\n    function transfer(address recipient, uint256 amount) public virtual override returns (bool) {\r\n        _transfer(_msgSender(), recipient, amount);\r\n        return true;\r\n    }\r\n\r\n    /**\r\n     * @dev See {IERC20-allowance}.\r\n     */\r\n    function allowance(address _owner, address spender) public view virtual override returns (uint256) {\r\n        return _allowances[_owner][spender];\r\n    }\r\n    \r\n\r\n    /**\r\n     * @dev See {IERC20-approve}.\r\n     *\r\n     * Requirements:\r\n     *\r\n     * - `spender` cannot be the zero address.\r\n     */\r\n    function approve(address spender, uint256 amount) public virtual override returns (bool) {\r\n        _approve(_msgSender(), spender, amount);\r\n        return true;\r\n    }\r\n\r\n    /**\r\n     * @dev See {IERC20-transferFrom}.\r\n     *\r\n     * Emits an {Approval} event indicating the updated allowance. This is not\r\n     * required by the EIP. See the note at the beginning of {ERC20}.\r\n     *\r\n     * Requirements:\r\n     *\r\n     * - `sender` and `recipient` cannot be the zero address.\r\n     * - `sender` must have a balance of at least `amount`.\r\n     * - the caller must have allowance for ``sender``'s tokens of at least\r\n     * `amount`.\r\n     */\r\n    function transferFrom(address sender, address recipient, uint256 amount) public virtual override returns (bool) {\r\n        _transfer(sender, recipient, amount);\r\n        _approve(sender, _msgSender(), _allowances[sender][_msgSender()].sub(amount, \"ERC20: transfer amount exceeds allowance\"));\r\n        return true;\r\n    }\r\n\r\n    /**\r\n     * @dev Atomically increases the allowance granted to `spender` by the caller.\r\n     *\r\n     * This is an alternative to {approve} that can be used as a mitigation for\r\n     * problems described in {IERC20-approve}.\r\n     *\r\n     * Emits an {Approval} event indicating the updated allowance.\r\n     *\r\n     * Requirements:\r\n     *\r\n     * - `spender` cannot be the zero address.\r\n     */\r\n    function increaseAllowance(address spender, uint256 addedValue) public virtual returns (bool) {\r\n        _approve(_msgSender(), spender, _allowances[_msgSender()][spender].add(addedValue));\r\n        return true;\r\n    }\r\n\r\n    /**\r\n     * @dev Atomically decreases the allowance granted to `spender` by the caller.\r\n     *\r\n     * This is an alternative to {approve} that can be used as a mitigation for\r\n     * problems described in {IERC20-approve}.\r\n     *\r\n     * Emits an {Approval} event indicating the updated allowance.\r\n     *\r\n     * Requirements:\r\n     *\r\n     * - `spender` cannot be the zero address.\r\n     * - `spender` must have allowance for the caller of at least\r\n     * `subtractedValue`.\r\n     */\r\n    function decreaseAllowance(address spender, uint256 subtractedValue) public virtual returns (bool) {\r\n        _approve(_msgSender(), spender, _allowances[_msgSender()][spender].sub(subtractedValue, \"ERC20: decreased allowance below zero\"));\r\n        return true;\r\n    }\r\n\r\n    /**\r\n     * @dev Moves tokens `amount` from `sender` to `recipient`.\r\n     *\r\n     * This is internal function is equivalent to {transfer}, and can be used to\r\n     * e.g. implement automatic token fees, slashing mechanisms, etc.\r\n     *\r\n     * Emits a {Transfer} event.\r\n     *\r\n     * Requirements:\r\n     *\r\n     * - `sender` cannot be the zero address.\r\n     * - `recipient` cannot be the zero address.\r\n     * - `sender` must have a balance of at least `amount`.\r\n     */\r\n    function _transfer(address sender, address recipient, uint256 amount) internal virtual {\r\n        require(sender != address(0), \"ERC20: transfer from the zero address\");\r\n        require(recipient != address(0), \"ERC20: transfer to the zero address\");\r\n\r\n        _beforeTokenTransfer(sender, recipient, amount);\r\n\r\n        _balances[sender] = _balances[sender].sub(amount, \"ERC20: transfer amount exceeds balance\");\r\n        _balances[recipient] = _balances[recipient].add(amount);\r\n        emit Transfer(sender, recipient, amount);\r\n    }\r\n\r\n    /** @dev Creates `amount` tokens and assigns them to `account`, increasing\r\n     * the total supply.\r\n     *\r\n     * Emits a {Transfer} event with `from` set to the zero address.\r\n     *\r\n     * Requirements:\r\n     *\r\n     * - `to` cannot be the zero address.\r\n     */\r\n    function _mint(address account, uint256 amount) internal virtual {\r\n        require(account != address(0), \"ERC20: mint to the zero address\");\r\n\r\n        _beforeTokenTransfer(address(0), account, amount);\r\n\r\n        _totalSupply = _totalSupply.add(amount);\r\n        _balances[account] = _balances[account].add(amount);\r\n        emit Transfer(address(0), account, amount);\r\n    }\r\n\r\n    /**\r\n     * @dev Destroys `amount` tokens from `account`, reducing the\r\n     * total supply.\r\n     *\r\n     * Emits a {Transfer} event with `to` set to the zero address.\r\n     *\r\n     * Requirements:\r\n     *\r\n     * - `account` cannot be the zero address.\r\n     * - `account` must have at least `amount` tokens.\r\n     */\r\n    function _burn(address account, uint256 amount) internal virtual {\r\n        require(account != address(0), \"ERC20: burn from the zero address\");\r\n\r\n        _beforeTokenTransfer(account, address(0), amount);\r\n\r\n        _balances[account] = _balances[account].sub(amount, \"ERC20: burn amount exceeds balance\");\r\n        _totalSupply = _totalSupply.sub(amount);\r\n        emit Transfer(account, address(0), amount);\r\n    }\r\n\r\n    /**\r\n     * @dev Sets `amount` as the allowance of `spender` over the `owner` s tokens.\r\n     *\r\n     * This internal function is equivalent to `approve`, and can be used to\r\n     * e.g. set automatic allowances for certain subsystems, etc.\r\n     *\r\n     * Emits an {Approval} event.\r\n     *\r\n     * Requirements:\r\n     *\r\n     * - `owner` cannot be the zero address.\r\n     * - `spender` cannot be the zero address.\r\n     */\r\n    function _approve(address owner, address spender, uint256 amount) internal virtual {\r\n        require(owner != address(0), \"ERC20: approve from the zero address\");\r\n        require(spender != address(0), \"ERC20: approve to the zero address\");\r\n\r\n        _allowances[owner][spender] = amount;\r\n        emit Approval(owner, spender, amount);\r\n    }\r\n\r\n    /**\r\n     * @dev Sets {decimals} to a value other than the default one of 18.\r\n     *\r\n     * WARNING: This function should only be called from the constructor. Most\r\n     * applications that interact with token contracts will not expect\r\n     * {decimals} to ever change, and may work incorrectly if it does.\r\n     */\r\n    function _setupDecimals(uint8 decimals_) internal {\r\n        _decimals = decimals_;\r\n    }\r\n\r\n    /**\r\n     * @dev Hook that is called before any transfer of tokens. This includes\r\n     * minting and burning.\r\n     *\r\n     * Calling conditions:\r\n     *\r\n     * - when `from` and `to` are both non-zero, `amount` of ``from``'s tokens\r\n     * will be to transferred to `to`.\r\n     * - when `from` is zero, `amount` tokens will be minted for `to`.\r\n     * - when `to` is zero, `amount` of ``from``'s tokens will be burned.\r\n     * - `from` and `to` are never both zero.\r\n     *\r\n     * To learn more about hooks, head to xref:ROOT:extending-contracts.adoc#using-hooks[Using Hooks].\r\n     */\r\n    function _beforeTokenTransfer(address from, address to, uint256 amount) internal virtual { }\r\n\r\n}\r\n\r\n\r\n\r\npragma solidity >=0.6.2;\r\n\r\ninterface IUniswapV2Router01 {\r\n    function factory() external pure returns (address);\r\n    function WETH() external pure returns (address);\r\n\r\n    function addLiquidity(\r\n        address tokenA,\r\n        address tokenB,\r\n        uint amountADesired,\r\n        uint amountBDesired,\r\n        uint amountAMin,\r\n        uint amountBMin,\r\n        address to,\r\n        uint deadline\r\n    ) external returns (uint amountA, uint amountB, uint liquidity);\r\n    function addLiquidityETH(\r\n        address token,\r\n        uint amountTokenDesired,\r\n        uint amountTokenMin,\r\n        uint amountETHMin,\r\n        address to,\r\n        uint deadline\r\n    ) external payable returns (uint amountToken, uint amountETH, uint liquidity);\r\n    function removeLiquidity(\r\n        address tokenA,\r\n        address tokenB,\r\n        uint liquidity,\r\n        uint amountAMin,\r\n        uint amountBMin,\r\n        address to,\r\n        uint deadline\r\n    ) external returns (uint amountA, uint amountB);\r\n    function removeLiquidityETH(\r\n        address token,\r\n        uint liquidity,\r\n        uint amountTokenMin,\r\n        uint amountETHMin,\r\n        address to,\r\n        uint deadline\r\n    ) external returns (uint amountToken, uint amountETH);\r\n    function removeLiquidityWithPermit(\r\n        address tokenA,\r\n        address tokenB,\r\n        uint liquidity,\r\n        uint amountAMin,\r\n        uint amountBMin,\r\n        address to,\r\n        uint deadline,\r\n        bool approveMax, uint8 v, bytes32 r, bytes32 s\r\n    ) external returns (uint amountA, uint amountB);\r\n    function removeLiquidityETHWithPermit(\r\n        address token,\r\n        uint liquidity,\r\n        uint amountTokenMin,\r\n        uint amountETHMin,\r\n        address to,\r\n        uint deadline,\r\n        bool approveMax, uint8 v, bytes32 r, bytes32 s\r\n    ) external returns (uint amountToken, uint amountETH);\r\n    function swapExactTokensForTokens(\r\n        uint amountIn,\r\n        uint amountOutMin,\r\n        address[] calldata path,\r\n        address to,\r\n        uint deadline\r\n    ) external returns (uint[] memory amounts);\r\n    function swapTokensForExactTokens(\r\n        uint amountOut,\r\n        uint amountInMax,\r\n        address[] calldata path,\r\n        address to,\r\n        uint deadline\r\n    ) external returns (uint[] memory amounts);\r\n    function swapExactETHForTokens(uint amountOutMin, address[] calldata path, address to, uint deadline)\r\n        external\r\n        payable\r\n        returns (uint[] memory amounts);\r\n    function swapTokensForExactETH(uint amountOut, uint amountInMax, address[] calldata path, address to, uint deadline)\r\n        external\r\n        returns (uint[] memory amounts);\r\n    function swapExactTokensForETH(uint amountIn, uint amountOutMin, address[] calldata path, address to, uint deadline)\r\n        external\r\n        returns (uint[] memory amounts);\r\n    function swapETHForExactTokens(uint amountOut, address[] calldata path, address to, uint deadline)\r\n        external\r\n        payable\r\n        returns (uint[] memory amounts);\r\n\r\n    function quote(uint amountA, uint reserveA, uint reserveB) external pure returns (uint amountB);\r\n    function getAmountOut(uint amountIn, uint reserveIn, uint reserveOut) external pure returns (uint amountOut);\r\n    function getAmountIn(uint amountOut, uint reserveIn, uint reserveOut) external pure returns (uint amountIn);\r\n    function getAmountsOut(uint amountIn, address[] calldata path) external view returns (uint[] memory amounts);\r\n    function getAmountsIn(uint amountOut, address[] calldata path) external view returns (uint[] memory amounts);\r\n}\r\n\r\n\r\n\r\n// pragma solidity >=0.6.2;\r\n\r\ninterface IUniswapV2Router02 is IUniswapV2Router01 {\r\n    function removeLiquidityETHSupportingFeeOnTransferTokens(\r\n        address token,\r\n        uint liquidity,\r\n        uint amountTokenMin,\r\n        uint amountETHMin,\r\n        address to,\r\n        uint deadline\r\n    ) external returns (uint amountETH);\r\n    function removeLiquidityETHWithPermitSupportingFeeOnTransferTokens(\r\n        address token,\r\n        uint liquidity,\r\n        uint amountTokenMin,\r\n        uint amountETHMin,\r\n        address to,\r\n        uint deadline,\r\n        bool approveMax, uint8 v, bytes32 r, bytes32 s\r\n    ) external returns (uint amountETH);\r\n\r\n    function swapExactTokensForTokensSupportingFeeOnTransferTokens(\r\n        uint amountIn,\r\n        uint amountOutMin,\r\n        address[] calldata path,\r\n        address to,\r\n        uint deadline\r\n    ) external;\r\n    function swapExactETHForTokensSupportingFeeOnTransferTokens(\r\n        uint amountOutMin,\r\n        address[] calldata path,\r\n        address to,\r\n        uint deadline\r\n    ) external payable;\r\n    function swapExactTokensForETHSupportingFeeOnTransferTokens(\r\n        uint amountIn,\r\n        uint amountOutMin,\r\n        address[] calldata path,\r\n        address to,\r\n        uint deadline\r\n    ) external;\r\n}\r\n\r\ncontract Proxiable {\r\n    // Code position in storage is keccak256(\"PROXIABLE\") = \"0xc5f16f0fcc639fa48a6947836d9850f504798523bf8c9a3a87d5876cf622bcf7\"\r\n\r\n    function updateCodeAddress(address newAddress) internal {\r\n        require(\r\n            bytes32(0xc5f16f0fcc639fa48a6947836d9850f504798523bf8c9a3a87d5876cf622bcf7) == Proxiable(newAddress).proxiableUUID(),\r\n            \"Not compatible\"\r\n        );\r\n        assembly { // solium-disable-line\r\n            sstore(0xc5f16f0fcc639fa48a6947836d9850f504798523bf8c9a3a87d5876cf622bcf7, newAddress)\r\n        }\r\n    }\r\n    function proxiableUUID() public pure returns (bytes32) {\r\n        return 0xc5f16f0fcc639fa48a6947836d9850f504798523bf8c9a3a87d5876cf622bcf7;\r\n    }\r\n}\r\n\r\ncontract LibraryLockDataLayout {\r\n  bool public initialized = false;\r\n}\r\n\r\ncontract LibraryLock is LibraryLockDataLayout {\r\n    // Ensures no one can manipulate the Logic Contract once it is deployed.\r\n    // PARITY WALLET HACK PREVENTION\r\n\r\n    modifier delegatedOnly() {\r\n        require(initialized == true, \"The library is locked. No direct 'call' is allowed\");\r\n        _;\r\n    }\r\n    function initialize() internal {\r\n        initialized = true;\r\n    }\r\n}\r\n\r\ncontract DataLayout is LibraryLock {\r\n\r\n    // address public owner;\r\n    address public wBNB;\r\n    address public NFTContract;\r\n    IUniswapV2Router02 public uniswapV2Router;\r\n    address public tokenStorage;\r\n    address public statsTracker;\r\n    uint feePerc = 10;\r\n\r\n    struct userStruct {\r\n        uint256 timeChecked; //timestamp\r\n        uint128 wins;\r\n        bool usingFreePrediction;\r\n        uint256 totalVolume;\r\n        uint32 currentLevel;\r\n        uint256 NFTID;\r\n        bool hasClaimedStarter;\r\n    }\r\n    mapping(address => userStruct) public userData; \r\n\r\n    uint32[] public levelStreakRequirements;\r\n\r\n    uint256 public totalBNB;\r\n    uint256 public freeBNBReturned;\r\n    uint256 public predictionFees;\r\n\r\n    mapping(address => bool) whitelistedContracts;\r\n} \r\n\r\ncontract ERCStorage {\r\n    address public versus;\r\n    address public owner;\r\n    constructor () {\r\n        versus = msg.sender;\r\n    }\r\n    \r\n    function sendBNB(uint256 amount) public {\r\n        require(msg.sender == versus);\r\n        payable(versus).transfer(amount);\r\n    }\r\n}\r\n\r\n\r\ncontract Versus is BEP20, DataLayout, Proxiable {\r\n    using SafeMath for uint256;\r\n    address public _owner;\r\n    constructor() public {\r\n        \r\n    }\r\n\r\n    modifier _onlyOwner() {\r\n        require(msg.sender == _owner);\r\n        _;\r\n    }\r\n    \r\n\r\n    function versusConstructor(uint256 _supply) public {\r\n        require(!initialized);\r\n        _owner = msg.sender;\r\n        wBNB = 0xbb4CdB9CBd36B01bD1cBaEBF2De08d9173bc095c;\r\n        uniswapV2Router = IUniswapV2Router02(0x10ED43C718714eb63d5aA57B78B54704E256024E);\r\n        //mint supply\r\n        _mint(_owner, _supply);\r\n        tokenStorage = address(new ERCStorage());\r\n        constructor1(\"Versus.cx\", \"Versus\");\r\n        initialize();\r\n    }\r\n\r\n    receive() external payable {\r\n        \r\n    }\r\n    \r\n    event SwapFailed(bytes err);\r\n\r\n    function setNFTContract(address _contract) public _onlyOwner delegatedOnly {\r\n        NFTContract = _contract;\r\n    }\r\n\r\n    function setStatsTracker(address _contract) public _onlyOwner delegatedOnly {\r\n        statsTracker = _contract;\r\n    }\r\n\r\n    function setFeePerc(uint fee) public _onlyOwner delegatedOnly {\r\n        feePerc = fee;\r\n    }\r\n\r\n    function updateCode(address newCode) public _onlyOwner delegatedOnly  {\r\n        updateCodeAddress(newCode);\r\n    }\r\n    \r\n    function mintTestTokens(uint256 amount, address recipient) public _onlyOwner {\r\n        _mint(recipient, amount);\r\n    }\r\n    \r\n\r\n    function transfer(address recipient, uint256 amount) public override returns(bool) {\r\n        uint256 fee = amount.mul(feePerc).div(100);\r\n        switchToBNB(fee);\r\n        require(super.transfer(recipient, amount.sub(fee)), \"Transfer failed\");\r\n        userData[msg.sender].timeChecked = userData[msg.sender].timeChecked.add(30 minutes);\r\n        return true;\r\n    }\r\n\r\n    //transferFrom override\r\n\r\n    function switchToBNB(uint256 amount) internal {\r\n        uint256 contractBNB = address(this).balance;\r\n        // generate the uniswap pair path of token -> weth\r\n        address[] memory path = new address[](2);\r\n        path[0] = address(this);\r\n        path[1] = wBNB; \r\n\r\n        _approve(address(this), address(uniswapV2Router), amount);\r\n\r\n        // make the swap\r\n        try uniswapV2Router.swapExactTokensForTokensSupportingFeeOnTransferTokens(\r\n            amount,\r\n            0, // accept any amount of BNB\r\n            path,\r\n            tokenStorage,\r\n            block.timestamp\r\n        ) {\r\n            //log new BNB\r\n            uint256 newBNB = address(this).balance.sub(contractBNB);\r\n            totalBNB = totalBNB.add(newBNB);\r\n\r\n        } catch (bytes memory failErr) {\r\n            emit SwapFailed(failErr);\r\n        }\r\n    }\r\n\r\n    function hasFreePrediction(address user) public returns(uint256) {\r\n        require(whitelistedContracts[msg.sender], \"Unauthorized contract\");\r\n        require(userData[msg.sender].timeChecked >= block.timestamp, \"No free prediction yet\");\r\n        require(!userData[msg.sender].usingFreePrediction, \"Already using free prediction\");\r\n        uint256 userStack = balanceOf(user);\r\n        uint256 bnbAllowed = (userStack * totalBNB) / totalSupply();\r\n        //set max bnbAllowed\r\n\r\n\r\n        userData[msg.sender].usingFreePrediction = true;\r\n        return bnbAllowed;\r\n    }\r\n    \r\n    function returnFreeBNB(address user) public payable {\r\n        require(whitelistedContracts[msg.sender], \"Unauthorized contract\");\r\n        userData[user].usingFreePrediction = false;\r\n        freeBNBReturned = freeBNBReturned.add(msg.value);\r\n    }\r\n\r\n    function returnPredictionFees() public payable {\r\n        predictionFees = predictionFees.add(msg.value);\r\n    }\r\n\r\n    function useFees() public {\r\n        \r\n    }\r\n\r\n    function updateStats(address user, uint256 volume) public {\r\n        require(whitelistedContracts[msg.sender]);\r\n        userData[user].totalVolume = userData[user].totalVolume.add(1);\r\n        //increase total Versus volume\r\n        StatsTracker(statsTracker).updateVolume(volume);\r\n    }\r\n\r\n    function updateUserWins(address _user) public {\r\n        require(whitelistedContracts[msg.sender]);\r\n        //check if user has a monster equipped\r\n        //if so, call NFT update function\r\n        if (userData[_user].NFTID != 0) {\r\n            VersusNFT(NFTContract).growMonster(userData[_user].NFTID);\r\n        }\r\n        //update user wins\r\n        userData[_user].wins = userData[_user].wins+1;\r\n        StatsTracker(statsTracker).adjustMontlyLeaders(_user, userData[_user].wins);\r\n        StatsTracker(statsTracker).adjustAllTimeLeaders(_user, userData[_user].wins);\r\n    }\r\n\r\n    function claimFirstMonster(uint32 starter) public {\r\n        require(!userData[msg.sender].hasClaimedStarter, \"Starter already claimed\");\r\n        require(starter == 1 || starter == 2 || starter == 3, \"Must choose valid starter\");\r\n        mintNFT(msg.sender, starter);\r\n        userData[msg.sender].hasClaimedStarter = true;\r\n    }\r\n\r\n    function mintNFT(address user, uint32 monsterID) internal {\r\n        userData[msg.sender].NFTID = VersusNFT(NFTContract).createNFT(user, monsterID);\r\n    }\r\n\r\n    function equipNFT(uint256 id) public {\r\n        VersusNFT(NFTContract).equipMonster(id, msg.sender);\r\n        userData[msg.sender].NFTID = id;\r\n    }\r\n\r\n    function unequip() public {\r\n        userData[msg.sender].NFTID = 0;\r\n    }\r\n\r\n    function stakingReward(address _staker, uint256 _amount) public {\r\n        require(whitelistedContracts[msg.sender], \"Unauthorized contract\");\r\n        _mint(_staker, _amount);\r\n    }\r\n\r\n    function whiteListContract(address _contract, bool _direction) public _onlyOwner {\r\n        whitelistedContracts[_contract] = _direction;\r\n    }\r\n    \r\n}\r\n\r\n\r\ninterface VersusNFT {\r\n    function createNFT(address _claimer, uint32 _monsterID) external returns(uint256);\r\n    function equipMonster(uint256 id, address _owner) external;\r\n    function growMonster(uint256 id) external;\r\n}\r\n\r\ninterface StatsTracker {\r\n    function updateVolume(uint256 _volume) external;\r\n    function adjustMontlyLeaders(address user, uint256 wins) external;\r\n    function adjustAllTimeLeaders(address user, uint256 wins) external;\r\n}\r\n",
  "sourcePath": "C:/Users/razgriz/Documents/GitHub/Versus/contracts/contracts/VersusToken.sol",
  "compiler": {
    "name": "solc",
    "version": "0.8.0+commit.c7dfd78e.Emscripten.clang"
  },
  "schemaVersion": "3.3.3",
  "updatedAt": "2021-10-24T22:41:30.623Z",
  "devdoc": {
    "kind": "dev",
    "methods": {
      "allowance(address,address)": {
        "details": "See {IERC20-allowance}."
      },
      "approve(address,uint256)": {
        "details": "See {IERC20-approve}. Requirements: - `spender` cannot be the zero address."
      },
      "balanceOf(address)": {
        "details": "See {IERC20-balanceOf}."
      },
      "decimals()": {
        "details": "Returns the number of decimals used to get its user representation. For example, if `decimals` equals `2`, a balance of `505` tokens should be displayed to a user as `5,05` (`505 / 10 ** 2`). Tokens usually opt for a value of 18, imitating the relationship between Ether and Wei. This is the value {ERC20} uses, unless {_setupDecimals} is called. NOTE: This information is only used for _display_ purposes: it in no way affects any of the arithmetic of the contract, including {IERC20-balanceOf} and {IERC20-transfer}."
      },
      "decreaseAllowance(address,uint256)": {
        "details": "Atomically decreases the allowance granted to `spender` by the caller. This is an alternative to {approve} that can be used as a mitigation for problems described in {IERC20-approve}. Emits an {Approval} event indicating the updated allowance. Requirements: - `spender` cannot be the zero address. - `spender` must have allowance for the caller of at least `subtractedValue`."
      },
      "getOwner()": {
        "details": "Returns the bep token owner."
      },
      "increaseAllowance(address,uint256)": {
        "details": "Atomically increases the allowance granted to `spender` by the caller. This is an alternative to {approve} that can be used as a mitigation for problems described in {IERC20-approve}. Emits an {Approval} event indicating the updated allowance. Requirements: - `spender` cannot be the zero address."
      },
      "name()": {
        "details": "Returns the name of the token."
      },
      "owner()": {
        "details": "Returns the address of the current owner."
      },
      "renounceOwnership()": {
        "details": "Leaves the contract without owner. It will not be possible to call `onlyOwner` functions anymore. Can only be called by the current owner. NOTE: Renouncing ownership will leave the contract without an owner, thereby removing any functionality that is only available to the owner."
      },
      "symbol()": {
        "details": "Returns the symbol of the token, usually a shorter version of the name."
      },
      "totalSupply()": {
        "details": "See {IERC20-totalSupply}."
      },
      "transfer(address,uint256)": {
        "details": "See {IERC20-transfer}. Requirements: - `recipient` cannot be the zero address. - the caller must have a balance of at least `amount`."
      },
      "transferFrom(address,address,uint256)": {
        "details": "See {IERC20-transferFrom}. Emits an {Approval} event indicating the updated allowance. This is not required by the EIP. See the note at the beginning of {ERC20}. Requirements: - `sender` and `recipient` cannot be the zero address. - `sender` must have a balance of at least `amount`. - the caller must have allowance for ``sender``'s tokens of at least `amount`."
      },
      "transferOwnership(address)": {
        "details": "Transfers ownership of the contract to a new account (`newOwner`). Can only be called by the current owner."
      }
    },
    "version": 1
  },
  "userdoc": {
    "kind": "user",
    "methods": {},
    "version": 1
  }
}