{
  "contractName": "VersusStats",
  "abi": [
    {
      "inputs": [],
      "stateMutability": "nonpayable",
      "type": "constructor"
    },
    {
      "inputs": [],
      "name": "initialized",
      "outputs": [
        {
          "internalType": "bool",
          "name": "",
          "type": "bool"
        }
      ],
      "stateMutability": "view",
      "type": "function"
    },
    {
      "inputs": [
        {
          "internalType": "uint256",
          "name": "",
          "type": "uint256"
        }
      ],
      "name": "monthlyWins",
      "outputs": [
        {
          "internalType": "uint256",
          "name": "",
          "type": "uint256"
        }
      ],
      "stateMutability": "view",
      "type": "function"
    },
    {
      "inputs": [],
      "name": "owner",
      "outputs": [
        {
          "internalType": "address",
          "name": "",
          "type": "address"
        }
      ],
      "stateMutability": "view",
      "type": "function"
    },
    {
      "inputs": [],
      "name": "proxiableUUID",
      "outputs": [
        {
          "internalType": "bytes32",
          "name": "",
          "type": "bytes32"
        }
      ],
      "stateMutability": "pure",
      "type": "function"
    },
    {
      "inputs": [
        {
          "internalType": "uint256",
          "name": "",
          "type": "uint256"
        }
      ],
      "name": "topAllTime",
      "outputs": [
        {
          "internalType": "address",
          "name": "",
          "type": "address"
        }
      ],
      "stateMutability": "view",
      "type": "function"
    },
    {
      "inputs": [
        {
          "internalType": "uint256",
          "name": "",
          "type": "uint256"
        }
      ],
      "name": "topAllTimeWins",
      "outputs": [
        {
          "internalType": "uint256",
          "name": "",
          "type": "uint256"
        }
      ],
      "stateMutability": "view",
      "type": "function"
    },
    {
      "inputs": [
        {
          "internalType": "uint256",
          "name": "",
          "type": "uint256"
        }
      ],
      "name": "topMonthly",
      "outputs": [
        {
          "internalType": "address",
          "name": "",
          "type": "address"
        }
      ],
      "stateMutability": "view",
      "type": "function"
    },
    {
      "inputs": [],
      "name": "totalBNBVolume",
      "outputs": [
        {
          "internalType": "uint256",
          "name": "",
          "type": "uint256"
        }
      ],
      "stateMutability": "view",
      "type": "function"
    },
    {
      "inputs": [],
      "name": "versusToken",
      "outputs": [
        {
          "internalType": "address",
          "name": "",
          "type": "address"
        }
      ],
      "stateMutability": "view",
      "type": "function"
    },
    {
      "inputs": [],
      "name": "statsConstructor",
      "outputs": [],
      "stateMutability": "nonpayable",
      "type": "function"
    },
    {
      "inputs": [
        {
          "internalType": "address",
          "name": "_versusToken",
          "type": "address"
        }
      ],
      "name": "setAddresses",
      "outputs": [],
      "stateMutability": "nonpayable",
      "type": "function"
    },
    {
      "inputs": [
        {
          "internalType": "address",
          "name": "newCode",
          "type": "address"
        }
      ],
      "name": "updateCode",
      "outputs": [],
      "stateMutability": "nonpayable",
      "type": "function"
    },
    {
      "inputs": [],
      "name": "getStats",
      "outputs": [
        {
          "internalType": "uint256",
          "name": "",
          "type": "uint256"
        },
        {
          "internalType": "address[]",
          "name": "",
          "type": "address[]"
        },
        {
          "internalType": "uint256[]",
          "name": "",
          "type": "uint256[]"
        },
        {
          "internalType": "address[]",
          "name": "",
          "type": "address[]"
        },
        {
          "internalType": "uint256[]",
          "name": "",
          "type": "uint256[]"
        }
      ],
      "stateMutability": "view",
      "type": "function"
    },
    {
      "inputs": [
        {
          "internalType": "uint256",
          "name": "_volume",
          "type": "uint256"
        }
      ],
      "name": "updateVolume",
      "outputs": [],
      "stateMutability": "nonpayable",
      "type": "function"
    },
    {
      "inputs": [
        {
          "internalType": "address",
          "name": "user",
          "type": "address"
        },
        {
          "internalType": "uint256",
          "name": "wins",
          "type": "uint256"
        }
      ],
      "name": "adjustMontlyLeaders",
      "outputs": [],
      "stateMutability": "nonpayable",
      "type": "function"
    },
    {
      "inputs": [
        {
          "internalType": "address",
          "name": "user",
          "type": "address"
        },
        {
          "internalType": "uint256",
          "name": "wins",
          "type": "uint256"
        }
      ],
      "name": "adjustAllTimeLeaders",
      "outputs": [],
      "stateMutability": "nonpayable",
      "type": "function"
    }
  ],
  "bytecode": "0x60806040526000805460ff1916905534801561001a57600080fd5b50610c388061002a6000396000f3fe608060405234801561001057600080fd5b50600436106101005760003560e01c806355f9176f116100975780638da5cb5b116100665780638da5cb5b146101e4578063c59d4847146101ec578063e247a2e214610205578063e39653101461021857610100565b806355f9176f1461019657806360fd3308146101a957806366f0d43d146101c957806381d3c435146101d157610100565b806325072c98116100d357806325072c98146101605780634695195414610173578063529e1b041461018657806352d1902d1461018e57610100565b806306df5f3e14610105578063158ef93e14610123578063187051f8146101385780632288d5e91461014d575b600080fd5b61010d61022b565b60405161011a9190610ad7565b60405180910390f35b61012b610231565b60405161011a9190610acc565b61014b6101463660046109ed565b61023a565b005b61014b61015b3660046109ed565b6103f6565b61010d61016e366004610a2e565b61059f565b61014b6101813660046109d3565b6105c0565b61014b610618565b61010d610649565b61010d6101a4366004610a2e565b61066d565b6101bc6101b7366004610a2e565b61067d565b60405161011a9190610ab8565b6101bc6106a7565b61014b6101df3660046109d3565b6106b6565b6101bc6106f4565b6101f4610708565b60405161011a959493929190610b5a565b61014b610213366004610a2e565b610888565b6101bc610226366004610a2e565b6108b2565b60025481565b60005460ff1681565b6001546001600160a01b0316331461025157600080fd5b600554600a11156102d9576006805460018082019092557ff652222313e28459528d920b65115c16c04f3efc82aaedc97be59f3f377c0d3f018290556005805491820181556000527f036b6384b5eca791c62761152d0c79bb0604c104a5fb6f4eb0703f3154bb3db00180546001600160a01b0319166001600160a01b0384161790556103f2565b60008060005b6005548110156103705781610324578092506006818154811061031257634e487b7160e01b600052603260045260246000fd5b9060005260206000200154915061035e565b816006828154811061034657634e487b7160e01b600052603260045260246000fd5b9060005260206000200154101561035e578092508091505b8061036881610bd1565b9150506102df565b50836005838154811061039357634e487b7160e01b600052603260045260246000fd5b9060005260206000200160006101000a8154816001600160a01b0302191690836001600160a01b0316021790555082600683815481106103e357634e487b7160e01b600052603260045260246000fd5b60009182526020909120015550505b5050565b6001546001600160a01b0316331461040d57600080fd5b600354600a1115610495576004805460018082019092557f8a35acfbc15ff81a39ae7d344fd709f28e8600b4aa8c65c6b64bfe7fe36bd19b018290556003805491820181556000527fc2575a0e9e593c00f959f8c92f12db2869c3395a3b0502d05e2516446f71f85b0180546001600160a01b0319166001600160a01b0384161790556103f2565b60008060005b60035481101561052c57816104e057809250600481815481106104ce57634e487b7160e01b600052603260045260246000fd5b9060005260206000200154915061051a565b816004828154811061050257634e487b7160e01b600052603260045260246000fd5b9060005260206000200154101561051a578092508091505b8061052481610bd1565b91505061049b565b50836003838154811061054f57634e487b7160e01b600052603260045260246000fd5b9060005260206000200160006101000a8154816001600160a01b0302191690836001600160a01b0316021790555082600483815481106103e357634e487b7160e01b600052603260045260246000fd5b600681815481106105af57600080fd5b600091825260209091200154905081565b60005461010090046001600160a01b031633146105dc57600080fd5b60005460ff16151560011461060c5760405162461bcd60e51b815260040161060390610b08565b60405180910390fd5b610615816108c2565b50565b60005460ff161561062857600080fd5b60008054610100600160a81b0319163361010002179055610647610995565b565b7fc5f16f0fcc639fa48a6947836d9850f504798523bf8c9a3a87d5876cf622bcf790565b600481815481106105af57600080fd5b6003818154811061068d57600080fd5b6000918252602090912001546001600160a01b0316905081565b6001546001600160a01b031681565b60005461010090046001600160a01b031633146106d257600080fd5b600180546001600160a01b0319166001600160a01b0392909216919091179055565b60005461010090046001600160a01b031681565b600060608060608060025460036004600560068380548060200260200160405190810160405280929190818152602001828054801561077057602002820191906000526020600020905b81546001600160a01b03168152600190910190602001808311610752575b50505050509350828054806020026020016040519081016040528092919081815260200182805480156107c257602002820191906000526020600020905b8154815260200190600101908083116107ae575b505050505092508180548060200260200160405190810160405280929190818152602001828054801561081e57602002820191906000526020600020905b81546001600160a01b03168152600190910190602001808311610800575b505050505091508080548060200260200160405190810160405280929190818152602001828054801561087057602002820191906000526020600020905b81548152602001906001019080831161085c575b50505050509050945094509450945094509091929394565b6001546001600160a01b0316331461089f57600080fd5b6002546108ac90826109a4565b60025550565b6005818154811061068d57600080fd5b806001600160a01b03166352d1902d6040518163ffffffff1660e01b815260040160206040518083038186803b1580156108fb57600080fd5b505afa15801561090f573d6000803e3d6000fd5b505050506040513d601f19601f820116820180604052508101906109339190610a16565b7fc5f16f0fcc639fa48a6947836d9850f504798523bf8c9a3a87d5876cf622bcf7146109715760405162461bcd60e51b815260040161060390610ae0565b7fc5f16f0fcc639fa48a6947836d9850f504798523bf8c9a3a87d5876cf622bcf755565b6000805460ff19166001179055565b60006109b08284610bb9565b9392505050565b80356001600160a01b03811681146109ce57600080fd5b919050565b6000602082840312156109e4578081fd5b6109b0826109b7565b600080604083850312156109ff578081fd5b610a08836109b7565b946020939093013593505050565b600060208284031215610a27578081fd5b5051919050565b600060208284031215610a3f578081fd5b5035919050565b6000815180845260208085019450808401835b83811015610a7e5781516001600160a01b031687529582019590820190600101610a59565b509495945050505050565b6000815180845260208085019450808401835b83811015610a7e57815187529582019590820190600101610a9c565b6001600160a01b0391909116815260200190565b901515815260200190565b90815260200190565b6020808252600e908201526d4e6f7420636f6d70617469626c6560901b604082015260600190565b60208082526032908201527f546865206c696272617279206973206c6f636b65642e204e6f206469726563746040820152710809d8d85b1b09c81a5cc8185b1b1bddd95960721b606082015260800190565b600086825260a06020830152610b7360a0830187610a46565b8281036040840152610b858187610a89565b90508281036060840152610b998186610a46565b90508281036080840152610bad8185610a89565b98975050505050505050565b60008219821115610bcc57610bcc610bec565b500190565b6000600019821415610be557610be5610bec565b5060010190565b634e487b7160e01b600052601160045260246000fdfea264697066735822122081aa68a9ee5eafb5b4569d92acb56baa8bcc8628233ae9f478102f82cd4ab84764736f6c63430008000033",
  "immutableReferences": {},
  "source": "pragma solidity ^0.8.0;\r\n\r\nimport \"./BEP20.sol\";\r\n\r\ncontract Proxiable {\r\n    // Code position in storage is keccak256(\"PROXIABLE\") = \"0xc5f16f0fcc639fa48a6947836d9850f504798523bf8c9a3a87d5876cf622bcf7\"\r\n\r\n    function updateCodeAddress(address newAddress) internal {\r\n        require(\r\n            bytes32(0xc5f16f0fcc639fa48a6947836d9850f504798523bf8c9a3a87d5876cf622bcf7) == Proxiable(newAddress).proxiableUUID(),\r\n            \"Not compatible\"\r\n        );\r\n        assembly { // solium-disable-line\r\n            sstore(0xc5f16f0fcc639fa48a6947836d9850f504798523bf8c9a3a87d5876cf622bcf7, newAddress)\r\n        }\r\n    }\r\n    function proxiableUUID() public pure returns (bytes32) {\r\n        return 0xc5f16f0fcc639fa48a6947836d9850f504798523bf8c9a3a87d5876cf622bcf7;\r\n    }\r\n}\r\n\r\ncontract LibraryLockDataLayout {\r\n  bool public initialized = false;\r\n}\r\n\r\ncontract LibraryLock is LibraryLockDataLayout {\r\n    // Ensures no one can manipulate the Logic Contract once it is deployed.\r\n    // PARITY WALLET HACK PREVENTION\r\n\r\n    modifier delegatedOnly() {\r\n        require(initialized == true, \"The library is locked. No direct 'call' is allowed\");\r\n        _;\r\n    }\r\n    function initialize() internal {\r\n        initialized = true;\r\n    }\r\n}\r\n\r\ncontract DataLayout is LibraryLock {\r\n    address public owner;\r\n    address public versusToken;\r\n\r\n    uint256 public totalBNBVolume;\r\n\r\n    address[] public topMonthly;\r\n    uint256[] public monthlyWins;\r\n\r\n    address[] public topAllTime;\r\n    uint256[] public topAllTimeWins;\r\n}\r\n\r\ncontract VersusStats is DataLayout, Proxiable {\r\n    \r\n    using SafeMath for uint256;\r\n\r\n    modifier onlyVersus() {\r\n        require(msg.sender == versusToken);\r\n        _;\r\n    }\r\n\r\n    modifier onlyOwner() {\r\n        require(msg.sender == owner);\r\n        _;\r\n    }\r\n\r\n    constructor() public {\r\n        \r\n    }\r\n\r\n    function statsConstructor() public {\r\n        require(!initialized);\r\n        owner = msg.sender;\r\n        initialize();\r\n    }\r\n\r\n    function setAddresses(address _versusToken) public onlyOwner {\r\n        versusToken = _versusToken;\r\n    }\r\n    \r\n    function updateCode(address newCode) public onlyOwner delegatedOnly  {\r\n        updateCodeAddress(newCode);\r\n    }\r\n    \r\n    function getStats() public view returns(uint256, address[] memory, uint256[] memory, address[] memory, uint256[] memory) {\r\n        return(\r\n            totalBNBVolume,\r\n            topMonthly,\r\n            monthlyWins,\r\n            topAllTime,\r\n            topAllTimeWins\r\n        );\r\n    }\r\n\r\n    function updateVolume(uint256 _volume) public onlyVersus {\r\n        totalBNBVolume = totalBNBVolume.add(_volume);\r\n    }\r\n\r\n    function adjustMontlyLeaders(address user, uint256 wins) public onlyVersus {\r\n\r\n        if (topMonthly.length < 10) {\r\n            monthlyWins.push(wins);\r\n            topMonthly.push(user);\r\n            return;\r\n        } else {\r\n            uint lowestIndex;\r\n            uint256 lowestWins;\r\n            for (uint256 i; i < topMonthly.length; i++) {\r\n                if (lowestWins == 0) {\r\n                    lowestIndex = i;\r\n                    lowestWins = monthlyWins[i]; \r\n                } else if (monthlyWins[i] < lowestWins) {\r\n                    lowestIndex = i;\r\n                    lowestWins = i;\r\n                }\r\n            }\r\n            topMonthly[lowestIndex] = user;\r\n            monthlyWins[lowestIndex] = wins;\r\n        }\r\n\r\n    }\r\n\r\n    function adjustAllTimeLeaders(address user, uint256 wins) public onlyVersus {\r\n\r\n        if (topAllTime.length < 10) {\r\n            topAllTimeWins.push(wins);\r\n            topAllTime.push(user);\r\n            return;\r\n        } else {\r\n            uint lowestIndex;\r\n            uint256 lowestWins;\r\n            for (uint256 i; i < topAllTime.length; i++) {\r\n                if (lowestWins == 0) {\r\n                    lowestIndex = i;\r\n                    lowestWins = topAllTimeWins[i]; \r\n                } else if (topAllTimeWins[i] < lowestWins) {\r\n                    lowestIndex = i;\r\n                    lowestWins = i;\r\n                }\r\n            }\r\n            topAllTime[lowestIndex] = user;\r\n            topAllTimeWins[lowestIndex] = wins;\r\n        }\r\n    }\r\n    \r\n}",
  "sourcePath": "C:/Users/razgriz/Documents/GitHub/Versus/contracts/contracts/StatsTracker.sol",
  "compiler": {
    "name": "solc",
    "version": "0.8.0+commit.c7dfd78e.Emscripten.clang"
  },
  "schemaVersion": "3.3.3",
  "updatedAt": "2021-08-09T15:10:48.516Z",
  "devdoc": {
    "kind": "dev",
    "methods": {},
    "version": 1
  },
  "userdoc": {
    "kind": "user",
    "methods": {},
    "version": 1
  }
}