{
  "contractName": "Versus",
  "abi": [
    {
      "inputs": [],
      "stateMutability": "nonpayable",
      "type": "constructor"
    },
    {
      "anonymous": false,
      "inputs": [
        {
          "indexed": true,
          "internalType": "address",
          "name": "owner",
          "type": "address"
        },
        {
          "indexed": true,
          "internalType": "address",
          "name": "spender",
          "type": "address"
        },
        {
          "indexed": false,
          "internalType": "uint256",
          "name": "value",
          "type": "uint256"
        }
      ],
      "name": "Approval",
      "type": "event"
    },
    {
      "anonymous": false,
      "inputs": [
        {
          "indexed": true,
          "internalType": "address",
          "name": "previousOwner",
          "type": "address"
        },
        {
          "indexed": true,
          "internalType": "address",
          "name": "newOwner",
          "type": "address"
        }
      ],
      "name": "OwnershipTransferred",
      "type": "event"
    },
    {
      "anonymous": false,
      "inputs": [
        {
          "indexed": true,
          "internalType": "address",
          "name": "from",
          "type": "address"
        },
        {
          "indexed": true,
          "internalType": "address",
          "name": "to",
          "type": "address"
        },
        {
          "indexed": false,
          "internalType": "uint256",
          "name": "value",
          "type": "uint256"
        }
      ],
      "name": "Transfer",
      "type": "event"
    },
    {
      "inputs": [],
      "name": "NFTContract",
      "outputs": [
        {
          "internalType": "address",
          "name": "",
          "type": "address"
        }
      ],
      "stateMutability": "view",
      "type": "function"
    },
    {
      "inputs": [
        {
          "internalType": "address",
          "name": "_owner",
          "type": "address"
        },
        {
          "internalType": "address",
          "name": "spender",
          "type": "address"
        }
      ],
      "name": "allowance",
      "outputs": [
        {
          "internalType": "uint256",
          "name": "",
          "type": "uint256"
        }
      ],
      "stateMutability": "view",
      "type": "function"
    },
    {
      "inputs": [
        {
          "internalType": "address",
          "name": "spender",
          "type": "address"
        },
        {
          "internalType": "uint256",
          "name": "amount",
          "type": "uint256"
        }
      ],
      "name": "approve",
      "outputs": [
        {
          "internalType": "bool",
          "name": "",
          "type": "bool"
        }
      ],
      "stateMutability": "nonpayable",
      "type": "function"
    },
    {
      "inputs": [
        {
          "internalType": "address",
          "name": "account",
          "type": "address"
        }
      ],
      "name": "balanceOf",
      "outputs": [
        {
          "internalType": "uint256",
          "name": "",
          "type": "uint256"
        }
      ],
      "stateMutability": "view",
      "type": "function"
    },
    {
      "inputs": [],
      "name": "decimals",
      "outputs": [
        {
          "internalType": "uint8",
          "name": "",
          "type": "uint8"
        }
      ],
      "stateMutability": "view",
      "type": "function"
    },
    {
      "inputs": [
        {
          "internalType": "address",
          "name": "spender",
          "type": "address"
        },
        {
          "internalType": "uint256",
          "name": "subtractedValue",
          "type": "uint256"
        }
      ],
      "name": "decreaseAllowance",
      "outputs": [
        {
          "internalType": "bool",
          "name": "",
          "type": "bool"
        }
      ],
      "stateMutability": "nonpayable",
      "type": "function"
    },
    {
      "inputs": [],
      "name": "freeBNBReturned",
      "outputs": [
        {
          "internalType": "uint256",
          "name": "",
          "type": "uint256"
        }
      ],
      "stateMutability": "view",
      "type": "function"
    },
    {
      "inputs": [],
      "name": "getOwner",
      "outputs": [
        {
          "internalType": "address",
          "name": "",
          "type": "address"
        }
      ],
      "stateMutability": "view",
      "type": "function"
    },
    {
      "inputs": [
        {
          "internalType": "address",
          "name": "spender",
          "type": "address"
        },
        {
          "internalType": "uint256",
          "name": "addedValue",
          "type": "uint256"
        }
      ],
      "name": "increaseAllowance",
      "outputs": [
        {
          "internalType": "bool",
          "name": "",
          "type": "bool"
        }
      ],
      "stateMutability": "nonpayable",
      "type": "function"
    },
    {
      "inputs": [],
      "name": "initialized",
      "outputs": [
        {
          "internalType": "bool",
          "name": "",
          "type": "bool"
        }
      ],
      "stateMutability": "view",
      "type": "function"
    },
    {
      "inputs": [
        {
          "internalType": "uint256",
          "name": "",
          "type": "uint256"
        }
      ],
      "name": "levelStreakRequirements",
      "outputs": [
        {
          "internalType": "uint32",
          "name": "",
          "type": "uint32"
        }
      ],
      "stateMutability": "view",
      "type": "function"
    },
    {
      "inputs": [],
      "name": "name",
      "outputs": [
        {
          "internalType": "string",
          "name": "",
          "type": "string"
        }
      ],
      "stateMutability": "view",
      "type": "function"
    },
    {
      "inputs": [],
      "name": "owner",
      "outputs": [
        {
          "internalType": "address",
          "name": "",
          "type": "address"
        }
      ],
      "stateMutability": "view",
      "type": "function"
    },
    {
      "inputs": [],
      "name": "predictionFees",
      "outputs": [
        {
          "internalType": "uint256",
          "name": "",
          "type": "uint256"
        }
      ],
      "stateMutability": "view",
      "type": "function"
    },
    {
      "inputs": [],
      "name": "proxiableUUID",
      "outputs": [
        {
          "internalType": "bytes32",
          "name": "",
          "type": "bytes32"
        }
      ],
      "stateMutability": "pure",
      "type": "function"
    },
    {
      "inputs": [],
      "name": "renounceOwnership",
      "outputs": [],
      "stateMutability": "nonpayable",
      "type": "function"
    },
    {
      "inputs": [],
      "name": "statsTracker",
      "outputs": [
        {
          "internalType": "address",
          "name": "",
          "type": "address"
        }
      ],
      "stateMutability": "view",
      "type": "function"
    },
    {
      "inputs": [],
      "name": "symbol",
      "outputs": [
        {
          "internalType": "string",
          "name": "",
          "type": "string"
        }
      ],
      "stateMutability": "view",
      "type": "function"
    },
    {
      "inputs": [],
      "name": "tokenStorage",
      "outputs": [
        {
          "internalType": "address",
          "name": "",
          "type": "address"
        }
      ],
      "stateMutability": "view",
      "type": "function"
    },
    {
      "inputs": [],
      "name": "totalBNB",
      "outputs": [
        {
          "internalType": "uint256",
          "name": "",
          "type": "uint256"
        }
      ],
      "stateMutability": "view",
      "type": "function"
    },
    {
      "inputs": [],
      "name": "totalSupply",
      "outputs": [
        {
          "internalType": "uint256",
          "name": "",
          "type": "uint256"
        }
      ],
      "stateMutability": "view",
      "type": "function"
    },
    {
      "inputs": [
        {
          "internalType": "address",
          "name": "sender",
          "type": "address"
        },
        {
          "internalType": "address",
          "name": "recipient",
          "type": "address"
        },
        {
          "internalType": "uint256",
          "name": "amount",
          "type": "uint256"
        }
      ],
      "name": "transferFrom",
      "outputs": [
        {
          "internalType": "bool",
          "name": "",
          "type": "bool"
        }
      ],
      "stateMutability": "nonpayable",
      "type": "function"
    },
    {
      "inputs": [
        {
          "internalType": "address",
          "name": "newOwner",
          "type": "address"
        }
      ],
      "name": "transferOwnership",
      "outputs": [],
      "stateMutability": "nonpayable",
      "type": "function"
    },
    {
      "inputs": [],
      "name": "uniswapV2Router",
      "outputs": [
        {
          "internalType": "contract IUniswapV2Router02",
          "name": "",
          "type": "address"
        }
      ],
      "stateMutability": "view",
      "type": "function"
    },
    {
      "inputs": [
        {
          "internalType": "address",
          "name": "",
          "type": "address"
        }
      ],
      "name": "userData",
      "outputs": [
        {
          "internalType": "uint256",
          "name": "timeChecked",
          "type": "uint256"
        },
        {
          "internalType": "uint128",
          "name": "wins",
          "type": "uint128"
        },
        {
          "internalType": "bool",
          "name": "usingFreePrediction",
          "type": "bool"
        },
        {
          "internalType": "uint256",
          "name": "totalVolume",
          "type": "uint256"
        },
        {
          "internalType": "uint32",
          "name": "currentLevel",
          "type": "uint32"
        },
        {
          "internalType": "uint256",
          "name": "NFTID1",
          "type": "uint256"
        },
        {
          "internalType": "uint256",
          "name": "NFTID2",
          "type": "uint256"
        },
        {
          "internalType": "bool",
          "name": "hasClaimedStarter",
          "type": "bool"
        }
      ],
      "stateMutability": "view",
      "type": "function"
    },
    {
      "inputs": [],
      "name": "wBNB",
      "outputs": [
        {
          "internalType": "address",
          "name": "",
          "type": "address"
        }
      ],
      "stateMutability": "view",
      "type": "function"
    },
    {
      "stateMutability": "payable",
      "type": "receive"
    },
    {
      "inputs": [
        {
          "internalType": "address",
          "name": "statsTracker",
          "type": "address"
        }
      ],
      "name": "versusConstructor",
      "outputs": [],
      "stateMutability": "nonpayable",
      "type": "function"
    },
    {
      "inputs": [
        {
          "internalType": "address",
          "name": "_contract",
          "type": "address"
        }
      ],
      "name": "setNFTContract",
      "outputs": [],
      "stateMutability": "nonpayable",
      "type": "function"
    },
    {
      "inputs": [
        {
          "internalType": "address",
          "name": "_contract",
          "type": "address"
        }
      ],
      "name": "setStatsTracker",
      "outputs": [],
      "stateMutability": "nonpayable",
      "type": "function"
    },
    {
      "inputs": [
        {
          "internalType": "uint256",
          "name": "fee",
          "type": "uint256"
        }
      ],
      "name": "setFeePerc",
      "outputs": [],
      "stateMutability": "nonpayable",
      "type": "function"
    },
    {
      "inputs": [
        {
          "internalType": "address",
          "name": "newCode",
          "type": "address"
        }
      ],
      "name": "updateCode",
      "outputs": [],
      "stateMutability": "nonpayable",
      "type": "function"
    },
    {
      "inputs": [
        {
          "internalType": "address",
          "name": "recipient",
          "type": "address"
        },
        {
          "internalType": "uint256",
          "name": "amount",
          "type": "uint256"
        }
      ],
      "name": "transfer",
      "outputs": [
        {
          "internalType": "bool",
          "name": "",
          "type": "bool"
        }
      ],
      "stateMutability": "nonpayable",
      "type": "function"
    },
    {
      "inputs": [
        {
          "internalType": "address",
          "name": "user",
          "type": "address"
        }
      ],
      "name": "hasFreePrediction",
      "outputs": [
        {
          "internalType": "uint256",
          "name": "",
          "type": "uint256"
        }
      ],
      "stateMutability": "nonpayable",
      "type": "function"
    },
    {
      "inputs": [
        {
          "internalType": "address",
          "name": "user",
          "type": "address"
        }
      ],
      "name": "returnFreeBNB",
      "outputs": [],
      "stateMutability": "payable",
      "type": "function"
    },
    {
      "inputs": [],
      "name": "returnPredictionFees",
      "outputs": [],
      "stateMutability": "payable",
      "type": "function"
    },
    {
      "inputs": [],
      "name": "useFees",
      "outputs": [],
      "stateMutability": "nonpayable",
      "type": "function"
    },
    {
      "inputs": [
        {
          "internalType": "address",
          "name": "user",
          "type": "address"
        },
        {
          "internalType": "uint256",
          "name": "volume",
          "type": "uint256"
        }
      ],
      "name": "updateStats",
      "outputs": [],
      "stateMutability": "nonpayable",
      "type": "function"
    },
    {
      "inputs": [
        {
          "internalType": "address",
          "name": "_user",
          "type": "address"
        }
      ],
      "name": "updateUserWins",
      "outputs": [],
      "stateMutability": "nonpayable",
      "type": "function"
    },
    {
      "inputs": [
        {
          "internalType": "uint256",
          "name": "starter",
          "type": "uint256"
        }
      ],
      "name": "claimFirstMonster",
      "outputs": [],
      "stateMutability": "nonpayable",
      "type": "function"
    },
    {
      "inputs": [
        {
          "internalType": "uint256",
          "name": "id",
          "type": "uint256"
        }
      ],
      "name": "equipSlot1",
      "outputs": [],
      "stateMutability": "nonpayable",
      "type": "function"
    },
    {
      "inputs": [
        {
          "internalType": "uint256",
          "name": "id",
          "type": "uint256"
        }
      ],
      "name": "equipSlot2",
      "outputs": [],
      "stateMutability": "nonpayable",
      "type": "function"
    },
    {
      "inputs": [
        {
          "internalType": "uint256",
          "name": "slot",
          "type": "uint256"
        },
        {
          "internalType": "uint256",
          "name": "id",
          "type": "uint256"
        }
      ],
      "name": "unequip",
      "outputs": [],
      "stateMutability": "nonpayable",
      "type": "function"
    },
    {
      "inputs": [
        {
          "internalType": "address",
          "name": "_contract",
          "type": "address"
        },
        {
          "internalType": "bool",
          "name": "_direction",
          "type": "bool"
        }
      ],
      "name": "whiteListContract",
      "outputs": [],
      "stateMutability": "nonpayable",
      "type": "function"
    }
  ],
  "bytecode": "0x60806040526006805461ff0019169055600a600b5534801561002057600080fd5b5061003161002c610036565b61003a565b61008a565b3390565b600080546001600160a01b038381166001600160a01b0319831681178455604051919092169283917f8be0079c531659141344cd1fd0a4f28419497f9722a3daafe3b4186f6b6457e09190a35050565b6125ec806200009a6000396000f3fe6080604052600436106102605760003560e01c8063893d20e811610144578063bbaa0bd2116100b6578063e88b31181161007a578063e88b3118146106a4578063f2fde38b146106c4578063f628bf67146106e4578063f7df3a63146106f9578063fc00250b14610719578063fe5415a21461073957610267565b8063bbaa0bd214610606578063bf3a104e14610626578063c89109131461063b578063d02eb3f41461066f578063dd62ed3e1461068457610267565b8063a7ccabdf11610108578063a7ccabdf1461055c578063a9059cbb1461057c578063b199efb51461059c578063b47dde1e146105b1578063b512cffe146105d1578063b8549a9a146105f157610267565b8063893d20e8146104dd5780638c00d786146104f25780638da5cb5b1461051257806395d89b4114610527578063a457c2d71461053c57610267565b806331c2273b116101dd57806352d1902d116101a157806352d1902d1461044b5780635448c4de1461046057806363541efb1461048057806370a0823114610488578063715018a6146104a85780637693743f146104bd57610267565b806331c2273b146103c157806335949a55146103d657806339509351146103eb5780633e6fdd041461040b578063469519541461042b57610267565b8063158ef93e11610224578063158ef93e146103335780631694505e1461034857806318160ddd1461036a57806323b872dd1461037f578063313ce5671461039f57610267565b8063013831ec1461026c57806306fdde031461028157806307ec14f3146102ac578063095ea7b3146102d95780630f7db7121461030657610267565b3661026757005b600080fd5b61027f61027a366004611d3d565b61074e565b005b34801561028d57600080fd5b506102966107bf565b6040516102a39190611edb565b60405180910390f35b3480156102b857600080fd5b506102cc6102c7366004611d3d565b610851565b6040516102a39190611ed2565b3480156102e557600080fd5b506102f96102f4366004611dfe565b610944565b6040516102a39190611ec7565b34801561031257600080fd5b50610326610321366004611e3f565b610961565b6040516102a3919061232c565b34801561033f57600080fd5b506102f961099b565b34801561035457600080fd5b5061035d6109a9565b6040516102a39190611e78565b34801561037657600080fd5b506102cc6109b8565b34801561038b57600080fd5b506102f961039a366004611d89565b6109be565b3480156103ab57600080fd5b506103b4610a45565b6040516102a3919061233d565b3480156103cd57600080fd5b5061035d610a4e565b3480156103e257600080fd5b506102cc610a5d565b3480156103f757600080fd5b506102f9610406366004611dfe565b610a63565b34801561041757600080fd5b5061027f610426366004611dc4565b610ab1565b34801561043757600080fd5b5061027f610446366004611d3d565b610b1b565b34801561045757600080fd5b506102cc610b93565b34801561046c57600080fd5b5061027f61047b366004611e3f565b610bb7565b61027f610cb0565b34801561049457600080fd5b506102cc6104a3366004611d3d565b610cc2565b3480156104b457600080fd5b5061027f610cdd565b3480156104c957600080fd5b5061027f6104d8366004611d3d565b610d28565b3480156104e957600080fd5b5061035d610e21565b3480156104fe57600080fd5b5061027f61050d366004611dfe565b610e30565b34801561051e57600080fd5b5061035d610ef1565b34801561053357600080fd5b50610296610f00565b34801561054857600080fd5b506102f9610557366004611dfe565b610f0f565b34801561056857600080fd5b5061027f610577366004611d3d565b610f77565b34801561058857600080fd5b506102f9610597366004611dfe565b611005565b3480156105a857600080fd5b5061035d611098565b3480156105bd57600080fd5b5061027f6105cc366004611e3f565b6110a7565b3480156105dd57600080fd5b5061027f6105ec366004611e57565b611118565b3480156105fd57600080fd5b506102cc61121d565b34801561061257600080fd5b5061027f610621366004611d3d565b611223565b34801561063257600080fd5b506102cc6112b1565b34801561064757600080fd5b5061065b610656366004611d3d565b6112b7565b6040516102a39897969594939291906122e5565b34801561067b57600080fd5b5061035d61130d565b34801561069057600080fd5b506102cc61069f366004611d57565b611322565b3480156106b057600080fd5b5061027f6106bf366004611d3d565b61134d565b3480156106d057600080fd5b5061027f6106df366004611d3d565b6114c6565b3480156106f057600080fd5b5061035d611534565b34801561070557600080fd5b5061027f610714366004611e3f565b611543565b34801561072557600080fd5b5061027f610734366004611e3f565b6115d6565b34801561074557600080fd5b5061027f610d26565b3360009081526011602052604090205460ff166107865760405162461bcd60e51b815260040161077d906120b8565b60405180910390fd5b6001600160a01b0381166000908152600c60205260409020600101805460ff60801b19169055600f546107b990346116cf565b600f5550565b6060600480546107ce906123e4565b80601f01602080910402602001604051908101604052809291908181526020018280546107fa906123e4565b80156108475780601f1061081c57610100808354040283529160200191610847565b820191906000526020600020905b81548152906001019060200180831161082a57829003601f168201915b5050505050905090565b3360009081526011602052604081205460ff166108805760405162461bcd60e51b815260040161077d906120b8565b336000908152600c60205260409020544211156108af5760405162461bcd60e51b815260040161077d90612153565b336000908152600c6020526040902060010154600160801b900460ff16156108e95760405162461bcd60e51b815260040161077d90612081565b60006108f483610cc2565b905060006109006109b8565b600e5461090d90846123ae565b610917919061238e565b336000908152600c60205260409020600101805460ff60801b1916600160801b179055925050505b919050565b60006109586109516116e2565b84846116e6565b50600192915050565b600d818154811061097157600080fd5b9060005260206000209060089182820401919006600402915054906101000a900463ffffffff1681565b600654610100900460ff1681565b6008546001600160a01b031681565b60035490565b60006109cb84848461179a565b610a3b846109d76116e2565b610a368560405180606001604052806028815260200161256a602891396001600160a01b038a16600090815260026020526040812090610a156116e2565b6001600160a01b0316815260208101919091526040016000205491906118af565b6116e6565b5060019392505050565b60065460ff1690565b6007546001600160a01b031681565b600f5481565b6000610958610a706116e2565b84610a368560026000610a816116e2565b6001600160a01b03908116825260208083019390935260409182016000908120918c1681529252902054906116cf565b610ab96116e2565b6001600160a01b0316610aca610ef1565b6001600160a01b031614610af05760405162461bcd60e51b815260040161077d9061211e565b6001600160a01b03919091166000908152601160205260409020805460ff1916911515919091179055565b610b236116e2565b6001600160a01b0316610b34610ef1565b6001600160a01b031614610b5a5760405162461bcd60e51b815260040161077d9061211e565b60065460ff610100909104161515600114610b875760405162461bcd60e51b815260040161077d9061220c565b610b90816118db565b50565b7fc5f16f0fcc639fa48a6947836d9850f504798523bf8c9a3a87d5876cf622bcf790565b336000908152600c602052604090206005015415610c34576007546040516361d062a360e11b81526001600160a01b039091169063c3a0c54690610c01908490339060040161225e565b600060405180830381600087803b158015610c1b57600080fd5b505af1158015610c2f573d6000803e3d6000fd5b505050505b600754604051635c38730160e11b81526001600160a01b039091169063b870e60290610c66908490339060040161225e565b600060405180830381600087803b158015610c8057600080fd5b505af1158015610c94573d6000803e3d6000fd5b5050336000908152600c60205260409020600501929092555050565b601054610cbd90346116cf565b601055565b6001600160a01b031660009081526001602052604090205490565b610ce56116e2565b6001600160a01b0316610cf6610ef1565b6001600160a01b031614610d1c5760405162461bcd60e51b815260040161077d9061211e565b610d2660006119ae565b565b600654610100900460ff1615610d3d57600080fd5b6006805462010000600160b01b03191675bb4cdb9cbd36b01bd1cbaebf2de08d9173bc095c00001790556040517310ed43c718714eb63d5aa57b78b54704e256024e90610d8990611c80565b604051809103906000f080158015610da5573d6000803e3d6000fd5b50600960006101000a8154816001600160a01b0302191690836001600160a01b03160217905550610e15604051806040016040528060098152602001680accae4e6eae65cc6f60bb1b8152506040518060400160405280600681526020016556657273757360d01b8152506119fe565b610e1d611a37565b5050565b6000610e2b610ef1565b905090565b3360009081526011602052604090205460ff16610e4c57600080fd5b6001600160a01b0382166000908152600c6020526040902060020154610e739060016116cf565b6001600160a01b038084166000908152600c60205260409081902060020192909255600a549151637123d17160e11b815291169063e247a2e290610ebb908490600401611ed2565b600060405180830381600087803b158015610ed557600080fd5b505af1158015610ee9573d6000803e3d6000fd5b505050505050565b6000546001600160a01b031690565b6060600580546107ce906123e4565b6000610958610f1c6116e2565b84610a36856040518060600160405280602581526020016125926025913960026000610f466116e2565b6001600160a01b03908116825260208083019390935260409182016000908120918d168152925290205491906118af565b610f7f6116e2565b6001600160a01b0316610f90610ef1565b6001600160a01b031614610fb65760405162461bcd60e51b815260040161077d9061211e565b60065460ff610100909104161515600114610fe35760405162461bcd60e51b815260040161077d9061220c565b600780546001600160a01b0319166001600160a01b0392909216919091179055565b6000806110286064611022600b5486611a4890919063ffffffff16565b90611a54565b905061103381611a60565b611046846110418584611bdc565b611be8565b6110625760405162461bcd60e51b815260040161077d90612021565b336000908152600c602052604090205461107e906107086116cf565b336000908152600c60205260409020555060019392505050565b6009546001600160a01b031681565b6110af6116e2565b6001600160a01b03166110c0610ef1565b6001600160a01b0316146110e65760405162461bcd60e51b815260040161077d9061211e565b60065460ff6101009091041615156001146111135760405162461bcd60e51b815260040161077d9061220c565b600b55565b8160011415611199576007546040516361d062a360e11b81526001600160a01b039091169063c3a0c54690611153908490339060040161225e565b600060405180830381600087803b15801561116d57600080fd5b505af1158015611181573d6000803e3d6000fd5b5050336000908152600c602052604081206004015550505b8160021415610e1d576007546040516361d062a360e11b81526001600160a01b039091169063c3a0c546906111d4908490339060040161225e565b600060405180830381600087803b1580156111ee57600080fd5b505af1158015611202573d6000803e3d6000fd5b5050336000908152600c602052604081206005015550505050565b60105481565b61122b6116e2565b6001600160a01b031661123c610ef1565b6001600160a01b0316146112625760405162461bcd60e51b815260040161077d9061211e565b60065460ff61010090910416151560011461128f5760405162461bcd60e51b815260040161077d9061220c565b600a80546001600160a01b0319166001600160a01b0392909216919091179055565b600e5481565b600c60205260009081526040902080546001820154600283015460038401546004850154600586015460069096015494956001600160801b0385169560ff600160801b90960486169563ffffffff909416931688565b6006546201000090046001600160a01b031681565b6001600160a01b03918216600090815260026020908152604080832093909416825291909152205490565b3360009081526011602052604090205460ff1661136957600080fd5b6001600160a01b0381166000908152600c6020526040902060019081015461139c916001600160801b039091169061234b565b6001600160a01b038281166000908152600c60205260409081902060010180546fffffffffffffffffffffffffffffffff19166001600160801b039485161790819055600a549151632288d5e960e01b81529190921692632288d5e99261140c9286929190911690600401611e8c565b600060405180830381600087803b15801561142657600080fd5b505af115801561143a573d6000803e3d6000fd5b5050600a546001600160a01b038481166000908152600c60205260409081902060010154905163030e0a3f60e31b815291909216935063187051f892506114919185916001600160801b0390911690600401611e8c565b600060405180830381600087803b1580156114ab57600080fd5b505af11580156114bf573d6000803e3d6000fd5b5050505050565b6114ce6116e2565b6001600160a01b03166114df610ef1565b6001600160a01b0316146115055760405162461bcd60e51b815260040161077d9061211e565b6001600160a01b03811661152b5760405162461bcd60e51b815260040161077d90611f99565b610b90816119ae565b600a546001600160a01b031681565b336000908152600c602052604090206006015460ff16156115765760405162461bcd60e51b815260040161077d906120e7565b80600114806115855750806002145b806115905750806003145b6115ac5760405162461bcd60e51b815260040161077d9061204a565b6115b63382611bfc565b50336000908152600c60205260409020600601805460ff19166001179055565b336000908152600c602052604090206004015415611653576007546040516361d062a360e11b81526001600160a01b039091169063c3a0c54690611620908490339060040161225e565b600060405180830381600087803b15801561163a57600080fd5b505af115801561164e573d6000803e3d6000fd5b505050505b600754604051635c38730160e11b81526001600160a01b039091169063b870e60290611685908490339060040161225e565b600060405180830381600087803b15801561169f57600080fd5b505af11580156116b3573d6000803e3d6000fd5b5050336000908152600c60205260409020600401929092555050565b60006116db8284612376565b9392505050565b3390565b6001600160a01b03831661170c5760405162461bcd60e51b815260040161077d906121c8565b6001600160a01b0382166117325760405162461bcd60e51b815260040161077d90611fdf565b6001600160a01b0380841660008181526002602090815260408083209487168084529490915290819020849055517f8c5be1e5ebec7d5bd14f71427d1e84f3dd0314c0f7b2291e5b200ac8c7c3b9259061178d908590611ed2565b60405180910390a3505050565b6001600160a01b0383166117c05760405162461bcd60e51b815260040161077d90612183565b6001600160a01b0382166117e65760405162461bcd60e51b815260040161077d90611f2e565b6117f1838383611bd7565b61182e81604051806060016040528060268152602001612544602691396001600160a01b03861660009081526001602052604090205491906118af565b6001600160a01b03808516600090815260016020526040808220939093559084168152205461185d90826116cf565b6001600160a01b0380841660008181526001602052604090819020939093559151908516907fddf252ad1be2c89b69c2b068fc378daa952ba7f163c4a11628f55a4df523b3ef9061178d908590611ed2565b600081848411156118d35760405162461bcd60e51b815260040161077d9190611edb565b505050900390565b806001600160a01b03166352d1902d6040518163ffffffff1660e01b815260040160206040518083038186803b15801561191457600080fd5b505afa158015611928573d6000803e3d6000fd5b505050506040513d601f19601f8201168201806040525081019061194c9190611e27565b7fc5f16f0fcc639fa48a6947836d9850f504798523bf8c9a3a87d5876cf622bcf71461198a5760405162461bcd60e51b815260040161077d90611f71565b7fc5f16f0fcc639fa48a6947836d9850f504798523bf8c9a3a87d5876cf622bcf755565b600080546001600160a01b038381166001600160a01b0319831681178455604051919092169283917f8be0079c531659141344cd1fd0a4f28419497f9722a3daafe3b4186f6b6457e09190a35050565b8151611a11906004906020850190611c8d565b508051611a25906005906020840190611c8d565b50506006805460ff1916601217905550565b6006805461ff001916610100179055565b60006116db82846123ae565b60006116db828461238e565b604080516002808252606082018352479260009291906020830190803683370190505090503081600081518110611aa757634e487b7160e01b600052603260045260246000fd5b6001600160a01b0392831660209182029290920101526006548251620100009091049091169082906001908110611aee57634e487b7160e01b600052603260045260246000fd5b6001600160a01b039283166020918202929092010152600854611b1491309116856116e6565b600854600954604051635c11d79560e01b81526001600160a01b0392831692635c11d79592611b5192889260009288929116904290600401612275565b600060405180830381600087803b158015611b6b57600080fd5b505af1925050508015611b7c575060015b611bb6573d808015611baa576040519150601f19603f3d011682016040523d82523d6000602084013e611baf565b606091505b5050611bd7565b6000611bc24784611bdc565b600e54909150611bd290826116cf565b600e55505b505050565b60006116db82846123cd565b6000610958611bf56116e2565b848461179a565b600754604051633047255b60e21b81526001600160a01b039091169063c11c956c90611c2e9085908590600401611eae565b602060405180830381600087803b158015611c4857600080fd5b505af1158015611c5c573d6000803e3d6000fd5b505050506040513d601f19601f82011682018060405250810190611bd79190611e27565b61010e8061243683390190565b828054611c99906123e4565b90600052602060002090601f016020900481019282611cbb5760008555611d01565b82601f10611cd457805160ff1916838001178555611d01565b82800160010185558215611d01579182015b82811115611d01578251825591602001919060010190611ce6565b50611d0d929150611d11565b5090565b5b80821115611d0d5760008155600101611d12565b80356001600160a01b038116811461093f57600080fd5b600060208284031215611d4e578081fd5b6116db82611d26565b60008060408385031215611d69578081fd5b611d7283611d26565b9150611d8060208401611d26565b90509250929050565b600080600060608486031215611d9d578081fd5b611da684611d26565b9250611db460208501611d26565b9150604084013590509250925092565b60008060408385031215611dd6578182fd5b611ddf83611d26565b915060208301358015158114611df3578182fd5b809150509250929050565b60008060408385031215611e10578182fd5b611e1983611d26565b946020939093013593505050565b600060208284031215611e38578081fd5b5051919050565b600060208284031215611e50578081fd5b5035919050565b60008060408385031215611e69578182fd5b50508035926020909101359150565b6001600160a01b0391909116815260200190565b6001600160a01b039290921682526001600160801b0316602082015260400190565b6001600160a01b03929092168252602082015260400190565b901515815260200190565b90815260200190565b6000602080835283518082850152825b81811015611f0757858101830151858201604001528201611eeb565b81811115611f185783604083870101525b50601f01601f1916929092016040019392505050565b60208082526023908201527f45524332303a207472616e7366657220746f20746865207a65726f206164647260408201526265737360e81b606082015260800190565b6020808252600e908201526d4e6f7420636f6d70617469626c6560901b604082015260600190565b60208082526026908201527f4f776e61626c653a206e6577206f776e657220697320746865207a65726f206160408201526564647265737360d01b606082015260800190565b60208082526022908201527f45524332303a20617070726f766520746f20746865207a65726f206164647265604082015261737360f01b606082015260800190565b6020808252600f908201526e151c985b9cd9995c8819985a5b1959608a1b604082015260600190565b60208082526019908201527f4d7573742063686f6f73652076616c6964207374617274657200000000000000604082015260600190565b6020808252601d908201527f416c7265616479207573696e6720667265652070726564696374696f6e000000604082015260600190565b602080825260159082015274155b985d5d1a1bdc9a5e99590818dbdb9d1c9858dd605a1b604082015260600190565b60208082526017908201527f5374617274657220616c726561647920636c61696d6564000000000000000000604082015260600190565b6020808252818101527f4f776e61626c653a2063616c6c6572206973206e6f7420746865206f776e6572604082015260600190565b602080825260169082015275139bc8199c9959481c1c99591a58dd1a5bdb881e595d60521b604082015260600190565b60208082526025908201527f45524332303a207472616e736665722066726f6d20746865207a65726f206164604082015264647265737360d81b606082015260800190565b60208082526024908201527f45524332303a20617070726f76652066726f6d20746865207a65726f206164646040820152637265737360e01b606082015260800190565b60208082526032908201527f546865206c696272617279206973206c6f636b65642e204e6f206469726563746040820152710809d8d85b1b09c81a5cc8185b1b1bddd95960721b606082015260800190565b9182526001600160a01b0316602082015260400190565b600060a082018783526020878185015260a0604085015281875180845260c0860191508289019350845b818110156122c45784516001600160a01b03168352938301939183019160010161229f565b50506001600160a01b03969096166060850152505050608001529392505050565b9788526001600160801b039690961660208801529315156040870152606086019290925263ffffffff16608085015260a084015260c0830152151560e08201526101000190565b63ffffffff91909116815260200190565b60ff91909116815260200190565b60006001600160801b0380831681851680830382111561236d5761236d61241f565b01949350505050565b600082198211156123895761238961241f565b500190565b6000826123a957634e487b7160e01b81526012600452602481fd5b500490565b60008160001904831182151516156123c8576123c861241f565b500290565b6000828210156123df576123df61241f565b500390565b6002810460018216806123f857607f821691505b6020821081141561241957634e487b7160e01b600052602260045260246000fd5b50919050565b634e487b7160e01b600052601160045260246000fdfe608060405234801561001057600080fd5b50600080546001600160a01b0319163317905560dd806100316000396000f3fe6080604052348015600f57600080fd5b506004361060285760003560e01c8063df3f6c2514602d575b600080fd5b603c60383660046090565b603e565b005b6000546001600160a01b03163314605457600080fd5b600080546040516001600160a01b039091169183156108fc02918491818181858888f19350505050158015608c573d6000803e3d6000fd5b5050565b60006020828403121560a0578081fd5b503591905056fea26469706673582212208751aea5f606c04e148272464c4434b9348d9ee71b28f4dc36dda4f38f95e73b64736f6c6343000800003345524332303a207472616e7366657220616d6f756e7420657863656564732062616c616e636545524332303a207472616e7366657220616d6f756e74206578636565647320616c6c6f77616e636545524332303a2064656372656173656420616c6c6f77616e63652062656c6f77207a65726fa264697066735822122084fb8cc9c1e1f0088ee575e79a79632339ff1b1d95da2548b5562e0d85be8e2464736f6c63430008000033",
  "immutableReferences": {},
  "source": "pragma solidity ^0.8.0;\r\n\r\n// CAUTION\r\n// This version of SafeMath should only be used with Solidity 0.8 or later,\r\n// because it relies on the compiler's built in overflow checks.\r\n\r\n/**\r\n * @dev Wrappers over Solidity's arithmetic operations.\r\n *\r\n * NOTE: `SafeMath` is no longer needed starting with Solidity 0.8. The compiler\r\n * now has built in overflow checking.\r\n */\r\nlibrary SafeMath {\r\n    /**\r\n     * @dev Returns the addition of two unsigned integers, with an overflow flag.\r\n     *\r\n     * _Available since v3.4._\r\n     */\r\n    function tryAdd(uint256 a, uint256 b) internal pure returns (bool, uint256) {\r\n        unchecked {\r\n            uint256 c = a + b;\r\n            if (c < a) return (false, 0);\r\n            return (true, c);\r\n        }\r\n    }\r\n\r\n    /**\r\n     * @dev Returns the substraction of two unsigned integers, with an overflow flag.\r\n     *\r\n     * _Available since v3.4._\r\n     */\r\n    function trySub(uint256 a, uint256 b) internal pure returns (bool, uint256) {\r\n        unchecked {\r\n            if (b > a) return (false, 0);\r\n            return (true, a - b);\r\n        }\r\n    }\r\n\r\n    /**\r\n     * @dev Returns the multiplication of two unsigned integers, with an overflow flag.\r\n     *\r\n     * _Available since v3.4._\r\n     */\r\n    function tryMul(uint256 a, uint256 b) internal pure returns (bool, uint256) {\r\n        unchecked {\r\n            // Gas optimization: this is cheaper than requiring 'a' not being zero, but the\r\n            // benefit is lost if 'b' is also tested.\r\n            // See: https://github.com/OpenZeppelin/openzeppelin-contracts/pull/522\r\n            if (a == 0) return (true, 0);\r\n            uint256 c = a * b;\r\n            if (c / a != b) return (false, 0);\r\n            return (true, c);\r\n        }\r\n    }\r\n\r\n    /**\r\n     * @dev Returns the division of two unsigned integers, with a division by zero flag.\r\n     *\r\n     * _Available since v3.4._\r\n     */\r\n    function tryDiv(uint256 a, uint256 b) internal pure returns (bool, uint256) {\r\n        unchecked {\r\n            if (b == 0) return (false, 0);\r\n            return (true, a / b);\r\n        }\r\n    }\r\n\r\n    /**\r\n     * @dev Returns the remainder of dividing two unsigned integers, with a division by zero flag.\r\n     *\r\n     * _Available since v3.4._\r\n     */\r\n    function tryMod(uint256 a, uint256 b) internal pure returns (bool, uint256) {\r\n        unchecked {\r\n            if (b == 0) return (false, 0);\r\n            return (true, a % b);\r\n        }\r\n    }\r\n\r\n    /**\r\n     * @dev Returns the addition of two unsigned integers, reverting on\r\n     * overflow.\r\n     *\r\n     * Counterpart to Solidity's `+` operator.\r\n     *\r\n     * Requirements:\r\n     *\r\n     * - Addition cannot overflow.\r\n     */\r\n    function add(uint256 a, uint256 b) internal pure returns (uint256) {\r\n        return a + b;\r\n    }\r\n\r\n    /**\r\n     * @dev Returns the subtraction of two unsigned integers, reverting on\r\n     * overflow (when the result is negative).\r\n     *\r\n     * Counterpart to Solidity's `-` operator.\r\n     *\r\n     * Requirements:\r\n     *\r\n     * - Subtraction cannot overflow.\r\n     */\r\n    function sub(uint256 a, uint256 b) internal pure returns (uint256) {\r\n        return a - b;\r\n    }\r\n\r\n    /**\r\n     * @dev Returns the multiplication of two unsigned integers, reverting on\r\n     * overflow.\r\n     *\r\n     * Counterpart to Solidity's `*` operator.\r\n     *\r\n     * Requirements:\r\n     *\r\n     * - Multiplication cannot overflow.\r\n     */\r\n    function mul(uint256 a, uint256 b) internal pure returns (uint256) {\r\n        return a * b;\r\n    }\r\n\r\n    /**\r\n     * @dev Returns the integer division of two unsigned integers, reverting on\r\n     * division by zero. The result is rounded towards zero.\r\n     *\r\n     * Counterpart to Solidity's `/` operator.\r\n     *\r\n     * Requirements:\r\n     *\r\n     * - The divisor cannot be zero.\r\n     */\r\n    function div(uint256 a, uint256 b) internal pure returns (uint256) {\r\n        return a / b;\r\n    }\r\n\r\n    /**\r\n     * @dev Returns the remainder of dividing two unsigned integers. (unsigned integer modulo),\r\n     * reverting when dividing by zero.\r\n     *\r\n     * Counterpart to Solidity's `%` operator. This function uses a `revert`\r\n     * opcode (which leaves remaining gas untouched) while Solidity uses an\r\n     * invalid opcode to revert (consuming all remaining gas).\r\n     *\r\n     * Requirements:\r\n     *\r\n     * - The divisor cannot be zero.\r\n     */\r\n    function mod(uint256 a, uint256 b) internal pure returns (uint256) {\r\n        return a % b;\r\n    }\r\n\r\n    /**\r\n     * @dev Returns the subtraction of two unsigned integers, reverting with custom message on\r\n     * overflow (when the result is negative).\r\n     *\r\n     * CAUTION: This function is deprecated because it requires allocating memory for the error\r\n     * message unnecessarily. For custom revert reasons use {trySub}.\r\n     *\r\n     * Counterpart to Solidity's `-` operator.\r\n     *\r\n     * Requirements:\r\n     *\r\n     * - Subtraction cannot overflow.\r\n     */\r\n    function sub(\r\n        uint256 a,\r\n        uint256 b,\r\n        string memory errorMessage\r\n    ) internal pure returns (uint256) {\r\n        unchecked {\r\n            require(b <= a, errorMessage);\r\n            return a - b;\r\n        }\r\n    }\r\n\r\n    /**\r\n     * @dev Returns the integer division of two unsigned integers, reverting with custom message on\r\n     * division by zero. The result is rounded towards zero.\r\n     *\r\n     * Counterpart to Solidity's `/` operator. Note: this function uses a\r\n     * `revert` opcode (which leaves remaining gas untouched) while Solidity\r\n     * uses an invalid opcode to revert (consuming all remaining gas).\r\n     *\r\n     * Requirements:\r\n     *\r\n     * - The divisor cannot be zero.\r\n     */\r\n    function div(\r\n        uint256 a,\r\n        uint256 b,\r\n        string memory errorMessage\r\n    ) internal pure returns (uint256) {\r\n        unchecked {\r\n            require(b > 0, errorMessage);\r\n            return a / b;\r\n        }\r\n    }\r\n\r\n    /**\r\n     * @dev Returns the remainder of dividing two unsigned integers. (unsigned integer modulo),\r\n     * reverting with custom message when dividing by zero.\r\n     *\r\n     * CAUTION: This function is deprecated because it requires allocating memory for the error\r\n     * message unnecessarily. For custom revert reasons use {tryMod}.\r\n     *\r\n     * Counterpart to Solidity's `%` operator. This function uses a `revert`\r\n     * opcode (which leaves remaining gas untouched) while Solidity uses an\r\n     * invalid opcode to revert (consuming all remaining gas).\r\n     *\r\n     * Requirements:\r\n     *\r\n     * - The divisor cannot be zero.\r\n     */\r\n    function mod(\r\n        uint256 a,\r\n        uint256 b,\r\n        string memory errorMessage\r\n    ) internal pure returns (uint256) {\r\n        unchecked {\r\n            require(b > 0, errorMessage);\r\n            return a % b;\r\n        }\r\n    }\r\n}\r\n\r\ninterface IBEP20 {\r\n  /**\r\n   * @dev Returns the amount of tokens in existence.\r\n   */\r\n  function totalSupply() external view returns (uint256);\r\n\r\n  /**\r\n   * @dev Returns the token decimals.\r\n   */\r\n  function decimals() external view returns (uint8);\r\n\r\n  /**\r\n   * @dev Returns the token symbol.\r\n   */\r\n  function symbol() external view returns (string memory);\r\n\r\n  /**\r\n  * @dev Returns the token name.\r\n  */\r\n  function name() external view returns (string memory);\r\n\r\n  /**\r\n   * @dev Returns the bep token owner.\r\n   */\r\n  function getOwner() external view returns (address);\r\n\r\n  /**\r\n   * @dev Returns the amount of tokens owned by `account`.\r\n   */\r\n  function balanceOf(address account) external view returns (uint256);\r\n\r\n  /**\r\n   * @dev Moves `amount` tokens from the caller's account to `recipient`.\r\n   *\r\n   * Returns a boolean value indicating whether the operation succeeded.\r\n   *\r\n   * Emits a {Transfer} event.\r\n   */\r\n  function transfer(address recipient, uint256 amount) external returns (bool);\r\n\r\n  /**\r\n   * @dev Returns the remaining number of tokens that `spender` will be\r\n   * allowed to spend on behalf of `owner` through {transferFrom}. This is\r\n   * zero by default.\r\n   *\r\n   * This value changes when {approve} or {transferFrom} are called.\r\n   */\r\n  function allowance(address _owner, address spender) external view returns (uint256);\r\n\r\n  /**\r\n   * @dev Sets `amount` as the allowance of `spender` over the caller's tokens.\r\n   *\r\n   * Returns a boolean value indicating whether the operation succeeded.\r\n   *\r\n   * IMPORTANT: Beware that changing an allowance with this method brings the risk\r\n   * that someone may use both the old and the new allowance by unfortunate\r\n   * transaction ordering. One possible solution to mitigate this race\r\n   * condition is to first reduce the spender's allowance to 0 and set the\r\n   * desired value afterwards:\r\n   * https://github.com/ethereum/EIPs/issues/20#issuecomment-263524729\r\n   *\r\n   * Emits an {Approval} event.\r\n   */\r\n  function approve(address spender, uint256 amount) external returns (bool);\r\n\r\n  /**\r\n   * @dev Moves `amount` tokens from `sender` to `recipient` using the\r\n   * allowance mechanism. `amount` is then deducted from the caller's\r\n   * allowance.\r\n   *\r\n   * Returns a boolean value indicating whether the operation succeeded.\r\n   *\r\n   * Emits a {Transfer} event.\r\n   */\r\n  function transferFrom(address sender, address recipient, uint256 amount) external returns (bool);\r\n\r\n  /**\r\n   * @dev Emitted when `value` tokens are moved from one account (`from`) to\r\n   * another (`to`).\r\n   *\r\n   * Note that `value` may be zero.\r\n   */\r\n  event Transfer(address indexed from, address indexed to, uint256 value);\r\n\r\n  /**\r\n   * @dev Emitted when the allowance of a `spender` for an `owner` is set by\r\n   * a call to {approve}. `value` is the new allowance.\r\n   */\r\n  event Approval(address indexed owner, address indexed spender, uint256 value);\r\n}\r\n\r\n/**\r\n * @dev Provides information about the current execution context, including the\r\n * sender of the transaction and its data. While these are generally available\r\n * via msg.sender and msg.data, they should not be accessed in such a direct\r\n * manner, since when dealing with meta-transactions the account sending and\r\n * paying for execution may not be the actual sender (as far as an application\r\n * is concerned).\r\n *\r\n * This contract is only required for intermediate, library-like contracts.\r\n */\r\ncontract Context {\r\n    function _msgSender() internal view virtual returns (address) {\r\n        return msg.sender;\r\n    }\r\n\r\n    // function _msgData() internal view virtual returns (bytes calldata) {\r\n    //     return msg.data;\r\n    // }\r\n}\r\n\r\n\r\n\r\n// SPDX-License-Identifier: MIT\r\n\r\npragma solidity ^0.8.0;\r\n\r\n/**\r\n * @dev Contract module which provides a basic access control mechanism, where\r\n * there is an account (an owner) that can be granted exclusive access to\r\n * specific functions.\r\n *\r\n * By default, the owner account will be the one that deploys the contract. This\r\n * can later be changed with {transferOwnership}.\r\n *\r\n * This module is used through inheritance. It will make available the modifier\r\n * `onlyOwner`, which can be applied to your functions to restrict their use to\r\n * the owner.\r\n */\r\ncontract Ownable is Context {\r\n    address private _owner;\r\n\r\n    event OwnershipTransferred(address indexed previousOwner, address indexed newOwner);\r\n\r\n    /**\r\n     * @dev Initializes the contract setting the deployer as the initial owner.\r\n     */\r\n    constructor() {\r\n        _setOwner(_msgSender());\r\n    }\r\n\r\n    /**\r\n     * @dev Returns the address of the current owner.\r\n     */\r\n    function owner() public view virtual returns (address) {\r\n        return _owner;\r\n    }\r\n\r\n    /**\r\n     * @dev Throws if called by any account other than the owner.\r\n     */\r\n    modifier onlyOwner() {\r\n        require(owner() == _msgSender(), \"Ownable: caller is not the owner\");\r\n        _;\r\n    }\r\n\r\n    /**\r\n     * @dev Leaves the contract without owner. It will not be possible to call\r\n     * `onlyOwner` functions anymore. Can only be called by the current owner.\r\n     *\r\n     * NOTE: Renouncing ownership will leave the contract without an owner,\r\n     * thereby removing any functionality that is only available to the owner.\r\n     */\r\n    function renounceOwnership() public virtual onlyOwner {\r\n        _setOwner(address(0));\r\n    }\r\n\r\n    /**\r\n     * @dev Transfers ownership of the contract to a new account (`newOwner`).\r\n     * Can only be called by the current owner.\r\n     */\r\n    function transferOwnership(address newOwner) public virtual onlyOwner {\r\n        require(newOwner != address(0), \"Ownable: new owner is the zero address\");\r\n        _setOwner(newOwner);\r\n    }\r\n\r\n    function _setOwner(address newOwner) private {\r\n        address oldOwner = _owner;\r\n        _owner = newOwner;\r\n        emit OwnershipTransferred(oldOwner, newOwner);\r\n    }\r\n}\r\n\r\ncontract BEP20 is Ownable, IBEP20 {\r\n    using SafeMath for uint256;\r\n\r\n    mapping (address => uint256) private _balances;\r\n\r\n    mapping (address => mapping (address => uint256)) private _allowances;\r\n\r\n    uint256 private _totalSupply;\r\n\r\n    string private _name;\r\n    string private _symbol;\r\n    uint8 private _decimals;\r\n\r\n    /**\r\n     * @dev Sets the values for {name} and {symbol}, initializes {decimals} with\r\n     * a default value of 18.\r\n     *\r\n     * To select a different value for {decimals}, use {_setupDecimals}.\r\n     *\r\n     * All three of these values are immutable: they can only be set once during\r\n     * construction.\r\n     */\r\n    // constructor (string memory name, string memory symbol) {\r\n    //     _name = name;\r\n    //     _symbol = symbol;\r\n    //     _decimals = 18;\r\n    // }\r\n    \r\n    function constructor1 (string memory name, string memory symbol) internal {\r\n        _name = name;\r\n        _symbol = symbol;\r\n        _decimals = 18;\r\n    }\r\n\r\n     /**\r\n     * @dev Returns the name of the token.\r\n     */\r\n    function name() public view virtual override returns (string memory) {\r\n        return _name;\r\n    }\r\n\r\n    /**\r\n     * @dev Returns the symbol of the token, usually a shorter version of the\r\n     * name.\r\n     */\r\n    function symbol() public view virtual override returns (string memory) {\r\n        return _symbol;\r\n    }\r\n\r\n    function getOwner() public view virtual override returns (address) {\r\n        return owner();\r\n    }\r\n\r\n    /**\r\n     * @dev Returns the number of decimals used to get its user representation.\r\n     * For example, if `decimals` equals `2`, a balance of `505` tokens should\r\n     * be displayed to a user as `5,05` (`505 / 10 ** 2`).\r\n     *\r\n     * Tokens usually opt for a value of 18, imitating the relationship between\r\n     * Ether and Wei. This is the value {ERC20} uses, unless {_setupDecimals} is\r\n     * called.\r\n     *\r\n     * NOTE: This information is only used for _display_ purposes: it in\r\n     * no way affects any of the arithmetic of the contract, including\r\n     * {IERC20-balanceOf} and {IERC20-transfer}.\r\n     */\r\n    function decimals() public view virtual override returns (uint8) {\r\n        return _decimals;\r\n    }\r\n\r\n    /**\r\n     * @dev See {IERC20-totalSupply}.\r\n     */\r\n    function totalSupply() public view virtual override returns (uint256) {\r\n        return _totalSupply;\r\n    }\r\n\r\n    /**\r\n     * @dev See {IERC20-balanceOf}.\r\n     */\r\n    function balanceOf(address account) public virtual view override returns (uint256) {\r\n        return _balances[account];\r\n    }\r\n\r\n    /**\r\n     * @dev See {IERC20-transfer}.\r\n     *\r\n     * Requirements:\r\n     *\r\n     * - `recipient` cannot be the zero address.\r\n     * - the caller must have a balance of at least `amount`.\r\n     */\r\n    function transfer(address recipient, uint256 amount) public virtual override returns (bool) {\r\n        _transfer(_msgSender(), recipient, amount);\r\n        return true;\r\n    }\r\n\r\n    /**\r\n     * @dev See {IERC20-allowance}.\r\n     */\r\n    function allowance(address _owner, address spender) public view virtual override returns (uint256) {\r\n        return _allowances[_owner][spender];\r\n    }\r\n    \r\n\r\n    /**\r\n     * @dev See {IERC20-approve}.\r\n     *\r\n     * Requirements:\r\n     *\r\n     * - `spender` cannot be the zero address.\r\n     */\r\n    function approve(address spender, uint256 amount) public virtual override returns (bool) {\r\n        _approve(_msgSender(), spender, amount);\r\n        return true;\r\n    }\r\n\r\n    /**\r\n     * @dev See {IERC20-transferFrom}.\r\n     *\r\n     * Emits an {Approval} event indicating the updated allowance. This is not\r\n     * required by the EIP. See the note at the beginning of {ERC20}.\r\n     *\r\n     * Requirements:\r\n     *\r\n     * - `sender` and `recipient` cannot be the zero address.\r\n     * - `sender` must have a balance of at least `amount`.\r\n     * - the caller must have allowance for ``sender``'s tokens of at least\r\n     * `amount`.\r\n     */\r\n    function transferFrom(address sender, address recipient, uint256 amount) public virtual override returns (bool) {\r\n        _transfer(sender, recipient, amount);\r\n        _approve(sender, _msgSender(), _allowances[sender][_msgSender()].sub(amount, \"ERC20: transfer amount exceeds allowance\"));\r\n        return true;\r\n    }\r\n\r\n    /**\r\n     * @dev Atomically increases the allowance granted to `spender` by the caller.\r\n     *\r\n     * This is an alternative to {approve} that can be used as a mitigation for\r\n     * problems described in {IERC20-approve}.\r\n     *\r\n     * Emits an {Approval} event indicating the updated allowance.\r\n     *\r\n     * Requirements:\r\n     *\r\n     * - `spender` cannot be the zero address.\r\n     */\r\n    function increaseAllowance(address spender, uint256 addedValue) public virtual returns (bool) {\r\n        _approve(_msgSender(), spender, _allowances[_msgSender()][spender].add(addedValue));\r\n        return true;\r\n    }\r\n\r\n    /**\r\n     * @dev Atomically decreases the allowance granted to `spender` by the caller.\r\n     *\r\n     * This is an alternative to {approve} that can be used as a mitigation for\r\n     * problems described in {IERC20-approve}.\r\n     *\r\n     * Emits an {Approval} event indicating the updated allowance.\r\n     *\r\n     * Requirements:\r\n     *\r\n     * - `spender` cannot be the zero address.\r\n     * - `spender` must have allowance for the caller of at least\r\n     * `subtractedValue`.\r\n     */\r\n    function decreaseAllowance(address spender, uint256 subtractedValue) public virtual returns (bool) {\r\n        _approve(_msgSender(), spender, _allowances[_msgSender()][spender].sub(subtractedValue, \"ERC20: decreased allowance below zero\"));\r\n        return true;\r\n    }\r\n\r\n    /**\r\n     * @dev Moves tokens `amount` from `sender` to `recipient`.\r\n     *\r\n     * This is internal function is equivalent to {transfer}, and can be used to\r\n     * e.g. implement automatic token fees, slashing mechanisms, etc.\r\n     *\r\n     * Emits a {Transfer} event.\r\n     *\r\n     * Requirements:\r\n     *\r\n     * - `sender` cannot be the zero address.\r\n     * - `recipient` cannot be the zero address.\r\n     * - `sender` must have a balance of at least `amount`.\r\n     */\r\n    function _transfer(address sender, address recipient, uint256 amount) internal virtual {\r\n        require(sender != address(0), \"ERC20: transfer from the zero address\");\r\n        require(recipient != address(0), \"ERC20: transfer to the zero address\");\r\n\r\n        _beforeTokenTransfer(sender, recipient, amount);\r\n\r\n        _balances[sender] = _balances[sender].sub(amount, \"ERC20: transfer amount exceeds balance\");\r\n        _balances[recipient] = _balances[recipient].add(amount);\r\n        emit Transfer(sender, recipient, amount);\r\n    }\r\n\r\n    /** @dev Creates `amount` tokens and assigns them to `account`, increasing\r\n     * the total supply.\r\n     *\r\n     * Emits a {Transfer} event with `from` set to the zero address.\r\n     *\r\n     * Requirements:\r\n     *\r\n     * - `to` cannot be the zero address.\r\n     */\r\n    function _mint(address account, uint256 amount) internal virtual {\r\n        require(account != address(0), \"ERC20: mint to the zero address\");\r\n\r\n        _beforeTokenTransfer(address(0), account, amount);\r\n\r\n        _totalSupply = _totalSupply.add(amount);\r\n        _balances[account] = _balances[account].add(amount);\r\n        emit Transfer(address(0), account, amount);\r\n    }\r\n\r\n    /**\r\n     * @dev Destroys `amount` tokens from `account`, reducing the\r\n     * total supply.\r\n     *\r\n     * Emits a {Transfer} event with `to` set to the zero address.\r\n     *\r\n     * Requirements:\r\n     *\r\n     * - `account` cannot be the zero address.\r\n     * - `account` must have at least `amount` tokens.\r\n     */\r\n    function _burn(address account, uint256 amount) internal virtual {\r\n        require(account != address(0), \"ERC20: burn from the zero address\");\r\n\r\n        _beforeTokenTransfer(account, address(0), amount);\r\n\r\n        _balances[account] = _balances[account].sub(amount, \"ERC20: burn amount exceeds balance\");\r\n        _totalSupply = _totalSupply.sub(amount);\r\n        emit Transfer(account, address(0), amount);\r\n    }\r\n\r\n    /**\r\n     * @dev Sets `amount` as the allowance of `spender` over the `owner` s tokens.\r\n     *\r\n     * This internal function is equivalent to `approve`, and can be used to\r\n     * e.g. set automatic allowances for certain subsystems, etc.\r\n     *\r\n     * Emits an {Approval} event.\r\n     *\r\n     * Requirements:\r\n     *\r\n     * - `owner` cannot be the zero address.\r\n     * - `spender` cannot be the zero address.\r\n     */\r\n    function _approve(address owner, address spender, uint256 amount) internal virtual {\r\n        require(owner != address(0), \"ERC20: approve from the zero address\");\r\n        require(spender != address(0), \"ERC20: approve to the zero address\");\r\n\r\n        _allowances[owner][spender] = amount;\r\n        emit Approval(owner, spender, amount);\r\n    }\r\n\r\n    /**\r\n     * @dev Sets {decimals} to a value other than the default one of 18.\r\n     *\r\n     * WARNING: This function should only be called from the constructor. Most\r\n     * applications that interact with token contracts will not expect\r\n     * {decimals} to ever change, and may work incorrectly if it does.\r\n     */\r\n    function _setupDecimals(uint8 decimals_) internal {\r\n        _decimals = decimals_;\r\n    }\r\n\r\n    /**\r\n     * @dev Hook that is called before any transfer of tokens. This includes\r\n     * minting and burning.\r\n     *\r\n     * Calling conditions:\r\n     *\r\n     * - when `from` and `to` are both non-zero, `amount` of ``from``'s tokens\r\n     * will be to transferred to `to`.\r\n     * - when `from` is zero, `amount` tokens will be minted for `to`.\r\n     * - when `to` is zero, `amount` of ``from``'s tokens will be burned.\r\n     * - `from` and `to` are never both zero.\r\n     *\r\n     * To learn more about hooks, head to xref:ROOT:extending-contracts.adoc#using-hooks[Using Hooks].\r\n     */\r\n    function _beforeTokenTransfer(address from, address to, uint256 amount) internal virtual { }\r\n\r\n}\r\n\r\n\r\n\r\npragma solidity >=0.6.2;\r\n\r\ninterface IUniswapV2Router01 {\r\n    function factory() external pure returns (address);\r\n    function WETH() external pure returns (address);\r\n\r\n    function addLiquidity(\r\n        address tokenA,\r\n        address tokenB,\r\n        uint amountADesired,\r\n        uint amountBDesired,\r\n        uint amountAMin,\r\n        uint amountBMin,\r\n        address to,\r\n        uint deadline\r\n    ) external returns (uint amountA, uint amountB, uint liquidity);\r\n    function addLiquidityETH(\r\n        address token,\r\n        uint amountTokenDesired,\r\n        uint amountTokenMin,\r\n        uint amountETHMin,\r\n        address to,\r\n        uint deadline\r\n    ) external payable returns (uint amountToken, uint amountETH, uint liquidity);\r\n    function removeLiquidity(\r\n        address tokenA,\r\n        address tokenB,\r\n        uint liquidity,\r\n        uint amountAMin,\r\n        uint amountBMin,\r\n        address to,\r\n        uint deadline\r\n    ) external returns (uint amountA, uint amountB);\r\n    function removeLiquidityETH(\r\n        address token,\r\n        uint liquidity,\r\n        uint amountTokenMin,\r\n        uint amountETHMin,\r\n        address to,\r\n        uint deadline\r\n    ) external returns (uint amountToken, uint amountETH);\r\n    function removeLiquidityWithPermit(\r\n        address tokenA,\r\n        address tokenB,\r\n        uint liquidity,\r\n        uint amountAMin,\r\n        uint amountBMin,\r\n        address to,\r\n        uint deadline,\r\n        bool approveMax, uint8 v, bytes32 r, bytes32 s\r\n    ) external returns (uint amountA, uint amountB);\r\n    function removeLiquidityETHWithPermit(\r\n        address token,\r\n        uint liquidity,\r\n        uint amountTokenMin,\r\n        uint amountETHMin,\r\n        address to,\r\n        uint deadline,\r\n        bool approveMax, uint8 v, bytes32 r, bytes32 s\r\n    ) external returns (uint amountToken, uint amountETH);\r\n    function swapExactTokensForTokens(\r\n        uint amountIn,\r\n        uint amountOutMin,\r\n        address[] calldata path,\r\n        address to,\r\n        uint deadline\r\n    ) external returns (uint[] memory amounts);\r\n    function swapTokensForExactTokens(\r\n        uint amountOut,\r\n        uint amountInMax,\r\n        address[] calldata path,\r\n        address to,\r\n        uint deadline\r\n    ) external returns (uint[] memory amounts);\r\n    function swapExactETHForTokens(uint amountOutMin, address[] calldata path, address to, uint deadline)\r\n        external\r\n        payable\r\n        returns (uint[] memory amounts);\r\n    function swapTokensForExactETH(uint amountOut, uint amountInMax, address[] calldata path, address to, uint deadline)\r\n        external\r\n        returns (uint[] memory amounts);\r\n    function swapExactTokensForETH(uint amountIn, uint amountOutMin, address[] calldata path, address to, uint deadline)\r\n        external\r\n        returns (uint[] memory amounts);\r\n    function swapETHForExactTokens(uint amountOut, address[] calldata path, address to, uint deadline)\r\n        external\r\n        payable\r\n        returns (uint[] memory amounts);\r\n\r\n    function quote(uint amountA, uint reserveA, uint reserveB) external pure returns (uint amountB);\r\n    function getAmountOut(uint amountIn, uint reserveIn, uint reserveOut) external pure returns (uint amountOut);\r\n    function getAmountIn(uint amountOut, uint reserveIn, uint reserveOut) external pure returns (uint amountIn);\r\n    function getAmountsOut(uint amountIn, address[] calldata path) external view returns (uint[] memory amounts);\r\n    function getAmountsIn(uint amountOut, address[] calldata path) external view returns (uint[] memory amounts);\r\n}\r\n\r\n\r\n\r\n// pragma solidity >=0.6.2;\r\n\r\ninterface IUniswapV2Router02 is IUniswapV2Router01 {\r\n    function removeLiquidityETHSupportingFeeOnTransferTokens(\r\n        address token,\r\n        uint liquidity,\r\n        uint amountTokenMin,\r\n        uint amountETHMin,\r\n        address to,\r\n        uint deadline\r\n    ) external returns (uint amountETH);\r\n    function removeLiquidityETHWithPermitSupportingFeeOnTransferTokens(\r\n        address token,\r\n        uint liquidity,\r\n        uint amountTokenMin,\r\n        uint amountETHMin,\r\n        address to,\r\n        uint deadline,\r\n        bool approveMax, uint8 v, bytes32 r, bytes32 s\r\n    ) external returns (uint amountETH);\r\n\r\n    function swapExactTokensForTokensSupportingFeeOnTransferTokens(\r\n        uint amountIn,\r\n        uint amountOutMin,\r\n        address[] calldata path,\r\n        address to,\r\n        uint deadline\r\n    ) external;\r\n    function swapExactETHForTokensSupportingFeeOnTransferTokens(\r\n        uint amountOutMin,\r\n        address[] calldata path,\r\n        address to,\r\n        uint deadline\r\n    ) external payable;\r\n    function swapExactTokensForETHSupportingFeeOnTransferTokens(\r\n        uint amountIn,\r\n        uint amountOutMin,\r\n        address[] calldata path,\r\n        address to,\r\n        uint deadline\r\n    ) external;\r\n}\r\n\r\ncontract Proxiable {\r\n    // Code position in storage is keccak256(\"PROXIABLE\") = \"0xc5f16f0fcc639fa48a6947836d9850f504798523bf8c9a3a87d5876cf622bcf7\"\r\n\r\n    function updateCodeAddress(address newAddress) internal {\r\n        require(\r\n            bytes32(0xc5f16f0fcc639fa48a6947836d9850f504798523bf8c9a3a87d5876cf622bcf7) == Proxiable(newAddress).proxiableUUID(),\r\n            \"Not compatible\"\r\n        );\r\n        assembly { // solium-disable-line\r\n            sstore(0xc5f16f0fcc639fa48a6947836d9850f504798523bf8c9a3a87d5876cf622bcf7, newAddress)\r\n        }\r\n    }\r\n    function proxiableUUID() public pure returns (bytes32) {\r\n        return 0xc5f16f0fcc639fa48a6947836d9850f504798523bf8c9a3a87d5876cf622bcf7;\r\n    }\r\n}\r\n\r\ncontract LibraryLockDataLayout {\r\n  bool public initialized = false;\r\n}\r\n\r\ncontract LibraryLock is LibraryLockDataLayout {\r\n    // Ensures no one can manipulate the Logic Contract once it is deployed.\r\n    // PARITY WALLET HACK PREVENTION\r\n\r\n    modifier delegatedOnly() {\r\n        require(initialized == true, \"The library is locked. No direct 'call' is allowed\");\r\n        _;\r\n    }\r\n    function initialize() internal {\r\n        initialized = true;\r\n    }\r\n}\r\n\r\ncontract DataLayout is LibraryLock {\r\n\r\n    // address public owner;\r\n    address public wBNB;\r\n    address public NFTContract;\r\n    IUniswapV2Router02 public uniswapV2Router;\r\n    address public tokenStorage;\r\n    address public statsTracker;\r\n    uint feePerc = 10;\r\n\r\n    struct userStruct {\r\n        uint256 timeChecked; //timestamp\r\n        uint128 wins;\r\n        bool usingFreePrediction;\r\n        uint256 totalVolume;\r\n        uint32 currentLevel;\r\n        uint256 NFTID1;\r\n        uint256 NFTID2;\r\n        bool hasClaimedStarter;\r\n    }\r\n    mapping(address => userStruct) public userData; \r\n\r\n    uint32[] public levelStreakRequirements;\r\n\r\n    uint256 public totalBNB;\r\n    uint256 public freeBNBReturned;\r\n    uint256 public predictionFees;\r\n\r\n    mapping(address => bool) whitelistedContracts;\r\n} \r\n\r\ncontract ERCStorage {\r\n    address versus;\r\n    constructor () {\r\n        versus = msg.sender;\r\n    }\r\n    \r\n    function sendBNB(uint256 amount) public {\r\n        require(msg.sender == versus);\r\n        payable(versus).transfer(amount);\r\n    }\r\n}\r\n\r\n\r\ncontract Versus is BEP20, DataLayout, Proxiable {\r\n    using SafeMath for uint256;\r\n    \r\n    constructor() public {\r\n        \r\n    }\r\n\r\n    // modifier onlyOwner() {\r\n    //     require(msg.sender == owner);\r\n    //     _;\r\n    // }\r\n    \r\n\r\n    function versusConstructor(address statsTracker) public {\r\n        require(!initialized);\r\n        // owner = msg.sender;\r\n        wBNB = 0xbb4CdB9CBd36B01bD1cBaEBF2De08d9173bc095c;\r\n        IUniswapV2Router02 uniswapV2Router = IUniswapV2Router02(0x10ED43C718714eb63d5aA57B78B54704E256024E);\r\n        //mint supply\r\n        tokenStorage = address(new ERCStorage());\r\n        constructor1(\"Versus.cx\", \"Versus\");\r\n        initialize();\r\n    }\r\n\r\n    receive() external payable {\r\n        \r\n    }\r\n\r\n    function setNFTContract(address _contract) public onlyOwner delegatedOnly {\r\n        NFTContract = _contract;\r\n    }\r\n\r\n    function setStatsTracker(address _contract) public onlyOwner delegatedOnly {\r\n        statsTracker = _contract;\r\n    }\r\n\r\n    function setFeePerc(uint fee) public onlyOwner delegatedOnly {\r\n        feePerc = fee;\r\n    }\r\n\r\n    function updateCode(address newCode) public onlyOwner delegatedOnly  {\r\n        updateCodeAddress(newCode);\r\n    }\r\n    \r\n\r\n    function transfer(address recipient, uint256 amount) public override returns(bool) {\r\n        uint256 fee = amount.mul(feePerc).div(100);\r\n        switchToBNB(fee);\r\n        require(super.transfer(recipient, amount.sub(fee)), \"Transfer failed\");\r\n        userData[msg.sender].timeChecked = userData[msg.sender].timeChecked.add(30 minutes);\r\n        return true;\r\n    }\r\n\r\n    function switchToBNB(uint256 amount) internal {\r\n        uint256 contractBNB = address(this).balance;\r\n        // generate the uniswap pair path of token -> weth\r\n        address[] memory path = new address[](2);\r\n        path[0] = address(this);\r\n        path[1] = wBNB; \r\n\r\n        _approve(address(this), address(uniswapV2Router), amount);\r\n\r\n        // make the swap\r\n        try uniswapV2Router.swapExactTokensForTokensSupportingFeeOnTransferTokens(\r\n            amount,\r\n            0, // accept any amount of BNB\r\n            path,\r\n            tokenStorage,\r\n            block.timestamp\r\n        ) {\r\n            //log new BNB\r\n            uint256 newBNB = address(this).balance.sub(contractBNB);\r\n            totalBNB = totalBNB.add(newBNB);\r\n\r\n        } catch (bytes memory failErr) {\r\n            // emit SwapFailed(failErr);\r\n        }\r\n    }\r\n\r\n    function hasFreePrediction(address user) public returns(uint256) {\r\n        require(whitelistedContracts[msg.sender], \"Unauthorized contract\");\r\n        require(userData[msg.sender].timeChecked >= block.timestamp, \"No free prediction yet\");\r\n        require(!userData[msg.sender].usingFreePrediction, \"Already using free prediction\");\r\n        uint256 userStack = balanceOf(user);\r\n        uint256 bnbAllowed = (userStack * totalBNB) / totalSupply();\r\n        //set max bnbAllowed\r\n\r\n\r\n        userData[msg.sender].usingFreePrediction = true;\r\n        return bnbAllowed;\r\n    }\r\n    \r\n    function returnFreeBNB(address user) public payable {\r\n        require(whitelistedContracts[msg.sender], \"Unauthorized contract\");\r\n        userData[user].usingFreePrediction = false;\r\n        freeBNBReturned = freeBNBReturned.add(msg.value);\r\n    }\r\n\r\n    function returnPredictionFees() public payable {\r\n        predictionFees = predictionFees.add(msg.value);\r\n    }\r\n\r\n    function useFees() public {\r\n        \r\n    }\r\n\r\n    function updateStats(address user, uint256 volume) public {\r\n        require(whitelistedContracts[msg.sender]);\r\n        userData[user].totalVolume = userData[user].totalVolume.add(1);\r\n        //increase total Versus volume\r\n        StatsTracker(statsTracker).updateVolume(volume);\r\n    }\r\n\r\n    function updateUserWins(address _user) public {\r\n        require(whitelistedContracts[msg.sender]);\r\n        //check if user has a monster equipped\r\n        //if so, call NFT update function\r\n        if (userData[_user].NFTID1 != 0) {\r\n            \r\n        }\r\n        //update user wins\r\n        userData[_user].wins = userData[_user].wins+1;\r\n        StatsTracker(statsTracker).adjustMontlyLeaders(_user, userData[_user].wins);\r\n        StatsTracker(statsTracker).adjustAllTimeLeaders(_user, userData[_user].wins);\r\n    }\r\n\r\n    function claimFirstMonster(uint starter) public {\r\n        require(!userData[msg.sender].hasClaimedStarter, \"Starter already claimed\");\r\n        require(starter == 1 || starter == 2 || starter == 3, \"Must choose valid starter\");\r\n        mintNFT(msg.sender, starter);\r\n        userData[msg.sender].hasClaimedStarter = true;\r\n    }\r\n\r\n    function mintNFT(address user, uint monsterID) internal {\r\n        VersusNFT(NFTContract).createNFT(user, monsterID);\r\n    \r\n    }\r\n\r\n    function equipSlot1(uint256 id) public {\r\n        if (userData[msg.sender].NFTID1 != 0) {\r\n            VersusNFT(NFTContract).unEquipMonster(id, msg.sender);\r\n        }\r\n        VersusNFT(NFTContract).equipMonster(id, msg.sender);\r\n        userData[msg.sender].NFTID1 = id;\r\n    }\r\n\r\n    function equipSlot2(uint256 id) public {\r\n        if (userData[msg.sender].NFTID2 != 0) {\r\n            VersusNFT(NFTContract).unEquipMonster(id, msg.sender);\r\n        }\r\n        VersusNFT(NFTContract).equipMonster(id, msg.sender);\r\n        userData[msg.sender].NFTID2 = id;\r\n    }\r\n\r\n    function unequip(uint slot, uint256 id) public {\r\n        if (slot == 1) {\r\n            VersusNFT(NFTContract).unEquipMonster(id, msg.sender);\r\n            userData[msg.sender].NFTID1 = 0;\r\n        }\r\n        if (slot == 2) {\r\n            VersusNFT(NFTContract).unEquipMonster(id, msg.sender);\r\n            userData[msg.sender].NFTID2 = 0;\r\n        }\r\n    }\r\n\r\n    function whiteListContract(address _contract, bool _direction) public onlyOwner {\r\n        whitelistedContracts[_contract] = _direction;\r\n    }\r\n    \r\n}\r\n\r\n\r\ninterface VersusNFT {\r\n    function createNFT(address _claimer, uint256 _monsterID) external returns(uint256);\r\n    function equipMonster(uint256 id, address _owner) external;\r\n    function unEquipMonster(uint256 id, address _owner) external;\r\n}\r\n\r\ninterface StatsTracker {\r\n    function updateVolume(uint256 _volume) external;\r\n    function adjustMontlyLeaders(address user, uint256 wins) external;\r\n    function adjustAllTimeLeaders(address user, uint256 wins) external;\r\n}\r\n",
  "sourcePath": "C:/Users/razgriz/Documents/GitHub/Versus/contracts/contracts/VersusToken.sol",
  "compiler": {
    "name": "solc",
    "version": "0.8.0+commit.c7dfd78e.Emscripten.clang"
  },
  "schemaVersion": "3.3.3",
  "updatedAt": "2021-08-09T15:10:48.605Z",
  "devdoc": {
    "kind": "dev",
    "methods": {
      "allowance(address,address)": {
        "details": "See {IERC20-allowance}."
      },
      "approve(address,uint256)": {
        "details": "See {IERC20-approve}. Requirements: - `spender` cannot be the zero address."
      },
      "balanceOf(address)": {
        "details": "See {IERC20-balanceOf}."
      },
      "decimals()": {
        "details": "Returns the number of decimals used to get its user representation. For example, if `decimals` equals `2`, a balance of `505` tokens should be displayed to a user as `5,05` (`505 / 10 ** 2`). Tokens usually opt for a value of 18, imitating the relationship between Ether and Wei. This is the value {ERC20} uses, unless {_setupDecimals} is called. NOTE: This information is only used for _display_ purposes: it in no way affects any of the arithmetic of the contract, including {IERC20-balanceOf} and {IERC20-transfer}."
      },
      "decreaseAllowance(address,uint256)": {
        "details": "Atomically decreases the allowance granted to `spender` by the caller. This is an alternative to {approve} that can be used as a mitigation for problems described in {IERC20-approve}. Emits an {Approval} event indicating the updated allowance. Requirements: - `spender` cannot be the zero address. - `spender` must have allowance for the caller of at least `subtractedValue`."
      },
      "getOwner()": {
        "details": "Returns the bep token owner."
      },
      "increaseAllowance(address,uint256)": {
        "details": "Atomically increases the allowance granted to `spender` by the caller. This is an alternative to {approve} that can be used as a mitigation for problems described in {IERC20-approve}. Emits an {Approval} event indicating the updated allowance. Requirements: - `spender` cannot be the zero address."
      },
      "name()": {
        "details": "Returns the name of the token."
      },
      "owner()": {
        "details": "Returns the address of the current owner."
      },
      "renounceOwnership()": {
        "details": "Leaves the contract without owner. It will not be possible to call `onlyOwner` functions anymore. Can only be called by the current owner. NOTE: Renouncing ownership will leave the contract without an owner, thereby removing any functionality that is only available to the owner."
      },
      "symbol()": {
        "details": "Returns the symbol of the token, usually a shorter version of the name."
      },
      "totalSupply()": {
        "details": "See {IERC20-totalSupply}."
      },
      "transfer(address,uint256)": {
        "details": "See {IERC20-transfer}. Requirements: - `recipient` cannot be the zero address. - the caller must have a balance of at least `amount`."
      },
      "transferFrom(address,address,uint256)": {
        "details": "See {IERC20-transferFrom}. Emits an {Approval} event indicating the updated allowance. This is not required by the EIP. See the note at the beginning of {ERC20}. Requirements: - `sender` and `recipient` cannot be the zero address. - `sender` must have a balance of at least `amount`. - the caller must have allowance for ``sender``'s tokens of at least `amount`."
      },
      "transferOwnership(address)": {
        "details": "Transfers ownership of the contract to a new account (`newOwner`). Can only be called by the current owner."
      }
    },
    "version": 1
  },
  "userdoc": {
    "kind": "user",
    "methods": {},
    "version": 1
  }
}