{
  "contractName": "VersusNFT",
  "abi": [
    {
      "anonymous": false,
      "inputs": [
        {
          "indexed": true,
          "internalType": "address",
          "name": "owner",
          "type": "address"
        },
        {
          "indexed": true,
          "internalType": "address",
          "name": "approved",
          "type": "address"
        },
        {
          "indexed": true,
          "internalType": "uint256",
          "name": "tokenId",
          "type": "uint256"
        }
      ],
      "name": "Approval",
      "type": "event"
    },
    {
      "anonymous": false,
      "inputs": [
        {
          "indexed": true,
          "internalType": "address",
          "name": "owner",
          "type": "address"
        },
        {
          "indexed": true,
          "internalType": "address",
          "name": "operator",
          "type": "address"
        },
        {
          "indexed": false,
          "internalType": "bool",
          "name": "approved",
          "type": "bool"
        }
      ],
      "name": "ApprovalForAll",
      "type": "event"
    },
    {
      "anonymous": false,
      "inputs": [
        {
          "indexed": true,
          "internalType": "address",
          "name": "from",
          "type": "address"
        },
        {
          "indexed": true,
          "internalType": "address",
          "name": "to",
          "type": "address"
        },
        {
          "indexed": true,
          "internalType": "uint256",
          "name": "tokenId",
          "type": "uint256"
        }
      ],
      "name": "Transfer",
      "type": "event"
    },
    {
      "inputs": [
        {
          "internalType": "uint256",
          "name": "",
          "type": "uint256"
        }
      ],
      "name": "NFTDetails",
      "outputs": [
        {
          "internalType": "uint32",
          "name": "monsterID",
          "type": "uint32"
        },
        {
          "internalType": "uint32",
          "name": "NFTLevel",
          "type": "uint32"
        },
        {
          "internalType": "uint32",
          "name": "totalWins",
          "type": "uint32"
        },
        {
          "internalType": "address",
          "name": "equippedTo",
          "type": "address"
        },
        {
          "internalType": "uint256",
          "name": "blockChecked",
          "type": "uint256"
        },
        {
          "internalType": "uint256",
          "name": "versusStaked",
          "type": "uint256"
        },
        {
          "internalType": "uint32",
          "name": "move1",
          "type": "uint32"
        },
        {
          "internalType": "uint32",
          "name": "move2",
          "type": "uint32"
        },
        {
          "internalType": "uint32",
          "name": "move3",
          "type": "uint32"
        },
        {
          "internalType": "uint32",
          "name": "move4",
          "type": "uint32"
        }
      ],
      "stateMutability": "view",
      "type": "function",
      "constant": true
    },
    {
      "inputs": [
        {
          "internalType": "uint256",
          "name": "",
          "type": "uint256"
        },
        {
          "internalType": "uint32",
          "name": "",
          "type": "uint32"
        },
        {
          "internalType": "uint256",
          "name": "",
          "type": "uint256"
        }
      ],
      "name": "NFTStatsHistory",
      "outputs": [
        {
          "internalType": "uint32",
          "name": "",
          "type": "uint32"
        }
      ],
      "stateMutability": "view",
      "type": "function",
      "constant": true
    },
    {
      "inputs": [
        {
          "internalType": "address",
          "name": "to",
          "type": "address"
        },
        {
          "internalType": "uint256",
          "name": "tokenId",
          "type": "uint256"
        }
      ],
      "name": "approve",
      "outputs": [],
      "stateMutability": "nonpayable",
      "type": "function"
    },
    {
      "inputs": [
        {
          "internalType": "address",
          "name": "owner",
          "type": "address"
        }
      ],
      "name": "balanceOf",
      "outputs": [
        {
          "internalType": "uint256",
          "name": "",
          "type": "uint256"
        }
      ],
      "stateMutability": "view",
      "type": "function",
      "constant": true
    },
    {
      "inputs": [],
      "name": "baseURI",
      "outputs": [
        {
          "internalType": "string",
          "name": "",
          "type": "string"
        }
      ],
      "stateMutability": "view",
      "type": "function",
      "constant": true
    },
    {
      "inputs": [
        {
          "internalType": "string",
          "name": "name",
          "type": "string"
        },
        {
          "internalType": "string",
          "name": "symbol",
          "type": "string"
        }
      ],
      "name": "constructor1",
      "outputs": [],
      "stateMutability": "nonpayable",
      "type": "function"
    },
    {
      "inputs": [
        {
          "internalType": "uint256",
          "name": "tokenId",
          "type": "uint256"
        }
      ],
      "name": "getApproved",
      "outputs": [
        {
          "internalType": "address",
          "name": "",
          "type": "address"
        }
      ],
      "stateMutability": "view",
      "type": "function",
      "constant": true
    },
    {
      "inputs": [],
      "name": "initialized",
      "outputs": [
        {
          "internalType": "bool",
          "name": "",
          "type": "bool"
        }
      ],
      "stateMutability": "view",
      "type": "function",
      "constant": true
    },
    {
      "inputs": [
        {
          "internalType": "address",
          "name": "owner",
          "type": "address"
        },
        {
          "internalType": "address",
          "name": "operator",
          "type": "address"
        }
      ],
      "name": "isApprovedForAll",
      "outputs": [
        {
          "internalType": "bool",
          "name": "",
          "type": "bool"
        }
      ],
      "stateMutability": "view",
      "type": "function",
      "constant": true
    },
    {
      "inputs": [],
      "name": "monsterList",
      "outputs": [
        {
          "internalType": "address",
          "name": "",
          "type": "address"
        }
      ],
      "stateMutability": "view",
      "type": "function",
      "constant": true
    },
    {
      "inputs": [],
      "name": "name",
      "outputs": [
        {
          "internalType": "string",
          "name": "",
          "type": "string"
        }
      ],
      "stateMutability": "view",
      "type": "function",
      "constant": true
    },
    {
      "inputs": [],
      "name": "owner",
      "outputs": [
        {
          "internalType": "address",
          "name": "",
          "type": "address"
        }
      ],
      "stateMutability": "view",
      "type": "function",
      "constant": true
    },
    {
      "inputs": [
        {
          "internalType": "uint256",
          "name": "tokenId",
          "type": "uint256"
        }
      ],
      "name": "ownerOf",
      "outputs": [
        {
          "internalType": "address",
          "name": "",
          "type": "address"
        }
      ],
      "stateMutability": "view",
      "type": "function",
      "constant": true
    },
    {
      "inputs": [],
      "name": "proxiableUUID",
      "outputs": [
        {
          "internalType": "bytes32",
          "name": "",
          "type": "bytes32"
        }
      ],
      "stateMutability": "pure",
      "type": "function",
      "constant": true
    },
    {
      "inputs": [
        {
          "internalType": "address",
          "name": "from",
          "type": "address"
        },
        {
          "internalType": "address",
          "name": "to",
          "type": "address"
        },
        {
          "internalType": "uint256",
          "name": "tokenId",
          "type": "uint256"
        }
      ],
      "name": "safeTransferFrom",
      "outputs": [],
      "stateMutability": "nonpayable",
      "type": "function"
    },
    {
      "inputs": [
        {
          "internalType": "address",
          "name": "from",
          "type": "address"
        },
        {
          "internalType": "address",
          "name": "to",
          "type": "address"
        },
        {
          "internalType": "uint256",
          "name": "tokenId",
          "type": "uint256"
        },
        {
          "internalType": "bytes",
          "name": "_data",
          "type": "bytes"
        }
      ],
      "name": "safeTransferFrom",
      "outputs": [],
      "stateMutability": "nonpayable",
      "type": "function"
    },
    {
      "inputs": [
        {
          "internalType": "address",
          "name": "operator",
          "type": "address"
        },
        {
          "internalType": "bool",
          "name": "approved",
          "type": "bool"
        }
      ],
      "name": "setApprovalForAll",
      "outputs": [],
      "stateMutability": "nonpayable",
      "type": "function"
    },
    {
      "inputs": [
        {
          "internalType": "bytes4",
          "name": "interfaceId",
          "type": "bytes4"
        }
      ],
      "name": "supportsInterface",
      "outputs": [
        {
          "internalType": "bool",
          "name": "",
          "type": "bool"
        }
      ],
      "stateMutability": "view",
      "type": "function",
      "constant": true
    },
    {
      "inputs": [],
      "name": "symbol",
      "outputs": [
        {
          "internalType": "string",
          "name": "",
          "type": "string"
        }
      ],
      "stateMutability": "view",
      "type": "function",
      "constant": true
    },
    {
      "inputs": [
        {
          "internalType": "uint256",
          "name": "index",
          "type": "uint256"
        }
      ],
      "name": "tokenByIndex",
      "outputs": [
        {
          "internalType": "uint256",
          "name": "",
          "type": "uint256"
        }
      ],
      "stateMutability": "view",
      "type": "function",
      "constant": true
    },
    {
      "inputs": [
        {
          "internalType": "address",
          "name": "owner",
          "type": "address"
        },
        {
          "internalType": "uint256",
          "name": "index",
          "type": "uint256"
        }
      ],
      "name": "tokenOfOwnerByIndex",
      "outputs": [
        {
          "internalType": "uint256",
          "name": "",
          "type": "uint256"
        }
      ],
      "stateMutability": "view",
      "type": "function",
      "constant": true
    },
    {
      "inputs": [],
      "name": "totalSupply",
      "outputs": [
        {
          "internalType": "uint256",
          "name": "",
          "type": "uint256"
        }
      ],
      "stateMutability": "view",
      "type": "function",
      "constant": true
    },
    {
      "inputs": [
        {
          "internalType": "address",
          "name": "from",
          "type": "address"
        },
        {
          "internalType": "address",
          "name": "to",
          "type": "address"
        },
        {
          "internalType": "uint256",
          "name": "tokenId",
          "type": "uint256"
        }
      ],
      "name": "transferFrom",
      "outputs": [],
      "stateMutability": "nonpayable",
      "type": "function"
    },
    {
      "inputs": [],
      "name": "versusToken",
      "outputs": [
        {
          "internalType": "address",
          "name": "",
          "type": "address"
        }
      ],
      "stateMutability": "view",
      "type": "function",
      "constant": true
    },
    {
      "inputs": [
        {
          "internalType": "address",
          "name": "_versusToken",
          "type": "address"
        }
      ],
      "name": "NFTConstructor",
      "outputs": [],
      "stateMutability": "payable",
      "type": "function",
      "payable": true
    },
    {
      "inputs": [
        {
          "internalType": "address",
          "name": "_versusToken",
          "type": "address"
        }
      ],
      "name": "setVersusToken",
      "outputs": [],
      "stateMutability": "nonpayable",
      "type": "function"
    },
    {
      "inputs": [
        {
          "internalType": "address",
          "name": "_monsterList",
          "type": "address"
        }
      ],
      "name": "setMonsterList",
      "outputs": [],
      "stateMutability": "nonpayable",
      "type": "function"
    },
    {
      "inputs": [
        {
          "internalType": "address",
          "name": "newCode",
          "type": "address"
        }
      ],
      "name": "updateCode",
      "outputs": [],
      "stateMutability": "nonpayable",
      "type": "function"
    },
    {
      "inputs": [
        {
          "internalType": "address",
          "name": "_owner",
          "type": "address"
        }
      ],
      "name": "setOwner",
      "outputs": [],
      "stateMutability": "nonpayable",
      "type": "function"
    },
    {
      "inputs": [
        {
          "internalType": "address",
          "name": "_contract",
          "type": "address"
        },
        {
          "internalType": "bool",
          "name": "_direction",
          "type": "bool"
        }
      ],
      "name": "whiteListContract",
      "outputs": [],
      "stateMutability": "nonpayable",
      "type": "function"
    },
    {
      "inputs": [
        {
          "internalType": "uint256",
          "name": "tokenId",
          "type": "uint256"
        }
      ],
      "name": "tokenURI",
      "outputs": [
        {
          "internalType": "string",
          "name": "",
          "type": "string"
        }
      ],
      "stateMutability": "view",
      "type": "function",
      "constant": true
    },
    {
      "inputs": [
        {
          "internalType": "uint256",
          "name": "level",
          "type": "uint256"
        },
        {
          "internalType": "string",
          "name": "_tokenURI",
          "type": "string"
        }
      ],
      "name": "setLevelURI",
      "outputs": [],
      "stateMutability": "nonpayable",
      "type": "function"
    },
    {
      "inputs": [
        {
          "internalType": "address",
          "name": "_claimer",
          "type": "address"
        },
        {
          "internalType": "uint32",
          "name": "_monsterID",
          "type": "uint32"
        }
      ],
      "name": "createNFT",
      "outputs": [
        {
          "internalType": "uint256",
          "name": "",
          "type": "uint256"
        }
      ],
      "stateMutability": "nonpayable",
      "type": "function"
    },
    {
      "inputs": [
        {
          "internalType": "uint256",
          "name": "id",
          "type": "uint256"
        }
      ],
      "name": "getNFTDetails",
      "outputs": [
        {
          "internalType": "uint32",
          "name": "",
          "type": "uint32"
        },
        {
          "internalType": "uint256",
          "name": "",
          "type": "uint256"
        },
        {
          "internalType": "string",
          "name": "",
          "type": "string"
        }
      ],
      "stateMutability": "view",
      "type": "function",
      "constant": true
    },
    {
      "inputs": [
        {
          "internalType": "uint256",
          "name": "id",
          "type": "uint256"
        },
        {
          "internalType": "address",
          "name": "_owner",
          "type": "address"
        }
      ],
      "name": "equipMonster",
      "outputs": [],
      "stateMutability": "nonpayable",
      "type": "function"
    },
    {
      "inputs": [
        {
          "internalType": "uint256",
          "name": "id",
          "type": "uint256"
        },
        {
          "internalType": "address",
          "name": "_owner",
          "type": "address"
        }
      ],
      "name": "unEquipMonster",
      "outputs": [],
      "stateMutability": "nonpayable",
      "type": "function"
    },
    {
      "inputs": [
        {
          "internalType": "uint256",
          "name": "id",
          "type": "uint256"
        }
      ],
      "name": "growMonster",
      "outputs": [],
      "stateMutability": "nonpayable",
      "type": "function"
    },
    {
      "inputs": [],
      "name": "stakeNFT",
      "outputs": [],
      "stateMutability": "nonpayable",
      "type": "function"
    },
    {
      "inputs": [],
      "name": "unstakeNFT",
      "outputs": [],
      "stateMutability": "nonpayable",
      "type": "function"
    }
  ],
  "bytecode": "0x6080604052600a805460ff1916905534801561001a57600080fd5b50612a0d8061002a6000396000f3fe6080604052600436106102305760003560e01c80636352211e1161012e57806399498240116100ab578063b88d4fde1161006f578063b88d4fde1461066b578063c3a0c5461461068b578063c87b56dd146106ab578063e0a747fe14610636578063e985e9c5146106cb57610230565b806399498240146105c9578063a22cb465146105e9578063b238db8e14610609578063b48509e614610636578063b870e6021461064b57610230565b806382260f35116100f257806382260f3514610530578063858111c21461055f5780638da5cb5b1461057f578063934a851e1461059457806395d89b41146105b457610230565b80636352211e1461049057806366f0d43d146104b05780636bdb744e146104c55780636c0360eb146104fb57806370a082311461051057610230565b80632593626c116101bc578063469519541161018057806346951954146103fb5780634f6ccce71461041b5780634f9b008d1461043b57806352d1902d1461045b57806360eb3dbe1461047057610230565b80632593626c146103735780632f745c5914610386578063332fe7cb146103a65780633e6fdd04146103bb57806342842e0e146103db57610230565b806313af40351161020357806313af4035146102dc578063158ef93e146102fc57806318160ddd1461031157806323b872dd146103335780632530bb001461035357610230565b806301ffc9a71461023557806306fdde031461026b578063081812fc1461028d578063095ea7b3146102ba575b600080fd5b34801561024157600080fd5b50610255610250366004611fe7565b6106eb565b6040516102629190612274565b60405180910390f35b34801561027757600080fd5b50610280610705565b6040516102629190612288565b34801561029957600080fd5b506102ad6102a8366004612080565b610797565b6040516102629190612223565b3480156102c657600080fd5b506102da6102d5366004611f7d565b6107e3565b005b3480156102e857600080fd5b506102da6102f7366004611e43565b61087b565b34801561030857600080fd5b506102556108e6565b34801561031d57600080fd5b506103266108ef565b604051610262919061227f565b34801561033f57600080fd5b506102da61034e366004611e8f565b610900565b34801561035f57600080fd5b506102da61036e366004611e43565b610938565b6102da610381366004611e43565b61099d565b34801561039257600080fd5b506103266103a1366004611f7d565b610a37565b3480156103b257600080fd5b506102ad610a62565b3480156103c757600080fd5b506102da6103d6366004611f43565b610a71565b3480156103e757600080fd5b506102da6103f6366004611e8f565b610ab8565b34801561040757600080fd5b506102da610416366004611e43565b610ad3565b34801561042757600080fd5b50610326610436366004612080565b610b1f565b34801561044757600080fd5b50610326610456366004611fa6565b610b35565b34801561046757600080fd5b50610326610bd5565b34801561047c57600080fd5b506102da61048b3660046120ba565b610bf9565b34801561049c57600080fd5b506102ad6104ab366004612080565b610c23565b3480156104bc57600080fd5b506102ad610c4b565b3480156104d157600080fd5b506104e56104e0366004612080565b610c5a565b6040516102629a999897969594939291906127b6565b34801561050757600080fd5b50610280610cc8565b34801561051c57600080fd5b5061032661052b366004611e43565b610cd7565b34801561053c57600080fd5b5061055061054b366004612080565b610d20565b60405161026293929190612791565b34801561056b57600080fd5b506102da61057a36600461201f565b610d8b565b34801561058b57600080fd5b506102ad610db2565b3480156105a057600080fd5b506102da6105af366004611e43565b610dc6565b3480156105c057600080fd5b50610280610e2b565b3480156105d557600080fd5b506102da6105e4366004612080565b610e3a565b3480156105f557600080fd5b506102da610604366004611f43565b610edd565b34801561061557600080fd5b506106296106243660046120f5565b610fab565b6040516102629190612780565b34801561064257600080fd5b506102da611001565b34801561065757600080fd5b506102da610666366004612098565b611003565b34801561067757600080fd5b506102da610686366004611eca565b611077565b34801561069757600080fd5b506102da6106a6366004612098565b6110b6565b3480156106b757600080fd5b506102806106c6366004612080565b61111b565b3480156106d757600080fd5b506102556106e6366004611e5d565b61114b565b6001600160e01b031981166301ffc9a760e01b145b919050565b606060068054610714906128ba565b80601f0160208091040260200160405190810160405280929190818152602001828054610740906128ba565b801561078d5780601f106107625761010080835404028352916020019161078d565b820191906000526020600020905b81548152906001019060200180831161077057829003601f168201915b5050505050905090565b60006107a282611179565b6107c75760405162461bcd60e51b81526004016107be90612535565b60405180910390fd5b506000908152600460205260409020546001600160a01b031690565b60006107ee82610c23565b9050806001600160a01b0316836001600160a01b031614156108225760405162461bcd60e51b81526004016107be90612665565b806001600160a01b0316610834611186565b6001600160a01b031614806108505750610850816106e6611186565b61086c5760405162461bcd60e51b81526004016107be90612459565b610876838361118a565b505050565b600a5461010090046001600160a01b0316331461089757600080fd5b600a5460ff1615156001146108be5760405162461bcd60e51b81526004016107be9061272e565b600a80546001600160a01b0390921661010002610100600160a81b0319909216919091179055565b600a5460ff1681565b60006108fb60016111f8565b905090565b61091161090b611186565b82611203565b61092d5760405162461bcd60e51b81526004016107be906126a6565b610876838383611288565b600a5461010090046001600160a01b0316331461095457600080fd5b600a5460ff16151560011461097b5760405162461bcd60e51b81526004016107be9061272e565b600c80546001600160a01b0319166001600160a01b0392909216919091179055565b600a5460ff16156109ad57600080fd5b600a8054610100600160a81b0319163361010002179055600b80546001600160a01b0319166001600160a01b03831617905560408051808201825260128152715665727375732e637820437265617475726560701b602080830191909152825180840190935260048352632b26a7a760e11b90830152610a2c91610d8b565b610a34611396565b50565b6001600160a01b0382166000908152602081905260408120610a5990836113a5565b90505b92915050565b600c546001600160a01b031681565b600a5461010090046001600160a01b03163314610a8d57600080fd5b6001600160a01b03919091166000908152601060205260409020805460ff1916911515919091179055565b61087683838360405180602001604052806000815250611077565b600a5461010090046001600160a01b03163314610aef57600080fd5b600a5460ff161515600114610b165760405162461bcd60e51b81526004016107be9061272e565b610a34816113b1565b600080610b2d600184611484565b509392505050565b600a5460009060ff161515600114610b5f5760405162461bcd60e51b81526004016107be9061272e565b3360009081526010602052604090205460ff16610b7b57600080fd5b600d54600090610b8c9060016114a0565b600d54909150610b9d9060016114a0565b600d55610baa84826114ac565b6000818152600e60205260409020805463ffffffff851663ffffffff19909116179055905092915050565b7fc5f16f0fcc639fa48a6947836d9850f504798523bf8c9a3a87d5876cf622bcf790565b600a5461010090046001600160a01b03163314610c1557600080fd5b610c1f8282611570565b5050565b6000610a5c826040518060600160405280602981526020016129af60299139600191906115b4565b600b546001600160a01b031681565b600e602052600090815260409020805460028201546003830154600484015460059094015463ffffffff80851695640100000000808704831696600160401b908190048416966001600160a01b03169594929383811693928304811692918204811691600160601b9004168a565b606060098054610714906128ba565b60006001600160a01b038216610cff5760405162461bcd60e51b81526004016107be906124b6565b6001600160a01b0382166000908152602081905260409020610a5c906115c1565b600a54600090819060609060ff161515600114610d4f5760405162461bcd60e51b81526004016107be9061272e565b6000848152600e60205260409020805460049091015464010000000090910463ffffffff1690610d7e8661111b565b9250925092509193909250565b8151610d9e906006906020850190611cf0565b508051610876906007906020840190611cf0565b600a5461010090046001600160a01b031681565b600a5461010090046001600160a01b03163314610de257600080fd5b600a5460ff161515600114610e095760405162461bcd60e51b81526004016107be9061272e565b600b80546001600160a01b0319166001600160a01b0392909216919091179055565b606060078054610714906128ba565b600a5460ff161515600114610e615760405162461bcd60e51b81526004016107be9061272e565b3360009081526010602052604090205460ff16610e7d57600080fd5b6000818152600e6020526040902054610ea490600160401b900463ffffffff16600161283b565b6000918252600e6020526040909120805463ffffffff92909216600160401b026bffffffff000000000000000019909216919091179055565b610ee5611186565b6001600160a01b0316826001600160a01b03161415610f165760405162461bcd60e51b81526004016107be90612390565b8060056000610f23611186565b6001600160a01b03908116825260208083019390935260409182016000908120918716808252919093529120805460ff191692151592909217909155610f67611186565b6001600160a01b03167f17307eab39ab6107e8899845ad3d59bd9653f200f220920489ca2b5937696c3183604051610f9f9190612274565b60405180910390a35050565b600f6020528260005260406000206020528160005260406000208181548110610fd357600080fd5b906000526020600020906008918282040191900660040292509250509054906101000a900463ffffffff1681565b565b600a5460ff16151560011461102a5760405162461bcd60e51b81526004016107be9061272e565b3360009081526010602052604090205460ff1661104657600080fd5b6000918252600e602052604090912060020180546001600160a01b0319166001600160a01b03909216919091179055565b611088611082611186565b83611203565b6110a45760405162461bcd60e51b81526004016107be906126a6565b6110b0848484846115cc565b50505050565b600a5460ff1615156001146110dd5760405162461bcd60e51b81526004016107be9061272e565b3360009081526010602052604090205460ff166110f957600080fd5b506000908152600e6020526040902060020180546001600160a01b0319169055565b6000818152600e6020526040902054606090640100000000900463ffffffff16611144816115ff565b9392505050565b6001600160a01b03918216600090815260056020908152604080832093909416825291909152205460ff1690565b6000610a5c600183611740565b3390565b600081815260046020526040902080546001600160a01b0319166001600160a01b03841690811790915581906111bf82610c23565b6001600160a01b03167f8c5be1e5ebec7d5bd14f71427d1e84f3dd0314c0f7b2291e5b200ac8c7c3b92560405160405180910390a45050565b6000610a5c8261174c565b600061120e82611179565b61122a5760405162461bcd60e51b81526004016107be9061240d565b600061123583610c23565b9050806001600160a01b0316846001600160a01b031614806112705750836001600160a01b031661126584610797565b6001600160a01b0316145b806112805750611280818561114b565b949350505050565b826001600160a01b031661129b82610c23565b6001600160a01b0316146112c15760405162461bcd60e51b81526004016107be906125cd565b6001600160a01b0382166112e75760405162461bcd60e51b81526004016107be9061234c565b6112f2838383610876565b6112fd60008261118a565b6001600160a01b038316600090815260208190526040902061131f9082611757565b506001600160a01b03821660009081526020819052604090206113429082611763565b5061134f6001828461176f565b5080826001600160a01b0316846001600160a01b03167fddf252ad1be2c89b69c2b068fc378daa952ba7f163c4a11628f55a4df523b3ef60405160405180910390a4505050565b600a805460ff19166001179055565b6000610a598383611785565b806001600160a01b03166352d1902d6040518163ffffffff1660e01b815260040160206040518083038186803b1580156113ea57600080fd5b505afa1580156113fe573d6000803e3d6000fd5b505050506040513d601f19601f820116820180604052508101906114229190611fcf565b7fc5f16f0fcc639fa48a6947836d9850f504798523bf8c9a3a87d5876cf622bcf7146114605760405162461bcd60e51b81526004016107be9061229b565b7fc5f16f0fcc639fa48a6947836d9850f504798523bf8c9a3a87d5876cf622bcf755565b600080808061149386866117bd565b9097909650945050505050565b6000610a598284612823565b6001600160a01b0382166114d25760405162461bcd60e51b81526004016107be90612500565b6114db81611179565b156114f85760405162461bcd60e51b81526004016107be90612315565b61150460008383610876565b6001600160a01b03821660009081526020819052604090206115269082611763565b506115336001828461176f565b5060405181906001600160a01b038416906000907fddf252ad1be2c89b69c2b068fc378daa952ba7f163c4a11628f55a4df523b3ef908290a45050565b61157982611179565b6115955760405162461bcd60e51b81526004016107be90612581565b6000828152600860209081526040909120825161087692840190611cf0565b60006112808484846117e8565b6000610a5c82611834565b6115d7848484611288565b6115e384848484611838565b6110b05760405162461bcd60e51b81526004016107be906122c3565b606061160a82611179565b6116265760405162461bcd60e51b81526004016107be90612616565b6000828152600860205260408120805461163f906128ba565b80601f016020809104026020016040519081016040528092919081815260200182805461166b906128ba565b80156116b85780601f1061168d576101008083540402835291602001916116b8565b820191906000526020600020905b81548152906001019060200180831161169b57829003601f168201915b50505050509050600980546116cc906128ba565b151590506116db579050610700565b80511561170d576009816040516020016116f692919061217d565b604051602081830303815290604052915050610700565b600961171884611917565b60405160200161172992919061217d565b604051602081830303815290604052915050919050565b6000610a598383611a32565b6000610a5c826115c1565b6000610a598383611a3e565b6000610a598383611b5b565b600061128084846001600160a01b038516611ba5565b60008260000182815481106117aa57634e487b7160e01b600052603260045260246000fd5b9060005260206000200154905092915050565b600080806117cb85856113a5565b600081815260029690960160205260409095205494959350505050565b60008281526002840160205260408120548015158061180c575061180c8585611a32565b839061182b5760405162461bcd60e51b81526004016107be9190612288565b50949350505050565b5490565b600061184c846001600160a01b0316611bc2565b61185857506001611280565b60006118e0630a85bd0160e11b61186d611186565b8887876040516024016118839493929190612237565b604051602081830303815290604052906001600160e01b0319166020820180516001600160e01b03838183161783525050505060405180606001604052806032815260200161297d603291396001600160a01b0388169190611bc8565b90506000818060200190518101906118f89190612003565b6001600160e01b031916630a85bd0160e11b1492505050949350505050565b60608161193c57506040805180820190915260018152600360fc1b6020820152610700565b8160005b81156119665780611950816128f5565b915061195f9050600a83612863565b9150611940565b60008167ffffffffffffffff81111561198f57634e487b7160e01b600052604160045260246000fd5b6040519080825280601f01601f1916602001820160405280156119b9576020820181803683370190505b5090505b8415611280576119ce600183612877565b91506119db600a86612910565b6119e6906030612823565b60f81b818381518110611a0957634e487b7160e01b600052603260045260246000fd5b60200101906001600160f81b031916908160001a905350611a2b600a86612863565b94506119bd565b6000610a598383611bd7565b60008181526001830160205260408120548015611b51576000611a62600183612877565b8554909150600090611a7690600190612877565b9050818114611af7576000866000018281548110611aa457634e487b7160e01b600052603260045260246000fd5b9060005260206000200154905080876000018481548110611ad557634e487b7160e01b600052603260045260246000fd5b6000918252602080832090910192909255918252600188019052604090208390555b8554869080611b1657634e487b7160e01b600052603160045260246000fd5b600190038181906000526020600020016000905590558560010160008681526020019081526020016000206000905560019350505050610a5c565b6000915050610a5c565b6000611b678383611bdf565b611b9d57508154600181810184556000848152602080822090930184905584548482528286019093526040902091909155610a5c565b506000610a5c565b600082815260028401602052604081208290556112808484611763565b3b151590565b60606112808484600085611bf7565b6000610a5983835b60009081526001919091016020526040902054151590565b606082471015611c195760405162461bcd60e51b81526004016107be906123c7565b611c2285611bc2565b611c3e5760405162461bcd60e51b81526004016107be906126f7565b600080866001600160a01b03168587604051611c5a9190612161565b60006040518083038185875af1925050503d8060008114611c97576040519150601f19603f3d011682016040523d82523d6000602084013e611c9c565b606091505b5091509150611cac828286611cb7565b979650505050505050565b60608315611cc6575081611144565b825115611cd65782518084602001fd5b8160405162461bcd60e51b81526004016107be9190612288565b828054611cfc906128ba565b90600052602060002090601f016020900481019282611d1e5760008555611d64565b82601f10611d3757805160ff1916838001178555611d64565b82800160010185558215611d64579182015b82811115611d64578251825591602001919060010190611d49565b50611d70929150611d74565b5090565b5b80821115611d705760008155600101611d75565b600067ffffffffffffffff80841115611da457611da4612950565b604051601f8501601f191681016020018281118282101715611dc857611dc8612950565b604052848152915081838501861015611de057600080fd5b8484602083013760006020868301015250509392505050565b80356001600160a01b038116811461070057600080fd5b600082601f830112611e20578081fd5b610a5983833560208501611d89565b803563ffffffff8116811461070057600080fd5b600060208284031215611e54578081fd5b610a5982611df9565b60008060408385031215611e6f578081fd5b611e7883611df9565b9150611e8660208401611df9565b90509250929050565b600080600060608486031215611ea3578081fd5b611eac84611df9565b9250611eba60208501611df9565b9150604084013590509250925092565b60008060008060808587031215611edf578081fd5b611ee885611df9565b9350611ef660208601611df9565b925060408501359150606085013567ffffffffffffffff811115611f18578182fd5b8501601f81018713611f28578182fd5b611f3787823560208401611d89565b91505092959194509250565b60008060408385031215611f55578182fd5b611f5e83611df9565b915060208301358015158114611f72578182fd5b809150509250929050565b60008060408385031215611f8f578182fd5b611f9883611df9565b946020939093013593505050565b60008060408385031215611fb8578182fd5b611fc183611df9565b9150611e8660208401611e2f565b600060208284031215611fe0578081fd5b5051919050565b600060208284031215611ff8578081fd5b813561114481612966565b600060208284031215612014578081fd5b815161114481612966565b60008060408385031215612031578182fd5b823567ffffffffffffffff80821115612048578384fd5b61205486838701611e10565b93506020850135915080821115612069578283fd5b5061207685828601611e10565b9150509250929050565b600060208284031215612091578081fd5b5035919050565b600080604083850312156120aa578182fd5b82359150611e8660208401611df9565b600080604083850312156120cc578182fd5b82359150602083013567ffffffffffffffff8111156120e9578182fd5b61207685828601611e10565b600080600060608486031215612109578081fd5b83359250611eba60208501611e2f565b6000815180845261213181602086016020860161288e565b601f01601f19169290920160200192915050565b6000815161215781856020860161288e565b9290920192915050565b6000825161217381846020870161288e565b9190910192915050565b825460009081906002810460018083168061219957607f831692505b60208084108214156121b957634e487b7160e01b87526022600452602487fd5b8180156121cd57600181146121de5761220a565b60ff1986168952848901965061220a565b6121e78b612817565b885b868110156122025781548b8201529085019083016121e9565b505084890196505b50505050505061221a8185612145565b95945050505050565b6001600160a01b0391909116815260200190565b6001600160a01b038581168252841660208201526040810183905260806060820181905260009061226a90830184612119565b9695505050505050565b901515815260200190565b90815260200190565b600060208252610a596020830184612119565b6020808252600e908201526d4e6f7420636f6d70617469626c6560901b604082015260600190565b60208082526032908201527f4552433732313a207472616e7366657220746f206e6f6e20455243373231526560408201527131b2b4bb32b91034b6b83632b6b2b73a32b960711b606082015260800190565b6020808252601c908201527f4552433732313a20746f6b656e20616c7265616479206d696e74656400000000604082015260600190565b60208082526024908201527f4552433732313a207472616e7366657220746f20746865207a65726f206164646040820152637265737360e01b606082015260800190565b60208082526019908201527f4552433732313a20617070726f766520746f2063616c6c657200000000000000604082015260600190565b60208082526026908201527f416464726573733a20696e73756666696369656e742062616c616e636520666f6040820152651c8818d85b1b60d21b606082015260800190565b6020808252602c908201527f4552433732313a206f70657261746f7220717565727920666f72206e6f6e657860408201526b34b9ba32b73a103a37b5b2b760a11b606082015260800190565b60208082526038908201527f4552433732313a20617070726f76652063616c6c6572206973206e6f74206f7760408201527f6e6572206e6f7220617070726f76656420666f7220616c6c0000000000000000606082015260800190565b6020808252602a908201527f4552433732313a2062616c616e636520717565727920666f7220746865207a65604082015269726f206164647265737360b01b606082015260800190565b6020808252818101527f4552433732313a206d696e7420746f20746865207a65726f2061646472657373604082015260600190565b6020808252602c908201527f4552433732313a20617070726f76656420717565727920666f72206e6f6e657860408201526b34b9ba32b73a103a37b5b2b760a11b606082015260800190565b6020808252602c908201527f4552433732314d657461646174613a2055524920736574206f66206e6f6e657860408201526b34b9ba32b73a103a37b5b2b760a11b606082015260800190565b60208082526029908201527f4552433732313a207472616e73666572206f6620746f6b656e2074686174206960408201526839903737ba1037bbb760b91b606082015260800190565b6020808252602f908201527f4552433732314d657461646174613a2055524920717565727920666f72206e6f60408201526e3732bc34b9ba32b73a103a37b5b2b760891b606082015260800190565b60208082526021908201527f4552433732313a20617070726f76616c20746f2063757272656e74206f776e656040820152603960f91b606082015260800190565b60208082526031908201527f4552433732313a207472616e736665722063616c6c6572206973206e6f74206f6040820152701ddb995c881b9bdc88185c1c1c9bdd9959607a1b606082015260800190565b6020808252601d908201527f416464726573733a2063616c6c20746f206e6f6e2d636f6e7472616374000000604082015260600190565b60208082526032908201527f546865206c696272617279206973206c6f636b65642e204e6f206469726563746040820152710809d8d85b1b09c81a5cc8185b1b1bddd95960721b606082015260800190565b63ffffffff91909116815260200190565b600063ffffffff851682528360208301526060604083015261221a6060830184612119565b63ffffffff9a8b168152988a1660208a015296891660408901526001600160a01b03959095166060880152608087019390935260a0860191909152851660c0850152841660e084015283166101008301529091166101208201526101400190565b60009081526020902090565b6000821982111561283657612836612924565b500190565b600063ffffffff80831681851680830382111561285a5761285a612924565b01949350505050565b6000826128725761287261293a565b500490565b60008282101561288957612889612924565b500390565b60005b838110156128a9578181015183820152602001612891565b838111156110b05750506000910152565b6002810460018216806128ce57607f821691505b602082108114156128ef57634e487b7160e01b600052602260045260246000fd5b50919050565b600060001982141561290957612909612924565b5060010190565b60008261291f5761291f61293a565b500690565b634e487b7160e01b600052601160045260246000fd5b634e487b7160e01b600052601260045260246000fd5b634e487b7160e01b600052604160045260246000fd5b6001600160e01b031981168114610a3457600080fdfe4552433732313a207472616e7366657220746f206e6f6e20455243373231526563656976657220696d706c656d656e7465724552433732313a206f776e657220717565727920666f72206e6f6e6578697374656e7420746f6b656ea26469706673582212207bd73b2b9c8c5b154d2ff0545ab3c1f034025f6868e1c2d06f2b4d2b00f8245564736f6c63430008000033",
  "immutableReferences": {},
  "source": "pragma solidity ^0.8.0;\r\n\r\nimport \"./BEP721.sol\";\r\n\r\ncontract Proxiable {\r\n    // Code position in storage is keccak256(\"PROXIABLE\") = \"0xc5f16f0fcc639fa48a6947836d9850f504798523bf8c9a3a87d5876cf622bcf7\"\r\n\r\n    function updateCodeAddress(address newAddress) internal {\r\n        require(\r\n            bytes32(0xc5f16f0fcc639fa48a6947836d9850f504798523bf8c9a3a87d5876cf622bcf7) == Proxiable(newAddress).proxiableUUID(),\r\n            \"Not compatible\"\r\n        );\r\n        assembly { // solium-disable-line\r\n            sstore(0xc5f16f0fcc639fa48a6947836d9850f504798523bf8c9a3a87d5876cf622bcf7, newAddress)\r\n        }\r\n    }\r\n    function proxiableUUID() public pure returns (bytes32) {\r\n        return 0xc5f16f0fcc639fa48a6947836d9850f504798523bf8c9a3a87d5876cf622bcf7;\r\n    }\r\n}\r\n\r\ncontract LibraryLockDataLayout {\r\n  bool public initialized = false;\r\n}\r\n\r\ncontract LibraryLock is LibraryLockDataLayout {\r\n    // Ensures no one can manipulate the Logic Contract once it is deployed.\r\n    // PARITY WALLET HACK PREVENTION\r\n\r\n    modifier delegatedOnly() {\r\n        require(initialized == true, \"The library is locked. No direct 'call' is allowed\");\r\n        _;\r\n    }\r\n    function initialize() internal {\r\n        initialized = true;\r\n    }\r\n}\r\n\r\ncontract DataLayout is LibraryLock {\r\n    address public owner;\r\n    address public versusToken;\r\n    address public monsterList;\r\n    uint256 _tokenIds;\r\n    \r\n    struct details {\r\n        uint32 monsterID;\r\n        uint32 NFTLevel;\r\n        uint32 totalWins;\r\n        uint32[] stats;\r\n        address equippedTo;\r\n        uint256 blockChecked;\r\n        uint256 versusStaked;\r\n        uint32 move1;\r\n        uint32 move2;\r\n        uint32 move3;\r\n        uint32 move4;\r\n    }\r\n    mapping(uint256 => details) public NFTDetails;\r\n    mapping(uint256 => mapping(uint32 => uint32[])) public NFTStatsHistory;\r\n    mapping(address => bool) whitelistedContracts; \r\n} \r\n\r\ncontract VersusNFT is BEP721, DataLayout, Proxiable {\r\n    using SafeMath for uint256;\r\n    \r\n    modifier onlyOwner() {\r\n        require(msg.sender == owner);\r\n        _;\r\n    }\r\n\r\n    // constructor() public {\r\n        \r\n    // }\r\n\r\n    function NFTConstructor(address _versusToken) public payable {\r\n        require(!initialized);\r\n        owner = msg.sender;\r\n        versusToken = _versusToken;\r\n        constructor1(\"Versus.cx Creature\", \"VMON\");\r\n        initialize();\r\n    }\r\n\r\n    function setVersusToken(address _versusToken) public onlyOwner delegatedOnly {\r\n        versusToken = _versusToken;\r\n    }\r\n\r\n    function setMonsterList(address _monsterList) public onlyOwner delegatedOnly {\r\n        monsterList = _monsterList;\r\n    }\r\n\r\n    function updateCode(address newCode) public onlyOwner delegatedOnly  {\r\n        updateCodeAddress(newCode);\r\n    }\r\n\r\n    function setOwner(address _owner) public onlyOwner delegatedOnly {\r\n        owner = _owner;\r\n    }\r\n\r\n    function whiteListContract(address _contract, bool _direction) public onlyOwner {\r\n        whitelistedContracts[_contract] = _direction;\r\n    }\r\n\r\n    function tokenURI(uint256 tokenId) public view override returns (string memory) {\r\n        //use tokenId to determine NFT level\r\n        uint256 tokenLevel = NFTDetails[tokenId].NFTLevel;\r\n        return super.tokenURI(tokenLevel);\r\n    }\r\n\r\n    function setLevelURI(uint256 level, string memory _tokenURI) public {\r\n        require(msg.sender == owner);\r\n        _setTokenURI(level, _tokenURI);\r\n    }\r\n    \r\n    /** @notice Creates a new Versus NFT.\r\n      * @param _claimer Address of the claiming user.\r\n      * @param _monsterID Name of the NFT tier.\r\n      */\r\n    function createNFT(address _claimer, uint32 _monsterID) public delegatedOnly returns(uint256) {\r\n        require(whitelistedContracts[msg.sender]);\r\n        uint256 newItemId = _tokenIds.add(1);\r\n        _tokenIds = _tokenIds.add(1);\r\n        _mint(_claimer, newItemId);\r\n        NFTDetails[newItemId].monsterID = _monsterID;\r\n        // NFTDetails[newItemId].stats = //get base stats from monsterList\r\n        // MonsterList(monsterList).getStatRanges(_monsterID);\r\n        \r\n        return newItemId;\r\n    }\r\n\r\n    \r\n    function getNFTDetails(uint256 id) public view delegatedOnly returns(uint32, uint256, string memory) {\r\n        return(NFTDetails[id].NFTLevel,\r\n               NFTDetails[id].versusStaked,\r\n               tokenURI(id));\r\n    }\r\n\r\n    function equipMonster(uint256 id, address _owner) public delegatedOnly {\r\n        //only whitelisted contracts\r\n        require(whitelistedContracts[msg.sender]);\r\n        //check that owner owns NFT with that id\r\n        //set to owner\r\n        NFTDetails[id].equippedTo =  _owner;\r\n    }\r\n\r\n    function unEquipMonster(uint256 id, address _owner) public delegatedOnly {\r\n        //only whitelisted contracts\r\n        require(whitelistedContracts[msg.sender]);\r\n        //check that owner owns NFT with that id\r\n        //set to owner\r\n        NFTDetails[id].equippedTo =  address(0);\r\n    }\r\n\r\n    function growMonster(uint256 id) public delegatedOnly {\r\n        //only whitelisted contracts\r\n        require(whitelistedContracts[msg.sender]);\r\n        //increase monster level wins\r\n        NFTDetails[id].totalWins = NFTDetails[id].totalWins + 1;\r\n        //check if monster's wins meet or exceed requirements to level up\r\n        //if so, increase each monster stat with random number generator\r\n        \r\n    }\r\n\r\n    //stake\r\n    function stakeNFT() public {\r\n\r\n    }\r\n\r\n    //unstake\r\n    function unstakeNFT() public {\r\n\r\n    }\r\n    \r\n    //super transfer(unstake on transfer)\r\n    \r\n    \r\n}\r\n\r\ninterface MonsterList {\r\n    function getStatRanges(uint32 index) external returns(uint[] memory);\r\n} ",
  "sourcePath": "C:/Users/razgriz/Documents/GitHub/Versus/contracts/contracts/VersusNFT.sol",
  "compiler": {
    "name": "solc",
    "version": "0.8.0+commit.c7dfd78e.Emscripten.clang"
  },
  "schemaVersion": "3.3.3",
  "updatedAt": "2021-09-01T22:53:22.045Z",
  "networkType": "ethereum",
  "devdoc": {
    "kind": "dev",
    "methods": {
      "approve(address,uint256)": {
        "details": "See {IERC721-approve}."
      },
      "balanceOf(address)": {
        "details": "See {IERC721-balanceOf}."
      },
      "baseURI()": {
        "details": "Returns the base URI set via {_setBaseURI}. This will be automatically added as a prefix in {tokenURI} to each token's URI, or to the token ID if no specific URI is set for that token ID."
      },
      "constructor1(string,string)": {
        "details": "Initializes the proxy contract by setting a `name` and a `symbol` to the token collection."
      },
      "createNFT(address,uint32)": {
        "params": {
          "_claimer": "Address of the claiming user.",
          "_monsterID": "Name of the NFT tier."
        }
      },
      "getApproved(uint256)": {
        "details": "See {IERC721-getApproved}."
      },
      "isApprovedForAll(address,address)": {
        "details": "See {IERC721-isApprovedForAll}."
      },
      "name()": {
        "details": "See {IERC721Metadata-name}."
      },
      "ownerOf(uint256)": {
        "details": "See {IERC721-ownerOf}."
      },
      "safeTransferFrom(address,address,uint256)": {
        "details": "See {IERC721-safeTransferFrom}."
      },
      "safeTransferFrom(address,address,uint256,bytes)": {
        "details": "See {IERC721-safeTransferFrom}."
      },
      "setApprovalForAll(address,bool)": {
        "details": "See {IERC721-setApprovalForAll}."
      },
      "supportsInterface(bytes4)": {
        "details": "See {IERC165-supportsInterface}."
      },
      "symbol()": {
        "details": "See {IERC721Metadata-symbol}."
      },
      "tokenByIndex(uint256)": {
        "details": "See {IERC721Enumerable-tokenByIndex}."
      },
      "tokenOfOwnerByIndex(address,uint256)": {
        "details": "See {IERC721Enumerable-tokenOfOwnerByIndex}."
      },
      "tokenURI(uint256)": {
        "details": "See {IERC721Metadata-tokenURI}."
      },
      "totalSupply()": {
        "details": "See {IERC721Enumerable-totalSupply}."
      },
      "transferFrom(address,address,uint256)": {
        "details": "See {IERC721-transferFrom}."
      }
    },
    "version": 1
  },
  "userdoc": {
    "kind": "user",
    "methods": {
      "createNFT(address,uint32)": {
        "notice": "Creates a new Versus NFT."
      }
    },
    "version": 1
  }
}