{
  "contractName": "Versus",
  "abi": [
    {
      "inputs": [],
      "stateMutability": "nonpayable",
      "type": "constructor"
    },
    {
      "anonymous": false,
      "inputs": [
        {
          "indexed": true,
          "internalType": "address",
          "name": "owner",
          "type": "address"
        },
        {
          "indexed": true,
          "internalType": "address",
          "name": "spender",
          "type": "address"
        },
        {
          "indexed": false,
          "internalType": "uint256",
          "name": "value",
          "type": "uint256"
        }
      ],
      "name": "Approval",
      "type": "event"
    },
    {
      "anonymous": false,
      "inputs": [
        {
          "indexed": true,
          "internalType": "address",
          "name": "previousOwner",
          "type": "address"
        },
        {
          "indexed": true,
          "internalType": "address",
          "name": "newOwner",
          "type": "address"
        }
      ],
      "name": "OwnershipTransferred",
      "type": "event"
    },
    {
      "anonymous": false,
      "inputs": [
        {
          "indexed": true,
          "internalType": "address",
          "name": "from",
          "type": "address"
        },
        {
          "indexed": true,
          "internalType": "address",
          "name": "to",
          "type": "address"
        },
        {
          "indexed": false,
          "internalType": "uint256",
          "name": "value",
          "type": "uint256"
        }
      ],
      "name": "Transfer",
      "type": "event"
    },
    {
      "inputs": [],
      "name": "NFTContract",
      "outputs": [
        {
          "internalType": "address",
          "name": "",
          "type": "address"
        }
      ],
      "stateMutability": "view",
      "type": "function"
    },
    {
      "inputs": [
        {
          "internalType": "address",
          "name": "_owner",
          "type": "address"
        },
        {
          "internalType": "address",
          "name": "spender",
          "type": "address"
        }
      ],
      "name": "allowance",
      "outputs": [
        {
          "internalType": "uint256",
          "name": "",
          "type": "uint256"
        }
      ],
      "stateMutability": "view",
      "type": "function"
    },
    {
      "inputs": [
        {
          "internalType": "address",
          "name": "spender",
          "type": "address"
        },
        {
          "internalType": "uint256",
          "name": "amount",
          "type": "uint256"
        }
      ],
      "name": "approve",
      "outputs": [
        {
          "internalType": "bool",
          "name": "",
          "type": "bool"
        }
      ],
      "stateMutability": "nonpayable",
      "type": "function"
    },
    {
      "inputs": [
        {
          "internalType": "address",
          "name": "account",
          "type": "address"
        }
      ],
      "name": "balanceOf",
      "outputs": [
        {
          "internalType": "uint256",
          "name": "",
          "type": "uint256"
        }
      ],
      "stateMutability": "view",
      "type": "function"
    },
    {
      "inputs": [],
      "name": "decimals",
      "outputs": [
        {
          "internalType": "uint8",
          "name": "",
          "type": "uint8"
        }
      ],
      "stateMutability": "view",
      "type": "function"
    },
    {
      "inputs": [
        {
          "internalType": "address",
          "name": "spender",
          "type": "address"
        },
        {
          "internalType": "uint256",
          "name": "subtractedValue",
          "type": "uint256"
        }
      ],
      "name": "decreaseAllowance",
      "outputs": [
        {
          "internalType": "bool",
          "name": "",
          "type": "bool"
        }
      ],
      "stateMutability": "nonpayable",
      "type": "function"
    },
    {
      "inputs": [],
      "name": "freeBNBReturned",
      "outputs": [
        {
          "internalType": "uint256",
          "name": "",
          "type": "uint256"
        }
      ],
      "stateMutability": "view",
      "type": "function"
    },
    {
      "inputs": [],
      "name": "getOwner",
      "outputs": [
        {
          "internalType": "address",
          "name": "",
          "type": "address"
        }
      ],
      "stateMutability": "view",
      "type": "function"
    },
    {
      "inputs": [
        {
          "internalType": "address",
          "name": "spender",
          "type": "address"
        },
        {
          "internalType": "uint256",
          "name": "addedValue",
          "type": "uint256"
        }
      ],
      "name": "increaseAllowance",
      "outputs": [
        {
          "internalType": "bool",
          "name": "",
          "type": "bool"
        }
      ],
      "stateMutability": "nonpayable",
      "type": "function"
    },
    {
      "inputs": [],
      "name": "initialized",
      "outputs": [
        {
          "internalType": "bool",
          "name": "",
          "type": "bool"
        }
      ],
      "stateMutability": "view",
      "type": "function"
    },
    {
      "inputs": [
        {
          "internalType": "uint256",
          "name": "",
          "type": "uint256"
        }
      ],
      "name": "levelStreakRequirements",
      "outputs": [
        {
          "internalType": "uint32",
          "name": "",
          "type": "uint32"
        }
      ],
      "stateMutability": "view",
      "type": "function"
    },
    {
      "inputs": [],
      "name": "name",
      "outputs": [
        {
          "internalType": "string",
          "name": "",
          "type": "string"
        }
      ],
      "stateMutability": "view",
      "type": "function"
    },
    {
      "inputs": [],
      "name": "owner",
      "outputs": [
        {
          "internalType": "address",
          "name": "",
          "type": "address"
        }
      ],
      "stateMutability": "view",
      "type": "function"
    },
    {
      "inputs": [],
      "name": "predictionFees",
      "outputs": [
        {
          "internalType": "uint256",
          "name": "",
          "type": "uint256"
        }
      ],
      "stateMutability": "view",
      "type": "function"
    },
    {
      "inputs": [],
      "name": "proxiableUUID",
      "outputs": [
        {
          "internalType": "bytes32",
          "name": "",
          "type": "bytes32"
        }
      ],
      "stateMutability": "pure",
      "type": "function"
    },
    {
      "inputs": [],
      "name": "renounceOwnership",
      "outputs": [],
      "stateMutability": "nonpayable",
      "type": "function"
    },
    {
      "inputs": [],
      "name": "statsTracker",
      "outputs": [
        {
          "internalType": "address",
          "name": "",
          "type": "address"
        }
      ],
      "stateMutability": "view",
      "type": "function"
    },
    {
      "inputs": [],
      "name": "symbol",
      "outputs": [
        {
          "internalType": "string",
          "name": "",
          "type": "string"
        }
      ],
      "stateMutability": "view",
      "type": "function"
    },
    {
      "inputs": [],
      "name": "tokenStorage",
      "outputs": [
        {
          "internalType": "address",
          "name": "",
          "type": "address"
        }
      ],
      "stateMutability": "view",
      "type": "function"
    },
    {
      "inputs": [],
      "name": "totalBNB",
      "outputs": [
        {
          "internalType": "uint256",
          "name": "",
          "type": "uint256"
        }
      ],
      "stateMutability": "view",
      "type": "function"
    },
    {
      "inputs": [],
      "name": "totalSupply",
      "outputs": [
        {
          "internalType": "uint256",
          "name": "",
          "type": "uint256"
        }
      ],
      "stateMutability": "view",
      "type": "function"
    },
    {
      "inputs": [
        {
          "internalType": "address",
          "name": "sender",
          "type": "address"
        },
        {
          "internalType": "address",
          "name": "recipient",
          "type": "address"
        },
        {
          "internalType": "uint256",
          "name": "amount",
          "type": "uint256"
        }
      ],
      "name": "transferFrom",
      "outputs": [
        {
          "internalType": "bool",
          "name": "",
          "type": "bool"
        }
      ],
      "stateMutability": "nonpayable",
      "type": "function"
    },
    {
      "inputs": [
        {
          "internalType": "address",
          "name": "newOwner",
          "type": "address"
        }
      ],
      "name": "transferOwnership",
      "outputs": [],
      "stateMutability": "nonpayable",
      "type": "function"
    },
    {
      "inputs": [],
      "name": "uniswapV2Router",
      "outputs": [
        {
          "internalType": "contract IUniswapV2Router02",
          "name": "",
          "type": "address"
        }
      ],
      "stateMutability": "view",
      "type": "function"
    },
    {
      "inputs": [
        {
          "internalType": "address",
          "name": "",
          "type": "address"
        }
      ],
      "name": "userData",
      "outputs": [
        {
          "internalType": "uint256",
          "name": "timeChecked",
          "type": "uint256"
        },
        {
          "internalType": "uint128",
          "name": "wins",
          "type": "uint128"
        },
        {
          "internalType": "bool",
          "name": "usingFreePrediction",
          "type": "bool"
        },
        {
          "internalType": "uint256",
          "name": "totalVolume",
          "type": "uint256"
        },
        {
          "internalType": "uint32",
          "name": "currentLevel",
          "type": "uint32"
        },
        {
          "internalType": "uint256",
          "name": "NFTID",
          "type": "uint256"
        },
        {
          "internalType": "bool",
          "name": "hasClaimedStarter",
          "type": "bool"
        }
      ],
      "stateMutability": "view",
      "type": "function"
    },
    {
      "inputs": [],
      "name": "wBNB",
      "outputs": [
        {
          "internalType": "address",
          "name": "",
          "type": "address"
        }
      ],
      "stateMutability": "view",
      "type": "function"
    },
    {
      "stateMutability": "payable",
      "type": "receive"
    },
    {
      "inputs": [
        {
          "internalType": "address",
          "name": "statsTracker",
          "type": "address"
        }
      ],
      "name": "versusConstructor",
      "outputs": [],
      "stateMutability": "nonpayable",
      "type": "function"
    },
    {
      "inputs": [
        {
          "internalType": "address",
          "name": "_contract",
          "type": "address"
        }
      ],
      "name": "setNFTContract",
      "outputs": [],
      "stateMutability": "nonpayable",
      "type": "function"
    },
    {
      "inputs": [
        {
          "internalType": "address",
          "name": "_contract",
          "type": "address"
        }
      ],
      "name": "setStatsTracker",
      "outputs": [],
      "stateMutability": "nonpayable",
      "type": "function"
    },
    {
      "inputs": [
        {
          "internalType": "uint256",
          "name": "fee",
          "type": "uint256"
        }
      ],
      "name": "setFeePerc",
      "outputs": [],
      "stateMutability": "nonpayable",
      "type": "function"
    },
    {
      "inputs": [
        {
          "internalType": "address",
          "name": "newCode",
          "type": "address"
        }
      ],
      "name": "updateCode",
      "outputs": [],
      "stateMutability": "nonpayable",
      "type": "function"
    },
    {
      "inputs": [
        {
          "internalType": "address",
          "name": "recipient",
          "type": "address"
        },
        {
          "internalType": "uint256",
          "name": "amount",
          "type": "uint256"
        }
      ],
      "name": "transfer",
      "outputs": [
        {
          "internalType": "bool",
          "name": "",
          "type": "bool"
        }
      ],
      "stateMutability": "nonpayable",
      "type": "function"
    },
    {
      "inputs": [
        {
          "internalType": "address",
          "name": "user",
          "type": "address"
        }
      ],
      "name": "hasFreePrediction",
      "outputs": [
        {
          "internalType": "uint256",
          "name": "",
          "type": "uint256"
        }
      ],
      "stateMutability": "nonpayable",
      "type": "function"
    },
    {
      "inputs": [
        {
          "internalType": "address",
          "name": "user",
          "type": "address"
        }
      ],
      "name": "returnFreeBNB",
      "outputs": [],
      "stateMutability": "payable",
      "type": "function"
    },
    {
      "inputs": [],
      "name": "returnPredictionFees",
      "outputs": [],
      "stateMutability": "payable",
      "type": "function"
    },
    {
      "inputs": [],
      "name": "useFees",
      "outputs": [],
      "stateMutability": "nonpayable",
      "type": "function"
    },
    {
      "inputs": [
        {
          "internalType": "address",
          "name": "user",
          "type": "address"
        },
        {
          "internalType": "uint256",
          "name": "volume",
          "type": "uint256"
        }
      ],
      "name": "updateStats",
      "outputs": [],
      "stateMutability": "nonpayable",
      "type": "function"
    },
    {
      "inputs": [
        {
          "internalType": "address",
          "name": "_user",
          "type": "address"
        }
      ],
      "name": "updateUserWins",
      "outputs": [],
      "stateMutability": "nonpayable",
      "type": "function"
    },
    {
      "inputs": [
        {
          "internalType": "uint256",
          "name": "starter",
          "type": "uint256"
        }
      ],
      "name": "claimFirstMonster",
      "outputs": [],
      "stateMutability": "nonpayable",
      "type": "function"
    },
    {
      "inputs": [
        {
          "internalType": "uint256",
          "name": "id",
          "type": "uint256"
        }
      ],
      "name": "equipNFT",
      "outputs": [],
      "stateMutability": "nonpayable",
      "type": "function"
    },
    {
      "inputs": [
        {
          "internalType": "uint256",
          "name": "id",
          "type": "uint256"
        }
      ],
      "name": "unequip",
      "outputs": [],
      "stateMutability": "nonpayable",
      "type": "function"
    },
    {
      "inputs": [
        {
          "internalType": "address",
          "name": "_contract",
          "type": "address"
        },
        {
          "internalType": "bool",
          "name": "_direction",
          "type": "bool"
        }
      ],
      "name": "whiteListContract",
      "outputs": [],
      "stateMutability": "nonpayable",
      "type": "function"
    }
  ],
  "bytecode": "0x60806040526006805461ff0019169055600a600b5534801561002057600080fd5b5061003161002c610036565b61003a565b61008a565b3390565b600080546001600160a01b038381166001600160a01b0319831681178455604051919092169283917f8be0079c531659141344cd1fd0a4f28419497f9722a3daafe3b4186f6b6457e09190a35050565b612427806200009a6000396000f3fe6080604052600436106102555760003560e01c80638c00d78611610139578063bf3a104e116100b6578063dd62ed3e1161007a578063dd62ed3e14610678578063e88b311814610698578063f2fde38b146106b8578063f628bf67146106d8578063f7df3a63146106ed578063fe5415a21461070d5761025c565b8063bf3a104e146105db578063c8910913146105f0578063ca3a3f8a14610623578063d02eb3f414610643578063d179e3d0146106585761025c565b8063a9059cbb116100fd578063a9059cbb14610551578063b199efb514610571578063b47dde1e14610586578063b8549a9a146105a6578063bbaa0bd2146105bb5761025c565b80638c00d786146104c75780638da5cb5b146104e757806395d89b41146104fc578063a457c2d714610511578063a7ccabdf146105315761025c565b806331c2273b116101d257806352d1902d1161019657806352d1902d1461044057806363541efb1461045557806370a082311461045d578063715018a61461047d5780637693743f14610492578063893d20e8146104b25761025c565b806331c2273b146103b657806335949a55146103cb57806339509351146103e05780633e6fdd041461040057806346951954146104205761025c565b8063158ef93e11610219578063158ef93e146103285780631694505e1461033d57806318160ddd1461035f57806323b872dd14610374578063313ce567146103945761025c565b8063013831ec1461026157806306fdde031461027657806307ec14f3146102a1578063095ea7b3146102ce5780630f7db712146102fb5761025c565b3661025c57005b600080fd5b61027461026f366004611b9f565b610722565b005b34801561028257600080fd5b5061028b610793565b6040516102989190611d1c565b60405180910390f35b3480156102ad57600080fd5b506102c16102bc366004611b9f565b610825565b6040516102989190611d13565b3480156102da57600080fd5b506102ee6102e9366004611c60565b610918565b6040516102989190611d08565b34801561030757600080fd5b5061031b610316366004611ca1565b610935565b6040516102989190612167565b34801561033457600080fd5b506102ee61096f565b34801561034957600080fd5b5061035261097d565b6040516102989190611cb9565b34801561036b57600080fd5b506102c161098c565b34801561038057600080fd5b506102ee61038f366004611beb565b610992565b3480156103a057600080fd5b506103a9610a19565b6040516102989190612178565b3480156103c257600080fd5b50610352610a22565b3480156103d757600080fd5b506102c1610a31565b3480156103ec57600080fd5b506102ee6103fb366004611c60565b610a37565b34801561040c57600080fd5b5061027461041b366004611c26565b610a85565b34801561042c57600080fd5b5061027461043b366004611b9f565b610aef565b34801561044c57600080fd5b506102c1610b67565b610274610b8b565b34801561046957600080fd5b506102c1610478366004611b9f565b610b9d565b34801561048957600080fd5b50610274610bb8565b34801561049e57600080fd5b506102746104ad366004611b9f565b610c03565b3480156104be57600080fd5b50610352610cfc565b3480156104d357600080fd5b506102746104e2366004611c60565b610d0b565b3480156104f357600080fd5b50610352610dcc565b34801561050857600080fd5b5061028b610ddb565b34801561051d57600080fd5b506102ee61052c366004611c60565b610dea565b34801561053d57600080fd5b5061027461054c366004611b9f565b610e52565b34801561055d57600080fd5b506102ee61056c366004611c60565b610ee0565b34801561057d57600080fd5b50610352610f73565b34801561059257600080fd5b506102746105a1366004611ca1565b610f82565b3480156105b257600080fd5b506102c1610ff3565b3480156105c757600080fd5b506102746105d6366004611b9f565b610ff9565b3480156105e757600080fd5b506102c1611087565b3480156105fc57600080fd5b5061061061060b366004611b9f565b61108d565b6040516102989796959493929190612126565b34801561062f57600080fd5b5061027461063e366004611ca1565b6110de565b34801561064f57600080fd5b506103526111d7565b34801561066457600080fd5b50610274610673366004611ca1565b6111ec565b34801561068457600080fd5b506102c1610693366004611bb9565b611266565b3480156106a457600080fd5b506102746106b3366004611b9f565b611291565b3480156106c457600080fd5b506102746106d3366004611b9f565b61140a565b3480156106e457600080fd5b50610352611478565b3480156106f957600080fd5b50610274610708366004611ca1565b611487565b34801561071957600080fd5b50610274610c01565b3360009081526011602052604090205460ff1661075a5760405162461bcd60e51b815260040161075190611ef9565b60405180910390fd5b6001600160a01b0381166000908152600c60205260409020600101805460ff60801b19169055600f5461078d903461151a565b600f5550565b6060600480546107a29061221f565b80601f01602080910402602001604051908101604052809291908181526020018280546107ce9061221f565b801561081b5780601f106107f05761010080835404028352916020019161081b565b820191906000526020600020905b8154815290600101906020018083116107fe57829003601f168201915b5050505050905090565b3360009081526011602052604081205460ff166108545760405162461bcd60e51b815260040161075190611ef9565b336000908152600c60205260409020544211156108835760405162461bcd60e51b815260040161075190611f94565b336000908152600c6020526040902060010154600160801b900460ff16156108bd5760405162461bcd60e51b815260040161075190611ec2565b60006108c883610b9d565b905060006108d461098c565b600e546108e190846121e9565b6108eb91906121c9565b336000908152600c60205260409020600101805460ff60801b1916600160801b179055925050505b919050565b600061092c61092561152d565b8484611531565b50600192915050565b600d818154811061094557600080fd5b9060005260206000209060089182820401919006600402915054906101000a900463ffffffff1681565b600654610100900460ff1681565b6008546001600160a01b031681565b60035490565b600061099f8484846115e5565b610a0f846109ab61152d565b610a0a856040518060600160405280602881526020016123a5602891396001600160a01b038a166000908152600260205260408120906109e961152d565b6001600160a01b0316815260208101919091526040016000205491906116fa565b611531565b5060019392505050565b60065460ff1690565b6007546001600160a01b031681565b600f5481565b600061092c610a4461152d565b84610a0a8560026000610a5561152d565b6001600160a01b03908116825260208083019390935260409182016000908120918c16815292529020549061151a565b610a8d61152d565b6001600160a01b0316610a9e610dcc565b6001600160a01b031614610ac45760405162461bcd60e51b815260040161075190611f5f565b6001600160a01b03919091166000908152601160205260409020805460ff1916911515919091179055565b610af761152d565b6001600160a01b0316610b08610dcc565b6001600160a01b031614610b2e5760405162461bcd60e51b815260040161075190611f5f565b60065460ff610100909104161515600114610b5b5760405162461bcd60e51b81526004016107519061204d565b610b6481611726565b50565b7fc5f16f0fcc639fa48a6947836d9850f504798523bf8c9a3a87d5876cf622bcf790565b601054610b98903461151a565b601055565b6001600160a01b031660009081526001602052604090205490565b610bc061152d565b6001600160a01b0316610bd1610dcc565b6001600160a01b031614610bf75760405162461bcd60e51b815260040161075190611f5f565b610c0160006117f9565b565b600654610100900460ff1615610c1857600080fd5b6006805462010000600160b01b03191675bb4cdb9cbd36b01bd1cbaebf2de08d9173bc095c00001790556040517310ed43c718714eb63d5aa57b78b54704e256024e90610c6490611ae2565b604051809103906000f080158015610c80573d6000803e3d6000fd5b50600960006101000a8154816001600160a01b0302191690836001600160a01b03160217905550610cf0604051806040016040528060098152602001680accae4e6eae65cc6f60bb1b8152506040518060400160405280600681526020016556657273757360d01b815250611849565b610cf8611882565b5050565b6000610d06610dcc565b905090565b3360009081526011602052604090205460ff16610d2757600080fd5b6001600160a01b0382166000908152600c6020526040902060020154610d4e90600161151a565b6001600160a01b038084166000908152600c60205260409081902060020192909255600a549151637123d17160e11b815291169063e247a2e290610d96908490600401611d13565b600060405180830381600087803b158015610db057600080fd5b505af1158015610dc4573d6000803e3d6000fd5b505050505050565b6000546001600160a01b031690565b6060600580546107a29061221f565b600061092c610df761152d565b84610a0a856040518060600160405280602581526020016123cd6025913960026000610e2161152d565b6001600160a01b03908116825260208083019390935260409182016000908120918d168152925290205491906116fa565b610e5a61152d565b6001600160a01b0316610e6b610dcc565b6001600160a01b031614610e915760405162461bcd60e51b815260040161075190611f5f565b60065460ff610100909104161515600114610ebe5760405162461bcd60e51b81526004016107519061204d565b600780546001600160a01b0319166001600160a01b0392909216919091179055565b600080610f036064610efd600b548661189390919063ffffffff16565b9061189f565b9050610f0e816118ab565b610f2184610f1c8584611a27565b611a33565b610f3d5760405162461bcd60e51b815260040161075190611e62565b336000908152600c6020526040902054610f599061070861151a565b336000908152600c60205260409020555060019392505050565b6009546001600160a01b031681565b610f8a61152d565b6001600160a01b0316610f9b610dcc565b6001600160a01b031614610fc15760405162461bcd60e51b815260040161075190611f5f565b60065460ff610100909104161515600114610fee5760405162461bcd60e51b81526004016107519061204d565b600b55565b60105481565b61100161152d565b6001600160a01b0316611012610dcc565b6001600160a01b0316146110385760405162461bcd60e51b815260040161075190611f5f565b60065460ff6101009091041615156001146110655760405162461bcd60e51b81526004016107519061204d565b600a80546001600160a01b0319166001600160a01b0392909216919091179055565b600e5481565b600c6020526000908152604090208054600182015460028301546003840154600485015460059095015493946001600160801b0384169460ff600160801b90950485169463ffffffff909316921687565b336000908152600c60205260409020600401541561115b576007546040516361d062a360e11b81526001600160a01b039091169063c3a0c54690611128908490339060040161209f565b600060405180830381600087803b15801561114257600080fd5b505af1158015611156573d6000803e3d6000fd5b505050505b600754604051635c38730160e11b81526001600160a01b039091169063b870e6029061118d908490339060040161209f565b600060405180830381600087803b1580156111a757600080fd5b505af11580156111bb573d6000803e3d6000fd5b5050336000908152600c60205260409020600401929092555050565b6006546201000090046001600160a01b031681565b6007546040516361d062a360e11b81526001600160a01b039091169063c3a0c5469061121e908490339060040161209f565b600060405180830381600087803b15801561123857600080fd5b505af115801561124c573d6000803e3d6000fd5b5050336000908152600c6020526040812060040155505050565b6001600160a01b03918216600090815260026020908152604080832093909416825291909152205490565b3360009081526011602052604090205460ff166112ad57600080fd5b6001600160a01b0381166000908152600c602052604090206001908101546112e0916001600160801b0390911690612186565b6001600160a01b038281166000908152600c60205260409081902060010180546fffffffffffffffffffffffffffffffff19166001600160801b039485161790819055600a549151632288d5e960e01b81529190921692632288d5e9926113509286929190911690600401611ccd565b600060405180830381600087803b15801561136a57600080fd5b505af115801561137e573d6000803e3d6000fd5b5050600a546001600160a01b038481166000908152600c60205260409081902060010154905163030e0a3f60e31b815291909216935063187051f892506113d59185916001600160801b0390911690600401611ccd565b600060405180830381600087803b1580156113ef57600080fd5b505af1158015611403573d6000803e3d6000fd5b5050505050565b61141261152d565b6001600160a01b0316611423610dcc565b6001600160a01b0316146114495760405162461bcd60e51b815260040161075190611f5f565b6001600160a01b03811661146f5760405162461bcd60e51b815260040161075190611dda565b610b64816117f9565b600a546001600160a01b031681565b336000908152600c602052604090206005015460ff16156114ba5760405162461bcd60e51b815260040161075190611f28565b80600114806114c95750806002145b806114d45750806003145b6114f05760405162461bcd60e51b815260040161075190611e8b565b6114fa3382611a47565b50336000908152600c60205260409020600501805460ff19166001179055565b600061152682846121b1565b9392505050565b3390565b6001600160a01b0383166115575760405162461bcd60e51b815260040161075190612009565b6001600160a01b03821661157d5760405162461bcd60e51b815260040161075190611e20565b6001600160a01b0380841660008181526002602090815260408083209487168084529490915290819020849055517f8c5be1e5ebec7d5bd14f71427d1e84f3dd0314c0f7b2291e5b200ac8c7c3b925906115d8908590611d13565b60405180910390a3505050565b6001600160a01b03831661160b5760405162461bcd60e51b815260040161075190611fc4565b6001600160a01b0382166116315760405162461bcd60e51b815260040161075190611d6f565b61163c838383611a22565b6116798160405180606001604052806026815260200161237f602691396001600160a01b03861660009081526001602052604090205491906116fa565b6001600160a01b0380851660009081526001602052604080822093909355908416815220546116a8908261151a565b6001600160a01b0380841660008181526001602052604090819020939093559151908516907fddf252ad1be2c89b69c2b068fc378daa952ba7f163c4a11628f55a4df523b3ef906115d8908590611d13565b6000818484111561171e5760405162461bcd60e51b81526004016107519190611d1c565b505050900390565b806001600160a01b03166352d1902d6040518163ffffffff1660e01b815260040160206040518083038186803b15801561175f57600080fd5b505afa158015611773573d6000803e3d6000fd5b505050506040513d601f19601f820116820180604052508101906117979190611c89565b7fc5f16f0fcc639fa48a6947836d9850f504798523bf8c9a3a87d5876cf622bcf7146117d55760405162461bcd60e51b815260040161075190611db2565b7fc5f16f0fcc639fa48a6947836d9850f504798523bf8c9a3a87d5876cf622bcf755565b600080546001600160a01b038381166001600160a01b0319831681178455604051919092169283917f8be0079c531659141344cd1fd0a4f28419497f9722a3daafe3b4186f6b6457e09190a35050565b815161185c906004906020850190611aef565b508051611870906005906020840190611aef565b50506006805460ff1916601217905550565b6006805461ff001916610100179055565b600061152682846121e9565b600061152682846121c9565b6040805160028082526060820183524792600092919060208301908036833701905050905030816000815181106118f257634e487b7160e01b600052603260045260246000fd5b6001600160a01b039283166020918202929092010152600654825162010000909104909116908290600190811061193957634e487b7160e01b600052603260045260246000fd5b6001600160a01b03928316602091820292909201015260085461195f9130911685611531565b600854600954604051635c11d79560e01b81526001600160a01b0392831692635c11d7959261199c928892600092889291169042906004016120b6565b600060405180830381600087803b1580156119b657600080fd5b505af19250505080156119c7575060015b611a01573d8080156119f5576040519150601f19603f3d011682016040523d82523d6000602084013e6119fa565b606091505b5050611a22565b6000611a0d4784611a27565b600e54909150611a1d908261151a565b600e55505b505050565b60006115268284612208565b600061092c611a4061152d565b84846115e5565b600754604051633047255b60e21b81526001600160a01b039091169063c11c956c90611a799085908590600401611cef565b602060405180830381600087803b158015611a9357600080fd5b505af1158015611aa7573d6000803e3d6000fd5b505050506040513d601f19601f82011682018060405250810190611acb9190611c89565b336000908152600c60205260409020600401555050565b61010e8061227183390190565b828054611afb9061221f565b90600052602060002090601f016020900481019282611b1d5760008555611b63565b82601f10611b3657805160ff1916838001178555611b63565b82800160010185558215611b63579182015b82811115611b63578251825591602001919060010190611b48565b50611b6f929150611b73565b5090565b5b80821115611b6f5760008155600101611b74565b80356001600160a01b038116811461091357600080fd5b600060208284031215611bb0578081fd5b61152682611b88565b60008060408385031215611bcb578081fd5b611bd483611b88565b9150611be260208401611b88565b90509250929050565b600080600060608486031215611bff578081fd5b611c0884611b88565b9250611c1660208501611b88565b9150604084013590509250925092565b60008060408385031215611c38578182fd5b611c4183611b88565b915060208301358015158114611c55578182fd5b809150509250929050565b60008060408385031215611c72578182fd5b611c7b83611b88565b946020939093013593505050565b600060208284031215611c9a578081fd5b5051919050565b600060208284031215611cb2578081fd5b5035919050565b6001600160a01b0391909116815260200190565b6001600160a01b039290921682526001600160801b0316602082015260400190565b6001600160a01b03929092168252602082015260400190565b901515815260200190565b90815260200190565b6000602080835283518082850152825b81811015611d4857858101830151858201604001528201611d2c565b81811115611d595783604083870101525b50601f01601f1916929092016040019392505050565b60208082526023908201527f45524332303a207472616e7366657220746f20746865207a65726f206164647260408201526265737360e81b606082015260800190565b6020808252600e908201526d4e6f7420636f6d70617469626c6560901b604082015260600190565b60208082526026908201527f4f776e61626c653a206e6577206f776e657220697320746865207a65726f206160408201526564647265737360d01b606082015260800190565b60208082526022908201527f45524332303a20617070726f766520746f20746865207a65726f206164647265604082015261737360f01b606082015260800190565b6020808252600f908201526e151c985b9cd9995c8819985a5b1959608a1b604082015260600190565b60208082526019908201527f4d7573742063686f6f73652076616c6964207374617274657200000000000000604082015260600190565b6020808252601d908201527f416c7265616479207573696e6720667265652070726564696374696f6e000000604082015260600190565b602080825260159082015274155b985d5d1a1bdc9a5e99590818dbdb9d1c9858dd605a1b604082015260600190565b60208082526017908201527f5374617274657220616c726561647920636c61696d6564000000000000000000604082015260600190565b6020808252818101527f4f776e61626c653a2063616c6c6572206973206e6f7420746865206f776e6572604082015260600190565b602080825260169082015275139bc8199c9959481c1c99591a58dd1a5bdb881e595d60521b604082015260600190565b60208082526025908201527f45524332303a207472616e736665722066726f6d20746865207a65726f206164604082015264647265737360d81b606082015260800190565b60208082526024908201527f45524332303a20617070726f76652066726f6d20746865207a65726f206164646040820152637265737360e01b606082015260800190565b60208082526032908201527f546865206c696272617279206973206c6f636b65642e204e6f206469726563746040820152710809d8d85b1b09c81a5cc8185b1b1bddd95960721b606082015260800190565b9182526001600160a01b0316602082015260400190565b600060a082018783526020878185015260a0604085015281875180845260c0860191508289019350845b818110156121055784516001600160a01b0316835293830193918301916001016120e0565b50506001600160a01b03969096166060850152505050608001529392505050565b9687526001600160801b039590951660208701529215156040860152606085019190915263ffffffff16608084015260a0830152151560c082015260e00190565b63ffffffff91909116815260200190565b60ff91909116815260200190565b60006001600160801b038083168185168083038211156121a8576121a861225a565b01949350505050565b600082198211156121c4576121c461225a565b500190565b6000826121e457634e487b7160e01b81526012600452602481fd5b500490565b60008160001904831182151516156122035761220361225a565b500290565b60008282101561221a5761221a61225a565b500390565b60028104600182168061223357607f821691505b6020821081141561225457634e487b7160e01b600052602260045260246000fd5b50919050565b634e487b7160e01b600052601160045260246000fdfe608060405234801561001057600080fd5b50600080546001600160a01b0319163317905560dd806100316000396000f3fe6080604052348015600f57600080fd5b506004361060285760003560e01c8063df3f6c2514602d575b600080fd5b603c60383660046090565b603e565b005b6000546001600160a01b03163314605457600080fd5b600080546040516001600160a01b039091169183156108fc02918491818181858888f19350505050158015608c573d6000803e3d6000fd5b5050565b60006020828403121560a0578081fd5b503591905056fea2646970667358221220fd7371e5b62584b96f74c1347445ab0a1e8573f88388dc1beb01c9bc148b2e0464736f6c6343000800003345524332303a207472616e7366657220616d6f756e7420657863656564732062616c616e636545524332303a207472616e7366657220616d6f756e74206578636565647320616c6c6f77616e636545524332303a2064656372656173656420616c6c6f77616e63652062656c6f77207a65726fa264697066735822122054870da10b885847d73e8c5708280368ad721c5c2de2218687718164b9720ff664736f6c63430008000033",
  "immutableReferences": {},
  "source": "pragma solidity ^0.8.0;\r\n\r\n// CAUTION\r\n// This version of SafeMath should only be used with Solidity 0.8 or later,\r\n// because it relies on the compiler's built in overflow checks.\r\n\r\n/**\r\n * @dev Wrappers over Solidity's arithmetic operations.\r\n *\r\n * NOTE: `SafeMath` is no longer needed starting with Solidity 0.8. The compiler\r\n * now has built in overflow checking.\r\n */\r\nlibrary SafeMath {\r\n    /**\r\n     * @dev Returns the addition of two unsigned integers, with an overflow flag.\r\n     *\r\n     * _Available since v3.4._\r\n     */\r\n    function tryAdd(uint256 a, uint256 b) internal pure returns (bool, uint256) {\r\n        unchecked {\r\n            uint256 c = a + b;\r\n            if (c < a) return (false, 0);\r\n            return (true, c);\r\n        }\r\n    }\r\n\r\n    /**\r\n     * @dev Returns the substraction of two unsigned integers, with an overflow flag.\r\n     *\r\n     * _Available since v3.4._\r\n     */\r\n    function trySub(uint256 a, uint256 b) internal pure returns (bool, uint256) {\r\n        unchecked {\r\n            if (b > a) return (false, 0);\r\n            return (true, a - b);\r\n        }\r\n    }\r\n\r\n    /**\r\n     * @dev Returns the multiplication of two unsigned integers, with an overflow flag.\r\n     *\r\n     * _Available since v3.4._\r\n     */\r\n    function tryMul(uint256 a, uint256 b) internal pure returns (bool, uint256) {\r\n        unchecked {\r\n            // Gas optimization: this is cheaper than requiring 'a' not being zero, but the\r\n            // benefit is lost if 'b' is also tested.\r\n            // See: https://github.com/OpenZeppelin/openzeppelin-contracts/pull/522\r\n            if (a == 0) return (true, 0);\r\n            uint256 c = a * b;\r\n            if (c / a != b) return (false, 0);\r\n            return (true, c);\r\n        }\r\n    }\r\n\r\n    /**\r\n     * @dev Returns the division of two unsigned integers, with a division by zero flag.\r\n     *\r\n     * _Available since v3.4._\r\n     */\r\n    function tryDiv(uint256 a, uint256 b) internal pure returns (bool, uint256) {\r\n        unchecked {\r\n            if (b == 0) return (false, 0);\r\n            return (true, a / b);\r\n        }\r\n    }\r\n\r\n    /**\r\n     * @dev Returns the remainder of dividing two unsigned integers, with a division by zero flag.\r\n     *\r\n     * _Available since v3.4._\r\n     */\r\n    function tryMod(uint256 a, uint256 b) internal pure returns (bool, uint256) {\r\n        unchecked {\r\n            if (b == 0) return (false, 0);\r\n            return (true, a % b);\r\n        }\r\n    }\r\n\r\n    /**\r\n     * @dev Returns the addition of two unsigned integers, reverting on\r\n     * overflow.\r\n     *\r\n     * Counterpart to Solidity's `+` operator.\r\n     *\r\n     * Requirements:\r\n     *\r\n     * - Addition cannot overflow.\r\n     */\r\n    function add(uint256 a, uint256 b) internal pure returns (uint256) {\r\n        return a + b;\r\n    }\r\n\r\n    /**\r\n     * @dev Returns the subtraction of two unsigned integers, reverting on\r\n     * overflow (when the result is negative).\r\n     *\r\n     * Counterpart to Solidity's `-` operator.\r\n     *\r\n     * Requirements:\r\n     *\r\n     * - Subtraction cannot overflow.\r\n     */\r\n    function sub(uint256 a, uint256 b) internal pure returns (uint256) {\r\n        return a - b;\r\n    }\r\n\r\n    /**\r\n     * @dev Returns the multiplication of two unsigned integers, reverting on\r\n     * overflow.\r\n     *\r\n     * Counterpart to Solidity's `*` operator.\r\n     *\r\n     * Requirements:\r\n     *\r\n     * - Multiplication cannot overflow.\r\n     */\r\n    function mul(uint256 a, uint256 b) internal pure returns (uint256) {\r\n        return a * b;\r\n    }\r\n\r\n    /**\r\n     * @dev Returns the integer division of two unsigned integers, reverting on\r\n     * division by zero. The result is rounded towards zero.\r\n     *\r\n     * Counterpart to Solidity's `/` operator.\r\n     *\r\n     * Requirements:\r\n     *\r\n     * - The divisor cannot be zero.\r\n     */\r\n    function div(uint256 a, uint256 b) internal pure returns (uint256) {\r\n        return a / b;\r\n    }\r\n\r\n    /**\r\n     * @dev Returns the remainder of dividing two unsigned integers. (unsigned integer modulo),\r\n     * reverting when dividing by zero.\r\n     *\r\n     * Counterpart to Solidity's `%` operator. This function uses a `revert`\r\n     * opcode (which leaves remaining gas untouched) while Solidity uses an\r\n     * invalid opcode to revert (consuming all remaining gas).\r\n     *\r\n     * Requirements:\r\n     *\r\n     * - The divisor cannot be zero.\r\n     */\r\n    function mod(uint256 a, uint256 b) internal pure returns (uint256) {\r\n        return a % b;\r\n    }\r\n\r\n    /**\r\n     * @dev Returns the subtraction of two unsigned integers, reverting with custom message on\r\n     * overflow (when the result is negative).\r\n     *\r\n     * CAUTION: This function is deprecated because it requires allocating memory for the error\r\n     * message unnecessarily. For custom revert reasons use {trySub}.\r\n     *\r\n     * Counterpart to Solidity's `-` operator.\r\n     *\r\n     * Requirements:\r\n     *\r\n     * - Subtraction cannot overflow.\r\n     */\r\n    function sub(\r\n        uint256 a,\r\n        uint256 b,\r\n        string memory errorMessage\r\n    ) internal pure returns (uint256) {\r\n        unchecked {\r\n            require(b <= a, errorMessage);\r\n            return a - b;\r\n        }\r\n    }\r\n\r\n    /**\r\n     * @dev Returns the integer division of two unsigned integers, reverting with custom message on\r\n     * division by zero. The result is rounded towards zero.\r\n     *\r\n     * Counterpart to Solidity's `/` operator. Note: this function uses a\r\n     * `revert` opcode (which leaves remaining gas untouched) while Solidity\r\n     * uses an invalid opcode to revert (consuming all remaining gas).\r\n     *\r\n     * Requirements:\r\n     *\r\n     * - The divisor cannot be zero.\r\n     */\r\n    function div(\r\n        uint256 a,\r\n        uint256 b,\r\n        string memory errorMessage\r\n    ) internal pure returns (uint256) {\r\n        unchecked {\r\n            require(b > 0, errorMessage);\r\n            return a / b;\r\n        }\r\n    }\r\n\r\n    /**\r\n     * @dev Returns the remainder of dividing two unsigned integers. (unsigned integer modulo),\r\n     * reverting with custom message when dividing by zero.\r\n     *\r\n     * CAUTION: This function is deprecated because it requires allocating memory for the error\r\n     * message unnecessarily. For custom revert reasons use {tryMod}.\r\n     *\r\n     * Counterpart to Solidity's `%` operator. This function uses a `revert`\r\n     * opcode (which leaves remaining gas untouched) while Solidity uses an\r\n     * invalid opcode to revert (consuming all remaining gas).\r\n     *\r\n     * Requirements:\r\n     *\r\n     * - The divisor cannot be zero.\r\n     */\r\n    function mod(\r\n        uint256 a,\r\n        uint256 b,\r\n        string memory errorMessage\r\n    ) internal pure returns (uint256) {\r\n        unchecked {\r\n            require(b > 0, errorMessage);\r\n            return a % b;\r\n        }\r\n    }\r\n}\r\n\r\ninterface IBEP20 {\r\n  /**\r\n   * @dev Returns the amount of tokens in existence.\r\n   */\r\n  function totalSupply() external view returns (uint256);\r\n\r\n  /**\r\n   * @dev Returns the token decimals.\r\n   */\r\n  function decimals() external view returns (uint8);\r\n\r\n  /**\r\n   * @dev Returns the token symbol.\r\n   */\r\n  function symbol() external view returns (string memory);\r\n\r\n  /**\r\n  * @dev Returns the token name.\r\n  */\r\n  function name() external view returns (string memory);\r\n\r\n  /**\r\n   * @dev Returns the bep token owner.\r\n   */\r\n  function getOwner() external view returns (address);\r\n\r\n  /**\r\n   * @dev Returns the amount of tokens owned by `account`.\r\n   */\r\n  function balanceOf(address account) external view returns (uint256);\r\n\r\n  /**\r\n   * @dev Moves `amount` tokens from the caller's account to `recipient`.\r\n   *\r\n   * Returns a boolean value indicating whether the operation succeeded.\r\n   *\r\n   * Emits a {Transfer} event.\r\n   */\r\n  function transfer(address recipient, uint256 amount) external returns (bool);\r\n\r\n  /**\r\n   * @dev Returns the remaining number of tokens that `spender` will be\r\n   * allowed to spend on behalf of `owner` through {transferFrom}. This is\r\n   * zero by default.\r\n   *\r\n   * This value changes when {approve} or {transferFrom} are called.\r\n   */\r\n  function allowance(address _owner, address spender) external view returns (uint256);\r\n\r\n  /**\r\n   * @dev Sets `amount` as the allowance of `spender` over the caller's tokens.\r\n   *\r\n   * Returns a boolean value indicating whether the operation succeeded.\r\n   *\r\n   * IMPORTANT: Beware that changing an allowance with this method brings the risk\r\n   * that someone may use both the old and the new allowance by unfortunate\r\n   * transaction ordering. One possible solution to mitigate this race\r\n   * condition is to first reduce the spender's allowance to 0 and set the\r\n   * desired value afterwards:\r\n   * https://github.com/ethereum/EIPs/issues/20#issuecomment-263524729\r\n   *\r\n   * Emits an {Approval} event.\r\n   */\r\n  function approve(address spender, uint256 amount) external returns (bool);\r\n\r\n  /**\r\n   * @dev Moves `amount` tokens from `sender` to `recipient` using the\r\n   * allowance mechanism. `amount` is then deducted from the caller's\r\n   * allowance.\r\n   *\r\n   * Returns a boolean value indicating whether the operation succeeded.\r\n   *\r\n   * Emits a {Transfer} event.\r\n   */\r\n  function transferFrom(address sender, address recipient, uint256 amount) external returns (bool);\r\n\r\n  /**\r\n   * @dev Emitted when `value` tokens are moved from one account (`from`) to\r\n   * another (`to`).\r\n   *\r\n   * Note that `value` may be zero.\r\n   */\r\n  event Transfer(address indexed from, address indexed to, uint256 value);\r\n\r\n  /**\r\n   * @dev Emitted when the allowance of a `spender` for an `owner` is set by\r\n   * a call to {approve}. `value` is the new allowance.\r\n   */\r\n  event Approval(address indexed owner, address indexed spender, uint256 value);\r\n}\r\n\r\n/**\r\n * @dev Provides information about the current execution context, including the\r\n * sender of the transaction and its data. While these are generally available\r\n * via msg.sender and msg.data, they should not be accessed in such a direct\r\n * manner, since when dealing with meta-transactions the account sending and\r\n * paying for execution may not be the actual sender (as far as an application\r\n * is concerned).\r\n *\r\n * This contract is only required for intermediate, library-like contracts.\r\n */\r\ncontract Context {\r\n    function _msgSender() internal view virtual returns (address) {\r\n        return msg.sender;\r\n    }\r\n\r\n    // function _msgData() internal view virtual returns (bytes calldata) {\r\n    //     return msg.data;\r\n    // }\r\n}\r\n\r\n\r\n\r\n// SPDX-License-Identifier: MIT\r\n\r\npragma solidity ^0.8.0;\r\n\r\n/**\r\n * @dev Contract module which provides a basic access control mechanism, where\r\n * there is an account (an owner) that can be granted exclusive access to\r\n * specific functions.\r\n *\r\n * By default, the owner account will be the one that deploys the contract. This\r\n * can later be changed with {transferOwnership}.\r\n *\r\n * This module is used through inheritance. It will make available the modifier\r\n * `onlyOwner`, which can be applied to your functions to restrict their use to\r\n * the owner.\r\n */\r\ncontract Ownable is Context {\r\n    address private _owner;\r\n\r\n    event OwnershipTransferred(address indexed previousOwner, address indexed newOwner);\r\n\r\n    /**\r\n     * @dev Initializes the contract setting the deployer as the initial owner.\r\n     */\r\n    constructor() {\r\n        _setOwner(_msgSender());\r\n    }\r\n\r\n    /**\r\n     * @dev Returns the address of the current owner.\r\n     */\r\n    function owner() public view virtual returns (address) {\r\n        return _owner;\r\n    }\r\n\r\n    /**\r\n     * @dev Throws if called by any account other than the owner.\r\n     */\r\n    modifier onlyOwner() {\r\n        require(owner() == _msgSender(), \"Ownable: caller is not the owner\");\r\n        _;\r\n    }\r\n\r\n    /**\r\n     * @dev Leaves the contract without owner. It will not be possible to call\r\n     * `onlyOwner` functions anymore. Can only be called by the current owner.\r\n     *\r\n     * NOTE: Renouncing ownership will leave the contract without an owner,\r\n     * thereby removing any functionality that is only available to the owner.\r\n     */\r\n    function renounceOwnership() public virtual onlyOwner {\r\n        _setOwner(address(0));\r\n    }\r\n\r\n    /**\r\n     * @dev Transfers ownership of the contract to a new account (`newOwner`).\r\n     * Can only be called by the current owner.\r\n     */\r\n    function transferOwnership(address newOwner) public virtual onlyOwner {\r\n        require(newOwner != address(0), \"Ownable: new owner is the zero address\");\r\n        _setOwner(newOwner);\r\n    }\r\n\r\n    function _setOwner(address newOwner) private {\r\n        address oldOwner = _owner;\r\n        _owner = newOwner;\r\n        emit OwnershipTransferred(oldOwner, newOwner);\r\n    }\r\n}\r\n\r\ncontract BEP20 is Ownable, IBEP20 {\r\n    using SafeMath for uint256;\r\n\r\n    mapping (address => uint256) private _balances;\r\n\r\n    mapping (address => mapping (address => uint256)) private _allowances;\r\n\r\n    uint256 private _totalSupply;\r\n\r\n    string private _name;\r\n    string private _symbol;\r\n    uint8 private _decimals;\r\n\r\n    /**\r\n     * @dev Sets the values for {name} and {symbol}, initializes {decimals} with\r\n     * a default value of 18.\r\n     *\r\n     * To select a different value for {decimals}, use {_setupDecimals}.\r\n     *\r\n     * All three of these values are immutable: they can only be set once during\r\n     * construction.\r\n     */\r\n    // constructor (string memory name, string memory symbol) {\r\n    //     _name = name;\r\n    //     _symbol = symbol;\r\n    //     _decimals = 18;\r\n    // }\r\n    \r\n    function constructor1 (string memory name, string memory symbol) internal {\r\n        _name = name;\r\n        _symbol = symbol;\r\n        _decimals = 18;\r\n    }\r\n\r\n     /**\r\n     * @dev Returns the name of the token.\r\n     */\r\n    function name() public view virtual override returns (string memory) {\r\n        return _name;\r\n    }\r\n\r\n    /**\r\n     * @dev Returns the symbol of the token, usually a shorter version of the\r\n     * name.\r\n     */\r\n    function symbol() public view virtual override returns (string memory) {\r\n        return _symbol;\r\n    }\r\n\r\n    function getOwner() public view virtual override returns (address) {\r\n        return owner();\r\n    }\r\n\r\n    /**\r\n     * @dev Returns the number of decimals used to get its user representation.\r\n     * For example, if `decimals` equals `2`, a balance of `505` tokens should\r\n     * be displayed to a user as `5,05` (`505 / 10 ** 2`).\r\n     *\r\n     * Tokens usually opt for a value of 18, imitating the relationship between\r\n     * Ether and Wei. This is the value {ERC20} uses, unless {_setupDecimals} is\r\n     * called.\r\n     *\r\n     * NOTE: This information is only used for _display_ purposes: it in\r\n     * no way affects any of the arithmetic of the contract, including\r\n     * {IERC20-balanceOf} and {IERC20-transfer}.\r\n     */\r\n    function decimals() public view virtual override returns (uint8) {\r\n        return _decimals;\r\n    }\r\n\r\n    /**\r\n     * @dev See {IERC20-totalSupply}.\r\n     */\r\n    function totalSupply() public view virtual override returns (uint256) {\r\n        return _totalSupply;\r\n    }\r\n\r\n    /**\r\n     * @dev See {IERC20-balanceOf}.\r\n     */\r\n    function balanceOf(address account) public virtual view override returns (uint256) {\r\n        return _balances[account];\r\n    }\r\n\r\n    /**\r\n     * @dev See {IERC20-transfer}.\r\n     *\r\n     * Requirements:\r\n     *\r\n     * - `recipient` cannot be the zero address.\r\n     * - the caller must have a balance of at least `amount`.\r\n     */\r\n    function transfer(address recipient, uint256 amount) public virtual override returns (bool) {\r\n        _transfer(_msgSender(), recipient, amount);\r\n        return true;\r\n    }\r\n\r\n    /**\r\n     * @dev See {IERC20-allowance}.\r\n     */\r\n    function allowance(address _owner, address spender) public view virtual override returns (uint256) {\r\n        return _allowances[_owner][spender];\r\n    }\r\n    \r\n\r\n    /**\r\n     * @dev See {IERC20-approve}.\r\n     *\r\n     * Requirements:\r\n     *\r\n     * - `spender` cannot be the zero address.\r\n     */\r\n    function approve(address spender, uint256 amount) public virtual override returns (bool) {\r\n        _approve(_msgSender(), spender, amount);\r\n        return true;\r\n    }\r\n\r\n    /**\r\n     * @dev See {IERC20-transferFrom}.\r\n     *\r\n     * Emits an {Approval} event indicating the updated allowance. This is not\r\n     * required by the EIP. See the note at the beginning of {ERC20}.\r\n     *\r\n     * Requirements:\r\n     *\r\n     * - `sender` and `recipient` cannot be the zero address.\r\n     * - `sender` must have a balance of at least `amount`.\r\n     * - the caller must have allowance for ``sender``'s tokens of at least\r\n     * `amount`.\r\n     */\r\n    function transferFrom(address sender, address recipient, uint256 amount) public virtual override returns (bool) {\r\n        _transfer(sender, recipient, amount);\r\n        _approve(sender, _msgSender(), _allowances[sender][_msgSender()].sub(amount, \"ERC20: transfer amount exceeds allowance\"));\r\n        return true;\r\n    }\r\n\r\n    /**\r\n     * @dev Atomically increases the allowance granted to `spender` by the caller.\r\n     *\r\n     * This is an alternative to {approve} that can be used as a mitigation for\r\n     * problems described in {IERC20-approve}.\r\n     *\r\n     * Emits an {Approval} event indicating the updated allowance.\r\n     *\r\n     * Requirements:\r\n     *\r\n     * - `spender` cannot be the zero address.\r\n     */\r\n    function increaseAllowance(address spender, uint256 addedValue) public virtual returns (bool) {\r\n        _approve(_msgSender(), spender, _allowances[_msgSender()][spender].add(addedValue));\r\n        return true;\r\n    }\r\n\r\n    /**\r\n     * @dev Atomically decreases the allowance granted to `spender` by the caller.\r\n     *\r\n     * This is an alternative to {approve} that can be used as a mitigation for\r\n     * problems described in {IERC20-approve}.\r\n     *\r\n     * Emits an {Approval} event indicating the updated allowance.\r\n     *\r\n     * Requirements:\r\n     *\r\n     * - `spender` cannot be the zero address.\r\n     * - `spender` must have allowance for the caller of at least\r\n     * `subtractedValue`.\r\n     */\r\n    function decreaseAllowance(address spender, uint256 subtractedValue) public virtual returns (bool) {\r\n        _approve(_msgSender(), spender, _allowances[_msgSender()][spender].sub(subtractedValue, \"ERC20: decreased allowance below zero\"));\r\n        return true;\r\n    }\r\n\r\n    /**\r\n     * @dev Moves tokens `amount` from `sender` to `recipient`.\r\n     *\r\n     * This is internal function is equivalent to {transfer}, and can be used to\r\n     * e.g. implement automatic token fees, slashing mechanisms, etc.\r\n     *\r\n     * Emits a {Transfer} event.\r\n     *\r\n     * Requirements:\r\n     *\r\n     * - `sender` cannot be the zero address.\r\n     * - `recipient` cannot be the zero address.\r\n     * - `sender` must have a balance of at least `amount`.\r\n     */\r\n    function _transfer(address sender, address recipient, uint256 amount) internal virtual {\r\n        require(sender != address(0), \"ERC20: transfer from the zero address\");\r\n        require(recipient != address(0), \"ERC20: transfer to the zero address\");\r\n\r\n        _beforeTokenTransfer(sender, recipient, amount);\r\n\r\n        _balances[sender] = _balances[sender].sub(amount, \"ERC20: transfer amount exceeds balance\");\r\n        _balances[recipient] = _balances[recipient].add(amount);\r\n        emit Transfer(sender, recipient, amount);\r\n    }\r\n\r\n    /** @dev Creates `amount` tokens and assigns them to `account`, increasing\r\n     * the total supply.\r\n     *\r\n     * Emits a {Transfer} event with `from` set to the zero address.\r\n     *\r\n     * Requirements:\r\n     *\r\n     * - `to` cannot be the zero address.\r\n     */\r\n    function _mint(address account, uint256 amount) internal virtual {\r\n        require(account != address(0), \"ERC20: mint to the zero address\");\r\n\r\n        _beforeTokenTransfer(address(0), account, amount);\r\n\r\n        _totalSupply = _totalSupply.add(amount);\r\n        _balances[account] = _balances[account].add(amount);\r\n        emit Transfer(address(0), account, amount);\r\n    }\r\n\r\n    /**\r\n     * @dev Destroys `amount` tokens from `account`, reducing the\r\n     * total supply.\r\n     *\r\n     * Emits a {Transfer} event with `to` set to the zero address.\r\n     *\r\n     * Requirements:\r\n     *\r\n     * - `account` cannot be the zero address.\r\n     * - `account` must have at least `amount` tokens.\r\n     */\r\n    function _burn(address account, uint256 amount) internal virtual {\r\n        require(account != address(0), \"ERC20: burn from the zero address\");\r\n\r\n        _beforeTokenTransfer(account, address(0), amount);\r\n\r\n        _balances[account] = _balances[account].sub(amount, \"ERC20: burn amount exceeds balance\");\r\n        _totalSupply = _totalSupply.sub(amount);\r\n        emit Transfer(account, address(0), amount);\r\n    }\r\n\r\n    /**\r\n     * @dev Sets `amount` as the allowance of `spender` over the `owner` s tokens.\r\n     *\r\n     * This internal function is equivalent to `approve`, and can be used to\r\n     * e.g. set automatic allowances for certain subsystems, etc.\r\n     *\r\n     * Emits an {Approval} event.\r\n     *\r\n     * Requirements:\r\n     *\r\n     * - `owner` cannot be the zero address.\r\n     * - `spender` cannot be the zero address.\r\n     */\r\n    function _approve(address owner, address spender, uint256 amount) internal virtual {\r\n        require(owner != address(0), \"ERC20: approve from the zero address\");\r\n        require(spender != address(0), \"ERC20: approve to the zero address\");\r\n\r\n        _allowances[owner][spender] = amount;\r\n        emit Approval(owner, spender, amount);\r\n    }\r\n\r\n    /**\r\n     * @dev Sets {decimals} to a value other than the default one of 18.\r\n     *\r\n     * WARNING: This function should only be called from the constructor. Most\r\n     * applications that interact with token contracts will not expect\r\n     * {decimals} to ever change, and may work incorrectly if it does.\r\n     */\r\n    function _setupDecimals(uint8 decimals_) internal {\r\n        _decimals = decimals_;\r\n    }\r\n\r\n    /**\r\n     * @dev Hook that is called before any transfer of tokens. This includes\r\n     * minting and burning.\r\n     *\r\n     * Calling conditions:\r\n     *\r\n     * - when `from` and `to` are both non-zero, `amount` of ``from``'s tokens\r\n     * will be to transferred to `to`.\r\n     * - when `from` is zero, `amount` tokens will be minted for `to`.\r\n     * - when `to` is zero, `amount` of ``from``'s tokens will be burned.\r\n     * - `from` and `to` are never both zero.\r\n     *\r\n     * To learn more about hooks, head to xref:ROOT:extending-contracts.adoc#using-hooks[Using Hooks].\r\n     */\r\n    function _beforeTokenTransfer(address from, address to, uint256 amount) internal virtual { }\r\n\r\n}\r\n\r\n\r\n\r\npragma solidity >=0.6.2;\r\n\r\ninterface IUniswapV2Router01 {\r\n    function factory() external pure returns (address);\r\n    function WETH() external pure returns (address);\r\n\r\n    function addLiquidity(\r\n        address tokenA,\r\n        address tokenB,\r\n        uint amountADesired,\r\n        uint amountBDesired,\r\n        uint amountAMin,\r\n        uint amountBMin,\r\n        address to,\r\n        uint deadline\r\n    ) external returns (uint amountA, uint amountB, uint liquidity);\r\n    function addLiquidityETH(\r\n        address token,\r\n        uint amountTokenDesired,\r\n        uint amountTokenMin,\r\n        uint amountETHMin,\r\n        address to,\r\n        uint deadline\r\n    ) external payable returns (uint amountToken, uint amountETH, uint liquidity);\r\n    function removeLiquidity(\r\n        address tokenA,\r\n        address tokenB,\r\n        uint liquidity,\r\n        uint amountAMin,\r\n        uint amountBMin,\r\n        address to,\r\n        uint deadline\r\n    ) external returns (uint amountA, uint amountB);\r\n    function removeLiquidityETH(\r\n        address token,\r\n        uint liquidity,\r\n        uint amountTokenMin,\r\n        uint amountETHMin,\r\n        address to,\r\n        uint deadline\r\n    ) external returns (uint amountToken, uint amountETH);\r\n    function removeLiquidityWithPermit(\r\n        address tokenA,\r\n        address tokenB,\r\n        uint liquidity,\r\n        uint amountAMin,\r\n        uint amountBMin,\r\n        address to,\r\n        uint deadline,\r\n        bool approveMax, uint8 v, bytes32 r, bytes32 s\r\n    ) external returns (uint amountA, uint amountB);\r\n    function removeLiquidityETHWithPermit(\r\n        address token,\r\n        uint liquidity,\r\n        uint amountTokenMin,\r\n        uint amountETHMin,\r\n        address to,\r\n        uint deadline,\r\n        bool approveMax, uint8 v, bytes32 r, bytes32 s\r\n    ) external returns (uint amountToken, uint amountETH);\r\n    function swapExactTokensForTokens(\r\n        uint amountIn,\r\n        uint amountOutMin,\r\n        address[] calldata path,\r\n        address to,\r\n        uint deadline\r\n    ) external returns (uint[] memory amounts);\r\n    function swapTokensForExactTokens(\r\n        uint amountOut,\r\n        uint amountInMax,\r\n        address[] calldata path,\r\n        address to,\r\n        uint deadline\r\n    ) external returns (uint[] memory amounts);\r\n    function swapExactETHForTokens(uint amountOutMin, address[] calldata path, address to, uint deadline)\r\n        external\r\n        payable\r\n        returns (uint[] memory amounts);\r\n    function swapTokensForExactETH(uint amountOut, uint amountInMax, address[] calldata path, address to, uint deadline)\r\n        external\r\n        returns (uint[] memory amounts);\r\n    function swapExactTokensForETH(uint amountIn, uint amountOutMin, address[] calldata path, address to, uint deadline)\r\n        external\r\n        returns (uint[] memory amounts);\r\n    function swapETHForExactTokens(uint amountOut, address[] calldata path, address to, uint deadline)\r\n        external\r\n        payable\r\n        returns (uint[] memory amounts);\r\n\r\n    function quote(uint amountA, uint reserveA, uint reserveB) external pure returns (uint amountB);\r\n    function getAmountOut(uint amountIn, uint reserveIn, uint reserveOut) external pure returns (uint amountOut);\r\n    function getAmountIn(uint amountOut, uint reserveIn, uint reserveOut) external pure returns (uint amountIn);\r\n    function getAmountsOut(uint amountIn, address[] calldata path) external view returns (uint[] memory amounts);\r\n    function getAmountsIn(uint amountOut, address[] calldata path) external view returns (uint[] memory amounts);\r\n}\r\n\r\n\r\n\r\n// pragma solidity >=0.6.2;\r\n\r\ninterface IUniswapV2Router02 is IUniswapV2Router01 {\r\n    function removeLiquidityETHSupportingFeeOnTransferTokens(\r\n        address token,\r\n        uint liquidity,\r\n        uint amountTokenMin,\r\n        uint amountETHMin,\r\n        address to,\r\n        uint deadline\r\n    ) external returns (uint amountETH);\r\n    function removeLiquidityETHWithPermitSupportingFeeOnTransferTokens(\r\n        address token,\r\n        uint liquidity,\r\n        uint amountTokenMin,\r\n        uint amountETHMin,\r\n        address to,\r\n        uint deadline,\r\n        bool approveMax, uint8 v, bytes32 r, bytes32 s\r\n    ) external returns (uint amountETH);\r\n\r\n    function swapExactTokensForTokensSupportingFeeOnTransferTokens(\r\n        uint amountIn,\r\n        uint amountOutMin,\r\n        address[] calldata path,\r\n        address to,\r\n        uint deadline\r\n    ) external;\r\n    function swapExactETHForTokensSupportingFeeOnTransferTokens(\r\n        uint amountOutMin,\r\n        address[] calldata path,\r\n        address to,\r\n        uint deadline\r\n    ) external payable;\r\n    function swapExactTokensForETHSupportingFeeOnTransferTokens(\r\n        uint amountIn,\r\n        uint amountOutMin,\r\n        address[] calldata path,\r\n        address to,\r\n        uint deadline\r\n    ) external;\r\n}\r\n\r\ncontract Proxiable {\r\n    // Code position in storage is keccak256(\"PROXIABLE\") = \"0xc5f16f0fcc639fa48a6947836d9850f504798523bf8c9a3a87d5876cf622bcf7\"\r\n\r\n    function updateCodeAddress(address newAddress) internal {\r\n        require(\r\n            bytes32(0xc5f16f0fcc639fa48a6947836d9850f504798523bf8c9a3a87d5876cf622bcf7) == Proxiable(newAddress).proxiableUUID(),\r\n            \"Not compatible\"\r\n        );\r\n        assembly { // solium-disable-line\r\n            sstore(0xc5f16f0fcc639fa48a6947836d9850f504798523bf8c9a3a87d5876cf622bcf7, newAddress)\r\n        }\r\n    }\r\n    function proxiableUUID() public pure returns (bytes32) {\r\n        return 0xc5f16f0fcc639fa48a6947836d9850f504798523bf8c9a3a87d5876cf622bcf7;\r\n    }\r\n}\r\n\r\ncontract LibraryLockDataLayout {\r\n  bool public initialized = false;\r\n}\r\n\r\ncontract LibraryLock is LibraryLockDataLayout {\r\n    // Ensures no one can manipulate the Logic Contract once it is deployed.\r\n    // PARITY WALLET HACK PREVENTION\r\n\r\n    modifier delegatedOnly() {\r\n        require(initialized == true, \"The library is locked. No direct 'call' is allowed\");\r\n        _;\r\n    }\r\n    function initialize() internal {\r\n        initialized = true;\r\n    }\r\n}\r\n\r\ncontract DataLayout is LibraryLock {\r\n\r\n    // address public owner;\r\n    address public wBNB;\r\n    address public NFTContract;\r\n    IUniswapV2Router02 public uniswapV2Router;\r\n    address public tokenStorage;\r\n    address public statsTracker;\r\n    uint feePerc = 10;\r\n\r\n    struct userStruct {\r\n        uint256 timeChecked; //timestamp\r\n        uint128 wins;\r\n        bool usingFreePrediction;\r\n        uint256 totalVolume;\r\n        uint32 currentLevel;\r\n        uint256 NFTID;\r\n        bool hasClaimedStarter;\r\n    }\r\n    mapping(address => userStruct) public userData; \r\n\r\n    uint32[] public levelStreakRequirements;\r\n\r\n    uint256 public totalBNB;\r\n    uint256 public freeBNBReturned;\r\n    uint256 public predictionFees;\r\n\r\n    mapping(address => bool) whitelistedContracts;\r\n} \r\n\r\ncontract ERCStorage {\r\n    address versus;\r\n    constructor () {\r\n        versus = msg.sender;\r\n    }\r\n    \r\n    function sendBNB(uint256 amount) public {\r\n        require(msg.sender == versus);\r\n        payable(versus).transfer(amount);\r\n    }\r\n}\r\n\r\n\r\ncontract Versus is BEP20, DataLayout, Proxiable {\r\n    using SafeMath for uint256;\r\n    \r\n    constructor() public {\r\n        \r\n    }\r\n\r\n    // modifier onlyOwner() {\r\n    //     require(msg.sender == owner);\r\n    //     _;\r\n    // }\r\n    \r\n\r\n    function versusConstructor(address statsTracker) public {\r\n        require(!initialized);\r\n        // owner = msg.sender;\r\n        wBNB = 0xbb4CdB9CBd36B01bD1cBaEBF2De08d9173bc095c;\r\n        IUniswapV2Router02 uniswapV2Router = IUniswapV2Router02(0x10ED43C718714eb63d5aA57B78B54704E256024E);\r\n        //mint supply\r\n        tokenStorage = address(new ERCStorage());\r\n        constructor1(\"Versus.cx\", \"Versus\");\r\n        initialize();\r\n    }\r\n\r\n    receive() external payable {\r\n        \r\n    }\r\n\r\n    function setNFTContract(address _contract) public onlyOwner delegatedOnly {\r\n        NFTContract = _contract;\r\n    }\r\n\r\n    function setStatsTracker(address _contract) public onlyOwner delegatedOnly {\r\n        statsTracker = _contract;\r\n    }\r\n\r\n    function setFeePerc(uint fee) public onlyOwner delegatedOnly {\r\n        feePerc = fee;\r\n    }\r\n\r\n    function updateCode(address newCode) public onlyOwner delegatedOnly  {\r\n        updateCodeAddress(newCode);\r\n    }\r\n    \r\n\r\n    function transfer(address recipient, uint256 amount) public override returns(bool) {\r\n        uint256 fee = amount.mul(feePerc).div(100);\r\n        switchToBNB(fee);\r\n        require(super.transfer(recipient, amount.sub(fee)), \"Transfer failed\");\r\n        userData[msg.sender].timeChecked = userData[msg.sender].timeChecked.add(30 minutes);\r\n        return true;\r\n    }\r\n\r\n    //transferFrom override\r\n\r\n    function switchToBNB(uint256 amount) internal {\r\n        uint256 contractBNB = address(this).balance;\r\n        // generate the uniswap pair path of token -> weth\r\n        address[] memory path = new address[](2);\r\n        path[0] = address(this);\r\n        path[1] = wBNB; \r\n\r\n        _approve(address(this), address(uniswapV2Router), amount);\r\n\r\n        // make the swap\r\n        try uniswapV2Router.swapExactTokensForTokensSupportingFeeOnTransferTokens(\r\n            amount,\r\n            0, // accept any amount of BNB\r\n            path,\r\n            tokenStorage,\r\n            block.timestamp\r\n        ) {\r\n            //log new BNB\r\n            uint256 newBNB = address(this).balance.sub(contractBNB);\r\n            totalBNB = totalBNB.add(newBNB);\r\n\r\n        } catch (bytes memory failErr) {\r\n            // emit SwapFailed(failErr);\r\n        }\r\n    }\r\n\r\n    function hasFreePrediction(address user) public returns(uint256) {\r\n        require(whitelistedContracts[msg.sender], \"Unauthorized contract\");\r\n        require(userData[msg.sender].timeChecked >= block.timestamp, \"No free prediction yet\");\r\n        require(!userData[msg.sender].usingFreePrediction, \"Already using free prediction\");\r\n        uint256 userStack = balanceOf(user);\r\n        uint256 bnbAllowed = (userStack * totalBNB) / totalSupply();\r\n        //set max bnbAllowed\r\n\r\n\r\n        userData[msg.sender].usingFreePrediction = true;\r\n        return bnbAllowed;\r\n    }\r\n    \r\n    function returnFreeBNB(address user) public payable {\r\n        require(whitelistedContracts[msg.sender], \"Unauthorized contract\");\r\n        userData[user].usingFreePrediction = false;\r\n        freeBNBReturned = freeBNBReturned.add(msg.value);\r\n    }\r\n\r\n    function returnPredictionFees() public payable {\r\n        predictionFees = predictionFees.add(msg.value);\r\n    }\r\n\r\n    function useFees() public {\r\n        \r\n    }\r\n\r\n    function updateStats(address user, uint256 volume) public {\r\n        require(whitelistedContracts[msg.sender]);\r\n        userData[user].totalVolume = userData[user].totalVolume.add(1);\r\n        //increase total Versus volume\r\n        StatsTracker(statsTracker).updateVolume(volume);\r\n    }\r\n\r\n    function updateUserWins(address _user) public {\r\n        require(whitelistedContracts[msg.sender]);\r\n        //check if user has a monster equipped\r\n        //if so, call NFT update function\r\n        if (userData[_user].NFTID != 0) {\r\n            \r\n        }\r\n        //update user wins\r\n        userData[_user].wins = userData[_user].wins+1;\r\n        StatsTracker(statsTracker).adjustMontlyLeaders(_user, userData[_user].wins);\r\n        StatsTracker(statsTracker).adjustAllTimeLeaders(_user, userData[_user].wins);\r\n    }\r\n\r\n    function claimFirstMonster(uint starter) public {\r\n        require(!userData[msg.sender].hasClaimedStarter, \"Starter already claimed\");\r\n        require(starter == 1 || starter == 2 || starter == 3, \"Must choose valid starter\");\r\n        mintNFT(msg.sender, starter);\r\n        userData[msg.sender].hasClaimedStarter = true;\r\n    }\r\n\r\n    function mintNFT(address user, uint monsterID) internal {\r\n        userData[msg.sender].NFTID = VersusNFT(NFTContract).createNFT(user, monsterID);\r\n    }\r\n\r\n    function equipNFT(uint256 id) public {\r\n        if (userData[msg.sender].NFTID != 0) {\r\n            VersusNFT(NFTContract).unEquipMonster(id, msg.sender);\r\n        }\r\n        VersusNFT(NFTContract).equipMonster(id, msg.sender);\r\n        userData[msg.sender].NFTID = id;\r\n    }\r\n\r\n    function unequip(uint256 id) public {\r\n        VersusNFT(NFTContract).unEquipMonster(id, msg.sender);\r\n        userData[msg.sender].NFTID = 0;\r\n    }\r\n\r\n    function whiteListContract(address _contract, bool _direction) public onlyOwner {\r\n        whitelistedContracts[_contract] = _direction;\r\n    }\r\n    \r\n}\r\n\r\n\r\ninterface VersusNFT {\r\n    function createNFT(address _claimer, uint256 _monsterID) external returns(uint256);\r\n    function equipMonster(uint256 id, address _owner) external;\r\n    function unEquipMonster(uint256 id, address _owner) external;\r\n}\r\n\r\ninterface StatsTracker {\r\n    function updateVolume(uint256 _volume) external;\r\n    function adjustMontlyLeaders(address user, uint256 wins) external;\r\n    function adjustAllTimeLeaders(address user, uint256 wins) external;\r\n}\r\n",
  "sourcePath": "C:/Users/razgriz/Documents/GitHub/Versus/contracts/contracts/VersusToken.sol",
  "compiler": {
    "name": "solc",
    "version": "0.8.0+commit.c7dfd78e.Emscripten.clang"
  },
  "schemaVersion": "3.3.3",
  "updatedAt": "2021-09-01T17:39:01.027Z",
  "devdoc": {
    "kind": "dev",
    "methods": {
      "allowance(address,address)": {
        "details": "See {IERC20-allowance}."
      },
      "approve(address,uint256)": {
        "details": "See {IERC20-approve}. Requirements: - `spender` cannot be the zero address."
      },
      "balanceOf(address)": {
        "details": "See {IERC20-balanceOf}."
      },
      "decimals()": {
        "details": "Returns the number of decimals used to get its user representation. For example, if `decimals` equals `2`, a balance of `505` tokens should be displayed to a user as `5,05` (`505 / 10 ** 2`). Tokens usually opt for a value of 18, imitating the relationship between Ether and Wei. This is the value {ERC20} uses, unless {_setupDecimals} is called. NOTE: This information is only used for _display_ purposes: it in no way affects any of the arithmetic of the contract, including {IERC20-balanceOf} and {IERC20-transfer}."
      },
      "decreaseAllowance(address,uint256)": {
        "details": "Atomically decreases the allowance granted to `spender` by the caller. This is an alternative to {approve} that can be used as a mitigation for problems described in {IERC20-approve}. Emits an {Approval} event indicating the updated allowance. Requirements: - `spender` cannot be the zero address. - `spender` must have allowance for the caller of at least `subtractedValue`."
      },
      "getOwner()": {
        "details": "Returns the bep token owner."
      },
      "increaseAllowance(address,uint256)": {
        "details": "Atomically increases the allowance granted to `spender` by the caller. This is an alternative to {approve} that can be used as a mitigation for problems described in {IERC20-approve}. Emits an {Approval} event indicating the updated allowance. Requirements: - `spender` cannot be the zero address."
      },
      "name()": {
        "details": "Returns the name of the token."
      },
      "owner()": {
        "details": "Returns the address of the current owner."
      },
      "renounceOwnership()": {
        "details": "Leaves the contract without owner. It will not be possible to call `onlyOwner` functions anymore. Can only be called by the current owner. NOTE: Renouncing ownership will leave the contract without an owner, thereby removing any functionality that is only available to the owner."
      },
      "symbol()": {
        "details": "Returns the symbol of the token, usually a shorter version of the name."
      },
      "totalSupply()": {
        "details": "See {IERC20-totalSupply}."
      },
      "transfer(address,uint256)": {
        "details": "See {IERC20-transfer}. Requirements: - `recipient` cannot be the zero address. - the caller must have a balance of at least `amount`."
      },
      "transferFrom(address,address,uint256)": {
        "details": "See {IERC20-transferFrom}. Emits an {Approval} event indicating the updated allowance. This is not required by the EIP. See the note at the beginning of {ERC20}. Requirements: - `sender` and `recipient` cannot be the zero address. - `sender` must have a balance of at least `amount`. - the caller must have allowance for ``sender``'s tokens of at least `amount`."
      },
      "transferOwnership(address)": {
        "details": "Transfers ownership of the contract to a new account (`newOwner`). Can only be called by the current owner."
      }
    },
    "version": 1
  },
  "userdoc": {
    "kind": "user",
    "methods": {},
    "version": 1
  }
}