{
  "contractName": "VersusStats",
  "abi": [
    {
      "inputs": [],
      "stateMutability": "nonpayable",
      "type": "constructor"
    },
    {
      "inputs": [],
      "name": "initialized",
      "outputs": [
        {
          "internalType": "bool",
          "name": "",
          "type": "bool"
        }
      ],
      "stateMutability": "view",
      "type": "function"
    },
    {
      "inputs": [
        {
          "internalType": "uint256",
          "name": "",
          "type": "uint256"
        }
      ],
      "name": "monthlyWins",
      "outputs": [
        {
          "internalType": "uint256",
          "name": "",
          "type": "uint256"
        }
      ],
      "stateMutability": "view",
      "type": "function"
    },
    {
      "inputs": [],
      "name": "owner",
      "outputs": [
        {
          "internalType": "address",
          "name": "",
          "type": "address"
        }
      ],
      "stateMutability": "view",
      "type": "function"
    },
    {
      "inputs": [],
      "name": "proxiableUUID",
      "outputs": [
        {
          "internalType": "bytes32",
          "name": "",
          "type": "bytes32"
        }
      ],
      "stateMutability": "pure",
      "type": "function"
    },
    {
      "inputs": [
        {
          "internalType": "uint256",
          "name": "",
          "type": "uint256"
        }
      ],
      "name": "topAllTime",
      "outputs": [
        {
          "internalType": "address",
          "name": "",
          "type": "address"
        }
      ],
      "stateMutability": "view",
      "type": "function"
    },
    {
      "inputs": [
        {
          "internalType": "uint256",
          "name": "",
          "type": "uint256"
        }
      ],
      "name": "topAllTimeWins",
      "outputs": [
        {
          "internalType": "uint256",
          "name": "",
          "type": "uint256"
        }
      ],
      "stateMutability": "view",
      "type": "function"
    },
    {
      "inputs": [
        {
          "internalType": "uint256",
          "name": "",
          "type": "uint256"
        }
      ],
      "name": "topMonthly",
      "outputs": [
        {
          "internalType": "address",
          "name": "",
          "type": "address"
        }
      ],
      "stateMutability": "view",
      "type": "function"
    },
    {
      "inputs": [],
      "name": "totalBNBVolume",
      "outputs": [
        {
          "internalType": "uint256",
          "name": "",
          "type": "uint256"
        }
      ],
      "stateMutability": "view",
      "type": "function"
    },
    {
      "inputs": [],
      "name": "versusToken",
      "outputs": [
        {
          "internalType": "address",
          "name": "",
          "type": "address"
        }
      ],
      "stateMutability": "view",
      "type": "function"
    },
    {
      "inputs": [
        {
          "internalType": "address",
          "name": "_versus",
          "type": "address"
        }
      ],
      "name": "statsConstructor",
      "outputs": [],
      "stateMutability": "nonpayable",
      "type": "function"
    },
    {
      "inputs": [
        {
          "internalType": "address",
          "name": "_versusToken",
          "type": "address"
        }
      ],
      "name": "setAddresses",
      "outputs": [],
      "stateMutability": "nonpayable",
      "type": "function"
    },
    {
      "inputs": [
        {
          "internalType": "address",
          "name": "newCode",
          "type": "address"
        }
      ],
      "name": "updateCode",
      "outputs": [],
      "stateMutability": "nonpayable",
      "type": "function"
    },
    {
      "inputs": [],
      "name": "getStats",
      "outputs": [
        {
          "internalType": "uint256",
          "name": "",
          "type": "uint256"
        },
        {
          "internalType": "address[]",
          "name": "",
          "type": "address[]"
        },
        {
          "internalType": "uint256[]",
          "name": "",
          "type": "uint256[]"
        },
        {
          "internalType": "address[]",
          "name": "",
          "type": "address[]"
        },
        {
          "internalType": "uint256[]",
          "name": "",
          "type": "uint256[]"
        }
      ],
      "stateMutability": "view",
      "type": "function"
    },
    {
      "inputs": [
        {
          "internalType": "uint256",
          "name": "_volume",
          "type": "uint256"
        }
      ],
      "name": "updateVolume",
      "outputs": [],
      "stateMutability": "nonpayable",
      "type": "function"
    },
    {
      "inputs": [
        {
          "internalType": "address",
          "name": "user",
          "type": "address"
        },
        {
          "internalType": "uint256",
          "name": "wins",
          "type": "uint256"
        }
      ],
      "name": "adjustMontlyLeaders",
      "outputs": [],
      "stateMutability": "nonpayable",
      "type": "function"
    },
    {
      "inputs": [
        {
          "internalType": "address",
          "name": "user",
          "type": "address"
        },
        {
          "internalType": "uint256",
          "name": "wins",
          "type": "uint256"
        }
      ],
      "name": "adjustAllTimeLeaders",
      "outputs": [],
      "stateMutability": "nonpayable",
      "type": "function"
    }
  ],
  "bytecode": "0x60806040526000805460ff1916905534801561001a57600080fd5b50610c5c8061002a6000396000f3fe608060405234801561001057600080fd5b50600436106101005760003560e01c806360fd330811610097578063c59d484711610066578063c59d4847146101e4578063e06d65d8146101fd578063e247a2e214610210578063e39653101461022357610100565b806360fd3308146101a157806366f0d43d146101c157806381d3c435146101c95780638da5cb5b146101dc57610100565b806325072c98116100d357806325072c9814610160578063469519541461017357806352d1902d1461018657806355f9176f1461018e57610100565b806306df5f3e14610105578063158ef93e14610123578063187051f8146101385780632288d5e91461014d575b600080fd5b61010d610236565b60405161011a9190610afb565b60405180910390f35b61012b61023c565b60405161011a9190610af0565b61014b610146366004610a11565b610245565b005b61014b61015b366004610a11565b610401565b61010d61016e366004610a52565b6105aa565b61014b6101813660046109f7565b6105cb565b61010d610623565b61010d61019c366004610a52565b610647565b6101b46101af366004610a52565b610657565b60405161011a9190610adc565b6101b4610681565b61014b6101d73660046109f7565b610690565b6101b46106ce565b6101ec6106e2565b60405161011a959493929190610b7e565b61014b61020b3660046109f7565b610862565b61014b61021e366004610a52565b6108ac565b6101b4610231366004610a52565b6108d6565b60025481565b60005460ff1681565b6001546001600160a01b0316331461025c57600080fd5b600554600a11156102e4576006805460018082019092557ff652222313e28459528d920b65115c16c04f3efc82aaedc97be59f3f377c0d3f018290556005805491820181556000527f036b6384b5eca791c62761152d0c79bb0604c104a5fb6f4eb0703f3154bb3db00180546001600160a01b0319166001600160a01b0384161790556103fd565b60008060005b60055481101561037b578161032f578092506006818154811061031d57634e487b7160e01b600052603260045260246000fd5b90600052602060002001549150610369565b816006828154811061035157634e487b7160e01b600052603260045260246000fd5b90600052602060002001541015610369578092508091505b8061037381610bf5565b9150506102ea565b50836005838154811061039e57634e487b7160e01b600052603260045260246000fd5b9060005260206000200160006101000a8154816001600160a01b0302191690836001600160a01b0316021790555082600683815481106103ee57634e487b7160e01b600052603260045260246000fd5b60009182526020909120015550505b5050565b6001546001600160a01b0316331461041857600080fd5b600354600a11156104a0576004805460018082019092557f8a35acfbc15ff81a39ae7d344fd709f28e8600b4aa8c65c6b64bfe7fe36bd19b018290556003805491820181556000527fc2575a0e9e593c00f959f8c92f12db2869c3395a3b0502d05e2516446f71f85b0180546001600160a01b0319166001600160a01b0384161790556103fd565b60008060005b60035481101561053757816104eb57809250600481815481106104d957634e487b7160e01b600052603260045260246000fd5b90600052602060002001549150610525565b816004828154811061050d57634e487b7160e01b600052603260045260246000fd5b90600052602060002001541015610525578092508091505b8061052f81610bf5565b9150506104a6565b50836003838154811061055a57634e487b7160e01b600052603260045260246000fd5b9060005260206000200160006101000a8154816001600160a01b0302191690836001600160a01b0316021790555082600483815481106103ee57634e487b7160e01b600052603260045260246000fd5b600681815481106105ba57600080fd5b600091825260209091200154905081565b60005461010090046001600160a01b031633146105e757600080fd5b60005460ff1615156001146106175760405162461bcd60e51b815260040161060e90610b2c565b60405180910390fd5b610620816108e6565b50565b7fc5f16f0fcc639fa48a6947836d9850f504798523bf8c9a3a87d5876cf622bcf790565b600481815481106105ba57600080fd5b6003818154811061066757600080fd5b6000918252602090912001546001600160a01b0316905081565b6001546001600160a01b031681565b60005461010090046001600160a01b031633146106ac57600080fd5b600180546001600160a01b0319166001600160a01b0392909216919091179055565b60005461010090046001600160a01b031681565b600060608060608060025460036004600560068380548060200260200160405190810160405280929190818152602001828054801561074a57602002820191906000526020600020905b81546001600160a01b0316815260019091019060200180831161072c575b505050505093508280548060200260200160405190810160405280929190818152602001828054801561079c57602002820191906000526020600020905b815481526020019060010190808311610788575b50505050509250818054806020026020016040519081016040528092919081815260200182805480156107f857602002820191906000526020600020905b81546001600160a01b031681526001909101906020018083116107da575b505050505091508080548060200260200160405190810160405280929190818152602001828054801561084a57602002820191906000526020600020905b815481526020019060010190808311610836575b50505050509050945094509450945094509091929394565b60005460ff161561087257600080fd5b60008054610100600160a81b0319163361010002179055600180546001600160a01b0319166001600160a01b0383161790556106206109b9565b6001546001600160a01b031633146108c357600080fd5b6002546108d090826109c8565b60025550565b6005818154811061066757600080fd5b806001600160a01b03166352d1902d6040518163ffffffff1660e01b815260040160206040518083038186803b15801561091f57600080fd5b505afa158015610933573d6000803e3d6000fd5b505050506040513d601f19601f820116820180604052508101906109579190610a3a565b7fc5f16f0fcc639fa48a6947836d9850f504798523bf8c9a3a87d5876cf622bcf7146109955760405162461bcd60e51b815260040161060e90610b04565b7fc5f16f0fcc639fa48a6947836d9850f504798523bf8c9a3a87d5876cf622bcf755565b6000805460ff19166001179055565b60006109d48284610bdd565b9392505050565b80356001600160a01b03811681146109f257600080fd5b919050565b600060208284031215610a08578081fd5b6109d4826109db565b60008060408385031215610a23578081fd5b610a2c836109db565b946020939093013593505050565b600060208284031215610a4b578081fd5b5051919050565b600060208284031215610a63578081fd5b5035919050565b6000815180845260208085019450808401835b83811015610aa25781516001600160a01b031687529582019590820190600101610a7d565b509495945050505050565b6000815180845260208085019450808401835b83811015610aa257815187529582019590820190600101610ac0565b6001600160a01b0391909116815260200190565b901515815260200190565b90815260200190565b6020808252600e908201526d4e6f7420636f6d70617469626c6560901b604082015260600190565b60208082526032908201527f546865206c696272617279206973206c6f636b65642e204e6f206469726563746040820152710809d8d85b1b09c81a5cc8185b1b1bddd95960721b606082015260800190565b600086825260a06020830152610b9760a0830187610a6a565b8281036040840152610ba98187610aad565b90508281036060840152610bbd8186610a6a565b90508281036080840152610bd18185610aad565b98975050505050505050565b60008219821115610bf057610bf0610c10565b500190565b6000600019821415610c0957610c09610c10565b5060010190565b634e487b7160e01b600052601160045260246000fdfea26469706673582212206af988487931d0990b7a4fcd178b47682d3538c087ca8f4dfa8eddd589d4536764736f6c63430008000033",
  "immutableReferences": {},
  "source": "pragma solidity ^0.8.0;\r\n\r\npragma solidity ^0.8.0;\r\n\r\n// CAUTION\r\n// This version of SafeMath should only be used with Solidity 0.8 or later,\r\n// because it relies on the compiler's built in overflow checks.\r\n\r\n/**\r\n * @dev Wrappers over Solidity's arithmetic operations.\r\n *\r\n * NOTE: `SafeMath` is no longer needed starting with Solidity 0.8. The compiler\r\n * now has built in overflow checking.\r\n */\r\nlibrary SafeMath {\r\n    /**\r\n     * @dev Returns the addition of two unsigned integers, with an overflow flag.\r\n     *\r\n     * _Available since v3.4._\r\n     */\r\n    function tryAdd(uint256 a, uint256 b) internal pure returns (bool, uint256) {\r\n        unchecked {\r\n            uint256 c = a + b;\r\n            if (c < a) return (false, 0);\r\n            return (true, c);\r\n        }\r\n    }\r\n\r\n    /**\r\n     * @dev Returns the substraction of two unsigned integers, with an overflow flag.\r\n     *\r\n     * _Available since v3.4._\r\n     */\r\n    function trySub(uint256 a, uint256 b) internal pure returns (bool, uint256) {\r\n        unchecked {\r\n            if (b > a) return (false, 0);\r\n            return (true, a - b);\r\n        }\r\n    }\r\n\r\n    /**\r\n     * @dev Returns the multiplication of two unsigned integers, with an overflow flag.\r\n     *\r\n     * _Available since v3.4._\r\n     */\r\n    function tryMul(uint256 a, uint256 b) internal pure returns (bool, uint256) {\r\n        unchecked {\r\n            // Gas optimization: this is cheaper than requiring 'a' not being zero, but the\r\n            // benefit is lost if 'b' is also tested.\r\n            // See: https://github.com/OpenZeppelin/openzeppelin-contracts/pull/522\r\n            if (a == 0) return (true, 0);\r\n            uint256 c = a * b;\r\n            if (c / a != b) return (false, 0);\r\n            return (true, c);\r\n        }\r\n    }\r\n\r\n    /**\r\n     * @dev Returns the division of two unsigned integers, with a division by zero flag.\r\n     *\r\n     * _Available since v3.4._\r\n     */\r\n    function tryDiv(uint256 a, uint256 b) internal pure returns (bool, uint256) {\r\n        unchecked {\r\n            if (b == 0) return (false, 0);\r\n            return (true, a / b);\r\n        }\r\n    }\r\n\r\n    /**\r\n     * @dev Returns the remainder of dividing two unsigned integers, with a division by zero flag.\r\n     *\r\n     * _Available since v3.4._\r\n     */\r\n    function tryMod(uint256 a, uint256 b) internal pure returns (bool, uint256) {\r\n        unchecked {\r\n            if (b == 0) return (false, 0);\r\n            return (true, a % b);\r\n        }\r\n    }\r\n\r\n    /**\r\n     * @dev Returns the addition of two unsigned integers, reverting on\r\n     * overflow.\r\n     *\r\n     * Counterpart to Solidity's `+` operator.\r\n     *\r\n     * Requirements:\r\n     *\r\n     * - Addition cannot overflow.\r\n     */\r\n    function add(uint256 a, uint256 b) internal pure returns (uint256) {\r\n        return a + b;\r\n    }\r\n\r\n    /**\r\n     * @dev Returns the subtraction of two unsigned integers, reverting on\r\n     * overflow (when the result is negative).\r\n     *\r\n     * Counterpart to Solidity's `-` operator.\r\n     *\r\n     * Requirements:\r\n     *\r\n     * - Subtraction cannot overflow.\r\n     */\r\n    function sub(uint256 a, uint256 b) internal pure returns (uint256) {\r\n        return a - b;\r\n    }\r\n\r\n    /**\r\n     * @dev Returns the multiplication of two unsigned integers, reverting on\r\n     * overflow.\r\n     *\r\n     * Counterpart to Solidity's `*` operator.\r\n     *\r\n     * Requirements:\r\n     *\r\n     * - Multiplication cannot overflow.\r\n     */\r\n    function mul(uint256 a, uint256 b) internal pure returns (uint256) {\r\n        return a * b;\r\n    }\r\n\r\n    /**\r\n     * @dev Returns the integer division of two unsigned integers, reverting on\r\n     * division by zero. The result is rounded towards zero.\r\n     *\r\n     * Counterpart to Solidity's `/` operator.\r\n     *\r\n     * Requirements:\r\n     *\r\n     * - The divisor cannot be zero.\r\n     */\r\n    function div(uint256 a, uint256 b) internal pure returns (uint256) {\r\n        return a / b;\r\n    }\r\n\r\n    /**\r\n     * @dev Returns the remainder of dividing two unsigned integers. (unsigned integer modulo),\r\n     * reverting when dividing by zero.\r\n     *\r\n     * Counterpart to Solidity's `%` operator. This function uses a `revert`\r\n     * opcode (which leaves remaining gas untouched) while Solidity uses an\r\n     * invalid opcode to revert (consuming all remaining gas).\r\n     *\r\n     * Requirements:\r\n     *\r\n     * - The divisor cannot be zero.\r\n     */\r\n    function mod(uint256 a, uint256 b) internal pure returns (uint256) {\r\n        return a % b;\r\n    }\r\n\r\n    /**\r\n     * @dev Returns the subtraction of two unsigned integers, reverting with custom message on\r\n     * overflow (when the result is negative).\r\n     *\r\n     * CAUTION: This function is deprecated because it requires allocating memory for the error\r\n     * message unnecessarily. For custom revert reasons use {trySub}.\r\n     *\r\n     * Counterpart to Solidity's `-` operator.\r\n     *\r\n     * Requirements:\r\n     *\r\n     * - Subtraction cannot overflow.\r\n     */\r\n    function sub(\r\n        uint256 a,\r\n        uint256 b,\r\n        string memory errorMessage\r\n    ) internal pure returns (uint256) {\r\n        unchecked {\r\n            require(b <= a, errorMessage);\r\n            return a - b;\r\n        }\r\n    }\r\n\r\n    /**\r\n     * @dev Returns the integer division of two unsigned integers, reverting with custom message on\r\n     * division by zero. The result is rounded towards zero.\r\n     *\r\n     * Counterpart to Solidity's `/` operator. Note: this function uses a\r\n     * `revert` opcode (which leaves remaining gas untouched) while Solidity\r\n     * uses an invalid opcode to revert (consuming all remaining gas).\r\n     *\r\n     * Requirements:\r\n     *\r\n     * - The divisor cannot be zero.\r\n     */\r\n    function div(\r\n        uint256 a,\r\n        uint256 b,\r\n        string memory errorMessage\r\n    ) internal pure returns (uint256) {\r\n        unchecked {\r\n            require(b > 0, errorMessage);\r\n            return a / b;\r\n        }\r\n    }\r\n\r\n    /**\r\n     * @dev Returns the remainder of dividing two unsigned integers. (unsigned integer modulo),\r\n     * reverting with custom message when dividing by zero.\r\n     *\r\n     * CAUTION: This function is deprecated because it requires allocating memory for the error\r\n     * message unnecessarily. For custom revert reasons use {tryMod}.\r\n     *\r\n     * Counterpart to Solidity's `%` operator. This function uses a `revert`\r\n     * opcode (which leaves remaining gas untouched) while Solidity uses an\r\n     * invalid opcode to revert (consuming all remaining gas).\r\n     *\r\n     * Requirements:\r\n     *\r\n     * - The divisor cannot be zero.\r\n     */\r\n    function mod(\r\n        uint256 a,\r\n        uint256 b,\r\n        string memory errorMessage\r\n    ) internal pure returns (uint256) {\r\n        unchecked {\r\n            require(b > 0, errorMessage);\r\n            return a % b;\r\n        }\r\n    }\r\n}\r\n\r\ninterface IBEP20 {\r\n  /**\r\n   * @dev Returns the amount of tokens in existence.\r\n   */\r\n  function totalSupply() external view returns (uint256);\r\n\r\n  /**\r\n   * @dev Returns the token decimals.\r\n   */\r\n  function decimals() external view returns (uint8);\r\n\r\n  /**\r\n   * @dev Returns the token symbol.\r\n   */\r\n  function symbol() external view returns (string memory);\r\n\r\n  /**\r\n  * @dev Returns the token name.\r\n  */\r\n  function name() external view returns (string memory);\r\n\r\n  /**\r\n   * @dev Returns the bep token owner.\r\n   */\r\n  function getOwner() external view returns (address);\r\n\r\n  /**\r\n   * @dev Returns the amount of tokens owned by `account`.\r\n   */\r\n  function balanceOf(address account) external view returns (uint256);\r\n\r\n  /**\r\n   * @dev Moves `amount` tokens from the caller's account to `recipient`.\r\n   *\r\n   * Returns a boolean value indicating whether the operation succeeded.\r\n   *\r\n   * Emits a {Transfer} event.\r\n   */\r\n  function transfer(address recipient, uint256 amount) external returns (bool);\r\n\r\n  /**\r\n   * @dev Returns the remaining number of tokens that `spender` will be\r\n   * allowed to spend on behalf of `owner` through {transferFrom}. This is\r\n   * zero by default.\r\n   *\r\n   * This value changes when {approve} or {transferFrom} are called.\r\n   */\r\n  function allowance(address _owner, address spender) external view returns (uint256);\r\n\r\n  /**\r\n   * @dev Sets `amount` as the allowance of `spender` over the caller's tokens.\r\n   *\r\n   * Returns a boolean value indicating whether the operation succeeded.\r\n   *\r\n   * IMPORTANT: Beware that changing an allowance with this method brings the risk\r\n   * that someone may use both the old and the new allowance by unfortunate\r\n   * transaction ordering. One possible solution to mitigate this race\r\n   * condition is to first reduce the spender's allowance to 0 and set the\r\n   * desired value afterwards:\r\n   * https://github.com/ethereum/EIPs/issues/20#issuecomment-263524729\r\n   *\r\n   * Emits an {Approval} event.\r\n   */\r\n  function approve(address spender, uint256 amount) external returns (bool);\r\n\r\n  /**\r\n   * @dev Moves `amount` tokens from `sender` to `recipient` using the\r\n   * allowance mechanism. `amount` is then deducted from the caller's\r\n   * allowance.\r\n   *\r\n   * Returns a boolean value indicating whether the operation succeeded.\r\n   *\r\n   * Emits a {Transfer} event.\r\n   */\r\n  function transferFrom(address sender, address recipient, uint256 amount) external returns (bool);\r\n\r\n  /**\r\n   * @dev Emitted when `value` tokens are moved from one account (`from`) to\r\n   * another (`to`).\r\n   *\r\n   * Note that `value` may be zero.\r\n   */\r\n  event Transfer(address indexed from, address indexed to, uint256 value);\r\n\r\n  /**\r\n   * @dev Emitted when the allowance of a `spender` for an `owner` is set by\r\n   * a call to {approve}. `value` is the new allowance.\r\n   */\r\n  event Approval(address indexed owner, address indexed spender, uint256 value);\r\n}\r\n\r\n/**\r\n * @dev Provides information about the current execution context, including the\r\n * sender of the transaction and its data. While these are generally available\r\n * via msg.sender and msg.data, they should not be accessed in such a direct\r\n * manner, since when dealing with meta-transactions the account sending and\r\n * paying for execution may not be the actual sender (as far as an application\r\n * is concerned).\r\n *\r\n * This contract is only required for intermediate, library-like contracts.\r\n */\r\ncontract Context {\r\n    function _msgSender() internal view virtual returns (address) {\r\n        return msg.sender;\r\n    }\r\n\r\n    // function _msgData() internal view virtual returns (bytes calldata) {\r\n    //     return msg.data;\r\n    // }\r\n}\r\n\r\n\r\n\r\n// SPDX-License-Identifier: MIT\r\n\r\npragma solidity ^0.8.0;\r\n\r\n/**\r\n * @dev Contract module which provides a basic access control mechanism, where\r\n * there is an account (an owner) that can be granted exclusive access to\r\n * specific functions.\r\n *\r\n * By default, the owner account will be the one that deploys the contract. This\r\n * can later be changed with {transferOwnership}.\r\n *\r\n * This module is used through inheritance. It will make available the modifier\r\n * `onlyOwner`, which can be applied to your functions to restrict their use to\r\n * the owner.\r\n */\r\ncontract Ownable is Context {\r\n    address private _owner;\r\n\r\n    event OwnershipTransferred(address indexed previousOwner, address indexed newOwner);\r\n\r\n    /**\r\n     * @dev Initializes the contract setting the deployer as the initial owner.\r\n     */\r\n    constructor() {\r\n        _setOwner(_msgSender());\r\n    }\r\n\r\n    /**\r\n     * @dev Returns the address of the current owner.\r\n     */\r\n    function owner() public view virtual returns (address) {\r\n        return _owner;\r\n    }\r\n\r\n    /**\r\n     * @dev Throws if called by any account other than the owner.\r\n     */\r\n    modifier onlyOwner() {\r\n        require(owner() == _msgSender(), \"Ownable: caller is not the owner\");\r\n        _;\r\n    }\r\n\r\n    /**\r\n     * @dev Leaves the contract without owner. It will not be possible to call\r\n     * `onlyOwner` functions anymore. Can only be called by the current owner.\r\n     *\r\n     * NOTE: Renouncing ownership will leave the contract without an owner,\r\n     * thereby removing any functionality that is only available to the owner.\r\n     */\r\n    function renounceOwnership() public virtual onlyOwner {\r\n        _setOwner(address(0));\r\n    }\r\n\r\n    /**\r\n     * @dev Transfers ownership of the contract to a new account (`newOwner`).\r\n     * Can only be called by the current owner.\r\n     */\r\n    function transferOwnership(address newOwner) public virtual onlyOwner {\r\n        require(newOwner != address(0), \"Ownable: new owner is the zero address\");\r\n        _setOwner(newOwner);\r\n    }\r\n\r\n    function _setOwner(address newOwner) private {\r\n        address oldOwner = _owner;\r\n        _owner = newOwner;\r\n        emit OwnershipTransferred(oldOwner, newOwner);\r\n    }\r\n}\r\n\r\ncontract BEP20 is Ownable, IBEP20 {\r\n    using SafeMath for uint256;\r\n\r\n    mapping (address => uint256) private _balances;\r\n\r\n    mapping (address => mapping (address => uint256)) private _allowances;\r\n\r\n    uint256 private _totalSupply;\r\n\r\n    string private _name;\r\n    string private _symbol;\r\n    uint8 private _decimals;\r\n\r\n    /**\r\n     * @dev Sets the values for {name} and {symbol}, initializes {decimals} with\r\n     * a default value of 18.\r\n     *\r\n     * To select a different value for {decimals}, use {_setupDecimals}.\r\n     *\r\n     * All three of these values are immutable: they can only be set once during\r\n     * construction.\r\n     */\r\n    // constructor (string memory name, string memory symbol) {\r\n    //     _name = name;\r\n    //     _symbol = symbol;\r\n    //     _decimals = 18;\r\n    // }\r\n    \r\n    function constructor1 (string memory name, string memory symbol) internal {\r\n        _name = name;\r\n        _symbol = symbol;\r\n        _decimals = 18;\r\n    }\r\n\r\n     /**\r\n     * @dev Returns the name of the token.\r\n     */\r\n    function name() public view virtual override returns (string memory) {\r\n        return _name;\r\n    }\r\n\r\n    /**\r\n     * @dev Returns the symbol of the token, usually a shorter version of the\r\n     * name.\r\n     */\r\n    function symbol() public view virtual override returns (string memory) {\r\n        return _symbol;\r\n    }\r\n\r\n    function getOwner() public view virtual override returns (address) {\r\n        return owner();\r\n    }\r\n\r\n    /**\r\n     * @dev Returns the number of decimals used to get its user representation.\r\n     * For example, if `decimals` equals `2`, a balance of `505` tokens should\r\n     * be displayed to a user as `5,05` (`505 / 10 ** 2`).\r\n     *\r\n     * Tokens usually opt for a value of 18, imitating the relationship between\r\n     * Ether and Wei. This is the value {ERC20} uses, unless {_setupDecimals} is\r\n     * called.\r\n     *\r\n     * NOTE: This information is only used for _display_ purposes: it in\r\n     * no way affects any of the arithmetic of the contract, including\r\n     * {IERC20-balanceOf} and {IERC20-transfer}.\r\n     */\r\n    function decimals() public view virtual override returns (uint8) {\r\n        return _decimals;\r\n    }\r\n\r\n    /**\r\n     * @dev See {IERC20-totalSupply}.\r\n     */\r\n    function totalSupply() public view virtual override returns (uint256) {\r\n        return _totalSupply;\r\n    }\r\n\r\n    /**\r\n     * @dev See {IERC20-balanceOf}.\r\n     */\r\n    function balanceOf(address account) public virtual view override returns (uint256) {\r\n        return _balances[account];\r\n    }\r\n\r\n    /**\r\n     * @dev See {IERC20-transfer}.\r\n     *\r\n     * Requirements:\r\n     *\r\n     * - `recipient` cannot be the zero address.\r\n     * - the caller must have a balance of at least `amount`.\r\n     */\r\n    function transfer(address recipient, uint256 amount) public virtual override returns (bool) {\r\n        _transfer(_msgSender(), recipient, amount);\r\n        return true;\r\n    }\r\n\r\n    /**\r\n     * @dev See {IERC20-allowance}.\r\n     */\r\n    function allowance(address _owner, address spender) public view virtual override returns (uint256) {\r\n        return _allowances[_owner][spender];\r\n    }\r\n    \r\n\r\n    /**\r\n     * @dev See {IERC20-approve}.\r\n     *\r\n     * Requirements:\r\n     *\r\n     * - `spender` cannot be the zero address.\r\n     */\r\n    function approve(address spender, uint256 amount) public virtual override returns (bool) {\r\n        _approve(_msgSender(), spender, amount);\r\n        return true;\r\n    }\r\n\r\n    /**\r\n     * @dev See {IERC20-transferFrom}.\r\n     *\r\n     * Emits an {Approval} event indicating the updated allowance. This is not\r\n     * required by the EIP. See the note at the beginning of {ERC20}.\r\n     *\r\n     * Requirements:\r\n     *\r\n     * - `sender` and `recipient` cannot be the zero address.\r\n     * - `sender` must have a balance of at least `amount`.\r\n     * - the caller must have allowance for ``sender``'s tokens of at least\r\n     * `amount`.\r\n     */\r\n    function transferFrom(address sender, address recipient, uint256 amount) public virtual override returns (bool) {\r\n        _transfer(sender, recipient, amount);\r\n        _approve(sender, _msgSender(), _allowances[sender][_msgSender()].sub(amount, \"ERC20: transfer amount exceeds allowance\"));\r\n        return true;\r\n    }\r\n\r\n    /**\r\n     * @dev Atomically increases the allowance granted to `spender` by the caller.\r\n     *\r\n     * This is an alternative to {approve} that can be used as a mitigation for\r\n     * problems described in {IERC20-approve}.\r\n     *\r\n     * Emits an {Approval} event indicating the updated allowance.\r\n     *\r\n     * Requirements:\r\n     *\r\n     * - `spender` cannot be the zero address.\r\n     */\r\n    function increaseAllowance(address spender, uint256 addedValue) public virtual returns (bool) {\r\n        _approve(_msgSender(), spender, _allowances[_msgSender()][spender].add(addedValue));\r\n        return true;\r\n    }\r\n\r\n    /**\r\n     * @dev Atomically decreases the allowance granted to `spender` by the caller.\r\n     *\r\n     * This is an alternative to {approve} that can be used as a mitigation for\r\n     * problems described in {IERC20-approve}.\r\n     *\r\n     * Emits an {Approval} event indicating the updated allowance.\r\n     *\r\n     * Requirements:\r\n     *\r\n     * - `spender` cannot be the zero address.\r\n     * - `spender` must have allowance for the caller of at least\r\n     * `subtractedValue`.\r\n     */\r\n    function decreaseAllowance(address spender, uint256 subtractedValue) public virtual returns (bool) {\r\n        _approve(_msgSender(), spender, _allowances[_msgSender()][spender].sub(subtractedValue, \"ERC20: decreased allowance below zero\"));\r\n        return true;\r\n    }\r\n\r\n    /**\r\n     * @dev Moves tokens `amount` from `sender` to `recipient`.\r\n     *\r\n     * This is internal function is equivalent to {transfer}, and can be used to\r\n     * e.g. implement automatic token fees, slashing mechanisms, etc.\r\n     *\r\n     * Emits a {Transfer} event.\r\n     *\r\n     * Requirements:\r\n     *\r\n     * - `sender` cannot be the zero address.\r\n     * - `recipient` cannot be the zero address.\r\n     * - `sender` must have a balance of at least `amount`.\r\n     */\r\n    function _transfer(address sender, address recipient, uint256 amount) internal virtual {\r\n        require(sender != address(0), \"ERC20: transfer from the zero address\");\r\n        require(recipient != address(0), \"ERC20: transfer to the zero address\");\r\n\r\n        _beforeTokenTransfer(sender, recipient, amount);\r\n\r\n        _balances[sender] = _balances[sender].sub(amount, \"ERC20: transfer amount exceeds balance\");\r\n        _balances[recipient] = _balances[recipient].add(amount);\r\n        emit Transfer(sender, recipient, amount);\r\n    }\r\n\r\n    /** @dev Creates `amount` tokens and assigns them to `account`, increasing\r\n     * the total supply.\r\n     *\r\n     * Emits a {Transfer} event with `from` set to the zero address.\r\n     *\r\n     * Requirements:\r\n     *\r\n     * - `to` cannot be the zero address.\r\n     */\r\n    function _mint(address account, uint256 amount) internal virtual {\r\n        require(account != address(0), \"ERC20: mint to the zero address\");\r\n\r\n        _beforeTokenTransfer(address(0), account, amount);\r\n\r\n        _totalSupply = _totalSupply.add(amount);\r\n        _balances[account] = _balances[account].add(amount);\r\n        emit Transfer(address(0), account, amount);\r\n    }\r\n\r\n    /**\r\n     * @dev Destroys `amount` tokens from `account`, reducing the\r\n     * total supply.\r\n     *\r\n     * Emits a {Transfer} event with `to` set to the zero address.\r\n     *\r\n     * Requirements:\r\n     *\r\n     * - `account` cannot be the zero address.\r\n     * - `account` must have at least `amount` tokens.\r\n     */\r\n    function _burn(address account, uint256 amount) internal virtual {\r\n        require(account != address(0), \"ERC20: burn from the zero address\");\r\n\r\n        _beforeTokenTransfer(account, address(0), amount);\r\n\r\n        _balances[account] = _balances[account].sub(amount, \"ERC20: burn amount exceeds balance\");\r\n        _totalSupply = _totalSupply.sub(amount);\r\n        emit Transfer(account, address(0), amount);\r\n    }\r\n\r\n    /**\r\n     * @dev Sets `amount` as the allowance of `spender` over the `owner` s tokens.\r\n     *\r\n     * This internal function is equivalent to `approve`, and can be used to\r\n     * e.g. set automatic allowances for certain subsystems, etc.\r\n     *\r\n     * Emits an {Approval} event.\r\n     *\r\n     * Requirements:\r\n     *\r\n     * - `owner` cannot be the zero address.\r\n     * - `spender` cannot be the zero address.\r\n     */\r\n    function _approve(address owner, address spender, uint256 amount) internal virtual {\r\n        require(owner != address(0), \"ERC20: approve from the zero address\");\r\n        require(spender != address(0), \"ERC20: approve to the zero address\");\r\n\r\n        _allowances[owner][spender] = amount;\r\n        emit Approval(owner, spender, amount);\r\n    }\r\n\r\n    /**\r\n     * @dev Sets {decimals} to a value other than the default one of 18.\r\n     *\r\n     * WARNING: This function should only be called from the constructor. Most\r\n     * applications that interact with token contracts will not expect\r\n     * {decimals} to ever change, and may work incorrectly if it does.\r\n     */\r\n    function _setupDecimals(uint8 decimals_) internal {\r\n        _decimals = decimals_;\r\n    }\r\n\r\n    /**\r\n     * @dev Hook that is called before any transfer of tokens. This includes\r\n     * minting and burning.\r\n     *\r\n     * Calling conditions:\r\n     *\r\n     * - when `from` and `to` are both non-zero, `amount` of ``from``'s tokens\r\n     * will be to transferred to `to`.\r\n     * - when `from` is zero, `amount` tokens will be minted for `to`.\r\n     * - when `to` is zero, `amount` of ``from``'s tokens will be burned.\r\n     * - `from` and `to` are never both zero.\r\n     *\r\n     * To learn more about hooks, head to xref:ROOT:extending-contracts.adoc#using-hooks[Using Hooks].\r\n     */\r\n    function _beforeTokenTransfer(address from, address to, uint256 amount) internal virtual { }\r\n\r\n}\r\n\r\ncontract Proxiable {\r\n    // Code position in storage is keccak256(\"PROXIABLE\") = \"0xc5f16f0fcc639fa48a6947836d9850f504798523bf8c9a3a87d5876cf622bcf7\"\r\n\r\n    function updateCodeAddress(address newAddress) internal {\r\n        require(\r\n            bytes32(0xc5f16f0fcc639fa48a6947836d9850f504798523bf8c9a3a87d5876cf622bcf7) == Proxiable(newAddress).proxiableUUID(),\r\n            \"Not compatible\"\r\n        );\r\n        assembly { // solium-disable-line\r\n            sstore(0xc5f16f0fcc639fa48a6947836d9850f504798523bf8c9a3a87d5876cf622bcf7, newAddress)\r\n        }\r\n    }\r\n    function proxiableUUID() public pure returns (bytes32) {\r\n        return 0xc5f16f0fcc639fa48a6947836d9850f504798523bf8c9a3a87d5876cf622bcf7;\r\n    }\r\n}\r\n\r\ncontract LibraryLockDataLayout {\r\n  bool public initialized = false;\r\n}\r\n\r\ncontract LibraryLock is LibraryLockDataLayout {\r\n    // Ensures no one can manipulate the Logic Contract once it is deployed.\r\n    // PARITY WALLET HACK PREVENTION\r\n\r\n    modifier delegatedOnly() {\r\n        require(initialized == true, \"The library is locked. No direct 'call' is allowed\");\r\n        _;\r\n    }\r\n    function initialize() internal {\r\n        initialized = true;\r\n    }\r\n}\r\n\r\ncontract DataLayout is LibraryLock {\r\n    address public owner;\r\n    address public versusToken;\r\n\r\n    uint256 public totalBNBVolume;\r\n\r\n    address[] public topMonthly;\r\n    uint256[] public monthlyWins;\r\n\r\n    address[] public topAllTime;\r\n    uint256[] public topAllTimeWins;\r\n}\r\n\r\ncontract VersusStats is DataLayout, Proxiable {\r\n    \r\n    using SafeMath for uint256;\r\n\r\n    modifier onlyVersus() {\r\n        require(msg.sender == versusToken);\r\n        _;\r\n    }\r\n\r\n    modifier onlyOwner() {\r\n        require(msg.sender == owner);\r\n        _;\r\n    }\r\n\r\n    constructor() public {\r\n        \r\n    }\r\n\r\n    function statsConstructor(address _versus) public {\r\n        require(!initialized);\r\n        owner = msg.sender;\r\n        versusToken = _versus;\r\n        initialize();\r\n    }\r\n\r\n    function setAddresses(address _versusToken) public onlyOwner {\r\n        versusToken = _versusToken;\r\n    }\r\n    \r\n    function updateCode(address newCode) public onlyOwner delegatedOnly  {\r\n        updateCodeAddress(newCode);\r\n    }\r\n    \r\n    function getStats() public view returns(uint256, address[] memory, uint256[] memory, address[] memory, uint256[] memory) {\r\n        return(\r\n            totalBNBVolume,\r\n            topMonthly,\r\n            monthlyWins,\r\n            topAllTime,\r\n            topAllTimeWins\r\n        );\r\n    }\r\n\r\n    function updateVolume(uint256 _volume) public onlyVersus {\r\n        totalBNBVolume = totalBNBVolume.add(_volume);\r\n    }\r\n\r\n    function adjustMontlyLeaders(address user, uint256 wins) public onlyVersus {\r\n\r\n        if (topMonthly.length < 10) {\r\n            monthlyWins.push(wins);\r\n            topMonthly.push(user);\r\n            return;\r\n        } else {\r\n            uint lowestIndex;\r\n            uint256 lowestWins;\r\n            for (uint256 i; i < topMonthly.length; i++) {\r\n                if (lowestWins == 0) {\r\n                    lowestIndex = i;\r\n                    lowestWins = monthlyWins[i]; \r\n                } else if (monthlyWins[i] < lowestWins) {\r\n                    lowestIndex = i;\r\n                    lowestWins = i;\r\n                }\r\n            }\r\n            topMonthly[lowestIndex] = user;\r\n            monthlyWins[lowestIndex] = wins;\r\n        }\r\n\r\n    }\r\n\r\n    function adjustAllTimeLeaders(address user, uint256 wins) public onlyVersus {\r\n\r\n        if (topAllTime.length < 10) {\r\n            topAllTimeWins.push(wins);\r\n            topAllTime.push(user);\r\n            return;\r\n        } else {\r\n            uint lowestIndex;\r\n            uint256 lowestWins;\r\n            for (uint256 i; i < topAllTime.length; i++) {\r\n                if (lowestWins == 0) {\r\n                    lowestIndex = i;\r\n                    lowestWins = topAllTimeWins[i]; \r\n                } else if (topAllTimeWins[i] < lowestWins) {\r\n                    lowestIndex = i;\r\n                    lowestWins = i;\r\n                }\r\n            }\r\n            topAllTime[lowestIndex] = user;\r\n            topAllTimeWins[lowestIndex] = wins;\r\n        }\r\n    }\r\n    \r\n}",
  "sourcePath": "C:/Users/razgriz/Documents/GitHub/Versus/contracts/contracts/StatsTracker.sol",
  "compiler": {
    "name": "solc",
    "version": "0.8.0+commit.c7dfd78e.Emscripten.clang"
  },
  "schemaVersion": "3.3.3",
  "updatedAt": "2021-10-24T22:41:30.176Z",
  "devdoc": {
    "kind": "dev",
    "methods": {},
    "version": 1
  },
  "userdoc": {
    "kind": "user",
    "methods": {},
    "version": 1
  }
}